{
  "contractName": "Approvable",
  "abi": [
    {
      "constant": false,
      "inputs": [
        {
          "name": "_address",
          "type": "address"
        }
      ],
      "name": "revokeApproval",
      "outputs": [],
      "payable": false,
      "stateMutability": "nonpayable",
      "type": "function"
    },
    {
      "constant": true,
      "inputs": [
        {
          "name": "",
          "type": "address"
        }
      ],
      "name": "approved",
      "outputs": [
        {
          "name": "",
          "type": "bool"
        }
      ],
      "payable": false,
      "stateMutability": "view",
      "type": "function"
    },
    {
      "constant": false,
      "inputs": [
        {
          "name": "_address",
          "type": "address"
        }
      ],
      "name": "approve",
      "outputs": [],
      "payable": false,
      "stateMutability": "nonpayable",
      "type": "function"
    },
    {
      "inputs": [],
      "payable": false,
      "stateMutability": "nonpayable",
      "type": "constructor"
    }
  ],
  "bytecode": "0x6060604052341561000f57600080fd5b600160a060020a0333166000908152602081905260409020805460ff191660011790556101cc806100416000396000f3006060604052600436106100565763ffffffff7c0100000000000000000000000000000000000000000000000000000000600035041663484685b0811461005b578063d8b964e61461007c578063daea85c5146100af575b600080fd5b341561006657600080fd5b61007a600160a060020a03600435166100ce565b005b341561008757600080fd5b61009b600160a060020a036004351661012b565b604051901515815260200160405180910390f35b34156100ba57600080fd5b61007a600160a060020a0360043516610140565b600160a060020a03331660009081526020819052604090205460ff1615156100f557600080fd5b600160a060020a038116151561010a57600080fd5b600160a060020a03166000908152602081905260409020805460ff19169055565b60006020819052908152604090205460ff1681565b600160a060020a03331660009081526020819052604090205460ff16151561016757600080fd5b600160a060020a038116151561017c57600080fd5b600160a060020a03166000908152602081905260409020805460ff191660011790555600a165627a7a723058205f1758ac2d5ca765805cafaeb7bbf870a3b244ffa31582a7e265557b31e1d1a10029",
  "source": "pragma solidity ^0.4.17;\n\n\ncontract Approvable {\n\n  mapping(address => bool) public approved;\n\n  function Approvable() public {\n    approved[msg.sender] = true;\n  }\n\n  function approve(address _address) public onlyApproved {\n    require(_address != address(0));\n    approved[_address] = true;\n  }\n\n  function revokeApproval(address _address) external onlyApproved {\n    require(_address != address(0));\n    approved[_address] = false;\n  }\n\n  modifier onlyApproved() {\n    require(approved[msg.sender]);\n    _;\n  }\n}\n",
  "sourcePath": "/Users/john/distense-contracts/contracts/lib/Approvable.sol",
  "compiler": {
    "name": "solc",
    "version": "0.4.18+commit.9cf6e910.Emscripten.clang"
  },
  "schemaVersion": "1.0.1",
  "updatedAt": "2018-01-07T15:28:17.395Z"
}