{
  "contractName": "Approvable",
  "abi": [
    {
      "constant": false,
      "inputs": [
        {
          "name": "_address",
          "type": "address"
        }
      ],
      "name": "revokeApproval",
      "outputs": [],
      "payable": false,
      "stateMutability": "nonpayable",
      "type": "function"
    },
    {
      "constant": true,
      "inputs": [
        {
          "name": "",
          "type": "address"
        }
      ],
      "name": "approved",
      "outputs": [
        {
          "name": "",
          "type": "bool"
        }
      ],
      "payable": false,
      "stateMutability": "view",
      "type": "function"
    },
    {
      "constant": false,
      "inputs": [
        {
          "name": "_address",
          "type": "address"
        }
      ],
      "name": "approve",
      "outputs": [],
      "payable": false,
      "stateMutability": "nonpayable",
      "type": "function"
    },
    {
      "inputs": [],
      "payable": false,
      "stateMutability": "nonpayable",
      "type": "constructor"
    }
  ],
  "bytecode": "0x6060604052341561000f57600080fd5b600160a060020a0333166000908152602081905260409020805460ff191660011790556101e1806100416000396000f300606060405263ffffffff7c0100000000000000000000000000000000000000000000000000000000600035041663484685b08114610052578063d8b964e614610073578063daea85c5146100a657600080fd5b341561005d57600080fd5b610071600160a060020a03600435166100c5565b005b341561007e57600080fd5b610092600160a060020a036004351661012a565b604051901515815260200160405180910390f35b34156100b157600080fd5b610071600160a060020a036004351661013f565b600160a060020a03331660009081526020819052604090205460ff1615156100ec57600080fd5b6100fe81600160a060020a03166101a7565b151561010957600080fd5b600160a060020a03166000908152602081905260409020805460ff19169055565b60006020819052908152604090205460ff1681565b600160a060020a03331660009081526020819052604090205460ff16151561016657600080fd5b61017881600160a060020a03166101a7565b151561018357600080fd5b600160a060020a03166000908152602081905260409020805460ff19166001179055565b600160a060020a03161515905600a165627a7a72305820876e4ba441680e087f45bc00891942b44d0a0ff3c1707ec6b3ef917ef7c6ce1b0029",
  "source": "pragma solidity ^0.4.15;\n\nimport './AddressUtils.sol';\n\ncontract Approvable {\n  using AddressUtils for address;\n\n  mapping(address => bool) public approved;\n\n  function Approvable() public {\n    approved[msg.sender] = true;\n  }\n\n  function approve(address _address) external onlyApproved {\n    require(_address.isValid());\n    approved[_address] = true;\n  }\n\n  function revokeApproval(address _address) external onlyApproved {\n    require(_address.isValid());\n    approved[_address] = false;\n  }\n\n  modifier onlyApproved() {\n    require(approved[msg.sender]);\n    _;\n  }\n}\n",
  "sourcePath": "/Users/john/contracts/contracts/lib/Approvable.sol",
  "schemaVersion": "1.0.0",
  "updatedAt": "2017-10-27T15:34:30.628Z"
}