{
  "contractName": "DIDToken",
  "abi": [
    {
      "constant": true,
      "inputs": [],
      "name": "name",
      "outputs": [
        {
          "name": "",
          "type": "string"
        }
      ],
      "payable": false,
      "stateMutability": "view",
      "type": "function"
    },
    {
      "constant": true,
      "inputs": [],
      "name": "DistenseAddress",
      "outputs": [
        {
          "name": "",
          "type": "address"
        }
      ],
      "payable": false,
      "stateMutability": "view",
      "type": "function"
    },
    {
      "constant": true,
      "inputs": [],
      "name": "totalSupply",
      "outputs": [
        {
          "name": "",
          "type": "uint256"
        }
      ],
      "payable": false,
      "stateMutability": "view",
      "type": "function"
    },
    {
      "constant": true,
      "inputs": [],
      "name": "investedAggregate",
      "outputs": [
        {
          "name": "",
          "type": "uint256"
        }
      ],
      "payable": false,
      "stateMutability": "view",
      "type": "function"
    },
    {
      "constant": true,
      "inputs": [],
      "name": "decimals",
      "outputs": [
        {
          "name": "",
          "type": "uint8"
        }
      ],
      "payable": false,
      "stateMutability": "view",
      "type": "function"
    },
    {
      "constant": true,
      "inputs": [],
      "name": "PullRequestsAddress",
      "outputs": [
        {
          "name": "",
          "type": "address"
        }
      ],
      "payable": false,
      "stateMutability": "view",
      "type": "function"
    },
    {
      "constant": false,
      "inputs": [
        {
          "name": "_address",
          "type": "address"
        }
      ],
      "name": "revokeApproval",
      "outputs": [],
      "payable": false,
      "stateMutability": "nonpayable",
      "type": "function"
    },
    {
      "constant": true,
      "inputs": [],
      "name": "symbol",
      "outputs": [
        {
          "name": "",
          "type": "string"
        }
      ],
      "payable": false,
      "stateMutability": "view",
      "type": "function"
    },
    {
      "constant": true,
      "inputs": [],
      "name": "investmentLimitAggregate",
      "outputs": [
        {
          "name": "",
          "type": "uint256"
        }
      ],
      "payable": false,
      "stateMutability": "view",
      "type": "function"
    },
    {
      "constant": true,
      "inputs": [],
      "name": "investmentLimitAddress",
      "outputs": [
        {
          "name": "",
          "type": "uint256"
        }
      ],
      "payable": false,
      "stateMutability": "view",
      "type": "function"
    },
    {
      "constant": true,
      "inputs": [
        {
          "name": "",
          "type": "uint256"
        }
      ],
      "name": "DIDHoldersArray",
      "outputs": [
        {
          "name": "",
          "type": "address"
        }
      ],
      "payable": false,
      "stateMutability": "view",
      "type": "function"
    },
    {
      "constant": true,
      "inputs": [
        {
          "name": "",
          "type": "address"
        }
      ],
      "name": "DIDHolders",
      "outputs": [
        {
          "name": "balance",
          "type": "uint256"
        },
        {
          "name": "DIDHoldersIndex",
          "type": "uint256"
        },
        {
          "name": "weiInvested",
          "type": "uint256"
        },
        {
          "name": "tasksCompleted",
          "type": "uint256"
        }
      ],
      "payable": false,
      "stateMutability": "view",
      "type": "function"
    },
    {
      "constant": true,
      "inputs": [
        {
          "name": "",
          "type": "address"
        }
      ],
      "name": "approved",
      "outputs": [
        {
          "name": "",
          "type": "bool"
        }
      ],
      "payable": false,
      "stateMutability": "view",
      "type": "function"
    },
    {
      "constant": false,
      "inputs": [
        {
          "name": "_address",
          "type": "address"
        }
      ],
      "name": "approve",
      "outputs": [],
      "payable": false,
      "stateMutability": "nonpayable",
      "type": "function"
    },
    {
      "inputs": [],
      "payable": false,
      "stateMutability": "nonpayable",
      "type": "constructor"
    },
    {
      "anonymous": false,
      "inputs": [
        {
          "indexed": true,
          "name": "to",
          "type": "address"
        },
        {
          "indexed": false,
          "name": "numDID",
          "type": "uint256"
        }
      ],
      "name": "LogIssueDID",
      "type": "event"
    },
    {
      "anonymous": false,
      "inputs": [
        {
          "indexed": true,
          "name": "to",
          "type": "address"
        },
        {
          "indexed": false,
          "name": "numDID",
          "type": "uint256"
        }
      ],
      "name": "LogDecrementDID",
      "type": "event"
    },
    {
      "anonymous": false,
      "inputs": [
        {
          "indexed": true,
          "name": "to",
          "type": "address"
        },
        {
          "indexed": false,
          "name": "numDID",
          "type": "uint256"
        }
      ],
      "name": "LogExchangeDIDForEther",
      "type": "event"
    },
    {
      "anonymous": false,
      "inputs": [
        {
          "indexed": true,
          "name": "to",
          "type": "address"
        },
        {
          "indexed": false,
          "name": "numWei",
          "type": "uint256"
        }
      ],
      "name": "LogInvestEtherForDID",
      "type": "event"
    },
    {
      "constant": false,
      "inputs": [
        {
          "name": "_recipient",
          "type": "address"
        },
        {
          "name": "_numDID",
          "type": "uint256"
        }
      ],
      "name": "issueDID",
      "outputs": [
        {
          "name": "",
          "type": "uint256"
        }
      ],
      "payable": false,
      "stateMutability": "nonpayable",
      "type": "function"
    },
    {
      "constant": false,
      "inputs": [
        {
          "name": "_address",
          "type": "address"
        },
        {
          "name": "_numDID",
          "type": "uint256"
        }
      ],
      "name": "decrementDID",
      "outputs": [
        {
          "name": "",
          "type": "uint256"
        }
      ],
      "payable": false,
      "stateMutability": "nonpayable",
      "type": "function"
    },
    {
      "constant": true,
      "inputs": [
        {
          "name": "_address",
          "type": "address"
        }
      ],
      "name": "pctDIDOwned",
      "outputs": [
        {
          "name": "",
          "type": "uint256"
        }
      ],
      "payable": false,
      "stateMutability": "view",
      "type": "function"
    },
    {
      "constant": false,
      "inputs": [
        {
          "name": "_numDIDToExchange",
          "type": "uint256"
        }
      ],
      "name": "exchangeDIDForEther",
      "outputs": [
        {
          "name": "",
          "type": "uint256"
        }
      ],
      "payable": false,
      "stateMutability": "nonpayable",
      "type": "function"
    },
    {
      "constant": false,
      "inputs": [],
      "name": "investEtherForDID",
      "outputs": [
        {
          "name": "",
          "type": "uint256"
        }
      ],
      "payable": true,
      "stateMutability": "payable",
      "type": "function"
    },
    {
      "constant": false,
      "inputs": [
        {
          "name": "_contributor",
          "type": "address"
        }
      ],
      "name": "incrementTasksCompleted",
      "outputs": [
        {
          "name": "",
          "type": "bool"
        }
      ],
      "payable": false,
      "stateMutability": "nonpayable",
      "type": "function"
    },
    {
      "constant": true,
      "inputs": [
        {
          "name": "contributor",
          "type": "address"
        }
      ],
      "name": "getNumWeiAddressMayInvest",
      "outputs": [
        {
          "name": "",
          "type": "uint256"
        }
      ],
      "payable": false,
      "stateMutability": "view",
      "type": "function"
    },
    {
      "constant": true,
      "inputs": [],
      "name": "getWeiAggregateMayInvest",
      "outputs": [
        {
          "name": "",
          "type": "uint256"
        }
      ],
      "payable": false,
      "stateMutability": "view",
      "type": "function"
    },
    {
      "constant": true,
      "inputs": [],
      "name": "getNumDIDHolders",
      "outputs": [
        {
          "name": "",
          "type": "uint256"
        }
      ],
      "payable": false,
      "stateMutability": "view",
      "type": "function"
    },
    {
      "constant": true,
      "inputs": [
        {
          "name": "_address",
          "type": "address"
        }
      ],
      "name": "getAddressBalance",
      "outputs": [
        {
          "name": "",
          "type": "uint256"
        }
      ],
      "payable": false,
      "stateMutability": "view",
      "type": "function"
    },
    {
      "constant": true,
      "inputs": [
        {
          "name": "_address",
          "type": "address"
        }
      ],
      "name": "getWeiInvested",
      "outputs": [
        {
          "name": "",
          "type": "uint256"
        }
      ],
      "payable": false,
      "stateMutability": "view",
      "type": "function"
    },
    {
      "constant": false,
      "inputs": [
        {
          "name": "_distenseAddress",
          "type": "address"
        }
      ],
      "name": "setDistenseAddress",
      "outputs": [],
      "payable": false,
      "stateMutability": "nonpayable",
      "type": "function"
    }
  ],
  "bytecode": "0x606060405269021e19e0c9bab240000060045568056bc75e2d63100000600555600060065534156200003057600080fd5b600160a060020a03331660009081526020819052604090819020805460ff191660011790558051908101604052600c81527f44697374656e7365204449440000000000000000000000000000000000000000602082015260079080516200009c929160200190620000ff565b5060408051908101604052600381527f444944000000000000000000000000000000000000000000000000000000000060208201526008908051620000e6929160200190620000ff565b506000600a556009805460ff19166012179055620001a4565b828054600181600116156101000203166002900490600052602060002090601f016020900481019282601f106200014257805160ff191683800117855562000172565b8280016001018555821562000172579182015b828111156200017257825182559160200191906001019062000155565b506200018092915062000184565b5090565b620001a191905b808211156200018057600081556001016200018b565b90565b61121b80620001b46000396000f30060606040526004361061013a5763ffffffff60e060020a6000350416630261a403811461013f57806306fdde03146101735780630afdbaed146101fd57806318160ddd1461022c57806325078bc41461023f5780632a4caf6714610252578063313ce56714610273578063350467221461029c57806346da6eee146102bb578063484685b0146102ce5780636168ba3c146102ed57806387b30845146103005780638800495014610316578063915555591461033557806395d89b41146103545780639ac97e8414610367578063a0d229d81461037a578063a723761a1461038d578063bad0d4f114610395578063c7560f46146103a8578063cb1e4e44146103be578063d7b16d91146103e0578063d8b964e61461042a578063daea85c51461045d578063dc2b32e61461047c578063fdf31b391461049b575b600080fd5b341561014a57600080fd5b610161600160a060020a03600435166024356104ba565b60405190815260200160405180910390f35b341561017e57600080fd5b61018661061e565b60405160208082528190810183818151815260200191508051906020019080838360005b838110156101c25780820151838201526020016101aa565b50505050905090810190601f1680156101ef5780820380516001836020036101000a031916815260200191505b509250505060405180910390f35b341561020857600080fd5b6102106106bc565b604051600160a060020a03909116815260200160405180910390f35b341561023757600080fd5b6101616106cb565b341561024a57600080fd5b6101616106d1565b341561025d57600080fd5b610271600160a060020a03600435166106d7565b005b341561027e57600080fd5b61028661072d565b60405160ff909116815260200160405180910390f35b34156102a757600080fd5b610161600160a060020a0360043516610736565b34156102c657600080fd5b610210610751565b34156102d957600080fd5b610271600160a060020a0360043516610760565b34156102f857600080fd5b6101616107bd565b341561030b57600080fd5b6101616004356107d3565b341561032157600080fd5b610161600160a060020a0360043516610abc565b341561034057600080fd5b610161600160a060020a0360043516610b54565b341561035f57600080fd5b610186610b84565b341561037257600080fd5b610161610bef565b341561038557600080fd5b610161610bf5565b610161610bfb565b34156103a057600080fd5b610161610df4565b34156103b357600080fd5b610210600435610dfa565b34156103c957600080fd5b610161600160a060020a0360043516602435610e22565b34156103eb57600080fd5b6103ff600160a060020a0360043516611035565b6040518085815260200184815260200183815260200182815260200194505050505060405180910390f35b341561043557600080fd5b610449600160a060020a036004351661105c565b604051901515815260200160405180910390f35b341561046857600080fd5b610271600160a060020a0360043516611071565b341561048757600080fd5b610161600160a060020a03600435166110d1565b34156104a657600080fd5b610449600160a060020a03600435166110ef565b600160a060020a033316600090815260208190526040812054819060ff1615156104e357600080fd5b600160a060020a03841615156104f857600080fd5b6000831161050557600080fd5b610511600a548461113e565b600a5550600160a060020a0383166000908152600b6020526040902054610538818461113e565b600160a060020a0385166000908152600b602052604090209081556001015415156105be5760018054819080820161057083826111a8565b6000928352602080842092909201805473ffffffffffffffffffffffffffffffffffffffff1916600160a060020a038a169081179091558352600b9091526040909120919003600191909101555b83600160a060020a03167f3433529aaca741f54b3397d6ef2d588bb92ecd0d87c4c41db2f379bfe5c168f48460405190815260200160405180910390a2600160a060020a0384166000908152600b602052604090205491505b5092915050565b60078054600181600116156101000203166002900480601f0160208091040260200160405190810160405280929190818152602001828054600181600116156101000203166002900480156106b45780601f10610689576101008083540402835291602001916106b4565b820191906000526020600020905b81548152906001019060200180831161069757829003601f168201915b505050505081565b600354600160a060020a031681565b600a5481565b60065481565b600160a060020a03331660009081526020819052604090205460ff1615156106fe57600080fd5b6003805473ffffffffffffffffffffffffffffffffffffffff1916600160a060020a0392909216919091179055565b60095460ff1681565b600160a060020a03166000908152600b602052604090205490565b600254600160a060020a031681565b600160a060020a03331660009081526020819052604090205460ff16151561078757600080fd5b600160a060020a038116151561079c57600080fd5b600160a060020a03166000908152602081905260409020805460ff19169055565b60006107cd600454600654611154565b90505b90565b600080600080600080338780600b600084600160a060020a0316600160a060020a03168152602001908152602001600020600001541015151561081557600080fd5b600354600160a060020a0316965086638fc6ad2d81632273bae26040518163ffffffff1660e060020a028152600401602060405180830381600087803b151561085d57600080fd5b5af1151561086a57600080fd5b5050506040518051905060405160e060020a63ffffffff84160281526004810191909152602401602060405180830381600087803b15156108aa57600080fd5b5af115156108b757600080fd5b5050506040518051905095506108cd8987611166565b9450309350600160a060020a038416318590116108e957600080fd5b600160a060020a0333166000908152600b602052604090205461090c908a611154565b600160a060020a0333166000908152600b6020526040902055600a54610932908a611154565b600a55600160a060020a03331685156108fc0286604051600060405180830381858888f19350505050151561096657600080fd5b600160a060020a0333166000908152600b60205260409020541515610a5957600180541115610a59576001805460001981019081106109a157fe5b600091825260208083209091015433600160a060020a039081168452600b909252604090922060019081015481549290931695508592909181106109e157fe5b6000918252602090912001805473ffffffffffffffffffffffffffffffffffffffff1916600160a060020a03929092169190911790556001805490610a2a9060001983016111a8565b50600160a060020a0333166000908152600b602052604081208181556001810182905560028101829055600301555b33600160a060020a03167feb7d31df09103642237866b5fa5946a266fda42585c7ba30a006a40e4e478d3f8a60405190815260200160405180910390a250505033600160a060020a03166000908152600b60205260409020549695505050505050565b600160a060020a0381166000908152600b602052604080822054600a5473__SafeMath______________________________92622c1a9e9291906004905160e060020a63ffffffff861602815260048101939093526024830191909152604482015260640160206040518083038186803b1515610b3857600080fd5b5af41515610b4557600080fd5b50505060405180519392505050565b600554600160a060020a0382166000908152600b60205260408120600201549091610b7e91611154565b92915050565b60088054600181600116156101000203166002900480601f0160208091040260200160405190810160405280929190818152602001828054600181600116156101000203166002900480156106b45780601f10610689576101008083540402835291602001916106b4565b60015490565b60045481565b600080600080600080610c0d33610b54565b905034811015610c1c57600080fd5b60045460065410610c2c57600080fd5b600354600160a060020a0316945084638fc6ad2d81632273bae26040518163ffffffff1660e060020a028152600401602060405180830381600087803b1515610c7457600080fd5b5af11515610c8157600080fd5b5050506040518051905060405160e060020a63ffffffff84160281526004810191909152602401602060405180830381600087803b1515610cc157600080fd5b5af11515610cce57600080fd5b505050604051805190509350610cec34670de0b6b3a7640000611166565b9250610cf8848461117d565b9150610d06600a548361113e565b600a55600160a060020a0333166000908152600b6020526040902054610d2c908361113e565b600160a060020a0333166000818152600b6020526040908190209283556002909201805434908101909155600680549091019055907f3433529aaca741f54b3397d6ef2d588bb92ecd0d87c4c41db2f379bfe5c168f49084905190815260200160405180910390a233600160a060020a03167f71894dba69eac3a3461302b16631257b4580fbc7be61f1d4b0e988845e6400f03460405190815260200160405180910390a2600160a060020a0333166000908152600b60205260409020549550505050505090565b60055481565b6001805482908110610e0857fe5b600091825260209091200154600160a060020a0316905081565b600160a060020a033316600090815260208190526040812054819060ff161515610e4b57600080fd5b600160a060020a0384161515610e6057600080fd5b60008311610e6d57600080fd5b600160a060020a0384166000908152600b6020526040812054610e909085611154565b1015610e9b57600080fd5b6000610ea9600a5485611154565b1015610eb457600080fd5b610ec0600a5484611154565b600a55600160a060020a0384166000908152600b6020526040902054610ee69084611154565b600160a060020a0385166000908152600b602052604090208190551515610fda57600180541115610fda57600180546000198101908110610f2357fe5b6000918252602080832090910154600160a060020a038781168452600b90925260409092206001908101548154929093169350839290918110610f6257fe5b6000918252602090912001805473ffffffffffffffffffffffffffffffffffffffff1916600160a060020a03929092169190911790556001805490610fab9060001983016111a8565b50600160a060020a0333166000908152600b602052604081208181556001810182905560028101829055600301555b83600160a060020a03167f9fa46c80453c295693dfa0974d48b43bfdb58bb909cedd3af0ba93589a3332c18460405190815260200160405180910390a2505050600160a060020a03166000908152600b602052604090205490565b600b6020526000908152604090208054600182015460028301546003909301549192909184565b60006020819052908152604090205460ff1681565b600160a060020a03331660009081526020819052604090205460ff16151561109857600080fd5b600160a060020a03811615156110ad57600080fd5b600160a060020a03166000908152602081905260409020805460ff19166001179055565b600160a060020a03166000908152600b602052604090206002015490565b600160a060020a03331660009081526020819052604081205460ff16151561111657600080fd5b50600160a060020a03166000908152600b602052604090206003018054600190810190915590565b60008282018381101561114d57fe5b9392505050565b60008282111561116057fe5b50900390565b600080828481151561117457fe5b04949350505050565b6000808315156111905760009150610617565b508282028284828115156111a057fe5b041461114d57fe5b8154818355818115116111cc576000838152602090206111cc9181019083016111d1565b505050565b6107d091905b808211156111eb57600081556001016111d7565b50905600a165627a7a72305820efbf11a415ef873589a3685602c27ba19fe08a0df945770c111d66168857cb0d0029",
  "source": "pragma solidity ^0.4.21;\n\nimport './lib/Approvable.sol';\nimport './Distense.sol';\nimport './lib/SafeMath.sol';\n\ncontract DIDToken is Approvable {\n\n    using SafeMath for uint256;\n\n    event LogIssueDID(address indexed to, uint256 numDID);\n    event LogDecrementDID(address indexed to, uint256 numDID);\n    event LogExchangeDIDForEther(address indexed to, uint256 numDID);\n    event LogInvestEtherForDID(address indexed to, uint256 numWei);\n\n    address[] public DIDHoldersArray;\n\n    address public PullRequestsAddress;\n    address public DistenseAddress;\n\n    uint256 public investmentLimitAggregate  = 10000 ether;  // This is the max DID all addresses can receive from depositing ether\n    uint256 public investmentLimitAddress = 100 ether;  // This is the max DID any address can receive from Ether deposit\n    uint256 public investedAggregate = 0 ether;\n\n    string public name;\n    string public symbol;\n    uint8 public decimals;\n    uint256 public totalSupply;\n\n    struct DIDHolder {\n        uint256 balance;\n        uint256 DIDHoldersIndex;\n        uint256 weiInvested;\n        uint256 tasksCompleted;\n    }\n    mapping (address => DIDHolder) public DIDHolders;\n\n    function DIDToken() public {\n        name = \"Distense DID\";\n        symbol = \"DID\";\n        totalSupply = 0;\n        decimals = 18;\n    }\n\n    function issueDID(address _recipient, uint256 _numDID) external onlyApproved returns (uint256) {\n        require(_recipient != address(0));\n        require(_numDID > 0);\n\n        totalSupply = SafeMath.add(totalSupply, _numDID);\n        uint256 balance = DIDHolders[_recipient].balance;\n        DIDHolders[_recipient].balance = SafeMath.add(balance, _numDID);\n\n        if (DIDHolders[_recipient].DIDHoldersIndex == 0)\n            DIDHolders[_recipient].DIDHoldersIndex = DIDHoldersArray.push(_recipient) - 1;\n\n        emit LogIssueDID(_recipient, _numDID);\n\n        return DIDHolders[_recipient].balance;\n    }\n\n    function decrementDID(address _address, uint256 _numDID) external onlyApproved returns (uint256) {\n        require(_address != address(0));\n        require(_numDID > 0);\n        require(SafeMath.sub(DIDHolders[_address].balance, _numDID) >= 0);\n        require(SafeMath.sub(totalSupply, _numDID) >= 0);\n\n        totalSupply = SafeMath.sub(totalSupply, _numDID);\n        DIDHolders[_address].balance = SafeMath.sub(DIDHolders[_address].balance, _numDID);\n        //  If DIDHolder has exchanged all of their DID remove from DIDHoldersArray\n        if (DIDHolders[_address].balance == 0) {\n            if (DIDHoldersArray.length > 1) {\n                address lastElement = DIDHoldersArray[DIDHoldersArray.length - 1];\n                DIDHoldersArray[DIDHolders[_address].DIDHoldersIndex] = lastElement;\n                DIDHoldersArray.length--;\n                delete DIDHolders[msg.sender];\n            }\n        }\n\n        emit LogDecrementDID(_address, _numDID);\n\n        return DIDHolders[_address].balance;\n    }\n\n    function pctDIDOwned(address _address) external view returns (uint256) {\n        return SafeMath.percent(DIDHolders[_address].balance, totalSupply, 4);\n    }\n\n    function exchangeDIDForEther(uint256 _numDIDToExchange)\n        hasEnoughDID(msg.sender, _numDIDToExchange)\n        external\n    returns (uint256) {\n\n        Distense distense = Distense(DistenseAddress);\n        uint256 DIDPerEther = distense.getParameterValueByTitle(distense.didPerEtherParameterTitle());\n\n        uint256 numEtherToIssue = SafeMath.div(_numDIDToExchange, DIDPerEther);\n\n        address contractAddress = this;\n        require(contractAddress.balance > numEtherToIssue);\n\n        //  Adjust number of DID owned first\n        DIDHolders[msg.sender].balance = SafeMath.sub(DIDHolders[msg.sender].balance, _numDIDToExchange);\n        totalSupply = SafeMath.sub(totalSupply, _numDIDToExchange);\n\n        msg.sender.transfer(numEtherToIssue);\n\n        if (DIDHolders[msg.sender].balance == 0) {\n            if (DIDHoldersArray.length > 1) {\n                address lastElement = DIDHoldersArray[DIDHoldersArray.length - 1];\n                DIDHoldersArray[DIDHolders[msg.sender].DIDHoldersIndex] = lastElement;\n                DIDHoldersArray.length--;\n                delete DIDHolders[msg.sender];\n            }\n        }\n        emit LogExchangeDIDForEther(msg.sender, _numDIDToExchange);\n\n        return DIDHolders[msg.sender].balance;\n    }\n\n    function investEtherForDID() canDepositThisManyEtherForDID() external payable returns (uint256) {\n\n        Distense distense = Distense(DistenseAddress);\n        uint256 DIDPerEther = distense.getParameterValueByTitle(distense.didPerEtherParameterTitle());\n\n        uint256 numEtherInvested = SafeMath.div(msg.value, 1 ether);\n\n        uint256 numDIDToIssue = SafeMath.mul(DIDPerEther, numEtherInvested);\n\n        totalSupply = SafeMath.add(totalSupply, numDIDToIssue);\n        DIDHolders[msg.sender].balance = SafeMath.add(DIDHolders[msg.sender].balance, numDIDToIssue);\n\n        DIDHolders[msg.sender].weiInvested += msg.value;\n        investedAggregate += msg.value;\n\n        emit LogIssueDID(msg.sender, numDIDToIssue);\n        emit LogInvestEtherForDID(msg.sender, msg.value);\n\n        return DIDHolders[msg.sender].balance;\n    }\n\n    function incrementTasksCompleted(address _contributor) onlyApproved public returns (bool) {\n        DIDHolders[_contributor].tasksCompleted++;\n        return true;\n    }\n\n    function getNumWeiAddressMayInvest(address contributor) public view returns (uint256) {\n        return SafeMath.sub(investmentLimitAddress, DIDHolders[contributor].weiInvested);\n    }\n\n    function getWeiAggregateMayInvest() public view returns (uint256) {\n        return SafeMath.sub(investmentLimitAggregate, investedAggregate);\n    }\n\n    function getNumDIDHolders() external view returns (uint256) {\n        return DIDHoldersArray.length;\n    }\n\n    function getAddressBalance(address _address) public view returns (uint256) {\n        return DIDHolders[_address].balance;\n    }\n\n    function getWeiInvested(address _address) public view returns (uint256) {\n        return DIDHolders[_address].weiInvested;\n    }\n\n    function setDistenseAddress(address _distenseAddress) public onlyApproved {\n        DistenseAddress = _distenseAddress;\n    }\n\n    modifier hasEnoughDID(address _address, uint256 _num) {\n        require(DIDHolders[_address].balance >= _num);\n        _;\n    }\n\n    modifier canDepositThisManyEtherForDID() {\n        uint256 numWeiMayInvest = getNumWeiAddressMayInvest(msg.sender);\n        require(numWeiMayInvest >= msg.value);\n        require(investedAggregate < investmentLimitAggregate);\n        _;\n    }\n\n\n\n}\n",
  "sourcePath": "/Users/john/distense-contracts/contracts/DIDToken.sol",
  "compiler": {
    "name": "solc",
    "version": "0.4.21+commit.dfe3193c.Emscripten.clang"
  },
  "schemaVersion": "1.0.1",
  "updatedAt": "2018-04-03T21:49:50.123Z"
}