{
  "contractName": "DIDToken",
  "abi": [
    {
      "constant": false,
      "inputs": [
        {
          "name": "_recipient",
          "type": "address"
        },
        {
          "name": "_numDID",
          "type": "uint256"
        }
      ],
      "name": "issueDID",
      "outputs": [
        {
          "name": "",
          "type": "uint256"
        }
      ],
      "payable": false,
      "stateMutability": "nonpayable",
      "type": "function"
    },
    {
      "constant": true,
      "inputs": [],
      "name": "name",
      "outputs": [
        {
          "name": "",
          "type": "string"
        }
      ],
      "payable": false,
      "stateMutability": "view",
      "type": "function"
    },
    {
      "constant": true,
      "inputs": [],
      "name": "DistenseAddress",
      "outputs": [
        {
          "name": "",
          "type": "address"
        }
      ],
      "payable": false,
      "stateMutability": "view",
      "type": "function"
    },
    {
      "constant": true,
      "inputs": [],
      "name": "totalSupply",
      "outputs": [
        {
          "name": "",
          "type": "uint256"
        }
      ],
      "payable": false,
      "stateMutability": "view",
      "type": "function"
    },
    {
      "constant": true,
      "inputs": [
        {
          "name": "",
          "type": "address"
        }
      ],
      "name": "balances",
      "outputs": [
        {
          "name": "",
          "type": "uint256"
        }
      ],
      "payable": false,
      "stateMutability": "view",
      "type": "function"
    },
    {
      "constant": true,
      "inputs": [],
      "name": "decimals",
      "outputs": [
        {
          "name": "",
          "type": "uint8"
        }
      ],
      "payable": false,
      "stateMutability": "view",
      "type": "function"
    },
    {
      "constant": true,
      "inputs": [],
      "name": "PullRequestsAddress",
      "outputs": [
        {
          "name": "",
          "type": "address"
        }
      ],
      "payable": false,
      "stateMutability": "view",
      "type": "function"
    },
    {
      "constant": false,
      "inputs": [
        {
          "name": "_address",
          "type": "address"
        }
      ],
      "name": "revokeApproval",
      "outputs": [],
      "payable": false,
      "stateMutability": "nonpayable",
      "type": "function"
    },
    {
      "constant": true,
      "inputs": [
        {
          "name": "contributor",
          "type": "address"
        }
      ],
      "name": "numEtherContributorMayDeposit",
      "outputs": [
        {
          "name": "",
          "type": "uint256"
        }
      ],
      "payable": false,
      "stateMutability": "view",
      "type": "function"
    },
    {
      "constant": false,
      "inputs": [
        {
          "name": "exchanger",
          "type": "address"
        }
      ],
      "name": "depositEtherForDID",
      "outputs": [
        {
          "name": "",
          "type": "uint256"
        }
      ],
      "payable": true,
      "stateMutability": "payable",
      "type": "function"
    },
    {
      "constant": true,
      "inputs": [],
      "name": "totalDIDIssuedFromEtherDeposit",
      "outputs": [
        {
          "name": "",
          "type": "uint256"
        }
      ],
      "payable": false,
      "stateMutability": "view",
      "type": "function"
    },
    {
      "constant": false,
      "inputs": [
        {
          "name": "_numDIDToExchange",
          "type": "uint256"
        }
      ],
      "name": "exchangeDIDForEther",
      "outputs": [
        {
          "name": "",
          "type": "uint256"
        }
      ],
      "payable": false,
      "stateMutability": "nonpayable",
      "type": "function"
    },
    {
      "constant": true,
      "inputs": [
        {
          "name": "_person",
          "type": "address"
        }
      ],
      "name": "pctDIDOwned",
      "outputs": [
        {
          "name": "",
          "type": "uint256"
        }
      ],
      "payable": false,
      "stateMutability": "view",
      "type": "function"
    },
    {
      "constant": true,
      "inputs": [],
      "name": "symbol",
      "outputs": [
        {
          "name": "",
          "type": "string"
        }
      ],
      "payable": false,
      "stateMutability": "view",
      "type": "function"
    },
    {
      "constant": true,
      "inputs": [
        {
          "name": "",
          "type": "address"
        }
      ],
      "name": "numDIDExchangedAddress",
      "outputs": [
        {
          "name": "",
          "type": "uint256"
        }
      ],
      "payable": false,
      "stateMutability": "view",
      "type": "function"
    },
    {
      "constant": true,
      "inputs": [
        {
          "name": "",
          "type": "address"
        }
      ],
      "name": "approved",
      "outputs": [
        {
          "name": "",
          "type": "bool"
        }
      ],
      "payable": false,
      "stateMutability": "view",
      "type": "function"
    },
    {
      "constant": false,
      "inputs": [
        {
          "name": "_address",
          "type": "address"
        }
      ],
      "name": "approve",
      "outputs": [],
      "payable": false,
      "stateMutability": "nonpayable",
      "type": "function"
    },
    {
      "constant": true,
      "inputs": [],
      "name": "hardEtherDepositLimitAggregate",
      "outputs": [
        {
          "name": "",
          "type": "uint256"
        }
      ],
      "payable": false,
      "stateMutability": "view",
      "type": "function"
    },
    {
      "constant": true,
      "inputs": [],
      "name": "hardEtherDepositLimitAddress",
      "outputs": [
        {
          "name": "",
          "type": "uint256"
        }
      ],
      "payable": false,
      "stateMutability": "view",
      "type": "function"
    },
    {
      "inputs": [
        {
          "name": "_DistenseAddress",
          "type": "address"
        }
      ],
      "payable": true,
      "stateMutability": "payable",
      "type": "constructor"
    },
    {
      "anonymous": false,
      "inputs": [
        {
          "indexed": true,
          "name": "to",
          "type": "address"
        },
        {
          "indexed": false,
          "name": "numDID",
          "type": "uint256"
        }
      ],
      "name": "LogIssueDID",
      "type": "event"
    },
    {
      "anonymous": false,
      "inputs": [
        {
          "indexed": false,
          "name": "someAddress",
          "type": "address"
        }
      ],
      "name": "LogAddress",
      "type": "event"
    },
    {
      "anonymous": false,
      "inputs": [
        {
          "indexed": false,
          "name": "boolean",
          "type": "bool"
        }
      ],
      "name": "LogBool",
      "type": "event"
    },
    {
      "anonymous": false,
      "inputs": [
        {
          "indexed": false,
          "name": "someBytes",
          "type": "bytes"
        }
      ],
      "name": "LogBytes",
      "type": "event"
    },
    {
      "anonymous": false,
      "inputs": [
        {
          "indexed": false,
          "name": "aBytes32",
          "type": "bytes32"
        }
      ],
      "name": "LogBytes32",
      "type": "event"
    },
    {
      "anonymous": false,
      "inputs": [
        {
          "indexed": false,
          "name": "aString",
          "type": "string"
        }
      ],
      "name": "LogString",
      "type": "event"
    },
    {
      "anonymous": false,
      "inputs": [
        {
          "indexed": false,
          "name": "someInt",
          "type": "uint256"
        }
      ],
      "name": "LogUInt256",
      "type": "event"
    }
  ],
  "bytecode": "0x60606040526127106008556103e86009556000600a55604051602080610c6e83398101604052808051600060038190556002805460ff19908116601217909155600160a060020a033316825260056020526040918290208054909116600117905590925090508051908101604052600c81527f44697374656e7365204449440000000000000000000000000000000000000000602082015260009080516100aa929160200190610118565b5060408051908101604052600381527f4449440000000000000000000000000000000000000000000000000000000000602082015260019080516100f2929160200190610118565b5060078054600160a060020a031916600160a060020a03929092169190911790556101b3565b828054600181600116156101000203166002900490600052602060002090601f016020900481019282601f1061015957805160ff1916838001178555610186565b82800160010185558215610186579182015b8281111561018657825182559160200191906001019061016b565b50610192929150610196565b5090565b6101b091905b80821115610192576000815560010161019c565b90565b610aac806101c26000396000f3006060604052600436106100ed5763ffffffff60e060020a6000350416630261a40381146100f257806306fdde03146101265780630afdbaed146101b057806318160ddd146101df57806327e235e3146101f2578063313ce5671461021157806346da6eee1461023a578063484685b01461024d57806348a93b881461026e5780637363e8b21461028d57806373975fef146102a157806387b30845146102b457806388004950146102ca57806395d89b41146102e9578063bfd03a0a146102fc578063d8b964e61461031b578063daea85c51461034e578063f4005f331461036d578063f5cb370c14610380575b600080fd5b34156100fd57600080fd5b610114600160a060020a0360043516602435610393565b60405190815260200160405180910390f35b341561013157600080fd5b61013961047d565b60405160208082528190810183818151815260200191508051906020019080838360005b8381101561017557808201518382015260200161015d565b50505050905090810190601f1680156101a25780820380516001836020036101000a031916815260200191505b509250505060405180910390f35b34156101bb57600080fd5b6101c361051b565b604051600160a060020a03909116815260200160405180910390f35b34156101ea57600080fd5b61011461052a565b34156101fd57600080fd5b610114600160a060020a0360043516610530565b341561021c57600080fd5b610224610542565b60405160ff909116815260200160405180910390f35b341561024557600080fd5b6101c361054b565b341561025857600080fd5b61026c600160a060020a036004351661055a565b005b341561027957600080fd5b610114600160a060020a03600435166105b7565b610114600160a060020a03600435166105bd565b34156102ac57600080fd5b61011461072f565b34156102bf57600080fd5b610114600435610735565b34156102d557600080fd5b610114600160a060020a036004351661089d565b34156102f457600080fd5b610139610943565b341561030757600080fd5b610114600160a060020a03600435166109ae565b341561032657600080fd5b61033a600160a060020a03600435166109c0565b604051901515815260200160405180910390f35b341561035957600080fd5b61026c600160a060020a03600435166109d5565b341561037857600080fd5b610114610a35565b341561038b57600080fd5b610114610a3b565b600160a060020a03331660009081526005602052604081205460ff1615156103ba57600080fd5b600160a060020a03831615156103cf57600080fd5b600082116103dc57600080fd5b6103e860035483610a41565b600355600160a060020a03831660009081526004602052604090205461040e9083610a41565b600160a060020a0384166000818152600460205260409081902092909255907f3433529aaca741f54b3397d6ef2d588bb92ecd0d87c4c41db2f379bfe5c168f49084905190815260200160405180910390a25050600160a060020a031660009081526004602052604090205490565b60008054600181600116156101000203166002900480601f0160208091040260200160405190810160405280929190818152602001828054600181600116156101000203166002900480156105135780601f106104e857610100808354040283529160200191610513565b820191906000526020600020905b8154815290600101906020018083116104f657829003601f168201915b505050505081565b600754600160a060020a031681565b60035481565b60046020526000908152604090205481565b60025460ff1681565b600654600160a060020a031681565b600160a060020a03331660009081526005602052604090205460ff16151561058157600080fd5b600160a060020a038116151561059657600080fd5b600160a060020a03166000908152600560205260409020805460ff19169055565b50600090565b6000803334600080600080600854600a541015156105da57600080fd5b600954600160a060020a0333166000908152600b60205260409020541061060057600080fd5b600754600160a060020a0316935083638fc6ad2d81632273bae26000604051602001526040518163ffffffff1660e060020a028152600401602060405180830381600087803b151561065157600080fd5b6102c65a03f1151561066257600080fd5b5050506040518051905060006040516020015260405160e060020a63ffffffff84160281526004810191909152602401602060405180830381600087803b15156106ab57600080fd5b6102c65a03f115156106bc57600080fd5b5050506040518051905092506106d28584610a57565b600954600160a060020a0333166000908152600b60205260409020549193506106fa91610a6e565b600160a060020a03331660009081526004602052604090205490915082111561072257600080fd5b5095979650505050505050565b600a5481565b33600160a060020a0381166000908152600460205260408120549091829182919085908181101561076557600080fd5b600754600160a060020a0316945084638fc6ad2d81632273bae26000604051602001526040518163ffffffff1660e060020a028152600401602060405180830381600087803b15156107b657600080fd5b6102c65a03f115156107c757600080fd5b5050506040518051905060006040516020015260405160e060020a63ffffffff84160281526004810191909152602401602060405180830381600087803b151561081057600080fd5b6102c65a03f1151561082157600080fd5b5050506040518051600160a060020a033316600090815260046020526040902054909550610850915088610a6e565b600160a060020a0333166000908152600460205260409020556003546108769088610a6e565b60035550505033600160a060020a0316600090815260046020526040902054949350505050565b600160a060020a0381166000908152600460205260408082205460038054919273__SafeMath______________________________92622c1a9e9285928790516020015260405160e060020a63ffffffff861602815260048101939093526024830191909152604482015260640160206040518083038186803b151561092257600080fd5b6102c65a03f4151561093357600080fd5b5050506040518051949350505050565b60018054600181600116156101000203166002900480601f0160208091040260200160405190810160405280929190818152602001828054600181600116156101000203166002900480156105135780601f106104e857610100808354040283529160200191610513565b600b6020526000908152604090205481565b60056020526000908152604090205460ff1681565b600160a060020a03331660009081526005602052604090205460ff1615156109fc57600080fd5b600160a060020a0381161515610a1157600080fd5b600160a060020a03166000908152600560205260409020805460ff19166001179055565b60085481565b60095481565b600082820183811015610a5057fe5b9392505050565b6000808284811515610a6557fe5b04949350505050565b600082821115610a7a57fe5b509003905600a165627a7a72305820a91cd16c1f804ad9332586a5e32e6d35d979cfd3aae5b638c649b94fb87e408b0029",
  "source": "pragma solidity ^0.4.17;\n\nimport './lib/Approvable.sol';\nimport './Distense.sol';\nimport './lib/SafeMath.sol';\nimport './lib/Token.sol';\nimport './Debuggable.sol';\n\n\ncontract DIDToken is Token, Approvable, Debuggable {\n\n    using SafeMath for uint256;\n\n    event LogIssueDID(address indexed to, uint256 numDID);\n\n    address public PullRequestsAddress;\n    address public DistenseAddress;\n\n    uint256 public hardEtherDepositLimitAggregate = 10000;  // This is the max DID all addresses can receive from depositing ether\n    uint256 public hardEtherDepositLimitAddress = 1000;  // This is the max DID any address can receive from Ether deposit\n    uint256 public totalDIDIssuedFromEtherDeposit = 0;\n\n    mapping(address => uint256) public numDIDExchangedAddress;  // keep track of how much contributors have deposited to prevent over depositing\n\n    function DIDToken(address _DistenseAddress) public payable {\n        name = \"Distense DID\";\n        symbol = \"DID\";\n\n        DistenseAddress = _DistenseAddress;\n    }\n\n    function issueDID(address _recipient, uint256 _numDID) external onlyApproved returns (uint256) {\n        require(_recipient != address(0));\n        require(_numDID > 0);\n\n        totalSupply = SafeMath.add(totalSupply, _numDID);\n        balances[_recipient] = SafeMath.add(balances[_recipient], _numDID);\n        LogIssueDID(_recipient, _numDID);\n\n        return balances[_recipient];\n    }\n\n    function pctDIDOwned(address _person) external view returns (uint256) {\n        uint owned = balances[_person];\n        return SafeMath.percent(owned, totalSupply, 3);\n    }\n\n    function exchangeDIDForEther(uint256 _numDIDToExchange)\n        hasEnoughDID(msg.sender, _numDIDToExchange)\n        external\n    returns (uint256) {\n\n        Distense distense = Distense(DistenseAddress);\n        uint256 DIDPerEther = distense.getParameterValueByTitle(distense.didPerEtherParameterTitle());\n\n//        //  Adjust number of DID owned first\n        balances[msg.sender] = SafeMath.sub(balances[msg.sender], _numDIDToExchange);\n        totalSupply = SafeMath.sub(totalSupply, _numDIDToExchange);\n        totalDIDIssuedFromEtherDeposit + _numDIDToExchange;\n\n        //  Send contributor their ether\n\n        return balances[msg.sender];\n    }\n\n    function depositEtherForDID(address exchanger) canDepositThisManyEtherForDID(msg.sender, msg.value) external payable returns (uint256) {\n\n        Distense distense = Distense(DistenseAddress);\n//        uint256 DIDPerEther = distense.getParameterValueByTitle(distense.didPerEtherParameterTitle());\n//\n//        uint256 numDIDToIssue = SafeMath.div(msg.value, DIDPerEther);\n//\n//        totalSupply = SafeMath.add(totalSupply, numDIDToIssue);\n//        balances[msg.sender] = SafeMath.add(balances[msg.sender], numDIDToIssue);\n//\n//        LogIssueDID(msg.sender, numDIDToIssue);\n//\n//        return balances[msg.sender];\n    }\n\n    function numEtherContributorMayDeposit(address contributor) public view returns (uint256) {\n//        return\n    }\n\n    modifier hasEnoughDID(address _contributor, uint256 _num) {\n        uint256 balance = balances[_contributor];\n        require(balance >= _num);\n        _;\n    }\n\n    modifier canDepositThisManyEtherForDID(address _contributor, uint256 _numEtherDepositing) {\n\n        //  Make sure the aggregate limit of DID that can be issued for ether hasn't been reached\n        require(totalDIDIssuedFromEtherDeposit < hardEtherDepositLimitAggregate);\n        require(numDIDExchangedAddress[msg.sender] < hardEtherDepositLimitAddress);\n\n        Distense distense = Distense(DistenseAddress);\n        uint256 DIDPerEther = distense.getParameterValueByTitle(distense.didPerEtherParameterTitle());\n\n        uint256 desiredNumberOfDIDToExchange = SafeMath.div(_numEtherDepositing, DIDPerEther);\n\n        //  Each address is limited to exchanging hardDIDFromEtherDepositLimitForAddress number of DID\n        //  This is the remaining number they may exchange.  Yes this is vuln to Sybil attacks\n        uint256 numDIDCanExchange = SafeMath.sub(hardEtherDepositLimitAddress, numDIDExchangedAddress[msg.sender]);\n\n        require(desiredNumberOfDIDToExchange <= balances[msg.sender]);\n\n        _;\n    }\n\n\n\n}\n",
  "sourcePath": "/Users/john/distense-contracts/contracts/DIDToken.sol",
  "compiler": {
    "name": "solc",
    "version": "0.4.18+commit.9cf6e910.Emscripten.clang"
  },
  "schemaVersion": "1.0.1",
  "updatedAt": "2018-01-16T15:05:27.260Z"
}