{
  "contractName": "DIDToken",
  "abi": [
    {
      "constant": true,
      "inputs": [],
      "name": "name",
      "outputs": [
        {
          "name": "",
          "type": "string"
        }
      ],
      "payable": false,
      "stateMutability": "view",
      "type": "function"
    },
    {
      "constant": true,
      "inputs": [],
      "name": "DistenseAddress",
      "outputs": [
        {
          "name": "",
          "type": "address"
        }
      ],
      "payable": false,
      "stateMutability": "view",
      "type": "function"
    },
    {
      "constant": true,
      "inputs": [],
      "name": "totalSupply",
      "outputs": [
        {
          "name": "",
          "type": "uint256"
        }
      ],
      "payable": false,
      "stateMutability": "view",
      "type": "function"
    },
    {
      "constant": true,
      "inputs": [],
      "name": "investedAggregate",
      "outputs": [
        {
          "name": "",
          "type": "uint256"
        }
      ],
      "payable": false,
      "stateMutability": "view",
      "type": "function"
    },
    {
      "constant": true,
      "inputs": [
        {
          "name": "",
          "type": "address"
        }
      ],
      "name": "balances",
      "outputs": [
        {
          "name": "",
          "type": "uint256"
        }
      ],
      "payable": false,
      "stateMutability": "view",
      "type": "function"
    },
    {
      "constant": true,
      "inputs": [],
      "name": "decimals",
      "outputs": [
        {
          "name": "",
          "type": "uint8"
        }
      ],
      "payable": false,
      "stateMutability": "view",
      "type": "function"
    },
    {
      "constant": true,
      "inputs": [],
      "name": "PullRequestsAddress",
      "outputs": [
        {
          "name": "",
          "type": "address"
        }
      ],
      "payable": false,
      "stateMutability": "view",
      "type": "function"
    },
    {
      "constant": false,
      "inputs": [
        {
          "name": "_address",
          "type": "address"
        }
      ],
      "name": "revokeApproval",
      "outputs": [],
      "payable": false,
      "stateMutability": "nonpayable",
      "type": "function"
    },
    {
      "constant": true,
      "inputs": [],
      "name": "symbol",
      "outputs": [
        {
          "name": "",
          "type": "string"
        }
      ],
      "payable": false,
      "stateMutability": "view",
      "type": "function"
    },
    {
      "constant": true,
      "inputs": [
        {
          "name": "",
          "type": "address"
        }
      ],
      "name": "investedAddress",
      "outputs": [
        {
          "name": "",
          "type": "uint256"
        }
      ],
      "payable": false,
      "stateMutability": "view",
      "type": "function"
    },
    {
      "constant": true,
      "inputs": [],
      "name": "investmentLimitAggregate",
      "outputs": [
        {
          "name": "",
          "type": "uint256"
        }
      ],
      "payable": false,
      "stateMutability": "view",
      "type": "function"
    },
    {
      "constant": true,
      "inputs": [],
      "name": "investmentLimitAddress",
      "outputs": [
        {
          "name": "",
          "type": "uint256"
        }
      ],
      "payable": false,
      "stateMutability": "view",
      "type": "function"
    },
    {
      "constant": true,
      "inputs": [
        {
          "name": "",
          "type": "address"
        }
      ],
      "name": "approved",
      "outputs": [
        {
          "name": "",
          "type": "bool"
        }
      ],
      "payable": false,
      "stateMutability": "view",
      "type": "function"
    },
    {
      "constant": false,
      "inputs": [
        {
          "name": "_address",
          "type": "address"
        }
      ],
      "name": "approve",
      "outputs": [],
      "payable": false,
      "stateMutability": "nonpayable",
      "type": "function"
    },
    {
      "inputs": [],
      "payable": false,
      "stateMutability": "nonpayable",
      "type": "constructor"
    },
    {
      "anonymous": false,
      "inputs": [
        {
          "indexed": true,
          "name": "to",
          "type": "address"
        },
        {
          "indexed": false,
          "name": "numDID",
          "type": "uint256"
        }
      ],
      "name": "LogIssueDID",
      "type": "event"
    },
    {
      "anonymous": false,
      "inputs": [
        {
          "indexed": true,
          "name": "to",
          "type": "address"
        },
        {
          "indexed": false,
          "name": "numDID",
          "type": "uint256"
        }
      ],
      "name": "LogDecrementDID",
      "type": "event"
    },
    {
      "anonymous": false,
      "inputs": [
        {
          "indexed": true,
          "name": "to",
          "type": "address"
        },
        {
          "indexed": false,
          "name": "numDID",
          "type": "uint256"
        }
      ],
      "name": "LogExchangeDIDForEther",
      "type": "event"
    },
    {
      "anonymous": false,
      "inputs": [
        {
          "indexed": true,
          "name": "to",
          "type": "address"
        },
        {
          "indexed": false,
          "name": "numWei",
          "type": "uint256"
        }
      ],
      "name": "LogInvestEtherForDID",
      "type": "event"
    },
    {
      "constant": false,
      "inputs": [
        {
          "name": "_recipient",
          "type": "address"
        },
        {
          "name": "_numDID",
          "type": "uint256"
        }
      ],
      "name": "issueDID",
      "outputs": [
        {
          "name": "",
          "type": "uint256"
        }
      ],
      "payable": false,
      "stateMutability": "nonpayable",
      "type": "function"
    },
    {
      "constant": false,
      "inputs": [
        {
          "name": "_address",
          "type": "address"
        },
        {
          "name": "_numDID",
          "type": "uint256"
        }
      ],
      "name": "decrementDID",
      "outputs": [
        {
          "name": "",
          "type": "uint256"
        }
      ],
      "payable": false,
      "stateMutability": "nonpayable",
      "type": "function"
    },
    {
      "constant": true,
      "inputs": [
        {
          "name": "_person",
          "type": "address"
        }
      ],
      "name": "pctDIDOwned",
      "outputs": [
        {
          "name": "",
          "type": "uint256"
        }
      ],
      "payable": false,
      "stateMutability": "view",
      "type": "function"
    },
    {
      "constant": false,
      "inputs": [
        {
          "name": "_numDIDToExchange",
          "type": "uint256"
        }
      ],
      "name": "exchangeDIDForEther",
      "outputs": [
        {
          "name": "",
          "type": "uint256"
        }
      ],
      "payable": false,
      "stateMutability": "nonpayable",
      "type": "function"
    },
    {
      "constant": false,
      "inputs": [],
      "name": "investEtherForDID",
      "outputs": [
        {
          "name": "",
          "type": "uint256"
        }
      ],
      "payable": true,
      "stateMutability": "payable",
      "type": "function"
    },
    {
      "constant": true,
      "inputs": [
        {
          "name": "contributor",
          "type": "address"
        }
      ],
      "name": "getNumWeiAddressMayInvest",
      "outputs": [
        {
          "name": "",
          "type": "uint256"
        }
      ],
      "payable": false,
      "stateMutability": "view",
      "type": "function"
    },
    {
      "constant": true,
      "inputs": [],
      "name": "getWeiAggregateMayInvest",
      "outputs": [
        {
          "name": "",
          "type": "uint256"
        }
      ],
      "payable": false,
      "stateMutability": "view",
      "type": "function"
    },
    {
      "constant": false,
      "inputs": [
        {
          "name": "_distenseAddress",
          "type": "address"
        }
      ],
      "name": "setDistenseAddress",
      "outputs": [],
      "payable": false,
      "stateMutability": "nonpayable",
      "type": "function"
    }
  ],
  "bytecode": "0x606060405269021e19e0c9bab240000060085568056bc75e2d631000006009556000600a55341561002f57600080fd5b600060038190556002805460ff19908116601217909155600160a060020a03331682526005602052604091829020805490911660011790558051908101604052600c81527f44697374656e7365204449440000000000000000000000000000000000000000602082015260009080516100ac9291602001906100fa565b5060408051908101604052600381527f4449440000000000000000000000000000000000000000000000000000000000602082015260019080516100f49291602001906100fa565b50610195565b828054600181600116156101000203166002900490600052602060002090601f016020900481019282601f1061013b57805160ff1916838001178555610168565b82800160010185558215610168579182015b8281111561016857825182559160200191906001019061014d565b50610174929150610178565b5090565b61019291905b80821115610174576000815560010161017e565b90565b610e08806101a46000396000f30060606040526004361061010e5763ffffffff60e060020a6000350416630261a403811461011357806306fdde03146101475780630afdbaed146101d157806318160ddd1461020057806325078bc41461021357806327e235e3146102265780632a4caf6714610245578063313ce5671461026657806346da6eee1461028f578063484685b0146102a25780636168ba3c146102c157806387b30845146102d457806388004950146102ea578063915555591461030957806395d89b4114610328578063967471db1461033b578063a0d229d81461035a578063a723761a1461036d578063bad0d4f114610375578063cb1e4e4414610388578063d8b964e6146103aa578063daea85c5146103dd575b600080fd5b341561011e57600080fd5b610135600160a060020a03600435166024356103fc565b60405190815260200160405180910390f35b341561015257600080fd5b61015a6104e6565b60405160208082528190810183818151815260200191508051906020019080838360005b8381101561019657808201518382015260200161017e565b50505050905090810190601f1680156101c35780820380516001836020036101000a031916815260200191505b509250505060405180910390f35b34156101dc57600080fd5b6101e4610584565b604051600160a060020a03909116815260200160405180910390f35b341561020b57600080fd5b610135610593565b341561021e57600080fd5b610135610599565b341561023157600080fd5b610135600160a060020a036004351661059f565b341561025057600080fd5b610264600160a060020a03600435166105b1565b005b341561027157600080fd5b610279610607565b60405160ff909116815260200160405180910390f35b341561029a57600080fd5b6101e4610610565b34156102ad57600080fd5b610264600160a060020a036004351661061f565b34156102cc57600080fd5b61013561067c565b34156102df57600080fd5b610135600435610691565b34156102f557600080fd5b610135600160a060020a0360043516610879565b341561031457600080fd5b610135600160a060020a0360043516610915565b341561033357600080fd5b61015a610942565b341561034657600080fd5b610135600160a060020a03600435166109ad565b341561036557600080fd5b6101356109bf565b6101356109c5565b341561038057600080fd5b610135610bc2565b341561039357600080fd5b610135600160a060020a0360043516602435610bc8565b34156103b557600080fd5b6103c9600160a060020a0360043516610cf9565b604051901515815260200160405180910390f35b34156103e857600080fd5b610264600160a060020a0360043516610d0e565b600160a060020a03331660009081526005602052604081205460ff16151561042357600080fd5b600160a060020a038316151561043857600080fd5b6000821161044557600080fd5b61045160035483610d6e565b600355600160a060020a0383166000908152600460205260409020546104779083610d6e565b600160a060020a0384166000818152600460205260409081902092909255907f3433529aaca741f54b3397d6ef2d588bb92ecd0d87c4c41db2f379bfe5c168f49084905190815260200160405180910390a25050600160a060020a031660009081526004602052604090205490565b60008054600181600116156101000203166002900480601f01602080910402602001604051908101604052809291908181526020018280546001816001161561010002031660029004801561057c5780601f106105515761010080835404028352916020019161057c565b820191906000526020600020905b81548152906001019060200180831161055f57829003601f168201915b505050505081565b600754600160a060020a031681565b60035481565b600a5481565b60046020526000908152604090205481565b600160a060020a03331660009081526005602052604090205460ff1615156105d857600080fd5b6007805473ffffffffffffffffffffffffffffffffffffffff1916600160a060020a0392909216919091179055565b60025460ff1681565b600654600160a060020a031681565b600160a060020a03331660009081526005602052604090205460ff16151561064657600080fd5b600160a060020a038116151561065b57600080fd5b600160a060020a03166000908152600560205260409020805460ff19169055565b600061068c600854600a54610d88565b905090565b33600160a060020a03811660009081526004602052604081205490918291829182918291908790818110156106c557600080fd5b600754600160a060020a0316965086638fc6ad2d81632273bae26040518163ffffffff1660e060020a028152600401602060405180830381600087803b151561070d57600080fd5b5af1151561071a57600080fd5b5050506040518051905060405160e060020a63ffffffff84160281526004810191909152602401602060405180830381600087803b151561075a57600080fd5b5af1151561076757600080fd5b50505060405180519050955061077d8987610d9a565b9450309350600160a060020a0384163185901161079957600080fd5b600160a060020a0333166000908152600460205260409020546107bc908a610d88565b600160a060020a0333166000908152600460205260409020556003546107e2908a610d88565b600355600160a060020a03331685156108fc0286604051600060405180830381858888f19350505050151561081657600080fd5b33600160a060020a03167feb7d31df09103642237866b5fa5946a266fda42585c7ba30a006a40e4e478d3f8a60405190815260200160405180910390a250505033600160a060020a03166000908152600460205260409020549695505050505050565b600160a060020a038116600090815260046020819052604080832054600354909273__SafeMath______________________________92622c1a9e92859290915160e060020a63ffffffff861602815260048101939093526024830191909152604482015260640160206040518083038186803b15156108f857600080fd5b5af4151561090557600080fd5b5050506040518051949350505050565b600954600160a060020a0382166000908152600b6020526040812054909161093c91610d88565b92915050565b60018054600181600116156101000203166002900480601f01602080910402602001604051908101604052809291908181526020018280546001816001161561010002031660029004801561057c5780601f106105515761010080835404028352916020019161057c565b600b6020526000908152604090205481565b60085481565b6000806000806000806109d733610915565b9050348110156109e657600080fd5b600854600a54106109f657600080fd5b600754600160a060020a0316945084638fc6ad2d81632273bae26040518163ffffffff1660e060020a028152600401602060405180830381600087803b1515610a3e57600080fd5b5af11515610a4b57600080fd5b5050506040518051905060405160e060020a63ffffffff84160281526004810191909152602401602060405180830381600087803b1515610a8b57600080fd5b5af11515610a9857600080fd5b505050604051805190509350610ab634670de0b6b3a7640000610d9a565b9250610ac28484610db1565b9150610ad060035483610d6e565b600355600160a060020a033316600090815260046020526040902054610af69083610d6e565b600160a060020a033316600081815260046020908152604080832094909455600b9052829020805434908101909155600a80549091019055907f3433529aaca741f54b3397d6ef2d588bb92ecd0d87c4c41db2f379bfe5c168f49084905190815260200160405180910390a233600160a060020a03167f71894dba69eac3a3461302b16631257b4580fbc7be61f1d4b0e988845e6400f03460405190815260200160405180910390a2600160a060020a0333166000908152600460205260409020549550505050505090565b60095481565b600160a060020a03331660009081526005602052604081205460ff161515610bef57600080fd5b600160a060020a0383161515610c0457600080fd5b60008211610c1157600080fd5b600160a060020a038316600090815260046020526040812054610c349084610d88565b1015610c3f57600080fd5b6000610c4d60035484610d88565b1015610c5857600080fd5b610c6460035483610d88565b600355600160a060020a038316600090815260046020526040902054610c8a9083610d88565b600160a060020a0384166000818152600460205260409081902092909255907f9fa46c80453c295693dfa0974d48b43bfdb58bb909cedd3af0ba93589a3332c19084905190815260200160405180910390a25050600160a060020a031660009081526004602052604090205490565b60056020526000908152604090205460ff1681565b600160a060020a03331660009081526005602052604090205460ff161515610d3557600080fd5b600160a060020a0381161515610d4a57600080fd5b600160a060020a03166000908152600560205260409020805460ff19166001179055565b600082820183811015610d7d57fe5b8091505b5092915050565b600082821115610d9457fe5b50900390565b6000808284811515610da857fe5b04949350505050565b600080831515610dc45760009150610d81565b50828202828482811515610dd457fe5b0414610d7d57fe00a165627a7a723058201cc4ff7482e4dc04a0ab6bb2fe80ac0b5ee72edbf51f5769e3f1f7898fab8afa0029",
  "source": "pragma solidity ^0.4.21;\n\nimport './lib/Approvable.sol';\nimport './Distense.sol';\nimport './lib/SafeMath.sol';\nimport './lib/Token.sol';\n\ncontract DIDToken is Token, Approvable {\n\n    using SafeMath for uint256;\n\n    event LogIssueDID(address indexed to, uint256 numDID);\n    event LogDecrementDID(address indexed to, uint256 numDID);\n    event LogExchangeDIDForEther(address indexed to, uint256 numDID);\n    event LogInvestEtherForDID(address indexed to, uint256 numWei);\n\n    address public PullRequestsAddress;\n    address public DistenseAddress;\n\n    uint256 public investmentLimitAggregate  = 10000 ether;  // This is the max DID all addresses can receive from depositing ether\n    uint256 public investmentLimitAddress = 100 ether;  // This is the max DID any address can receive from Ether deposit\n    uint256 public investedAggregate = 0 ether;\n\n    mapping(address => uint256) public investedAddress;  // keep track of how much contributors have deposited to prevent over depositing\n\n    function DIDToken() public {\n        name = \"Distense DID\";\n        symbol = \"DID\";\n    }\n\n    function issueDID(address _recipient, uint256 _numDID) external onlyApproved returns (uint256) {\n        require(_recipient != address(0));\n        require(_numDID > 0);\n\n        totalSupply = SafeMath.add(totalSupply, _numDID);\n        balances[_recipient] = SafeMath.add(balances[_recipient], _numDID);\n        emit LogIssueDID(_recipient, _numDID);\n\n        return balances[_recipient];\n    }\n\n    function decrementDID(address _address, uint256 _numDID) external onlyApproved returns (uint256) {\n        require(_address != address(0));\n        require(_numDID > 0);\n        require(SafeMath.sub(balances[_address], _numDID) >= 0);\n        require(SafeMath.sub(totalSupply, _numDID) >= 0);\n\n        totalSupply = SafeMath.sub(totalSupply, _numDID);\n        balances[_address] = SafeMath.sub(balances[_address], _numDID);\n        emit LogDecrementDID(_address, _numDID);\n\n        return balances[_address];\n    }\n\n    function pctDIDOwned(address _person) external view returns (uint256) {\n        uint owned = balances[_person];\n        return SafeMath.percent(owned, totalSupply, 4);\n    }\n\n    function exchangeDIDForEther(uint256 _numDIDToExchange)\n        hasEnoughDID(msg.sender, _numDIDToExchange)\n        external\n    returns (uint256) {\n\n        Distense distense = Distense(DistenseAddress);\n        uint256 DIDPerEther = distense.getParameterValueByTitle(distense.didPerEtherParameterTitle());\n\n        uint256 numEtherToIssue = SafeMath.div(_numDIDToExchange, DIDPerEther);\n\n        address contractAddress = this;\n        require(contractAddress.balance > numEtherToIssue);\n\n        //  Adjust number of DID owned first\n        balances[msg.sender] = SafeMath.sub(balances[msg.sender], _numDIDToExchange);\n        totalSupply = SafeMath.sub(totalSupply, _numDIDToExchange);\n\n        msg.sender.transfer(numEtherToIssue);\n        emit LogExchangeDIDForEther(msg.sender, _numDIDToExchange);\n\n        return balances[msg.sender];\n    }\n\n    function investEtherForDID() canDepositThisManyEtherForDID() external payable returns (uint256) {\n\n        Distense distense = Distense(DistenseAddress);\n        uint256 DIDPerEther = distense.getParameterValueByTitle(distense.didPerEtherParameterTitle());\n\n        uint256 numEtherInvested = SafeMath.div(msg.value, 1 ether);\n\n        uint256 numDIDToIssue = SafeMath.mul(DIDPerEther, numEtherInvested);\n\n        totalSupply = SafeMath.add(totalSupply, numDIDToIssue);\n        balances[msg.sender] = SafeMath.add(balances[msg.sender], numDIDToIssue);\n\n        investedAddress[msg.sender] += msg.value;\n        investedAggregate += msg.value;\n\n        emit LogIssueDID(msg.sender, numDIDToIssue);\n        emit LogInvestEtherForDID(msg.sender, msg.value);\n\n        return balances[msg.sender];\n    }\n\n    function getNumWeiAddressMayInvest(address contributor) public view returns (uint256) {\n        return SafeMath.sub(investmentLimitAddress, investedAddress[contributor]);\n    }\n\n    function getWeiAggregateMayInvest() public view returns (uint256) {\n        return SafeMath.sub(investmentLimitAggregate, investedAggregate);\n    }\n\n    function setDistenseAddress(address _distenseAddress) public onlyApproved {\n        DistenseAddress = _distenseAddress;\n    }\n\n    modifier hasEnoughDID(address _contributor, uint256 _num) {\n        uint256 balance = balances[_contributor];\n        require(balance >= _num);\n        _;\n    }\n\n    modifier canDepositThisManyEtherForDID() {\n        uint256 numWeiMayInvest = getNumWeiAddressMayInvest(msg.sender);\n        require(numWeiMayInvest >= msg.value);\n        require(investedAggregate < investmentLimitAggregate);\n        _;\n    }\n\n\n\n}\n",
  "sourcePath": "/Users/john/distense-contracts/contracts/DIDToken.sol",
  "compiler": {
    "name": "solc",
    "version": "0.4.21+commit.dfe3193c.Emscripten.clang"
  },
  "schemaVersion": "1.0.1",
  "updatedAt": "2018-03-25T15:59:46.641Z"
}