{
  "contractName": "DIDToken",
  "abi": [
    {
      "constant": false,
      "inputs": [
        {
          "name": "_recipient",
          "type": "address"
        },
        {
          "name": "_numDID",
          "type": "uint256"
        }
      ],
      "name": "issueDID",
      "outputs": [
        {
          "name": "",
          "type": "uint256"
        }
      ],
      "payable": false,
      "stateMutability": "nonpayable",
      "type": "function"
    },
    {
      "constant": true,
      "inputs": [],
      "name": "weiInvestedAggregate",
      "outputs": [
        {
          "name": "",
          "type": "uint256"
        }
      ],
      "payable": false,
      "stateMutability": "view",
      "type": "function"
    },
    {
      "constant": true,
      "inputs": [],
      "name": "name",
      "outputs": [
        {
          "name": "",
          "type": "string"
        }
      ],
      "payable": false,
      "stateMutability": "view",
      "type": "function"
    },
    {
      "constant": true,
      "inputs": [],
      "name": "DistenseAddress",
      "outputs": [
        {
          "name": "",
          "type": "address"
        }
      ],
      "payable": false,
      "stateMutability": "view",
      "type": "function"
    },
    {
      "constant": true,
      "inputs": [
        {
          "name": "contributor",
          "type": "address"
        }
      ],
      "name": "numWeiContributorMayInvest",
      "outputs": [
        {
          "name": "",
          "type": "uint256"
        }
      ],
      "payable": false,
      "stateMutability": "view",
      "type": "function"
    },
    {
      "constant": true,
      "inputs": [],
      "name": "totalSupply",
      "outputs": [
        {
          "name": "",
          "type": "uint256"
        }
      ],
      "payable": false,
      "stateMutability": "view",
      "type": "function"
    },
    {
      "constant": true,
      "inputs": [],
      "name": "numWeiAggregateMayInvest",
      "outputs": [
        {
          "name": "",
          "type": "uint256"
        }
      ],
      "payable": false,
      "stateMutability": "view",
      "type": "function"
    },
    {
      "constant": true,
      "inputs": [
        {
          "name": "",
          "type": "address"
        }
      ],
      "name": "balances",
      "outputs": [
        {
          "name": "",
          "type": "uint256"
        }
      ],
      "payable": false,
      "stateMutability": "view",
      "type": "function"
    },
    {
      "constant": true,
      "inputs": [],
      "name": "decimals",
      "outputs": [
        {
          "name": "",
          "type": "uint8"
        }
      ],
      "payable": false,
      "stateMutability": "view",
      "type": "function"
    },
    {
      "constant": true,
      "inputs": [],
      "name": "PullRequestsAddress",
      "outputs": [
        {
          "name": "",
          "type": "address"
        }
      ],
      "payable": false,
      "stateMutability": "view",
      "type": "function"
    },
    {
      "constant": false,
      "inputs": [
        {
          "name": "_address",
          "type": "address"
        }
      ],
      "name": "revokeApproval",
      "outputs": [],
      "payable": false,
      "stateMutability": "nonpayable",
      "type": "function"
    },
    {
      "constant": true,
      "inputs": [],
      "name": "remainingWeiAggregateMayInvest",
      "outputs": [
        {
          "name": "",
          "type": "uint256"
        }
      ],
      "payable": false,
      "stateMutability": "view",
      "type": "function"
    },
    {
      "constant": false,
      "inputs": [
        {
          "name": "_numDIDToExchange",
          "type": "uint256"
        }
      ],
      "name": "exchangeDIDForEther",
      "outputs": [
        {
          "name": "",
          "type": "uint256"
        }
      ],
      "payable": false,
      "stateMutability": "nonpayable",
      "type": "function"
    },
    {
      "constant": true,
      "inputs": [
        {
          "name": "_person",
          "type": "address"
        }
      ],
      "name": "pctDIDOwned",
      "outputs": [
        {
          "name": "",
          "type": "uint256"
        }
      ],
      "payable": false,
      "stateMutability": "view",
      "type": "function"
    },
    {
      "constant": true,
      "inputs": [],
      "name": "numWeiAddressMayInvest",
      "outputs": [
        {
          "name": "",
          "type": "uint256"
        }
      ],
      "payable": false,
      "stateMutability": "view",
      "type": "function"
    },
    {
      "constant": true,
      "inputs": [],
      "name": "symbol",
      "outputs": [
        {
          "name": "",
          "type": "string"
        }
      ],
      "payable": false,
      "stateMutability": "view",
      "type": "function"
    },
    {
      "constant": false,
      "inputs": [],
      "name": "investEtherForDID",
      "outputs": [
        {
          "name": "",
          "type": "uint256"
        }
      ],
      "payable": true,
      "stateMutability": "payable",
      "type": "function"
    },
    {
      "constant": true,
      "inputs": [
        {
          "name": "",
          "type": "address"
        }
      ],
      "name": "approved",
      "outputs": [
        {
          "name": "",
          "type": "bool"
        }
      ],
      "payable": false,
      "stateMutability": "view",
      "type": "function"
    },
    {
      "constant": false,
      "inputs": [
        {
          "name": "_address",
          "type": "address"
        }
      ],
      "name": "approve",
      "outputs": [],
      "payable": false,
      "stateMutability": "nonpayable",
      "type": "function"
    },
    {
      "constant": true,
      "inputs": [
        {
          "name": "",
          "type": "address"
        }
      ],
      "name": "numWeiInvestedAddress",
      "outputs": [
        {
          "name": "",
          "type": "uint256"
        }
      ],
      "payable": false,
      "stateMutability": "view",
      "type": "function"
    },
    {
      "inputs": [
        {
          "name": "_DistenseAddress",
          "type": "address"
        }
      ],
      "payable": true,
      "stateMutability": "payable",
      "type": "constructor"
    },
    {
      "anonymous": false,
      "inputs": [
        {
          "indexed": true,
          "name": "to",
          "type": "address"
        },
        {
          "indexed": false,
          "name": "numDID",
          "type": "uint256"
        }
      ],
      "name": "LogIssueDID",
      "type": "event"
    },
    {
      "anonymous": false,
      "inputs": [
        {
          "indexed": true,
          "name": "to",
          "type": "address"
        },
        {
          "indexed": false,
          "name": "numDID",
          "type": "uint256"
        }
      ],
      "name": "LogExchangeDIDForEther",
      "type": "event"
    },
    {
      "anonymous": false,
      "inputs": [
        {
          "indexed": true,
          "name": "to",
          "type": "address"
        },
        {
          "indexed": false,
          "name": "numWei",
          "type": "uint256"
        }
      ],
      "name": "LogInvestEtherForDID",
      "type": "event"
    }
  ],
  "bytecode": "0x606060405269021e19e0c9bab2400000600855683635c9adc5dea000006009556000600a55604051602080610e2883398101604052808051600060038190556002805460ff19908116601217909155600160a060020a033316825260056020526040918290208054909116600117905590925090508051908101604052600c81527f44697374656e7365204449440000000000000000000000000000000000000000602082015260009080516100b9929160200190610127565b5060408051908101604052600381527f444944000000000000000000000000000000000000000000000000000000000060208201526001908051610101929160200190610127565b5060078054600160a060020a031916600160a060020a03929092169190911790556101c2565b828054600181600116156101000203166002900490600052602060002090601f016020900481019282601f1061016857805160ff1916838001178555610195565b82800160010185558215610195579182015b8281111561019557825182559160200191906001019061017a565b506101a19291506101a5565b5090565b6101bf91905b808211156101a157600081556001016101ab565b90565b610c57806101d16000396000f3006060604052600436106100f85763ffffffff60e060020a6000350416630261a40381146100fd57806306f9729d1461013157806306fdde03146101445780630afdbaed146101ce57806313627793146101fd57806318160ddd1461021c57806322d2f5ff1461022f57806327e235e314610242578063313ce5671461026157806346da6eee1461028a578063484685b01461029d5780634f5be968146102be57806387b30845146102d157806388004950146102e75780638f6d57171461030657806395d89b4114610319578063a723761a1461032c578063d8b964e614610334578063daea85c514610367578063ef8c1d7314610386575b600080fd5b341561010857600080fd5b61011f600160a060020a03600435166024356103a5565b60405190815260200160405180910390f35b341561013c57600080fd5b61011f61048f565b341561014f57600080fd5b610157610495565b60405160208082528190810183818151815260200191508051906020019080838360005b8381101561019357808201518382015260200161017b565b50505050905090810190601f1680156101c05780820380516001836020036101000a031916815260200191505b509250505060405180910390f35b34156101d957600080fd5b6101e1610533565b604051600160a060020a03909116815260200160405180910390f35b341561020857600080fd5b61011f600160a060020a0360043516610542565b341561022757600080fd5b61011f610561565b341561023a57600080fd5b61011f610567565b341561024d57600080fd5b61011f600160a060020a036004351661056d565b341561026c57600080fd5b61027461057f565b60405160ff909116815260200160405180910390f35b341561029557600080fd5b6101e1610588565b34156102a857600080fd5b6102bc600160a060020a0360043516610597565b005b34156102c957600080fd5b61011f6105f4565b34156102dc57600080fd5b61011f6004356105fe565b34156102f257600080fd5b61011f600160a060020a03600435166107f9565b341561031157600080fd5b61011f6108ae565b341561032457600080fd5b6101576108b4565b61011f61091f565b341561033f57600080fd5b610353600160a060020a0360043516610b36565b604051901515815260200160405180910390f35b341561037257600080fd5b6102bc600160a060020a0360043516610b4b565b341561039157600080fd5b61011f600160a060020a0360043516610bab565b600160a060020a03331660009081526005602052604081205460ff1615156103cc57600080fd5b600160a060020a03831615156103e157600080fd5b600082116103ee57600080fd5b6103fa60035483610bbd565b600355600160a060020a0383166000908152600460205260409020546104209083610bbd565b600160a060020a0384166000818152600460205260409081902092909255907f3433529aaca741f54b3397d6ef2d588bb92ecd0d87c4c41db2f379bfe5c168f49084905190815260200160405180910390a25050600160a060020a031660009081526004602052604090205490565b600a5481565b60008054600181600116156101000203166002900480601f01602080910402602001604051908101604052809291908181526020018280546001816001161561010002031660029004801561052b5780601f106105005761010080835404028352916020019161052b565b820191906000526020600020905b81548152906001019060200180831161050e57829003601f168201915b505050505081565b600754600160a060020a031681565b600160a060020a03166000908152600b60205260409020546009540390565b60035481565b60085481565b60046020526000908152604090205481565b60025460ff1681565b600654600160a060020a031681565b600160a060020a03331660009081526005602052604090205460ff1615156105be57600080fd5b600160a060020a03811615156105d357600080fd5b600160a060020a03166000908152600560205260409020805460ff19169055565b600a546008540390565b33600160a060020a038116600090815260046020526040812054909182918291829186908181101561062f57600080fd5b600754600160a060020a0316955085638fc6ad2d81632273bae26000604051602001526040518163ffffffff1660e060020a028152600401602060405180830381600087803b151561068057600080fd5b6102c65a03f1151561069157600080fd5b5050506040518051905060006040516020015260405160e060020a63ffffffff84160281526004810191909152602401602060405180830381600087803b15156106da57600080fd5b6102c65a03f115156106eb57600080fd5b5050506040518051905094506107018886610bd7565b9350600160a060020a0330163184901161071a57600080fd5b600160a060020a03331660009081526004602052604090205461073d9089610bee565b600160a060020a0333166000908152600460205260409020556003546107639089610bee565b600355600160a060020a03331684156108fc0285604051600060405180830381858888f19350505050151561079757600080fd5b33600160a060020a03167feb7d31df09103642237866b5fa5946a266fda42585c7ba30a006a40e4e478d3f8960405190815260200160405180910390a250505033600160a060020a031660009081526004602052604090205495945050505050565b6000806004600084600160a060020a0316600160a060020a0316815260200190815260200160002054905073__SafeMath______________________________622c1a9e82600354600460006040516020015260405160e060020a63ffffffff861602815260048101939093526024830191909152604482015260640160206040518083038186803b151561088d57600080fd5b6102c65a03f4151561089e57600080fd5b5050506040518051949350505050565b60095481565b60018054600181600116156101000203166002900480601f01602080910402602001604051908101604052809291908181526020018280546001816001161561010002031660029004801561052b5780601f106105005761010080835404028352916020019161052b565b60008060008060008061093133610542565b90503481101561094057600080fd5b600854600a541061095057600080fd5b600754600160a060020a0316945084638fc6ad2d81632273bae26000604051602001526040518163ffffffff1660e060020a028152600401602060405180830381600087803b15156109a157600080fd5b6102c65a03f115156109b257600080fd5b5050506040518051905060006040516020015260405160e060020a63ffffffff84160281526004810191909152602401602060405180830381600087803b15156109fb57600080fd5b6102c65a03f11515610a0c57600080fd5b505050604051805190509350610a2a34670de0b6b3a7640000610bd7565b9250610a368484610c00565b9150610a4460035483610bbd565b600355600160a060020a033316600090815260046020526040902054610a6a9083610bbd565b600160a060020a033316600081815260046020908152604080832094909455600b9052829020805434908101909155600a80549091019055907f3433529aaca741f54b3397d6ef2d588bb92ecd0d87c4c41db2f379bfe5c168f49084905190815260200160405180910390a233600160a060020a03167f71894dba69eac3a3461302b16631257b4580fbc7be61f1d4b0e988845e6400f03460405190815260200160405180910390a2600160a060020a0333166000908152600460205260409020549550505050505090565b60056020526000908152604090205460ff1681565b600160a060020a03331660009081526005602052604090205460ff161515610b7257600080fd5b600160a060020a0381161515610b8757600080fd5b600160a060020a03166000908152600560205260409020805460ff19166001179055565b600b6020526000908152604090205481565b600082820183811015610bcc57fe5b8091505b5092915050565b6000808284811515610be557fe5b04949350505050565b600082821115610bfa57fe5b50900390565b600080831515610c135760009150610bd0565b50828202828482811515610c2357fe5b0414610bcc57fe00a165627a7a723058201cf7d3f7218213428521989ef4eb09ee8d4d8d9b138f066a269b50fc380a32bd0029",
  "source": "pragma solidity ^0.4.17;\n\nimport './lib/Approvable.sol';\nimport './Distense.sol';\nimport './lib/SafeMath.sol';\nimport './lib/Token.sol';\nimport './Debuggable.sol';\n\n\ncontract DIDToken is Token, Approvable {\n\n    using SafeMath for uint256;\n\n    event LogIssueDID(address indexed to, uint256 numDID);\n    event LogExchangeDIDForEther(address indexed to, uint256 numDID);\n    event LogInvestEtherForDID(address indexed to, uint256 numWei);\n\n    address public PullRequestsAddress;\n    address public DistenseAddress;\n\n    uint256 public numWeiAggregateMayInvest  = 10000 ether;  // This is the max DID all addresses can receive from depositing ether\n    uint256 public numWeiAddressMayInvest   = 1000 ether;  // This is the max DID any address can receive from Ether deposit\n    uint256 public weiInvestedAggregate = 0 ether;\n\n    mapping(address => uint256) public numWeiInvestedAddress    ;  // keep track of how much contributors have deposited to prevent over depositing\n\n    function DIDToken(address _DistenseAddress) public payable {\n        name = \"Distense DID\";\n        symbol = \"DID\";\n\n        DistenseAddress = _DistenseAddress;\n    }\n\n    function issueDID(address _recipient, uint256 _numDID) external onlyApproved returns (uint256) {\n        require(_recipient != address(0));\n        require(_numDID > 0);\n\n        totalSupply = SafeMath.add(totalSupply, _numDID);\n        balances[_recipient] = SafeMath.add(balances[_recipient], _numDID);\n        LogIssueDID(_recipient, _numDID);\n\n        return balances[_recipient];\n    }\n\n    function pctDIDOwned(address _person) external view returns (uint256) {\n        uint owned = balances[_person];\n        return SafeMath.percent(owned, totalSupply, 4);\n    }\n\n    function exchangeDIDForEther(uint256 _numDIDToExchange)\n        hasEnoughDID(msg.sender, _numDIDToExchange)\n        external\n    returns (uint256) {\n\n        Distense distense = Distense(DistenseAddress);\n        uint256 DIDPerEther = distense.getParameterValueByTitle(distense.didPerEtherParameterTitle());\n\n        uint256 numEtherToIssue = SafeMath.div(_numDIDToExchange, DIDPerEther);\n        require(this.balance > numEtherToIssue);\n\n        //  Adjust number of DID owned first\n        balances[msg.sender] = SafeMath.sub(balances[msg.sender], _numDIDToExchange);\n        totalSupply = SafeMath.sub(totalSupply, _numDIDToExchange);\n\n        msg.sender.transfer(numEtherToIssue);\n        LogExchangeDIDForEther(msg.sender, _numDIDToExchange);\n\n        return balances[msg.sender];\n    }\n\n    function investEtherForDID() canDepositThisManyEtherForDID() external payable returns (uint256) {\n\n        Distense distense = Distense(DistenseAddress);\n        uint256 DIDPerEther = distense.getParameterValueByTitle(distense.didPerEtherParameterTitle());\n\n        uint256 numEtherInvested = SafeMath.div(msg.value, 1000000000000000000);\n\n        uint256 numDIDToIssue = SafeMath.mul(DIDPerEther, numEtherInvested);\n\n        totalSupply = SafeMath.add(totalSupply, numDIDToIssue);\n        balances[msg.sender] = SafeMath.add(balances[msg.sender], numDIDToIssue);\n\n        numWeiInvestedAddress[msg.sender] += msg.value;\n        weiInvestedAggregate += msg.value;\n\n        LogIssueDID(msg.sender, numDIDToIssue);\n        LogInvestEtherForDID(msg.sender, msg.value);\n\n        return balances[msg.sender];\n    }\n\n    function numWeiContributorMayInvest(address contributor) public view returns (uint256) {\n        return numWeiAddressMayInvest - numWeiInvestedAddress[contributor];\n    }\n\n    function remainingWeiAggregateMayInvest() public view returns (uint256) {\n        return numWeiAggregateMayInvest - weiInvestedAggregate;\n    }\n\n    modifier hasEnoughDID(address _contributor, uint256 _num) {\n        uint256 balance = balances[_contributor];\n        require(balance >= _num);\n        _;\n    }\n\n    modifier canDepositThisManyEtherForDID() {\n        uint256 numWeiMayInvest = numWeiContributorMayInvest(msg.sender);\n        require(numWeiMayInvest >= msg.value);\n        require(weiInvestedAggregate < numWeiAggregateMayInvest);\n        _;\n    }\n\n\n\n}\n",
  "sourcePath": "/Users/john/distense-contracts/contracts/DIDToken.sol",
  "compiler": {
    "name": "solc",
    "version": "0.4.18+commit.9cf6e910.Emscripten.clang"
  },
  "schemaVersion": "1.0.1",
  "updatedAt": "2018-01-23T23:14:58.809Z"
}