{
  "contractName": "DIDToken",
  "abi": [
    {
      "constant": false,
      "inputs": [
        {
          "name": "_recipient",
          "type": "address"
        },
        {
          "name": "_numDID",
          "type": "uint256"
        }
      ],
      "name": "issueDID",
      "outputs": [
        {
          "name": "",
          "type": "uint256"
        }
      ],
      "payable": false,
      "stateMutability": "nonpayable",
      "type": "function"
    },
    {
      "constant": true,
      "inputs": [],
      "name": "name",
      "outputs": [
        {
          "name": "",
          "type": "string"
        }
      ],
      "payable": false,
      "stateMutability": "view",
      "type": "function"
    },
    {
      "constant": true,
      "inputs": [],
      "name": "totalSupply",
      "outputs": [
        {
          "name": "",
          "type": "uint256"
        }
      ],
      "payable": false,
      "stateMutability": "view",
      "type": "function"
    },
    {
      "constant": true,
      "inputs": [
        {
          "name": "",
          "type": "address"
        }
      ],
      "name": "balances",
      "outputs": [
        {
          "name": "",
          "type": "uint256"
        }
      ],
      "payable": false,
      "stateMutability": "view",
      "type": "function"
    },
    {
      "constant": true,
      "inputs": [],
      "name": "decimals",
      "outputs": [
        {
          "name": "",
          "type": "uint8"
        }
      ],
      "payable": false,
      "stateMutability": "view",
      "type": "function"
    },
    {
      "constant": false,
      "inputs": [
        {
          "name": "_address",
          "type": "address"
        }
      ],
      "name": "revokeApproval",
      "outputs": [],
      "payable": false,
      "stateMutability": "nonpayable",
      "type": "function"
    },
    {
      "constant": true,
      "inputs": [
        {
          "name": "person",
          "type": "address"
        }
      ],
      "name": "pctDIDOwned",
      "outputs": [
        {
          "name": "",
          "type": "uint256"
        }
      ],
      "payable": false,
      "stateMutability": "view",
      "type": "function"
    },
    {
      "constant": true,
      "inputs": [],
      "name": "symbol",
      "outputs": [
        {
          "name": "",
          "type": "string"
        }
      ],
      "payable": false,
      "stateMutability": "view",
      "type": "function"
    },
    {
      "constant": true,
      "inputs": [
        {
          "name": "",
          "type": "address"
        }
      ],
      "name": "approved",
      "outputs": [
        {
          "name": "",
          "type": "bool"
        }
      ],
      "payable": false,
      "stateMutability": "view",
      "type": "function"
    },
    {
      "constant": false,
      "inputs": [
        {
          "name": "_address",
          "type": "address"
        }
      ],
      "name": "approve",
      "outputs": [],
      "payable": false,
      "stateMutability": "nonpayable",
      "type": "function"
    },
    {
      "inputs": [],
      "payable": false,
      "stateMutability": "nonpayable",
      "type": "constructor"
    },
    {
      "anonymous": false,
      "inputs": [
        {
          "indexed": true,
          "name": "to",
          "type": "address"
        },
        {
          "indexed": false,
          "name": "numDID",
          "type": "uint256"
        }
      ],
      "name": "LogIssueDID",
      "type": "event"
    },
    {
      "anonymous": false,
      "inputs": [
        {
          "indexed": false,
          "name": "someAddress",
          "type": "address"
        }
      ],
      "name": "LogAddress",
      "type": "event"
    },
    {
      "anonymous": false,
      "inputs": [
        {
          "indexed": false,
          "name": "boolean",
          "type": "bool"
        }
      ],
      "name": "LogBool",
      "type": "event"
    },
    {
      "anonymous": false,
      "inputs": [
        {
          "indexed": false,
          "name": "someBytes",
          "type": "bytes"
        }
      ],
      "name": "LogBytes",
      "type": "event"
    },
    {
      "anonymous": false,
      "inputs": [
        {
          "indexed": false,
          "name": "aBytes32",
          "type": "bytes32"
        }
      ],
      "name": "LogBytes32",
      "type": "event"
    },
    {
      "anonymous": false,
      "inputs": [
        {
          "indexed": false,
          "name": "aString",
          "type": "string"
        }
      ],
      "name": "LogString",
      "type": "event"
    },
    {
      "anonymous": false,
      "inputs": [
        {
          "indexed": false,
          "name": "someInt",
          "type": "uint256"
        }
      ],
      "name": "LogUInt256",
      "type": "event"
    }
  ],
  "bytecode": "0x6060604052341561000f57600080fd5b60006003819055506012600260006101000a81548160ff021916908360ff1602179055506001600560003373ffffffffffffffffffffffffffffffffffffffff1673ffffffffffffffffffffffffffffffffffffffff16815260200190815260200160002060006101000a81548160ff0219169083151502179055506040805190810160405280600c81526020017f44697374656e7365204449440000000000000000000000000000000000000000815250600090805190602001906100d6929190610128565b506040805190810160405280600381526020017f444944000000000000000000000000000000000000000000000000000000000081525060019080519060200190610122929190610128565b506101cd565b828054600181600116156101000203166002900490600052602060002090601f016020900481019282601f1061016957805160ff1916838001178555610197565b82800160010185558215610197579182015b8281111561019657825182559160200191906001019061017b565b5b5090506101a491906101a8565b5090565b6101ca91905b808211156101c65760008160009055506001016101ae565b5090565b90565b610a60806101dc6000396000f3006060604052600436106100a4576000357c0100000000000000000000000000000000000000000000000000000000900463ffffffff1680630261a403146100a957806306fdde03146100ff57806318160ddd1461018d57806327e235e3146101b6578063313ce56714610203578063484685b014610232578063880049501461026b57806395d89b41146102b8578063d8b964e614610346578063daea85c514610397575b600080fd5b34156100b457600080fd5b6100e9600480803573ffffffffffffffffffffffffffffffffffffffff169060200190919080359060200190919050506103d0565b6040518082815260200191505060405180910390f35b341561010a57600080fd5b6101126105a9565b6040518080602001828103825283818151815260200191508051906020019080838360005b83811015610152578082015181840152602081019050610137565b50505050905090810190601f16801561017f5780820380516001836020036101000a031916815260200191505b509250505060405180910390f35b341561019857600080fd5b6101a0610647565b6040518082815260200191505060405180910390f35b34156101c157600080fd5b6101ed600480803573ffffffffffffffffffffffffffffffffffffffff1690602001909190505061064d565b6040518082815260200191505060405180910390f35b341561020e57600080fd5b610216610665565b604051808260ff1660ff16815260200191505060405180910390f35b341561023d57600080fd5b610269600480803573ffffffffffffffffffffffffffffffffffffffff16906020019091905050610678565b005b341561027657600080fd5b6102a2600480803573ffffffffffffffffffffffffffffffffffffffff16906020019091905050610755565b6040518082815260200191505060405180910390f35b34156102c357600080fd5b6102cb610842565b6040518080602001828103825283818151815260200191508051906020019080838360005b8381101561030b5780820151818401526020810190506102f0565b50505050905090810190601f1680156103385780820380516001836020036101000a031916815260200191505b509250505060405180910390f35b341561035157600080fd5b61037d600480803573ffffffffffffffffffffffffffffffffffffffff169060200190919050506108e0565b604051808215151515815260200191505060405180910390f35b34156103a257600080fd5b6103ce600480803573ffffffffffffffffffffffffffffffffffffffff16906020019091905050610900565b005b6000600560003373ffffffffffffffffffffffffffffffffffffffff1673ffffffffffffffffffffffffffffffffffffffff16815260200190815260200160002060009054906101000a900460ff16151561042a57600080fd5b6104498373ffffffffffffffffffffffffffffffffffffffff166109dd565b151561045457600080fd5b60008211151561046357600080fd5b61047882600354610a1690919063ffffffff16565b6003819055506104d082600460008673ffffffffffffffffffffffffffffffffffffffff1673ffffffffffffffffffffffffffffffffffffffff16815260200190815260200160002054610a1690919063ffffffff16565b600460008573ffffffffffffffffffffffffffffffffffffffff1673ffffffffffffffffffffffffffffffffffffffff168152602001908152602001600020819055508273ffffffffffffffffffffffffffffffffffffffff167f3433529aaca741f54b3397d6ef2d588bb92ecd0d87c4c41db2f379bfe5c168f4836040518082815260200191505060405180910390a2600460008473ffffffffffffffffffffffffffffffffffffffff1673ffffffffffffffffffffffffffffffffffffffff16815260200190815260200160002054905092915050565b60008054600181600116156101000203166002900480601f01602080910402602001604051908101604052809291908181526020018280546001816001161561010002031660029004801561063f5780601f106106145761010080835404028352916020019161063f565b820191906000526020600020905b81548152906001019060200180831161062257829003601f168201915b505050505081565b60035481565b60046020528060005260406000206000915090505481565b600260009054906101000a900460ff1681565b600560003373ffffffffffffffffffffffffffffffffffffffff1673ffffffffffffffffffffffffffffffffffffffff16815260200190815260200160002060009054906101000a900460ff1615156106d057600080fd5b6106ef8173ffffffffffffffffffffffffffffffffffffffff166109dd565b15156106fa57600080fd5b6000600560008373ffffffffffffffffffffffffffffffffffffffff1673ffffffffffffffffffffffffffffffffffffffff16815260200190815260200160002060006101000a81548160ff02191690831515021790555050565b600080600460008473ffffffffffffffffffffffffffffffffffffffff1673ffffffffffffffffffffffffffffffffffffffff16815260200190815260200160002054905073__SafeMath______________________________622c1a9e8260035460036000604051602001526040518463ffffffff167c010000000000000000000000000000000000000000000000000000000002815260040180848152602001838152602001828152602001935050505060206040518083038186803b151561081f57600080fd5b6102c65a03f4151561083057600080fd5b50505060405180519050915050919050565b60018054600181600116156101000203166002900480601f0160208091040260200160405190810160405280929190818152602001828054600181600116156101000203166002900480156108d85780601f106108ad576101008083540402835291602001916108d8565b820191906000526020600020905b8154815290600101906020018083116108bb57829003601f168201915b505050505081565b60056020528060005260406000206000915054906101000a900460ff1681565b600560003373ffffffffffffffffffffffffffffffffffffffff1673ffffffffffffffffffffffffffffffffffffffff16815260200190815260200160002060009054906101000a900460ff16151561095857600080fd5b6109778173ffffffffffffffffffffffffffffffffffffffff166109dd565b151561098257600080fd5b6001600560008373ffffffffffffffffffffffffffffffffffffffff1673ffffffffffffffffffffffffffffffffffffffff16815260200190815260200160002060006101000a81548160ff02191690831515021790555050565b60008073ffffffffffffffffffffffffffffffffffffffff168273ffffffffffffffffffffffffffffffffffffffff1614159050919050565b6000808284019050838110151515610a2a57fe5b80915050929150505600a165627a7a72305820f795564312de782b3639cfeaaf0aa42d9e99c8ede0a507637ca541c55bfefa910029",
  "source": "pragma solidity ^0.4.17;\n\nimport './lib/Approvable.sol';\nimport './lib/SafeMath.sol';\nimport './lib/AddressUtils.sol';\nimport './lib/Token.sol';\nimport './Debuggable.sol';\n\n\ncontract DIDToken is Token, Approvable, Debuggable {\n\n  using AddressUtils for address;\n  using SafeMath for uint256;\n\n  event LogIssueDID(address indexed to, uint256 numDID);\n\n  function DIDToken () public {\n    name = \"Distense DID\";\n    symbol = \"DID\";\n  }\n\n  function issueDID(address _recipient, uint256 _numDID) external onlyApproved returns (uint256) {\n    require(_recipient.isValid());\n    require(_numDID > 0);\n\n    totalSupply = totalSupply.add(_numDID);\n    balances[_recipient] = balances[_recipient].add(_numDID);\n    LogIssueDID(_recipient, _numDID);\n\n    return balances[_recipient];\n  }\n  \n  function pctDIDOwned(address person) external view returns (uint256) {\n    uint owned = balances[person];\n    return SafeMath.percent(owned, totalSupply, 3);\n  }\n\n}\n",
  "sourcePath": "/Users/john/distense-ui/node_modules/distense-contracts/contracts/DIDToken.sol",
  "compiler": {
    "name": "solc",
    "version": "0.4.18+commit.9cf6e910.Emscripten.clang"
  },
  "schemaVersion": "1.0.1",
  "updatedAt": "2017-12-15T06:48:22.306Z"
}