{
  "contractName": "DIDToken",
  "abi": [
    {
      "constant": true,
      "inputs": [],
      "name": "name",
      "outputs": [
        {
          "name": "",
          "type": "string"
        }
      ],
      "payable": false,
      "stateMutability": "view",
      "type": "function"
    },
    {
      "constant": true,
      "inputs": [],
      "name": "DistenseAddress",
      "outputs": [
        {
          "name": "",
          "type": "address"
        }
      ],
      "payable": false,
      "stateMutability": "view",
      "type": "function"
    },
    {
      "constant": true,
      "inputs": [],
      "name": "totalSupply",
      "outputs": [
        {
          "name": "",
          "type": "uint256"
        }
      ],
      "payable": false,
      "stateMutability": "view",
      "type": "function"
    },
    {
      "constant": true,
      "inputs": [],
      "name": "investedAggregate",
      "outputs": [
        {
          "name": "",
          "type": "uint256"
        }
      ],
      "payable": false,
      "stateMutability": "view",
      "type": "function"
    },
    {
      "constant": true,
      "inputs": [],
      "name": "decimals",
      "outputs": [
        {
          "name": "",
          "type": "uint8"
        }
      ],
      "payable": false,
      "stateMutability": "view",
      "type": "function"
    },
    {
      "constant": true,
      "inputs": [],
      "name": "PullRequestsAddress",
      "outputs": [
        {
          "name": "",
          "type": "address"
        }
      ],
      "payable": false,
      "stateMutability": "view",
      "type": "function"
    },
    {
      "constant": false,
      "inputs": [
        {
          "name": "_address",
          "type": "address"
        }
      ],
      "name": "revokeApproval",
      "outputs": [],
      "payable": false,
      "stateMutability": "nonpayable",
      "type": "function"
    },
    {
      "constant": true,
      "inputs": [],
      "name": "symbol",
      "outputs": [
        {
          "name": "",
          "type": "string"
        }
      ],
      "payable": false,
      "stateMutability": "view",
      "type": "function"
    },
    {
      "constant": true,
      "inputs": [],
      "name": "investmentLimitAggregate",
      "outputs": [
        {
          "name": "",
          "type": "uint256"
        }
      ],
      "payable": false,
      "stateMutability": "view",
      "type": "function"
    },
    {
      "constant": true,
      "inputs": [],
      "name": "investmentLimitAddress",
      "outputs": [
        {
          "name": "",
          "type": "uint256"
        }
      ],
      "payable": false,
      "stateMutability": "view",
      "type": "function"
    },
    {
      "constant": true,
      "inputs": [
        {
          "name": "",
          "type": "uint256"
        }
      ],
      "name": "DIDHoldersArray",
      "outputs": [
        {
          "name": "",
          "type": "address"
        }
      ],
      "payable": false,
      "stateMutability": "view",
      "type": "function"
    },
    {
      "constant": true,
      "inputs": [
        {
          "name": "",
          "type": "address"
        }
      ],
      "name": "DIDHolders",
      "outputs": [
        {
          "name": "balance",
          "type": "uint256"
        },
        {
          "name": "DIDHoldersIndex",
          "type": "uint256"
        },
        {
          "name": "weiInvested",
          "type": "uint256"
        }
      ],
      "payable": false,
      "stateMutability": "view",
      "type": "function"
    },
    {
      "constant": true,
      "inputs": [
        {
          "name": "",
          "type": "address"
        }
      ],
      "name": "approved",
      "outputs": [
        {
          "name": "",
          "type": "bool"
        }
      ],
      "payable": false,
      "stateMutability": "view",
      "type": "function"
    },
    {
      "constant": false,
      "inputs": [
        {
          "name": "_address",
          "type": "address"
        }
      ],
      "name": "approve",
      "outputs": [],
      "payable": false,
      "stateMutability": "nonpayable",
      "type": "function"
    },
    {
      "inputs": [],
      "payable": false,
      "stateMutability": "nonpayable",
      "type": "constructor"
    },
    {
      "anonymous": false,
      "inputs": [
        {
          "indexed": true,
          "name": "to",
          "type": "address"
        },
        {
          "indexed": false,
          "name": "numDID",
          "type": "uint256"
        }
      ],
      "name": "LogIssueDID",
      "type": "event"
    },
    {
      "anonymous": false,
      "inputs": [
        {
          "indexed": true,
          "name": "to",
          "type": "address"
        },
        {
          "indexed": false,
          "name": "numDID",
          "type": "uint256"
        }
      ],
      "name": "LogDecrementDID",
      "type": "event"
    },
    {
      "anonymous": false,
      "inputs": [
        {
          "indexed": true,
          "name": "to",
          "type": "address"
        },
        {
          "indexed": false,
          "name": "numDID",
          "type": "uint256"
        }
      ],
      "name": "LogExchangeDIDForEther",
      "type": "event"
    },
    {
      "anonymous": false,
      "inputs": [
        {
          "indexed": true,
          "name": "to",
          "type": "address"
        },
        {
          "indexed": false,
          "name": "numWei",
          "type": "uint256"
        }
      ],
      "name": "LogInvestEtherForDID",
      "type": "event"
    },
    {
      "constant": false,
      "inputs": [
        {
          "name": "_recipient",
          "type": "address"
        },
        {
          "name": "_numDID",
          "type": "uint256"
        }
      ],
      "name": "issueDID",
      "outputs": [
        {
          "name": "",
          "type": "uint256"
        }
      ],
      "payable": false,
      "stateMutability": "nonpayable",
      "type": "function"
    },
    {
      "constant": false,
      "inputs": [
        {
          "name": "_address",
          "type": "address"
        },
        {
          "name": "_numDID",
          "type": "uint256"
        }
      ],
      "name": "decrementDID",
      "outputs": [
        {
          "name": "",
          "type": "uint256"
        }
      ],
      "payable": false,
      "stateMutability": "nonpayable",
      "type": "function"
    },
    {
      "constant": true,
      "inputs": [
        {
          "name": "_address",
          "type": "address"
        }
      ],
      "name": "pctDIDOwned",
      "outputs": [
        {
          "name": "",
          "type": "uint256"
        }
      ],
      "payable": false,
      "stateMutability": "view",
      "type": "function"
    },
    {
      "constant": false,
      "inputs": [
        {
          "name": "_numDIDToExchange",
          "type": "uint256"
        }
      ],
      "name": "exchangeDIDForEther",
      "outputs": [
        {
          "name": "",
          "type": "uint256"
        }
      ],
      "payable": false,
      "stateMutability": "nonpayable",
      "type": "function"
    },
    {
      "constant": false,
      "inputs": [],
      "name": "investEtherForDID",
      "outputs": [
        {
          "name": "",
          "type": "uint256"
        }
      ],
      "payable": true,
      "stateMutability": "payable",
      "type": "function"
    },
    {
      "constant": true,
      "inputs": [
        {
          "name": "contributor",
          "type": "address"
        }
      ],
      "name": "getNumWeiAddressMayInvest",
      "outputs": [
        {
          "name": "",
          "type": "uint256"
        }
      ],
      "payable": false,
      "stateMutability": "view",
      "type": "function"
    },
    {
      "constant": true,
      "inputs": [],
      "name": "getWeiAggregateMayInvest",
      "outputs": [
        {
          "name": "",
          "type": "uint256"
        }
      ],
      "payable": false,
      "stateMutability": "view",
      "type": "function"
    },
    {
      "constant": true,
      "inputs": [],
      "name": "getNumDIDHolders",
      "outputs": [
        {
          "name": "",
          "type": "uint256"
        }
      ],
      "payable": false,
      "stateMutability": "view",
      "type": "function"
    },
    {
      "constant": true,
      "inputs": [
        {
          "name": "_address",
          "type": "address"
        }
      ],
      "name": "getAddressBalance",
      "outputs": [
        {
          "name": "",
          "type": "uint256"
        }
      ],
      "payable": false,
      "stateMutability": "view",
      "type": "function"
    },
    {
      "constant": true,
      "inputs": [
        {
          "name": "_address",
          "type": "address"
        }
      ],
      "name": "getWeiInvested",
      "outputs": [
        {
          "name": "",
          "type": "uint256"
        }
      ],
      "payable": false,
      "stateMutability": "view",
      "type": "function"
    },
    {
      "constant": false,
      "inputs": [
        {
          "name": "_distenseAddress",
          "type": "address"
        }
      ],
      "name": "setDistenseAddress",
      "outputs": [],
      "payable": false,
      "stateMutability": "nonpayable",
      "type": "function"
    }
  ],
  "bytecode": "0x606060405269021e19e0c9bab240000060045568056bc75e2d63100000600555600060065534156200003057600080fd5b600160a060020a03331660009081526020819052604090819020805460ff191660011790558051908101604052600c81527f44697374656e7365204449440000000000000000000000000000000000000000602082015260079080516200009c929160200190620000ff565b5060408051908101604052600381527f444944000000000000000000000000000000000000000000000000000000000060208201526008908051620000e6929160200190620000ff565b506000600a556009805460ff19166012179055620001a4565b828054600181600116156101000203166002900490600052602060002090601f016020900481019282601f106200014257805160ff191683800117855562000172565b8280016001018555821562000172579182015b828111156200017257825182559160200191906001019062000155565b506200018092915062000184565b5090565b620001a191905b808211156200018057600081556001016200018b565b90565b61118780620001b46000396000f30060606040526004361061012f5763ffffffff60e060020a6000350416630261a403811461013457806306fdde03146101685780630afdbaed146101f257806318160ddd1461022157806325078bc4146102345780632a4caf6714610247578063313ce56714610268578063350467221461029157806346da6eee146102b0578063484685b0146102c35780636168ba3c146102e257806387b30845146102f5578063880049501461030b578063915555591461032a57806395d89b41146103495780639ac97e841461035c578063a0d229d81461036f578063a723761a14610382578063bad0d4f11461038a578063c7560f461461039d578063cb1e4e44146103b3578063d7b16d91146103d5578063d8b964e614610418578063daea85c51461044b578063dc2b32e61461046a575b600080fd5b341561013f57600080fd5b610156600160a060020a0360043516602435610489565b60405190815260200160405180910390f35b341561017357600080fd5b61017b6105ed565b60405160208082528190810183818151815260200191508051906020019080838360005b838110156101b757808201518382015260200161019f565b50505050905090810190601f1680156101e45780820380516001836020036101000a031916815260200191505b509250505060405180910390f35b34156101fd57600080fd5b61020561068b565b604051600160a060020a03909116815260200160405180910390f35b341561022c57600080fd5b61015661069a565b341561023f57600080fd5b6101566106a0565b341561025257600080fd5b610266600160a060020a03600435166106a6565b005b341561027357600080fd5b61027b6106fc565b60405160ff909116815260200160405180910390f35b341561029c57600080fd5b610156600160a060020a0360043516610705565b34156102bb57600080fd5b610205610720565b34156102ce57600080fd5b610266600160a060020a036004351661072f565b34156102ed57600080fd5b61015661078c565b341561030057600080fd5b6101566004356107a2565b341561031657600080fd5b610156600160a060020a0360043516610a84565b341561033557600080fd5b610156600160a060020a0360043516610b1c565b341561035457600080fd5b61017b610b4c565b341561036757600080fd5b610156610bb7565b341561037a57600080fd5b610156610bbd565b610156610bc3565b341561039557600080fd5b610156610dbc565b34156103a857600080fd5b610205600435610dc2565b34156103be57600080fd5b610156600160a060020a0360043516602435610dea565b34156103e057600080fd5b6103f4600160a060020a0360043516610ff6565b60405180848152602001838152602001828152602001935050505060405180910390f35b341561042357600080fd5b610437600160a060020a0360043516611017565b604051901515815260200160405180910390f35b341561045657600080fd5b610266600160a060020a036004351661102c565b341561047557600080fd5b610156600160a060020a036004351661108c565b600160a060020a033316600090815260208190526040812054819060ff1615156104b257600080fd5b600160a060020a03841615156104c757600080fd5b600083116104d457600080fd5b6104e0600a54846110aa565b600a5550600160a060020a0383166000908152600b602052604090205461050781846110aa565b600160a060020a0385166000908152600b6020526040902090815560010154151561058d5760018054819080820161053f8382611114565b6000928352602080842092909201805473ffffffffffffffffffffffffffffffffffffffff1916600160a060020a038a169081179091558352600b9091526040909120919003600191909101555b83600160a060020a03167f3433529aaca741f54b3397d6ef2d588bb92ecd0d87c4c41db2f379bfe5c168f48460405190815260200160405180910390a2600160a060020a0384166000908152600b602052604090205491505b5092915050565b60078054600181600116156101000203166002900480601f0160208091040260200160405190810160405280929190818152602001828054600181600116156101000203166002900480156106835780601f1061065857610100808354040283529160200191610683565b820191906000526020600020905b81548152906001019060200180831161066657829003601f168201915b505050505081565b600354600160a060020a031681565b600a5481565b60065481565b600160a060020a03331660009081526020819052604090205460ff1615156106cd57600080fd5b6003805473ffffffffffffffffffffffffffffffffffffffff1916600160a060020a0392909216919091179055565b60095460ff1681565b600160a060020a03166000908152600b602052604090205490565b600254600160a060020a031681565b600160a060020a03331660009081526020819052604090205460ff16151561075657600080fd5b600160a060020a038116151561076b57600080fd5b600160a060020a03166000908152602081905260409020805460ff19169055565b600061079c6004546006546110c0565b90505b90565b600080600080600080338780600b600084600160a060020a0316600160a060020a0316815260200190815260200160002060000154101515156107e457600080fd5b600354600160a060020a0316965086638fc6ad2d81632273bae26040518163ffffffff1660e060020a028152600401602060405180830381600087803b151561082c57600080fd5b5af1151561083957600080fd5b5050506040518051905060405160e060020a63ffffffff84160281526004810191909152602401602060405180830381600087803b151561087957600080fd5b5af1151561088657600080fd5b50505060405180519050955061089c89876110d2565b9450309350600160a060020a038416318590116108b857600080fd5b600160a060020a0333166000908152600b60205260409020546108db908a6110c0565b600160a060020a0333166000908152600b6020526040902055600a54610901908a6110c0565b600a55600160a060020a03331685156108fc0286604051600060405180830381858888f19350505050151561093557600080fd5b600160a060020a0333166000908152600b60205260409020541515610a2157600180541115610a215760018054600019810190811061097057fe5b600091825260208083209091015433600160a060020a039081168452600b909252604090922060019081015481549290931695508592909181106109b057fe5b6000918252602090912001805473ffffffffffffffffffffffffffffffffffffffff1916600160a060020a039290921691909117905560018054906109f9906000198301611114565b50600160a060020a0333166000908152600b6020526040812081815560018101829055600201555b33600160a060020a03167feb7d31df09103642237866b5fa5946a266fda42585c7ba30a006a40e4e478d3f8a60405190815260200160405180910390a250505033600160a060020a03166000908152600b60205260409020549695505050505050565b600160a060020a0381166000908152600b602052604080822054600a5473__SafeMath______________________________92622c1a9e9291906004905160e060020a63ffffffff861602815260048101939093526024830191909152604482015260640160206040518083038186803b1515610b0057600080fd5b5af41515610b0d57600080fd5b50505060405180519392505050565b600554600160a060020a0382166000908152600b60205260408120600201549091610b46916110c0565b92915050565b60088054600181600116156101000203166002900480601f0160208091040260200160405190810160405280929190818152602001828054600181600116156101000203166002900480156106835780601f1061065857610100808354040283529160200191610683565b60015490565b60045481565b600080600080600080610bd533610b1c565b905034811015610be457600080fd5b60045460065410610bf457600080fd5b600354600160a060020a0316945084638fc6ad2d81632273bae26040518163ffffffff1660e060020a028152600401602060405180830381600087803b1515610c3c57600080fd5b5af11515610c4957600080fd5b5050506040518051905060405160e060020a63ffffffff84160281526004810191909152602401602060405180830381600087803b1515610c8957600080fd5b5af11515610c9657600080fd5b505050604051805190509350610cb434670de0b6b3a76400006110d2565b9250610cc084846110e9565b9150610cce600a54836110aa565b600a55600160a060020a0333166000908152600b6020526040902054610cf490836110aa565b600160a060020a0333166000818152600b6020526040908190209283556002909201805434908101909155600680549091019055907f3433529aaca741f54b3397d6ef2d588bb92ecd0d87c4c41db2f379bfe5c168f49084905190815260200160405180910390a233600160a060020a03167f71894dba69eac3a3461302b16631257b4580fbc7be61f1d4b0e988845e6400f03460405190815260200160405180910390a2600160a060020a0333166000908152600b60205260409020549550505050505090565b60055481565b6001805482908110610dd057fe5b600091825260209091200154600160a060020a0316905081565b600160a060020a033316600090815260208190526040812054819060ff161515610e1357600080fd5b600160a060020a0384161515610e2857600080fd5b60008311610e3557600080fd5b600160a060020a0384166000908152600b6020526040812054610e5890856110c0565b1015610e6357600080fd5b6000610e71600a54856110c0565b1015610e7c57600080fd5b610e88600a54846110c0565b600a55600160a060020a0384166000908152600b6020526040902054610eae90846110c0565b600160a060020a0385166000908152600b602052604090208190551515610f9b57600180541115610f9b57600180546000198101908110610eeb57fe5b6000918252602080832090910154600160a060020a038781168452600b90925260409092206001908101548154929093169350839290918110610f2a57fe5b6000918252602090912001805473ffffffffffffffffffffffffffffffffffffffff1916600160a060020a03929092169190911790556001805490610f73906000198301611114565b50600160a060020a0333166000908152600b6020526040812081815560018101829055600201555b83600160a060020a03167f9fa46c80453c295693dfa0974d48b43bfdb58bb909cedd3af0ba93589a3332c18460405190815260200160405180910390a2505050600160a060020a03166000908152600b602052604090205490565b600b6020526000908152604090208054600182015460029092015490919083565b60006020819052908152604090205460ff1681565b600160a060020a03331660009081526020819052604090205460ff16151561105357600080fd5b600160a060020a038116151561106857600080fd5b600160a060020a03166000908152602081905260409020805460ff19166001179055565b600160a060020a03166000908152600b602052604090206002015490565b6000828201838110156110b957fe5b9392505050565b6000828211156110cc57fe5b50900390565b60008082848115156110e057fe5b04949350505050565b6000808315156110fc57600091506105e6565b5082820282848281151561110c57fe5b04146110b957fe5b8154818355818115116111385760008381526020902061113891810190830161113d565b505050565b61079f91905b808211156111575760008155600101611143565b50905600a165627a7a72305820ec720ee1f991070d58d56267758958b7c9159d12a3d39181bb37805dcaa30ab00029",
  "source": "pragma solidity ^0.4.21;\n\nimport './lib/Approvable.sol';\nimport './Distense.sol';\nimport './lib/SafeMath.sol';\n\ncontract DIDToken is Approvable {\n\n    using SafeMath for uint256;\n\n    event LogIssueDID(address indexed to, uint256 numDID);\n    event LogDecrementDID(address indexed to, uint256 numDID);\n    event LogExchangeDIDForEther(address indexed to, uint256 numDID);\n    event LogInvestEtherForDID(address indexed to, uint256 numWei);\n\n    address[] public DIDHoldersArray;\n\n    address public PullRequestsAddress;\n    address public DistenseAddress;\n\n    uint256 public investmentLimitAggregate  = 10000 ether;  // This is the max DID all addresses can receive from depositing ether\n    uint256 public investmentLimitAddress = 100 ether;  // This is the max DID any address can receive from Ether deposit\n    uint256 public investedAggregate = 0 ether;\n\n    string public name;\n    string public symbol;\n    uint8 public decimals;\n    uint256 public totalSupply;\n\n    struct DIDHolder {\n        uint256 balance;\n        uint256 DIDHoldersIndex;\n        uint256 weiInvested;\n    }\n    mapping (address => DIDHolder) public DIDHolders;\n\n    function DIDToken() public {\n        name = \"Distense DID\";\n        symbol = \"DID\";\n        totalSupply = 0;\n        decimals = 18;\n    }\n\n    function issueDID(address _recipient, uint256 _numDID) external onlyApproved returns (uint256) {\n        require(_recipient != address(0));\n        require(_numDID > 0);\n\n        totalSupply = SafeMath.add(totalSupply, _numDID);\n        uint256 balance = DIDHolders[_recipient].balance;\n        DIDHolders[_recipient].balance = SafeMath.add(balance, _numDID);\n\n        if (DIDHolders[_recipient].DIDHoldersIndex == 0)\n            DIDHolders[_recipient].DIDHoldersIndex = DIDHoldersArray.push(_recipient) - 1;\n\n        emit LogIssueDID(_recipient, _numDID);\n\n        return DIDHolders[_recipient].balance;\n    }\n\n    function decrementDID(address _address, uint256 _numDID) external onlyApproved returns (uint256) {\n        require(_address != address(0));\n        require(_numDID > 0);\n        require(SafeMath.sub(DIDHolders[_address].balance, _numDID) >= 0);\n        require(SafeMath.sub(totalSupply, _numDID) >= 0);\n\n        totalSupply = SafeMath.sub(totalSupply, _numDID);\n        DIDHolders[_address].balance = SafeMath.sub(DIDHolders[_address].balance, _numDID);\n        //  If DIDHolder has exchanged all of their DID remove from DIDHoldersArray\n        if (DIDHolders[_address].balance == 0) {\n            if (DIDHoldersArray.length > 1) {\n                address lastElement = DIDHoldersArray[DIDHoldersArray.length - 1];\n                DIDHoldersArray[DIDHolders[_address].DIDHoldersIndex] = lastElement;\n                DIDHoldersArray.length--;\n                delete DIDHolders[msg.sender];\n            }\n        }\n\n        emit LogDecrementDID(_address, _numDID);\n\n        return DIDHolders[_address].balance;\n    }\n\n    function pctDIDOwned(address _address) external view returns (uint256) {\n        return SafeMath.percent(DIDHolders[_address].balance, totalSupply, 4);\n    }\n\n    function exchangeDIDForEther(uint256 _numDIDToExchange)\n        hasEnoughDID(msg.sender, _numDIDToExchange)\n        external\n    returns (uint256) {\n\n        Distense distense = Distense(DistenseAddress);\n        uint256 DIDPerEther = distense.getParameterValueByTitle(distense.didPerEtherParameterTitle());\n\n        uint256 numEtherToIssue = SafeMath.div(_numDIDToExchange, DIDPerEther);\n\n        address contractAddress = this;\n        require(contractAddress.balance > numEtherToIssue);\n\n        //  Adjust number of DID owned first\n        DIDHolders[msg.sender].balance = SafeMath.sub(DIDHolders[msg.sender].balance, _numDIDToExchange);\n        totalSupply = SafeMath.sub(totalSupply, _numDIDToExchange);\n\n        msg.sender.transfer(numEtherToIssue);\n\n        if (DIDHolders[msg.sender].balance == 0) {\n            if (DIDHoldersArray.length > 1) {\n                address lastElement = DIDHoldersArray[DIDHoldersArray.length - 1];\n                DIDHoldersArray[DIDHolders[msg.sender].DIDHoldersIndex] = lastElement;\n                DIDHoldersArray.length--;\n                delete DIDHolders[msg.sender];\n            }\n        }\n        emit LogExchangeDIDForEther(msg.sender, _numDIDToExchange);\n\n        return DIDHolders[msg.sender].balance;\n    }\n\n    function investEtherForDID() canDepositThisManyEtherForDID() external payable returns (uint256) {\n\n        Distense distense = Distense(DistenseAddress);\n        uint256 DIDPerEther = distense.getParameterValueByTitle(distense.didPerEtherParameterTitle());\n\n        uint256 numEtherInvested = SafeMath.div(msg.value, 1 ether);\n\n        uint256 numDIDToIssue = SafeMath.mul(DIDPerEther, numEtherInvested);\n\n        totalSupply = SafeMath.add(totalSupply, numDIDToIssue);\n        DIDHolders[msg.sender].balance = SafeMath.add(DIDHolders[msg.sender].balance, numDIDToIssue);\n\n        DIDHolders[msg.sender].weiInvested += msg.value;\n        investedAggregate += msg.value;\n\n        emit LogIssueDID(msg.sender, numDIDToIssue);\n        emit LogInvestEtherForDID(msg.sender, msg.value);\n\n        return DIDHolders[msg.sender].balance;\n    }\n\n    function getNumWeiAddressMayInvest(address contributor) public view returns (uint256) {\n        return SafeMath.sub(investmentLimitAddress, DIDHolders[contributor].weiInvested);\n    }\n\n    function getWeiAggregateMayInvest() public view returns (uint256) {\n        return SafeMath.sub(investmentLimitAggregate, investedAggregate);\n    }\n\n    function getNumDIDHolders() external view returns (uint256) {\n        return DIDHoldersArray.length;\n    }\n\n    function getAddressBalance(address _address) public view returns (uint256) {\n        return DIDHolders[_address].balance;\n    }\n\n    function getWeiInvested(address _address) public view returns (uint256) {\n        return DIDHolders[_address].weiInvested;\n    }\n\n    function setDistenseAddress(address _distenseAddress) public onlyApproved {\n        DistenseAddress = _distenseAddress;\n    }\n\n    modifier hasEnoughDID(address _address, uint256 _num) {\n        require(DIDHolders[_address].balance >= _num);\n        _;\n    }\n\n    modifier canDepositThisManyEtherForDID() {\n        uint256 numWeiMayInvest = getNumWeiAddressMayInvest(msg.sender);\n        require(numWeiMayInvest >= msg.value);\n        require(investedAggregate < investmentLimitAggregate);\n        _;\n    }\n\n\n\n}\n",
  "sourcePath": "/Users/john/distense-contracts/contracts/DIDToken.sol",
  "compiler": {
    "name": "solc",
    "version": "0.4.21+commit.dfe3193c.Emscripten.clang"
  },
  "schemaVersion": "1.0.1",
  "updatedAt": "2018-03-30T21:10:22.878Z"
}