{
  "contractName": "DIDToken",
  "abi": [
    {
      "constant": false,
      "inputs": [
        {
          "name": "_recipient",
          "type": "address"
        },
        {
          "name": "_numDID",
          "type": "uint256"
        }
      ],
      "name": "issueDID",
      "outputs": [
        {
          "name": "",
          "type": "uint256"
        }
      ],
      "payable": false,
      "stateMutability": "nonpayable",
      "type": "function"
    },
    {
      "constant": true,
      "inputs": [],
      "name": "name",
      "outputs": [
        {
          "name": "",
          "type": "string"
        }
      ],
      "payable": false,
      "stateMutability": "view",
      "type": "function"
    },
    {
      "constant": true,
      "inputs": [],
      "name": "totalSupply",
      "outputs": [
        {
          "name": "",
          "type": "uint256"
        }
      ],
      "payable": false,
      "stateMutability": "view",
      "type": "function"
    },
    {
      "constant": true,
      "inputs": [
        {
          "name": "",
          "type": "address"
        }
      ],
      "name": "balances",
      "outputs": [
        {
          "name": "",
          "type": "uint256"
        }
      ],
      "payable": false,
      "stateMutability": "view",
      "type": "function"
    },
    {
      "constant": true,
      "inputs": [],
      "name": "decimals",
      "outputs": [
        {
          "name": "",
          "type": "uint8"
        }
      ],
      "payable": false,
      "stateMutability": "view",
      "type": "function"
    },
    {
      "constant": false,
      "inputs": [
        {
          "name": "_address",
          "type": "address"
        }
      ],
      "name": "revokeApproval",
      "outputs": [],
      "payable": false,
      "stateMutability": "nonpayable",
      "type": "function"
    },
    {
      "constant": true,
      "inputs": [
        {
          "name": "person",
          "type": "address"
        }
      ],
      "name": "percentDID",
      "outputs": [
        {
          "name": "",
          "type": "uint256"
        }
      ],
      "payable": false,
      "stateMutability": "view",
      "type": "function"
    },
    {
      "constant": true,
      "inputs": [],
      "name": "symbol",
      "outputs": [
        {
          "name": "",
          "type": "string"
        }
      ],
      "payable": false,
      "stateMutability": "view",
      "type": "function"
    },
    {
      "constant": true,
      "inputs": [
        {
          "name": "",
          "type": "address"
        }
      ],
      "name": "approved",
      "outputs": [
        {
          "name": "",
          "type": "bool"
        }
      ],
      "payable": false,
      "stateMutability": "view",
      "type": "function"
    },
    {
      "constant": false,
      "inputs": [
        {
          "name": "_address",
          "type": "address"
        }
      ],
      "name": "approve",
      "outputs": [],
      "payable": false,
      "stateMutability": "nonpayable",
      "type": "function"
    },
    {
      "inputs": [],
      "payable": false,
      "stateMutability": "nonpayable",
      "type": "constructor"
    },
    {
      "anonymous": false,
      "inputs": [
        {
          "indexed": true,
          "name": "to",
          "type": "address"
        },
        {
          "indexed": false,
          "name": "numDID",
          "type": "uint256"
        }
      ],
      "name": "LogIssueDID",
      "type": "event"
    }
  ],
  "bytecode": "0x6060604052341561000f57600080fd5b600060038190556002805460ff19908116601217909155600160a060020a03331682526005602052604091829020805490911660011790558051908101604052600c81527f44697374656e73652044494400000000000000000000000000000000000000006020820152600090805161008c9291602001906100da565b5060408051908101604052600381527f4449440000000000000000000000000000000000000000000000000000000000602082015260019080516100d49291602001906100da565b50610175565b828054600181600116156101000203166002900490600052602060002090601f016020900481019282601f1061011b57805160ff1916838001178555610148565b82800160010185558215610148579182015b8281111561014857825182559160200191906001019061012d565b50610154929150610158565b5090565b61017291905b80821115610154576000815560010161015e565b90565b610681806101846000396000f300606060405236156100a15763ffffffff7c01000000000000000000000000000000000000000000000000000000006000350416630261a40381146100a657806306fdde03146100da57806318160ddd1461016457806327e235e314610177578063313ce56714610196578063484685b0146101bf5780634c6bb5f6146101e057806395d89b41146101ff578063d8b964e614610212578063daea85c514610245575b600080fd5b34156100b157600080fd5b6100c8600160a060020a0360043516602435610264565b60405190815260200160405180910390f35b34156100e557600080fd5b6100ed610363565b60405160208082528190810183818151815260200191508051906020019080838360005b83811015610129578082015183820152602001610111565b50505050905090810190601f1680156101565780820380516001836020036101000a031916815260200191505b509250505060405180910390f35b341561016f57600080fd5b6100c8610401565b341561018257600080fd5b6100c8600160a060020a0360043516610407565b34156101a157600080fd5b6101a9610419565b60405160ff909116815260200160405180910390f35b34156101ca57600080fd5b6101de600160a060020a0360043516610422565b005b34156101eb57600080fd5b6100c8600160a060020a0360043516610487565b341561020a57600080fd5b6100ed610549565b341561021d57600080fd5b610231600160a060020a03600435166105b4565b604051901515815260200160405180910390f35b341561025057600080fd5b6101de600160a060020a03600435166105c9565b600160a060020a03331660009081526005602052604081205460ff16151561028b57600080fd5b61029d83600160a060020a0316610631565b15156102a857600080fd5b600082116102b557600080fd5b6003546102c8908363ffffffff61063f16565b600355600160a060020a0383166000908152600460205260409020546102f4908363ffffffff61063f16565b600160a060020a0384166000818152600460205260409081902092909255907f3433529aaca741f54b3397d6ef2d588bb92ecd0d87c4c41db2f379bfe5c168f49084905190815260200160405180910390a25050600160a060020a031660009081526004602052604090205490565b60008054600181600116156101000203166002900480601f0160208091040260200160405190810160405280929190818152602001828054600181600116156101000203166002900480156103f95780601f106103ce576101008083540402835291602001916103f9565b820191906000526020600020905b8154815290600101906020018083116103dc57829003601f168201915b505050505081565b60035481565b60046020526000908152604090205481565b60025460ff1681565b600160a060020a03331660009081526005602052604090205460ff16151561044957600080fd5b61045b81600160a060020a0316610631565b151561046657600080fd5b600160a060020a03166000908152600560205260409020805460ff19169055565b600160a060020a03811660009081526004602052604080822054600354909173__SafeMath______________________________91622c1a9e91849190600290879051602001526040517c010000000000000000000000000000000000000000000000000000000063ffffffff861602815260048101939093526024830191909152604482015260640160206040518083038186803b151561052857600080fd5b6102c65a03f4151561053957600080fd5b5050506040518051949350505050565b60018054600181600116156101000203166002900480601f0160208091040260200160405190810160405280929190818152602001828054600181600116156101000203166002900480156103f95780601f106103ce576101008083540402835291602001916103f9565b60056020526000908152604090205460ff1681565b600160a060020a03331660009081526005602052604090205460ff1615156105f057600080fd5b61060281600160a060020a0316610631565b151561060d57600080fd5b600160a060020a03166000908152600560205260409020805460ff19166001179055565b600160a060020a0316151590565b60008282018381101561064e57fe5b93925050505600a165627a7a7230582008b2bb7359aa89b63a36712d07988e27140f2cadc80ea841ad1a34a90abee2a20029",
  "source": "pragma solidity ^0.4.17;\n\nimport './lib/Approvable.sol';\nimport './lib/SafeMath.sol';\nimport './lib/AddressUtils.sol';\nimport './lib/Token.sol';\n\n\ncontract DIDToken is Token, Approvable {\n  using AddressUtils for address;\n  using SafeMath for uint256;\n\n  event LogIssueDID(address indexed to, uint256 numDID);\n\n  function DIDToken () public {\n    name = \"Distense DID\";\n    symbol = \"DID\";\n  }\n\n  function issueDID(address _recipient, uint256 _numDID) external onlyApproved returns (uint256) {\n    require(_recipient.isValid());\n    require(_numDID > 0);\n\n    totalSupply = totalSupply.add(_numDID);\n    balances[_recipient] = balances[_recipient].add(_numDID);\n    LogIssueDID(_recipient, _numDID);\n\n    return balances[_recipient];\n  }\n  \n  function percentDID(address person) external view returns (uint256) {\n    uint owned = balances[person];\n    return SafeMath.percent(owned, totalSupply, 2);\n  }\n\n}\n",
  "sourcePath": "/Users/john/distense-contracts/contracts/DIDToken.sol",
  "schemaVersion": "1.0.0",
  "updatedAt": "2017-11-24T23:52:34.015Z"
}