{
  "contractName": "DIDToken",
  "abi": [
    {
      "constant": false,
      "inputs": [
        {
          "name": "_recipient",
          "type": "address"
        },
        {
          "name": "_numDID",
          "type": "uint256"
        }
      ],
      "name": "issueDID",
      "outputs": [
        {
          "name": "",
          "type": "uint256"
        }
      ],
      "payable": false,
      "stateMutability": "nonpayable",
      "type": "function"
    },
    {
      "constant": true,
      "inputs": [],
      "name": "name",
      "outputs": [
        {
          "name": "",
          "type": "string"
        }
      ],
      "payable": false,
      "stateMutability": "view",
      "type": "function"
    },
    {
      "constant": true,
      "inputs": [],
      "name": "totalSupply",
      "outputs": [
        {
          "name": "",
          "type": "uint256"
        }
      ],
      "payable": false,
      "stateMutability": "view",
      "type": "function"
    },
    {
      "constant": true,
      "inputs": [
        {
          "name": "",
          "type": "address"
        }
      ],
      "name": "balances",
      "outputs": [
        {
          "name": "",
          "type": "uint256"
        }
      ],
      "payable": false,
      "stateMutability": "view",
      "type": "function"
    },
    {
      "constant": true,
      "inputs": [],
      "name": "decimals",
      "outputs": [
        {
          "name": "",
          "type": "uint8"
        }
      ],
      "payable": false,
      "stateMutability": "view",
      "type": "function"
    },
    {
      "constant": false,
      "inputs": [
        {
          "name": "_address",
          "type": "address"
        }
      ],
      "name": "revokeApproval",
      "outputs": [],
      "payable": false,
      "stateMutability": "nonpayable",
      "type": "function"
    },
    {
      "constant": true,
      "inputs": [
        {
          "name": "person",
          "type": "address"
        }
      ],
      "name": "pctDIDOwned",
      "outputs": [
        {
          "name": "",
          "type": "uint256"
        }
      ],
      "payable": false,
      "stateMutability": "view",
      "type": "function"
    },
    {
      "constant": true,
      "inputs": [],
      "name": "symbol",
      "outputs": [
        {
          "name": "",
          "type": "string"
        }
      ],
      "payable": false,
      "stateMutability": "view",
      "type": "function"
    },
    {
      "constant": true,
      "inputs": [
        {
          "name": "",
          "type": "address"
        }
      ],
      "name": "approved",
      "outputs": [
        {
          "name": "",
          "type": "bool"
        }
      ],
      "payable": false,
      "stateMutability": "view",
      "type": "function"
    },
    {
      "constant": false,
      "inputs": [
        {
          "name": "_address",
          "type": "address"
        }
      ],
      "name": "approve",
      "outputs": [],
      "payable": false,
      "stateMutability": "nonpayable",
      "type": "function"
    },
    {
      "inputs": [],
      "payable": false,
      "stateMutability": "nonpayable",
      "type": "constructor"
    },
    {
      "anonymous": false,
      "inputs": [
        {
          "indexed": true,
          "name": "to",
          "type": "address"
        },
        {
          "indexed": false,
          "name": "numDID",
          "type": "uint256"
        }
      ],
      "name": "LogIssueDID",
      "type": "event"
    },
    {
      "anonymous": false,
      "inputs": [
        {
          "indexed": false,
          "name": "someAddress",
          "type": "address"
        }
      ],
      "name": "LogAddress",
      "type": "event"
    },
    {
      "anonymous": false,
      "inputs": [
        {
          "indexed": false,
          "name": "boolean",
          "type": "bool"
        }
      ],
      "name": "LogBool",
      "type": "event"
    },
    {
      "anonymous": false,
      "inputs": [
        {
          "indexed": false,
          "name": "someBytes",
          "type": "bytes"
        }
      ],
      "name": "LogBytes",
      "type": "event"
    },
    {
      "anonymous": false,
      "inputs": [
        {
          "indexed": false,
          "name": "aBytes32",
          "type": "bytes32"
        }
      ],
      "name": "LogBytes32",
      "type": "event"
    },
    {
      "anonymous": false,
      "inputs": [
        {
          "indexed": false,
          "name": "aString",
          "type": "string"
        }
      ],
      "name": "LogString",
      "type": "event"
    },
    {
      "anonymous": false,
      "inputs": [
        {
          "indexed": false,
          "name": "someInt",
          "type": "uint256"
        }
      ],
      "name": "LogUInt256",
      "type": "event"
    }
  ],
  "bytecode": "0x6060604052341561000f57600080fd5b600060038190556002805460ff19908116601217909155600160a060020a03331682526005602052604091829020805490911660011790558051908101604052600c81527f44697374656e73652044494400000000000000000000000000000000000000006020820152600090805161008c9291602001906100da565b5060408051908101604052600381527f4449440000000000000000000000000000000000000000000000000000000000602082015260019080516100d49291602001906100da565b50610175565b828054600181600116156101000203166002900490600052602060002090601f016020900481019282601f1061011b57805160ff1916838001178555610148565b82800160010185558215610148579182015b8281111561014857825182559160200191906001019061012d565b50610154929150610158565b5090565b61017291905b80821115610154576000815560010161015e565b90565b61065a806101846000396000f3006060604052600436106100a35763ffffffff7c01000000000000000000000000000000000000000000000000000000006000350416630261a40381146100a857806306fdde03146100dc57806318160ddd1461016657806327e235e314610179578063313ce56714610198578063484685b0146101c157806388004950146101e257806395d89b4114610201578063d8b964e614610214578063daea85c514610247575b600080fd5b34156100b357600080fd5b6100ca600160a060020a0360043516602435610266565b60405190815260200160405180910390f35b34156100e757600080fd5b6100ef61035d565b60405160208082528190810183818151815260200191508051906020019080838360005b8381101561012b578082015183820152602001610113565b50505050905090810190601f1680156101585780820380516001836020036101000a031916815260200191505b509250505060405180910390f35b341561017157600080fd5b6100ca6103fb565b341561018457600080fd5b6100ca600160a060020a0360043516610401565b34156101a357600080fd5b6101ab610413565b60405160ff909116815260200160405180910390f35b34156101cc57600080fd5b6101e0600160a060020a036004351661041c565b005b34156101ed57600080fd5b6100ca600160a060020a0360043516610479565b341561020c57600080fd5b6100ef610538565b341561021f57600080fd5b610233600160a060020a03600435166105a3565b604051901515815260200160405180910390f35b341561025257600080fd5b6101e0600160a060020a03600435166105b8565b600160a060020a03331660009081526005602052604081205460ff16151561028d57600080fd5b600160a060020a03831615156102a257600080fd5b600082116102af57600080fd5b6003546102c2908363ffffffff61061816565b600355600160a060020a0383166000908152600460205260409020546102ee908363ffffffff61061816565b600160a060020a0384166000818152600460205260409081902092909255907f3433529aaca741f54b3397d6ef2d588bb92ecd0d87c4c41db2f379bfe5c168f49084905190815260200160405180910390a25050600160a060020a031660009081526004602052604090205490565b60008054600181600116156101000203166002900480601f0160208091040260200160405190810160405280929190818152602001828054600181600116156101000203166002900480156103f35780601f106103c8576101008083540402835291602001916103f3565b820191906000526020600020905b8154815290600101906020018083116103d657829003601f168201915b505050505081565b60035481565b60046020526000908152604090205481565b60025460ff1681565b600160a060020a03331660009081526005602052604090205460ff16151561044357600080fd5b600160a060020a038116151561045857600080fd5b600160a060020a03166000908152600560205260409020805460ff19169055565b600160a060020a0381166000908152600460205260408082205460038054919273__SafeMath______________________________92622c1a9e928592879051602001526040517c010000000000000000000000000000000000000000000000000000000063ffffffff861602815260048101939093526024830191909152604482015260640160206040518083038186803b151561051757600080fd5b6102c65a03f4151561052857600080fd5b5050506040518051949350505050565b60018054600181600116156101000203166002900480601f0160208091040260200160405190810160405280929190818152602001828054600181600116156101000203166002900480156103f35780601f106103c8576101008083540402835291602001916103f3565b60056020526000908152604090205460ff1681565b600160a060020a03331660009081526005602052604090205460ff1615156105df57600080fd5b600160a060020a03811615156105f457600080fd5b600160a060020a03166000908152600560205260409020805460ff19166001179055565b60008282018381101561062757fe5b93925050505600a165627a7a72305820ba97340165d26d2b7a9e3d241b1623b73ca567ccbacb35aa2a8276b5fe79849b0029",
  "source": "pragma solidity ^0.4.17;\n\nimport './lib/Approvable.sol';\nimport './lib/SafeMath.sol';\nimport './lib/Token.sol';\nimport './Debuggable.sol';\n\n\ncontract DIDToken is Token, Approvable, Debuggable {\n\n  using SafeMath for uint256;\n\n  event LogIssueDID(address indexed to, uint256 numDID);\n\n  function DIDToken () public {\n    name = \"Distense DID\";\n    symbol = \"DID\";\n  }\n\n  function issueDID(address _recipient, uint256 _numDID) external onlyApproved returns (uint256) {\n    require(_recipient != address(0));\n    require(_numDID > 0);\n\n    totalSupply = totalSupply.add(_numDID);\n    balances[_recipient] = balances[_recipient].add(_numDID);\n    LogIssueDID(_recipient, _numDID);\n\n    return balances[_recipient];\n  }\n  \n  function pctDIDOwned(address person) external view returns (uint256) {\n    uint owned = balances[person];\n    return SafeMath.percent(owned, totalSupply, 3);\n  }\n\n}\n",
  "sourcePath": "/Users/john/distense-contracts/contracts/DIDToken.sol",
  "compiler": {
    "name": "solc",
    "version": "0.4.18+commit.9cf6e910.Emscripten.clang"
  },
  "schemaVersion": "1.0.1",
  "updatedAt": "2018-01-07T15:28:18.906Z"
}