{
  "contractName": "DIDToken",
  "abi": [
    {
      "constant": true,
      "inputs": [],
      "name": "name",
      "outputs": [
        {
          "name": "",
          "type": "string"
        }
      ],
      "payable": false,
      "stateMutability": "view",
      "type": "function"
    },
    {
      "constant": true,
      "inputs": [],
      "name": "DistenseAddress",
      "outputs": [
        {
          "name": "",
          "type": "address"
        }
      ],
      "payable": false,
      "stateMutability": "view",
      "type": "function"
    },
    {
      "constant": true,
      "inputs": [],
      "name": "totalSupply",
      "outputs": [
        {
          "name": "",
          "type": "uint256"
        }
      ],
      "payable": false,
      "stateMutability": "view",
      "type": "function"
    },
    {
      "constant": true,
      "inputs": [],
      "name": "investedAggregate",
      "outputs": [
        {
          "name": "",
          "type": "uint256"
        }
      ],
      "payable": false,
      "stateMutability": "view",
      "type": "function"
    },
    {
      "constant": true,
      "inputs": [
        {
          "name": "",
          "type": "address"
        }
      ],
      "name": "balances",
      "outputs": [
        {
          "name": "",
          "type": "uint256"
        }
      ],
      "payable": false,
      "stateMutability": "view",
      "type": "function"
    },
    {
      "constant": true,
      "inputs": [],
      "name": "decimals",
      "outputs": [
        {
          "name": "",
          "type": "uint8"
        }
      ],
      "payable": false,
      "stateMutability": "view",
      "type": "function"
    },
    {
      "constant": true,
      "inputs": [],
      "name": "PullRequestsAddress",
      "outputs": [
        {
          "name": "",
          "type": "address"
        }
      ],
      "payable": false,
      "stateMutability": "view",
      "type": "function"
    },
    {
      "constant": false,
      "inputs": [
        {
          "name": "_address",
          "type": "address"
        }
      ],
      "name": "revokeApproval",
      "outputs": [],
      "payable": false,
      "stateMutability": "nonpayable",
      "type": "function"
    },
    {
      "constant": true,
      "inputs": [],
      "name": "symbol",
      "outputs": [
        {
          "name": "",
          "type": "string"
        }
      ],
      "payable": false,
      "stateMutability": "view",
      "type": "function"
    },
    {
      "constant": true,
      "inputs": [
        {
          "name": "",
          "type": "address"
        }
      ],
      "name": "investedAddress",
      "outputs": [
        {
          "name": "",
          "type": "uint256"
        }
      ],
      "payable": false,
      "stateMutability": "view",
      "type": "function"
    },
    {
      "constant": true,
      "inputs": [],
      "name": "investmentLimitAggregate",
      "outputs": [
        {
          "name": "",
          "type": "uint256"
        }
      ],
      "payable": false,
      "stateMutability": "view",
      "type": "function"
    },
    {
      "constant": true,
      "inputs": [],
      "name": "investmentLimitAddress",
      "outputs": [
        {
          "name": "",
          "type": "uint256"
        }
      ],
      "payable": false,
      "stateMutability": "view",
      "type": "function"
    },
    {
      "constant": true,
      "inputs": [
        {
          "name": "",
          "type": "address"
        }
      ],
      "name": "approved",
      "outputs": [
        {
          "name": "",
          "type": "bool"
        }
      ],
      "payable": false,
      "stateMutability": "view",
      "type": "function"
    },
    {
      "constant": false,
      "inputs": [
        {
          "name": "_address",
          "type": "address"
        }
      ],
      "name": "approve",
      "outputs": [],
      "payable": false,
      "stateMutability": "nonpayable",
      "type": "function"
    },
    {
      "inputs": [],
      "payable": false,
      "stateMutability": "nonpayable",
      "type": "constructor"
    },
    {
      "anonymous": false,
      "inputs": [
        {
          "indexed": true,
          "name": "to",
          "type": "address"
        },
        {
          "indexed": false,
          "name": "numDID",
          "type": "uint256"
        }
      ],
      "name": "LogIssueDID",
      "type": "event"
    },
    {
      "anonymous": false,
      "inputs": [
        {
          "indexed": true,
          "name": "to",
          "type": "address"
        },
        {
          "indexed": false,
          "name": "numDID",
          "type": "uint256"
        }
      ],
      "name": "LogExchangeDIDForEther",
      "type": "event"
    },
    {
      "anonymous": false,
      "inputs": [
        {
          "indexed": true,
          "name": "to",
          "type": "address"
        },
        {
          "indexed": false,
          "name": "numWei",
          "type": "uint256"
        }
      ],
      "name": "LogInvestEtherForDID",
      "type": "event"
    },
    {
      "constant": false,
      "inputs": [
        {
          "name": "_recipient",
          "type": "address"
        },
        {
          "name": "_numDID",
          "type": "uint256"
        }
      ],
      "name": "issueDID",
      "outputs": [
        {
          "name": "",
          "type": "uint256"
        }
      ],
      "payable": false,
      "stateMutability": "nonpayable",
      "type": "function"
    },
    {
      "constant": true,
      "inputs": [
        {
          "name": "_person",
          "type": "address"
        }
      ],
      "name": "pctDIDOwned",
      "outputs": [
        {
          "name": "",
          "type": "uint256"
        }
      ],
      "payable": false,
      "stateMutability": "view",
      "type": "function"
    },
    {
      "constant": false,
      "inputs": [
        {
          "name": "_numDIDToExchange",
          "type": "uint256"
        }
      ],
      "name": "exchangeDIDForEther",
      "outputs": [
        {
          "name": "",
          "type": "uint256"
        }
      ],
      "payable": false,
      "stateMutability": "nonpayable",
      "type": "function"
    },
    {
      "constant": false,
      "inputs": [],
      "name": "investEtherForDID",
      "outputs": [
        {
          "name": "",
          "type": "uint256"
        }
      ],
      "payable": true,
      "stateMutability": "payable",
      "type": "function"
    },
    {
      "constant": true,
      "inputs": [
        {
          "name": "contributor",
          "type": "address"
        }
      ],
      "name": "getNumWeiAddressMayInvest",
      "outputs": [
        {
          "name": "",
          "type": "uint256"
        }
      ],
      "payable": false,
      "stateMutability": "view",
      "type": "function"
    },
    {
      "constant": true,
      "inputs": [],
      "name": "getWeiAggregateMayInvest",
      "outputs": [
        {
          "name": "",
          "type": "uint256"
        }
      ],
      "payable": false,
      "stateMutability": "view",
      "type": "function"
    },
    {
      "constant": false,
      "inputs": [
        {
          "name": "_distenseAddress",
          "type": "address"
        }
      ],
      "name": "setDistenseAddress",
      "outputs": [],
      "payable": false,
      "stateMutability": "nonpayable",
      "type": "function"
    }
  ],
  "bytecode": "0x6060604052683635c9adc5dea000006008556802b5e3af16b18800006009556000600a55341561002e57600080fd5b600060038190556002805460ff19908116601217909155600160a060020a03331682526005602052604091829020805490911660011790558051908101604052600c81527f44697374656e7365204449440000000000000000000000000000000000000000602082015260009080516100ab9291602001906100f9565b5060408051908101604052600381527f4449440000000000000000000000000000000000000000000000000000000000602082015260019080516100f39291602001906100f9565b50610194565b828054600181600116156101000203166002900490600052602060002090601f016020900481019282601f1061013a57805160ff1916838001178555610167565b82800160010185558215610167579182015b8281111561016757825182559160200191906001019061014c565b50610173929150610177565b5090565b61019191905b80821115610173576000815560010161017d565b90565b610ce1806101a36000396000f3006060604052600436106101035763ffffffff60e060020a6000350416630261a403811461010857806306fdde031461013c5780630afdbaed146101c657806318160ddd146101f557806325078bc41461020857806327e235e31461021b5780632a4caf671461023a578063313ce5671461025b57806346da6eee14610284578063484685b0146102975780636168ba3c146102b657806387b30845146102c957806388004950146102df57806391555559146102fe57806395d89b411461031d578063967471db14610330578063a0d229d81461034f578063a723761a14610362578063bad0d4f11461036a578063d8b964e61461037d578063daea85c5146103b0575b600080fd5b341561011357600080fd5b61012a600160a060020a03600435166024356103cf565b60405190815260200160405180910390f35b341561014757600080fd5b61014f6104b9565b60405160208082528190810183818151815260200191508051906020019080838360005b8381101561018b578082015183820152602001610173565b50505050905090810190601f1680156101b85780820380516001836020036101000a031916815260200191505b509250505060405180910390f35b34156101d157600080fd5b6101d9610557565b604051600160a060020a03909116815260200160405180910390f35b341561020057600080fd5b61012a610566565b341561021357600080fd5b61012a61056c565b341561022657600080fd5b61012a600160a060020a0360043516610572565b341561024557600080fd5b610259600160a060020a0360043516610584565b005b341561026657600080fd5b61026e6105da565b60405160ff909116815260200160405180910390f35b341561028f57600080fd5b6101d96105e3565b34156102a257600080fd5b610259600160a060020a03600435166105f2565b34156102c157600080fd5b61012a61064f565b34156102d457600080fd5b61012a600435610659565b34156102ea57600080fd5b61012a600160a060020a0360043516610854565b341561030957600080fd5b61012a600160a060020a0360043516610909565b341561032857600080fd5b61014f610928565b341561033b57600080fd5b61012a600160a060020a0360043516610993565b341561035a57600080fd5b61012a6109a5565b61012a6109ab565b341561037557600080fd5b61012a610bcc565b341561038857600080fd5b61039c600160a060020a0360043516610bd2565b604051901515815260200160405180910390f35b34156103bb57600080fd5b610259600160a060020a0360043516610be7565b600160a060020a03331660009081526005602052604081205460ff1615156103f657600080fd5b600160a060020a038316151561040b57600080fd5b6000821161041857600080fd5b61042460035483610c47565b600355600160a060020a03831660009081526004602052604090205461044a9083610c47565b600160a060020a0384166000818152600460205260409081902092909255907f3433529aaca741f54b3397d6ef2d588bb92ecd0d87c4c41db2f379bfe5c168f49084905190815260200160405180910390a25050600160a060020a031660009081526004602052604090205490565b60008054600181600116156101000203166002900480601f01602080910402602001604051908101604052809291908181526020018280546001816001161561010002031660029004801561054f5780601f106105245761010080835404028352916020019161054f565b820191906000526020600020905b81548152906001019060200180831161053257829003601f168201915b505050505081565b600754600160a060020a031681565b60035481565b600a5481565b60046020526000908152604090205481565b600160a060020a03331660009081526005602052604090205460ff1615156105ab57600080fd5b6007805473ffffffffffffffffffffffffffffffffffffffff1916600160a060020a0392909216919091179055565b60025460ff1681565b600654600160a060020a031681565b600160a060020a03331660009081526005602052604090205460ff16151561061957600080fd5b600160a060020a038116151561062e57600080fd5b600160a060020a03166000908152600560205260409020805460ff19169055565b600a546008540390565b33600160a060020a038116600090815260046020526040812054909182918291829186908181101561068a57600080fd5b600754600160a060020a0316955085638fc6ad2d81632273bae26000604051602001526040518163ffffffff1660e060020a028152600401602060405180830381600087803b15156106db57600080fd5b6102c65a03f115156106ec57600080fd5b5050506040518051905060006040516020015260405160e060020a63ffffffff84160281526004810191909152602401602060405180830381600087803b151561073557600080fd5b6102c65a03f1151561074657600080fd5b50505060405180519050945061075c8886610c61565b9350600160a060020a0330163184901161077557600080fd5b600160a060020a0333166000908152600460205260409020546107989089610c78565b600160a060020a0333166000908152600460205260409020556003546107be9089610c78565b600355600160a060020a03331684156108fc0285604051600060405180830381858888f1935050505015156107f257600080fd5b33600160a060020a03167feb7d31df09103642237866b5fa5946a266fda42585c7ba30a006a40e4e478d3f8960405190815260200160405180910390a250505033600160a060020a031660009081526004602052604090205495945050505050565b6000806004600084600160a060020a0316600160a060020a0316815260200190815260200160002054905073__SafeMath______________________________622c1a9e82600354600460006040516020015260405160e060020a63ffffffff861602815260048101939093526024830191909152604482015260640160206040518083038186803b15156108e857600080fd5b6102c65a03f415156108f957600080fd5b5050506040518051949350505050565b600160a060020a03166000908152600b60205260409020546009540390565b60018054600181600116156101000203166002900480601f01602080910402602001604051908101604052809291908181526020018280546001816001161561010002031660029004801561054f5780601f106105245761010080835404028352916020019161054f565b600b6020526000908152604090205481565b60085481565b6000806000806000806109bd33610909565b9050348110156109cc57600080fd5b600854600a54106109dc57600080fd5b600754600160a060020a03169450610aac85638fc6ad2d81632273bae26000604051602001526040518163ffffffff1660e060020a028152600401602060405180830381600087803b1515610a3057600080fd5b6102c65a03f11515610a4157600080fd5b5050506040518051905060006040516020015260405160e060020a63ffffffff84160281526004810191909152602401602060405180830381600087803b1515610a8a57600080fd5b6102c65a03f11515610a9b57600080fd5b505050604051805190506064610c61565b9350610ac034670de0b6b3a7640000610c61565b9250610acc8484610c8a565b9150610ada60035483610c47565b600355600160a060020a033316600090815260046020526040902054610b009083610c47565b600160a060020a033316600081815260046020908152604080832094909455600b9052829020805434908101909155600a80549091019055907f3433529aaca741f54b3397d6ef2d588bb92ecd0d87c4c41db2f379bfe5c168f49084905190815260200160405180910390a233600160a060020a03167f71894dba69eac3a3461302b16631257b4580fbc7be61f1d4b0e988845e6400f03460405190815260200160405180910390a2600160a060020a0333166000908152600460205260409020549550505050505090565b60095481565b60056020526000908152604090205460ff1681565b600160a060020a03331660009081526005602052604090205460ff161515610c0e57600080fd5b600160a060020a0381161515610c2357600080fd5b600160a060020a03166000908152600560205260409020805460ff19166001179055565b600082820183811015610c5657fe5b8091505b5092915050565b6000808284811515610c6f57fe5b04949350505050565b600082821115610c8457fe5b50900390565b600080831515610c9d5760009150610c5a565b50828202828482811515610cad57fe5b0414610c5657fe00a165627a7a72305820351bb7e0d345172ba08bc674c2912f92cbc77dd40dfc58146a47de5148050d820029",
  "source": "pragma solidity ^0.4.17;\n\nimport './lib/Approvable.sol';\nimport './Distense.sol';\nimport './lib/SafeMath.sol';\nimport './lib/Token.sol';\nimport './Debuggable.sol';\n\n\ncontract DIDToken is Token, Approvable {\n\n    using SafeMath for uint256;\n\n    event LogIssueDID(address indexed to, uint256 numDID);\n    event LogExchangeDIDForEther(address indexed to, uint256 numDID);\n    event LogInvestEtherForDID(address indexed to, uint256 numWei);\n\n    address public PullRequestsAddress;\n    address public DistenseAddress;\n\n    uint256 public investmentLimitAggregate  = 1000 ether;  // This is the max DID all addresses can receive from depositing ether\n    uint256 public investmentLimitAddress = 50 ether;  // This is the max DID any address can receive from Ether deposit\n    uint256 public investedAggregate = 0 ether;\n\n    mapping(address => uint256) public investedAddress;  // keep track of how much contributors have deposited to prevent over depositing\n\n    function DIDToken() public {\n        name = \"Distense DID\";\n        symbol = \"DID\";\n    }\n\n    function issueDID(address _recipient, uint256 _numDID) external onlyApproved returns (uint256) {\n        require(_recipient != address(0));\n        require(_numDID > 0);\n\n        totalSupply = SafeMath.add(totalSupply, _numDID);\n        balances[_recipient] = SafeMath.add(balances[_recipient], _numDID);\n        LogIssueDID(_recipient, _numDID);\n\n        return balances[_recipient];\n    }\n\n    function pctDIDOwned(address _person) external view returns (uint256) {\n        uint owned = balances[_person];\n        return SafeMath.percent(owned, totalSupply, 4);\n    }\n\n    function exchangeDIDForEther(uint256 _numDIDToExchange)\n        hasEnoughDID(msg.sender, _numDIDToExchange)\n        external\n    returns (uint256) {\n\n        Distense distense = Distense(DistenseAddress);\n        uint256 DIDPerEther = distense.getParameterValueByTitle(distense.didPerEtherParameterTitle());\n\n        uint256 numEtherToIssue = SafeMath.div(_numDIDToExchange, DIDPerEther);\n        require(this.balance > numEtherToIssue);\n\n        //  Adjust number of DID owned first\n        balances[msg.sender] = SafeMath.sub(balances[msg.sender], _numDIDToExchange);\n        totalSupply = SafeMath.sub(totalSupply, _numDIDToExchange);\n\n        msg.sender.transfer(numEtherToIssue);\n        LogExchangeDIDForEther(msg.sender, _numDIDToExchange);\n\n        return balances[msg.sender];\n    }\n\n    function investEtherForDID() canDepositThisManyEtherForDID() external payable returns (uint256) {\n\n        Distense distense = Distense(DistenseAddress);\n        uint256 DIDPerEther = SafeMath.div(distense.getParameterValueByTitle(distense.didPerEtherParameterTitle()), 100);\n\n        uint256 numEtherInvested = SafeMath.div(msg.value, 1000000000000000000);\n\n        uint256 numDIDToIssue = SafeMath.mul(DIDPerEther, numEtherInvested);\n\n        totalSupply = SafeMath.add(totalSupply, numDIDToIssue);\n        balances[msg.sender] = SafeMath.add(balances[msg.sender], numDIDToIssue);\n\n        investedAddress[msg.sender] += msg.value;\n        investedAggregate += msg.value;\n\n        LogIssueDID(msg.sender, numDIDToIssue);\n        LogInvestEtherForDID(msg.sender, msg.value);\n\n        return balances[msg.sender];\n    }\n\n    function getNumWeiAddressMayInvest(address contributor) public view returns (uint256) {\n        return investmentLimitAddress - investedAddress[contributor];\n    }\n\n    function getWeiAggregateMayInvest() public view returns (uint256) {\n        return investmentLimitAggregate - investedAggregate;\n    }\n\n    function setDistenseAddress(address _distenseAddress) public onlyApproved {\n        DistenseAddress = _distenseAddress;\n    }\n\n    modifier hasEnoughDID(address _contributor, uint256 _num) {\n        uint256 balance = balances[_contributor];\n        require(balance >= _num);\n        _;\n    }\n\n    modifier canDepositThisManyEtherForDID() {\n        uint256 numWeiMayInvest = getNumWeiAddressMayInvest(msg.sender);\n        require(numWeiMayInvest >= msg.value);\n        require(investedAggregate < investmentLimitAggregate);\n        _;\n    }\n\n\n\n}\n",
  "sourcePath": "/Users/john/distense-contracts/contracts/DIDToken.sol",
  "compiler": {
    "name": "solc",
    "version": "0.4.19+commit.c4cbbb05.Emscripten.clang"
  },
  "schemaVersion": "1.0.1",
  "updatedAt": "2018-02-14T20:10:03.803Z"
}