{
  "contractName": "DIDToken",
  "abi": [
    {
      "constant": false,
      "inputs": [
        {
          "name": "_recipient",
          "type": "address"
        },
        {
          "name": "_numDID",
          "type": "uint256"
        }
      ],
      "name": "depositEtherForDID",
      "outputs": [
        {
          "name": "",
          "type": "uint256"
        }
      ],
      "payable": true,
      "stateMutability": "payable",
      "type": "function"
    },
    {
      "constant": false,
      "inputs": [
        {
          "name": "_recipient",
          "type": "address"
        },
        {
          "name": "_numDID",
          "type": "uint256"
        }
      ],
      "name": "issueDID",
      "outputs": [
        {
          "name": "",
          "type": "uint256"
        }
      ],
      "payable": false,
      "stateMutability": "nonpayable",
      "type": "function"
    },
    {
      "constant": true,
      "inputs": [],
      "name": "name",
      "outputs": [
        {
          "name": "",
          "type": "string"
        }
      ],
      "payable": false,
      "stateMutability": "view",
      "type": "function"
    },
    {
      "constant": true,
      "inputs": [
        {
          "name": "",
          "type": "address"
        }
      ],
      "name": "DistenseAddress",
      "outputs": [
        {
          "name": "",
          "type": "address"
        }
      ],
      "payable": false,
      "stateMutability": "view",
      "type": "function"
    },
    {
      "constant": true,
      "inputs": [],
      "name": "totalSupply",
      "outputs": [
        {
          "name": "",
          "type": "uint256"
        }
      ],
      "payable": false,
      "stateMutability": "view",
      "type": "function"
    },
    {
      "constant": true,
      "inputs": [
        {
          "name": "",
          "type": "address"
        }
      ],
      "name": "balances",
      "outputs": [
        {
          "name": "",
          "type": "uint256"
        }
      ],
      "payable": false,
      "stateMutability": "view",
      "type": "function"
    },
    {
      "constant": true,
      "inputs": [
        {
          "name": "_address",
          "type": "address"
        }
      ],
      "name": "decimals",
      "outputs": [
        {
          "name": "",
          "type": "uint8"
        }
      ],
      "payable": false,
      "stateMutability": "view",
      "type": "function"
    },
    {
      "constant": true,
      "inputs": [
        {
          "name": "person",
          "type": "address"
        }
      ],
      "name": "PullRequestsAddress",
      "outputs": [
        {
          "name": "",
          "type": "address"
        }
      ],
      "payable": false,
      "stateMutability": "view",
      "type": "function"
    },
    {
      "constant": false,
      "inputs": [
        {
          "name": "_address",
          "type": "address"
        }
      ],
      "name": "revokeApproval",
      "outputs": [
        {
          "name": "",
          "type": "string"
        }
      ],
      "payable": false,
      "stateMutability": "nonpayable",
      "type": "function"
    },
    {
      "constant": false,
      "inputs": [
        {
          "name": "_numDIDToExchange",
          "type": "uint256"
        }
      ],
      "name": "exchangeDIDForEther",
      "outputs": [
        {
          "name": "",
          "type": "uint256"
        }
      ],
      "payable": false,
      "stateMutability": "nonpayable",
      "type": "function"
    },
    {
      "constant": true,
      "inputs": [
        {
          "name": "_person",
          "type": "address"
        }
      ],
      "name": "pctDIDOwned",
      "outputs": [
        {
          "name": "",
          "type": "uint256"
        }
      ],
      "payable": false,
      "stateMutability": "view",
      "type": "function"
    },
    {
      "inputs": [],
      "payable": false,
      "stateMutability": "view",
      "type": "function",
      "constant": true,
      "name": "symbol",
      "outputs": [
        {
          "name": "",
          "type": "string"
        }
      ]
    },
    {
      "anonymous": false,
      "inputs": [
        {
          "indexed": true,
          "name": "",
          "type": "address"
        },
        {
          "indexed": false,
          "name": "numDID",
          "type": "uint256"
        }
      ],
      "name": "numDIDExchangedAddress",
      "type": "function",
      "constant": true,
      "outputs": [
        {
          "name": "",
          "type": "uint256"
        }
      ],
      "payable": false,
      "stateMutability": "view"
    },
    {
      "constant": true,
      "inputs": [
        {
          "name": "",
          "type": "address"
        }
      ],
      "name": "approved",
      "outputs": [
        {
          "name": "",
          "type": "bool"
        }
      ],
      "payable": false,
      "stateMutability": "view",
      "type": "function"
    },
    {
      "constant": false,
      "inputs": [
        {
          "name": "_address",
          "type": "address"
        }
      ],
      "name": "approve",
      "outputs": [],
      "payable": false,
      "stateMutability": "nonpayable",
      "type": "function"
    },
    {
      "inputs": [
        {
          "name": "_DistenseAddress",
          "type": "address"
        }
      ],
      "payable": true,
      "stateMutability": "payable",
      "type": "constructor"
    },
    {
      "anonymous": false,
      "inputs": [
        {
          "indexed": true,
          "name": "to",
          "type": "address"
        },
        {
          "indexed": false,
          "name": "numDID",
          "type": "uint256"
        }
      ],
      "name": "LogIssueDID",
      "type": "event"
    }
  ],
  "bytecode": "0x6060604052620f424060085561c3506009556000600a55604051602080610d3c83398101604052808051600060038190556002805460ff19908116601217909155600160a060020a033316825260056020526040918290208054909116600117905590925090508051908101604052600c81527f44697374656e7365204449440000000000000000000000000000000000000000602082015260009080516100ab929160200190610119565b5060408051908101604052600381527f4449440000000000000000000000000000000000000000000000000000000000602082015260019080516100f3929160200190610119565b5060078054600160a060020a031916600160a060020a03929092169190911790556101b4565b828054600181600116156101000203166002900490600052602060002090601f016020900481019282601f1061015a57805160ff1916838001178555610187565b82800160010185558215610187579182015b8281111561018757825182559160200191906001019061016c565b50610193929150610197565b5090565b6101b191905b80821115610193576000815560010161019d565b90565b610b79806101c36000396000f3006060604052600436106100c15763ffffffff60e060020a60003504166301abcdc781146100c65780630261a403146100e057806306fdde03146101025780630afdbaed1461018c57806318160ddd146101bb57806327e235e3146101ce578063313ce567146101ed57806346da6eee14610216578063484685b01461022957806387b308451461024a578063880049501461026057806395d89b411461027f578063bfd03a0a14610292578063d8b964e6146102b1578063daea85c5146102e4575b600080fd5b6100ce610303565b60405190815260200160405180910390f35b34156100eb57600080fd5b6100ce600160a060020a03600435166024356105ea565b341561010d57600080fd5b6101156106d4565b60405160208082528190810183818151815260200191508051906020019080838360005b83811015610151578082015183820152602001610139565b50505050905090810190601f16801561017e5780820380516001836020036101000a031916815260200191505b509250505060405180910390f35b341561019757600080fd5b61019f610772565b604051600160a060020a03909116815260200160405180910390f35b34156101c657600080fd5b6100ce610781565b34156101d957600080fd5b6100ce600160a060020a0360043516610787565b34156101f857600080fd5b610200610799565b60405160ff909116815260200160405180910390f35b341561022157600080fd5b61019f6107a2565b341561023457600080fd5b610248600160a060020a03600435166107b1565b005b341561025557600080fd5b6100ce60043561080e565b341561026b57600080fd5b6100ce600160a060020a0360043516610976565b341561028a57600080fd5b610115610a1c565b341561029d57600080fd5b6100ce600160a060020a0360043516610a87565b34156102bc57600080fd5b6102d0600160a060020a0360043516610a99565b604051901515815260200160405180910390f35b34156102ef57600080fd5b610248600160a060020a0360043516610aae565b6000806000803334600080600080600854600a5410151561032357600080fd5b600954600160a060020a0333166000908152600b60205260409020541061034957600080fd5b600754600160a060020a0316935083638fc6ad2d81632273bae26000604051602001526040518163ffffffff1660e060020a028152600401602060405180830381600087803b151561039a57600080fd5b6102c65a03f115156103ab57600080fd5b5050506040518051905060006040516020015260405160e060020a63ffffffff84160281526004810191909152602401602060405180830381600087803b15156103f457600080fd5b6102c65a03f1151561040557600080fd5b50505060405180519050925061041b8584610b0e565b600954600160a060020a0333166000908152600b602052604090205491935061044391610b25565b600160a060020a03331660009081526004602052604090205490915082111561046b57600080fd5b600754600160a060020a0316985088638fc6ad2d81632273bae26000604051602001526040518163ffffffff1660e060020a028152600401602060405180830381600087803b15156104bc57600080fd5b6102c65a03f115156104cd57600080fd5b5050506040518051905060006040516020015260405160e060020a63ffffffff84160281526004810191909152602401602060405180830381600087803b151561051657600080fd5b6102c65a03f1151561052757600080fd5b50505060405180519050975061053d3489610b0e565b965061054b60035488610b37565b600355600160a060020a0333166000908152600460205260409020546105719088610b37565b600160a060020a0333166000818152600460205260409081902092909255907f3433529aaca741f54b3397d6ef2d588bb92ecd0d87c4c41db2f379bfe5c168f49089905190815260200160405180910390a2600160a060020a033316600090815260046020526040902054995050505050505050505090565b600160a060020a03331660009081526005602052604081205460ff16151561061157600080fd5b600160a060020a038316151561062657600080fd5b6000821161063357600080fd5b61063f60035483610b37565b600355600160a060020a0383166000908152600460205260409020546106659083610b37565b600160a060020a0384166000818152600460205260409081902092909255907f3433529aaca741f54b3397d6ef2d588bb92ecd0d87c4c41db2f379bfe5c168f49084905190815260200160405180910390a25050600160a060020a031660009081526004602052604090205490565b60008054600181600116156101000203166002900480601f01602080910402602001604051908101604052809291908181526020018280546001816001161561010002031660029004801561076a5780601f1061073f5761010080835404028352916020019161076a565b820191906000526020600020905b81548152906001019060200180831161074d57829003601f168201915b505050505081565b600754600160a060020a031681565b60035481565b60046020526000908152604090205481565b60025460ff1681565b600654600160a060020a031681565b600160a060020a03331660009081526005602052604090205460ff1615156107d857600080fd5b600160a060020a03811615156107ed57600080fd5b600160a060020a03166000908152600560205260409020805460ff19169055565b33600160a060020a0381166000908152600460205260408120549091829182919085908181101561083e57600080fd5b600754600160a060020a0316945084638fc6ad2d81632273bae26000604051602001526040518163ffffffff1660e060020a028152600401602060405180830381600087803b151561088f57600080fd5b6102c65a03f115156108a057600080fd5b5050506040518051905060006040516020015260405160e060020a63ffffffff84160281526004810191909152602401602060405180830381600087803b15156108e957600080fd5b6102c65a03f115156108fa57600080fd5b5050506040518051600160a060020a033316600090815260046020526040902054909550610929915088610b25565b600160a060020a03331660009081526004602052604090205560035461094f9088610b25565b60035550505033600160a060020a0316600090815260046020526040902054949350505050565b600160a060020a0381166000908152600460205260408082205460038054919273__SafeMath______________________________92622c1a9e9285928790516020015260405160e060020a63ffffffff861602815260048101939093526024830191909152604482015260640160206040518083038186803b15156109fb57600080fd5b6102c65a03f41515610a0c57600080fd5b5050506040518051949350505050565b60018054600181600116156101000203166002900480601f01602080910402602001604051908101604052809291908181526020018280546001816001161561010002031660029004801561076a5780601f1061073f5761010080835404028352916020019161076a565b600b6020526000908152604090205481565b60056020526000908152604090205460ff1681565b600160a060020a03331660009081526005602052604090205460ff161515610ad557600080fd5b600160a060020a0381161515610aea57600080fd5b600160a060020a03166000908152600560205260409020805460ff19166001179055565b6000808284811515610b1c57fe5b04949350505050565b600082821115610b3157fe5b50900390565b600082820183811015610b4657fe5b93925050505600a165627a7a72305820e7f796a93dd3f795b611989d5034c819810b53367ff6e11db131a19444f070270029",
  "source": "pragma solidity ^0.4.17;\n\nimport './lib/Approvable.sol';\nimport './Distense.sol';\nimport './lib/SafeMath.sol';\nimport './lib/Token.sol';\n\ncontract DIDToken is Token, Approvable {\n\n    using SafeMath for uint256;\n\n    event LogIssueDID(address indexed to, uint256 numDID);\n\n    address public PullRequestsAddress;\n    address public DistenseAddress;\n\n    uint256 hardDIDFromEtherDepositLimitAggregate = 1000000;  // This is the max DID all addresses can receive from depositing ether\n    uint256 hardDIDFromEtherDepositLimitAddress = 50000;  // This is the max DID any address can receive from Ether deposit\n    uint256 totalDIDIssuedFromEtherDeposit = 0;\n\n    mapping(address => uint256) public numDIDExchangedAddress;  // keep track of how much contributors have deposited to prevent over depositing\n\n    function DIDToken(address _DistenseAddress) public payable {\n        name = \"Distense DID\";\n        symbol = \"DID\";\n\n        DistenseAddress = _DistenseAddress;\n    }\n\n    function issueDID(address _recipient, uint256 _numDID) external onlyApproved returns (uint256) {\n        require(_recipient != address(0));\n        require(_numDID > 0);\n\n        totalSupply = SafeMath.add(totalSupply, _numDID);\n        balances[_recipient] = SafeMath.add(balances[_recipient], _numDID);\n        LogIssueDID(_recipient, _numDID);\n\n        return balances[_recipient];\n    }\n\n    function pctDIDOwned(address _person) external view returns (uint256) {\n        uint owned = balances[_person];\n        return SafeMath.percent(owned, totalSupply, 3);\n    }\n\n    function exchangeDIDForEther(uint256 _numDIDToExchange)\n        hasEnoughDID(msg.sender, _numDIDToExchange)\n        external\n    returns (uint256) {\n\n        Distense distense = Distense(DistenseAddress);\n        uint256 DIDPerEther = distense.getParameterValueByTitle(distense.didPerEtherParameterTitle());\n\n        //  Adjust number of DID owned first\n        balances[msg.sender] = SafeMath.sub(balances[msg.sender], _numDIDToExchange);\n        totalSupply = SafeMath.sub(totalSupply, _numDIDToExchange);\n\n        totalDIDIssuedFromEtherDeposit + _numDIDToExchange;\n        //  Send contributor their ether\n\n        return balances[msg.sender];\n    }\n\n    function depositEtherForDID() canDepositThisManyEtherForDID(msg.sender, msg.value) external payable returns (uint256) {\n\n        Distense distense = Distense(DistenseAddress);\n        uint256 DIDPerEther = distense.getParameterValueByTitle(distense.didPerEtherParameterTitle());\n\n        uint256 numDIDToIssue = SafeMath.div(msg.value, DIDPerEther);\n\n        totalSupply = SafeMath.add(totalSupply, numDIDToIssue);\n        balances[msg.sender] = SafeMath.add(balances[msg.sender], numDIDToIssue);\n\n        LogIssueDID(msg.sender, numDIDToIssue);\n\n        return balances[msg.sender];\n    }\n\n    modifier hasEnoughDID(address _contributor, uint256 _num) {\n        uint256 balance = balances[_contributor];\n        require(balance >= _num);\n        _;\n    }\n\n    modifier canDepositThisManyEtherForDID(address _contributor, uint256 _numEtherDepositing) {\n\n        //  Make sure the aggregate limit of DID that can be issued for ether hasn't been reached\n        require(totalDIDIssuedFromEtherDeposit < hardDIDFromEtherDepositLimitAggregate);\n        require(numDIDExchangedAddress[msg.sender] < hardDIDFromEtherDepositLimitAddress);\n\n        Distense distense = Distense(DistenseAddress);\n        uint256 DIDPerEther = distense.getParameterValueByTitle(distense.didPerEtherParameterTitle());\n\n        uint256 desiredNumberOfDIDToExchange = SafeMath.div(_numEtherDepositing, DIDPerEther);\n\n        //  Each address is limited to exchanging hardDIDFromEtherDepositLimitForAddress number of DID\n        //  This is the remaining number they may exchange.  Yes this is vuln to Sybil attacks\n        uint256 numDIDCanExchange = SafeMath.sub(hardDIDFromEtherDepositLimitAddress, numDIDExchangedAddress[msg.sender]);\n\n        require(desiredNumberOfDIDToExchange <= balances[msg.sender]);\n\n        _;\n    }\n\n}\n",
  "sourcePath": "/Users/john/distense-contracts/contracts/DIDToken.sol",
  "compiler": {
    "name": "solc",
    "version": "0.4.18+commit.9cf6e910.Emscripten.clang"
  },
  "schemaVersion": "1.0.1",
  "updatedAt": "2018-01-15T06:43:33.087Z"
}