{
  "contractName": "DIDToken",
  "abi": [
    {
      "constant": false,
      "inputs": [
        {
          "name": "_recipient",
          "type": "address"
        },
        {
          "name": "_numDID",
          "type": "uint256"
        }
      ],
      "name": "issueDID",
      "outputs": [
        {
          "name": "",
          "type": "uint256"
        }
      ],
      "payable": false,
      "stateMutability": "nonpayable",
      "type": "function"
    },
    {
      "constant": true,
      "inputs": [],
      "name": "name",
      "outputs": [
        {
          "name": "",
          "type": "string"
        }
      ],
      "payable": false,
      "stateMutability": "view",
      "type": "function"
    },
    {
      "constant": true,
      "inputs": [],
      "name": "DistenseAddress",
      "outputs": [
        {
          "name": "",
          "type": "address"
        }
      ],
      "payable": false,
      "stateMutability": "view",
      "type": "function"
    },
    {
      "constant": true,
      "inputs": [],
      "name": "totalSupply",
      "outputs": [
        {
          "name": "",
          "type": "uint256"
        }
      ],
      "payable": false,
      "stateMutability": "view",
      "type": "function"
    },
    {
      "constant": true,
      "inputs": [
        {
          "name": "",
          "type": "address"
        }
      ],
      "name": "balances",
      "outputs": [
        {
          "name": "",
          "type": "uint256"
        }
      ],
      "payable": false,
      "stateMutability": "view",
      "type": "function"
    },
    {
      "constant": true,
      "inputs": [],
      "name": "decimals",
      "outputs": [
        {
          "name": "",
          "type": "uint8"
        }
      ],
      "payable": false,
      "stateMutability": "view",
      "type": "function"
    },
    {
      "constant": true,
      "inputs": [],
      "name": "PullRequestsAddress",
      "outputs": [
        {
          "name": "",
          "type": "address"
        }
      ],
      "payable": false,
      "stateMutability": "view",
      "type": "function"
    },
    {
      "constant": false,
      "inputs": [
        {
          "name": "_address",
          "type": "address"
        }
      ],
      "name": "revokeApproval",
      "outputs": [],
      "payable": false,
      "stateMutability": "nonpayable",
      "type": "function"
    },
    {
      "constant": false,
      "inputs": [
        {
          "name": "_numDIDToExchange",
          "type": "uint256"
        }
      ],
      "name": "exchangeDIDForEther",
      "outputs": [
        {
          "name": "",
          "type": "uint256"
        }
      ],
      "payable": false,
      "stateMutability": "nonpayable",
      "type": "function"
    },
    {
      "constant": true,
      "inputs": [
        {
          "name": "_person",
          "type": "address"
        }
      ],
      "name": "pctDIDOwned",
      "outputs": [
        {
          "name": "",
          "type": "uint256"
        }
      ],
      "payable": false,
      "stateMutability": "view",
      "type": "function"
    },
    {
      "constant": true,
      "inputs": [],
      "name": "symbol",
      "outputs": [
        {
          "name": "",
          "type": "string"
        }
      ],
      "payable": false,
      "stateMutability": "view",
      "type": "function"
    },
    {
      "constant": false,
      "inputs": [],
      "name": "investEtherForDID",
      "outputs": [
        {
          "name": "",
          "type": "uint256"
        }
      ],
      "payable": true,
      "stateMutability": "payable",
      "type": "function"
    },
    {
      "constant": true,
      "inputs": [
        {
          "name": "",
          "type": "address"
        }
      ],
      "name": "numEtherInvestedAddress",
      "outputs": [
        {
          "name": "",
          "type": "uint256"
        }
      ],
      "payable": false,
      "stateMutability": "view",
      "type": "function"
    },
    {
      "constant": true,
      "inputs": [
        {
          "name": "",
          "type": "address"
        }
      ],
      "name": "approved",
      "outputs": [
        {
          "name": "",
          "type": "bool"
        }
      ],
      "payable": false,
      "stateMutability": "view",
      "type": "function"
    },
    {
      "constant": false,
      "inputs": [
        {
          "name": "_address",
          "type": "address"
        }
      ],
      "name": "approve",
      "outputs": [],
      "payable": false,
      "stateMutability": "nonpayable",
      "type": "function"
    },
    {
      "constant": true,
      "inputs": [],
      "name": "numEtherContributorMayInvest",
      "outputs": [
        {
          "name": "",
          "type": "uint256"
        }
      ],
      "payable": false,
      "stateMutability": "view",
      "type": "function"
    },
    {
      "constant": true,
      "inputs": [],
      "name": "numEtherAddressMayInvest",
      "outputs": [
        {
          "name": "",
          "type": "uint256"
        }
      ],
      "payable": false,
      "stateMutability": "view",
      "type": "function"
    },
    {
      "constant": true,
      "inputs": [],
      "name": "etherInvestedAggregate",
      "outputs": [
        {
          "name": "",
          "type": "uint256"
        }
      ],
      "payable": false,
      "stateMutability": "view",
      "type": "function"
    },
    {
      "constant": true,
      "inputs": [],
      "name": "numEtherAggregateMayInvest",
      "outputs": [
        {
          "name": "",
          "type": "uint256"
        }
      ],
      "payable": false,
      "stateMutability": "view",
      "type": "function"
    },
    {
      "inputs": [
        {
          "name": "_DistenseAddress",
          "type": "address"
        }
      ],
      "payable": true,
      "stateMutability": "payable",
      "type": "constructor"
    },
    {
      "anonymous": false,
      "inputs": [
        {
          "indexed": true,
          "name": "to",
          "type": "address"
        },
        {
          "indexed": false,
          "name": "numDID",
          "type": "uint256"
        }
      ],
      "name": "LogIssueDID",
      "type": "event"
    },
    {
      "anonymous": false,
      "inputs": [
        {
          "indexed": true,
          "name": "to",
          "type": "address"
        },
        {
          "indexed": false,
          "name": "numDID",
          "type": "uint256"
        }
      ],
      "name": "LogExchangeDIDForEther",
      "type": "event"
    },
    {
      "anonymous": false,
      "inputs": [
        {
          "indexed": true,
          "name": "to",
          "type": "address"
        },
        {
          "indexed": false,
          "name": "numEther",
          "type": "uint256"
        }
      ],
      "name": "LogInvestEtherForDID",
      "type": "event"
    },
    {
      "anonymous": false,
      "inputs": [
        {
          "indexed": false,
          "name": "someAddress",
          "type": "address"
        }
      ],
      "name": "LogAddress",
      "type": "event"
    },
    {
      "anonymous": false,
      "inputs": [
        {
          "indexed": false,
          "name": "boolean",
          "type": "bool"
        }
      ],
      "name": "LogBool",
      "type": "event"
    },
    {
      "anonymous": false,
      "inputs": [
        {
          "indexed": false,
          "name": "someBytes",
          "type": "bytes"
        }
      ],
      "name": "LogBytes",
      "type": "event"
    },
    {
      "anonymous": false,
      "inputs": [
        {
          "indexed": false,
          "name": "aBytes32",
          "type": "bytes32"
        }
      ],
      "name": "LogBytes32",
      "type": "event"
    },
    {
      "anonymous": false,
      "inputs": [
        {
          "indexed": false,
          "name": "aString",
          "type": "string"
        }
      ],
      "name": "LogString",
      "type": "event"
    },
    {
      "anonymous": false,
      "inputs": [
        {
          "indexed": false,
          "name": "someInt",
          "type": "uint256"
        }
      ],
      "name": "LogUInt256",
      "type": "event"
    },
    {
      "anonymous": false,
      "inputs": [
        {
          "indexed": false,
          "name": "someInt",
          "type": "int256"
        }
      ],
      "name": "LogInt256",
      "type": "event"
    }
  ],
  "bytecode": "0x60606040526127106008556103e86009556000600a55604051602080610ddc83398101604052808051600060038190556002805460ff19908116601217909155600160a060020a033316825260056020526040918290208054909116600117905590925090508051908101604052600c81527f44697374656e7365204449440000000000000000000000000000000000000000602082015260009080516100aa929160200190610118565b5060408051908101604052600381527f4449440000000000000000000000000000000000000000000000000000000000602082015260019080516100f2929160200190610118565b5060078054600160a060020a031916600160a060020a03929092169190911790556101b3565b828054600181600116156101000203166002900490600052602060002090601f016020900481019282601f1061015957805160ff1916838001178555610186565b82800160010185558215610186579182015b8281111561018657825182559160200191906001019061016b565b50610192929150610196565b5090565b6101b091905b80821115610192576000815560010161019c565b90565b610c1a806101c26000396000f3006060604052600436106100ed5763ffffffff60e060020a6000350416630261a40381146100f257806306fdde03146101265780630afdbaed146101b057806318160ddd146101df57806327e235e3146101f2578063313ce5671461021157806346da6eee1461023a578063484685b01461024d57806387b308451461026e578063880049501461028457806395d89b41146102a3578063a723761a146102b6578063b0433f92146102be578063d8b964e6146102dd578063daea85c514610310578063e84104fb1461032f578063ef32bddc14610342578063f9827aa714610355578063fce89e4214610368575b600080fd5b34156100fd57600080fd5b610114600160a060020a036004351660243561037b565b60405190815260200160405180910390f35b341561013157600080fd5b610139610465565b60405160208082528190810183818151815260200191508051906020019080838360005b8381101561017557808201518382015260200161015d565b50505050905090810190601f1680156101a25780820380516001836020036101000a031916815260200191505b509250505060405180910390f35b34156101bb57600080fd5b6101c3610503565b604051600160a060020a03909116815260200160405180910390f35b34156101ea57600080fd5b610114610512565b34156101fd57600080fd5b610114600160a060020a0360043516610518565b341561021c57600080fd5b61022461052a565b60405160ff909116815260200160405180910390f35b341561024557600080fd5b6101c3610533565b341561025857600080fd5b61026c600160a060020a0360043516610542565b005b341561027957600080fd5b61011460043561059f565b341561028f57600080fd5b610114600160a060020a036004351661079a565b34156102ae57600080fd5b61013961084f565b6101146108ba565b34156102c957600080fd5b610114600160a060020a0360043516610ac7565b34156102e857600080fd5b6102fc600160a060020a0360043516610ad9565b604051901515815260200160405180910390f35b341561031b57600080fd5b61026c600160a060020a0360043516610aee565b341561033a57600080fd5b610114610b4e565b341561034d57600080fd5b610114610b6e565b341561036057600080fd5b610114610b74565b341561037357600080fd5b610114610b7a565b600160a060020a03331660009081526005602052604081205460ff1615156103a257600080fd5b600160a060020a03831615156103b757600080fd5b600082116103c457600080fd5b6103d060035483610b80565b600355600160a060020a0383166000908152600460205260409020546103f69083610b80565b600160a060020a0384166000818152600460205260409081902092909255907f3433529aaca741f54b3397d6ef2d588bb92ecd0d87c4c41db2f379bfe5c168f49084905190815260200160405180910390a25050600160a060020a031660009081526004602052604090205490565b60008054600181600116156101000203166002900480601f0160208091040260200160405190810160405280929190818152602001828054600181600116156101000203166002900480156104fb5780601f106104d0576101008083540402835291602001916104fb565b820191906000526020600020905b8154815290600101906020018083116104de57829003601f168201915b505050505081565b600754600160a060020a031681565b60035481565b60046020526000908152604090205481565b60025460ff1681565b600654600160a060020a031681565b600160a060020a03331660009081526005602052604090205460ff16151561056957600080fd5b600160a060020a038116151561057e57600080fd5b600160a060020a03166000908152600560205260409020805460ff19169055565b33600160a060020a03811660009081526004602052604081205490918291829182918690818110156105d057600080fd5b600754600160a060020a0316955085638fc6ad2d81632273bae26000604051602001526040518163ffffffff1660e060020a028152600401602060405180830381600087803b151561062157600080fd5b6102c65a03f1151561063257600080fd5b5050506040518051905060006040516020015260405160e060020a63ffffffff84160281526004810191909152602401602060405180830381600087803b151561067b57600080fd5b6102c65a03f1151561068c57600080fd5b5050506040518051905094506106a28886610b9a565b9350600160a060020a033016318490116106bb57600080fd5b600160a060020a0333166000908152600460205260409020546106de9089610bb1565b600160a060020a0333166000908152600460205260409020556003546107049089610bb1565b600355600160a060020a03331684156108fc0285604051600060405180830381858888f19350505050151561073857600080fd5b33600160a060020a03167feb7d31df09103642237866b5fa5946a266fda42585c7ba30a006a40e4e478d3f8960405190815260200160405180910390a250505033600160a060020a031660009081526004602052604090205495945050505050565b6000806004600084600160a060020a0316600160a060020a0316815260200190815260200160002054905073__SafeMath______________________________622c1a9e82600354600460006040516020015260405160e060020a63ffffffff861602815260048101939093526024830191909152604482015260640160206040518083038186803b151561082e57600080fd5b6102c65a03f4151561083f57600080fd5b5050506040518051949350505050565b60018054600181600116156101000203166002900480601f0160208091040260200160405190810160405280929190818152602001828054600181600116156101000203166002900480156104fb5780601f106104d0576101008083540402835291602001916104fb565b6000806000806000806108cb610b4e565b90506108df34670de0b6b3a7640000610b9a565b8110156108eb57600080fd5b600854600954106108fb57600080fd5b600754600160a060020a0316945084638fc6ad2d81632273bae26000604051602001526040518163ffffffff1660e060020a028152600401602060405180830381600087803b151561094c57600080fd5b6102c65a03f1151561095d57600080fd5b5050506040518051905060006040516020015260405160e060020a63ffffffff84160281526004810191909152602401602060405180830381600087803b15156109a657600080fd5b6102c65a03f115156109b757600080fd5b5050506040518051905093506109d534670de0b6b3a7640000610b9a565b92506109e18484610bc3565b91506109ef60035483610b80565b600355600160a060020a033316600090815260046020526040902054610a159083610b80565b600160a060020a0333166000818152600460205260409081902092909255907f3433529aaca741f54b3397d6ef2d588bb92ecd0d87c4c41db2f379bfe5c168f49084905190815260200160405180910390a233600160a060020a03167f71894dba69eac3a3461302b16631257b4580fbc7be61f1d4b0e988845e6400f03460405190815260200160405180910390a2600160a060020a0333166000908152600460205260409020549550505050505090565b600b6020526000908152604090205481565b60056020526000908152604090205460ff1681565b600160a060020a03331660009081526005602052604090205460ff161515610b1557600080fd5b600160a060020a0381161515610b2a57600080fd5b600160a060020a03166000908152600560205260409020805460ff19166001179055565b600160a060020a0333166000908152600b60205260409020546009540390565b60095481565b600a5481565b60085481565b600082820183811015610b8f57fe5b8091505b5092915050565b6000808284811515610ba857fe5b04949350505050565b600082821115610bbd57fe5b50900390565b600080831515610bd65760009150610b93565b50828202828482811515610be657fe5b0414610b8f57fe00a165627a7a72305820d2c4378cbc03807f02d1fd203e83ebd58506b0da4ed5357b14435373aa5f84510029",
  "source": "pragma solidity ^0.4.17;\n\nimport './lib/Approvable.sol';\nimport './Distense.sol';\nimport './lib/SafeMath.sol';\nimport './lib/Token.sol';\nimport './Debuggable.sol';\n\n\ncontract DIDToken is Token, Approvable, Debuggable {\n\n    using SafeMath for uint256;\n\n    event LogIssueDID(address indexed to, uint256 numDID);\n    event LogExchangeDIDForEther(address indexed to, uint256 numDID);\n    event LogInvestEtherForDID(address indexed to, uint256 numEther);\n\n    address public PullRequestsAddress;\n    address public DistenseAddress;\n\n    uint256 public numEtherAggregateMayInvest  = 10000;  // This is the max DID all addresses can receive from depositing ether\n    uint256 public numEtherAddressMayInvest  = 1000;  // This is the max DID any address can receive from Ether deposit\n    uint256 public etherInvestedAggregate = 0;\n\n    mapping(address => uint256) public numEtherInvestedAddress;  // keep track of how much contributors have deposited to prevent over depositing\n\n    function DIDToken(address _DistenseAddress) public payable {\n        name = \"Distense DID\";\n        symbol = \"DID\";\n\n        DistenseAddress = _DistenseAddress;\n    }\n\n    function issueDID(address _recipient, uint256 _numDID) external onlyApproved returns (uint256) {\n        require(_recipient != address(0));\n        require(_numDID > 0);\n\n        totalSupply = SafeMath.add(totalSupply, _numDID);\n        balances[_recipient] = SafeMath.add(balances[_recipient], _numDID);\n        LogIssueDID(_recipient, _numDID);\n\n        return balances[_recipient];\n    }\n\n    function pctDIDOwned(address _person) external view returns (uint256) {\n        uint owned = balances[_person];\n        return SafeMath.percent(owned, totalSupply, 4);\n    }\n\n    function exchangeDIDForEther(uint256 _numDIDToExchange)\n        hasEnoughDID(msg.sender, _numDIDToExchange)\n        external\n    returns (uint256) {\n\n        Distense distense = Distense(DistenseAddress);\n        uint256 DIDPerEther = distense.getParameterValueByTitle(distense.didPerEtherParameterTitle());\n\n        uint256 numEtherToIssue = SafeMath.div(_numDIDToExchange, DIDPerEther);\n        require(this.balance > numEtherToIssue);\n\n        //  Adjust number of DID owned first\n        balances[msg.sender] = SafeMath.sub(balances[msg.sender], _numDIDToExchange);\n        totalSupply = SafeMath.sub(totalSupply, _numDIDToExchange);\n\n        msg.sender.transfer(numEtherToIssue);\n        LogExchangeDIDForEther(msg.sender, _numDIDToExchange);\n\n        return balances[msg.sender];\n    }\n\n    function investEtherForDID() canDepositThisManyEtherForDID() external payable returns (uint256) {\n\n        Distense distense = Distense(DistenseAddress);\n        uint256 DIDPerEther = distense.getParameterValueByTitle(distense.didPerEtherParameterTitle());\n\n        uint256 numEtherInvested = SafeMath.div(msg.value, 1000000000000000000);\n\n        uint256 numDIDToIssue = SafeMath.mul(DIDPerEther, numEtherInvested);\n\n        totalSupply = SafeMath.add(totalSupply, numDIDToIssue);\n        balances[msg.sender] = SafeMath.add(balances[msg.sender], numDIDToIssue);\n\n        LogIssueDID(msg.sender, numDIDToIssue);\n        LogInvestEtherForDID(msg.sender, msg.value);\n\n        return balances[msg.sender];\n    }\n\n    function numEtherContributorMayInvest() public view returns (uint256) {\n        return numEtherAddressMayInvest - numEtherInvestedAddress[msg.sender];\n    }\n\n    modifier hasEnoughDID(address _contributor, uint256 _num) {\n        uint256 balance = balances[_contributor];\n        require(balance >= _num);\n        _;\n    }\n\n    modifier canDepositThisManyEtherForDID() {\n        uint256 numEtherMayInvest = numEtherContributorMayInvest();\n        require(numEtherMayInvest >= SafeMath.div(msg.value, 1000000000000000000));\n        require(numEtherAddressMayInvest < numEtherAggregateMayInvest);\n        _;\n    }\n\n\n\n}\n",
  "sourcePath": "/Users/john/distense-contracts/contracts/DIDToken.sol",
  "compiler": {
    "name": "solc",
    "version": "0.4.18+commit.9cf6e910.Emscripten.clang"
  },
  "schemaVersion": "1.0.1",
  "updatedAt": "2018-01-22T20:57:00.602Z"
}