{
  "contractName": "Distense",
  "abi": [
    {
      "constant": true,
      "inputs": [
        {
          "name": "",
          "type": "bytes32"
        }
      ],
      "name": "parameters",
      "outputs": [
        {
          "name": "title",
          "type": "bytes32"
        },
        {
          "name": "value",
          "type": "uint256"
        }
      ],
      "payable": false,
      "stateMutability": "view",
      "type": "function"
    },
    {
      "constant": true,
      "inputs": [],
      "name": "proposalPctDIDApprovalParameter",
      "outputs": [
        {
          "name": "title",
          "type": "bytes32"
        },
        {
          "name": "value",
          "type": "uint256"
        }
      ],
      "payable": false,
      "stateMutability": "view",
      "type": "function"
    },
    {
      "constant": true,
      "inputs": [],
      "name": "maxRewardParameter",
      "outputs": [
        {
          "name": "title",
          "type": "bytes32"
        },
        {
          "name": "value",
          "type": "uint256"
        }
      ],
      "payable": false,
      "stateMutability": "view",
      "type": "function"
    },
    {
      "constant": true,
      "inputs": [],
      "name": "votingIntervalParameter",
      "outputs": [
        {
          "name": "title",
          "type": "bytes32"
        },
        {
          "name": "value",
          "type": "uint256"
        }
      ],
      "payable": false,
      "stateMutability": "view",
      "type": "function"
    },
    {
      "constant": true,
      "inputs": [],
      "name": "getNumParameters",
      "outputs": [
        {
          "name": "",
          "type": "uint256"
        }
      ],
      "payable": false,
      "stateMutability": "view",
      "type": "function"
    },
    {
      "constant": true,
      "inputs": [],
      "name": "proposalPctDIDApprovalTitle",
      "outputs": [
        {
          "name": "",
          "type": "bytes32"
        }
      ],
      "payable": false,
      "stateMutability": "view",
      "type": "function"
    },
    {
      "constant": true,
      "inputs": [
        {
          "name": "",
          "type": "uint256"
        }
      ],
      "name": "parameterTitles",
      "outputs": [
        {
          "name": "",
          "type": "bytes32"
        }
      ],
      "payable": false,
      "stateMutability": "view",
      "type": "function"
    },
    {
      "constant": true,
      "inputs": [
        {
          "name": "_title",
          "type": "bytes32"
        }
      ],
      "name": "getParameterValue",
      "outputs": [
        {
          "name": "",
          "type": "uint256"
        }
      ],
      "payable": false,
      "stateMutability": "view",
      "type": "function"
    },
    {
      "constant": true,
      "inputs": [],
      "name": "votingInterval",
      "outputs": [
        {
          "name": "",
          "type": "uint256"
        }
      ],
      "payable": false,
      "stateMutability": "view",
      "type": "function"
    },
    {
      "constant": true,
      "inputs": [],
      "name": "maxRewardParameterTitle",
      "outputs": [
        {
          "name": "",
          "type": "bytes32"
        }
      ],
      "payable": false,
      "stateMutability": "view",
      "type": "function"
    },
    {
      "constant": true,
      "inputs": [],
      "name": "DIDTokenAddress",
      "outputs": [
        {
          "name": "",
          "type": "address"
        }
      ],
      "payable": false,
      "stateMutability": "view",
      "type": "function"
    },
    {
      "constant": true,
      "inputs": [],
      "name": "votingIntervalParameterTitle",
      "outputs": [
        {
          "name": "",
          "type": "bytes32"
        }
      ],
      "payable": false,
      "stateMutability": "view",
      "type": "function"
    },
    {
      "constant": true,
      "inputs": [],
      "name": "pullRequestPctDIDRequiredParameterTitle",
      "outputs": [
        {
          "name": "",
          "type": "bytes32"
        }
      ],
      "payable": false,
      "stateMutability": "view",
      "type": "function"
    },
    {
      "constant": true,
      "inputs": [
        {
          "name": "_title",
          "type": "bytes32"
        }
      ],
      "name": "getParameterByTitle",
      "outputs": [
        {
          "name": "",
          "type": "bytes32"
        },
        {
          "name": "",
          "type": "uint256"
        }
      ],
      "payable": false,
      "stateMutability": "view",
      "type": "function"
    },
    {
      "constant": true,
      "inputs": [],
      "name": "pullRequestPctDIDParameter",
      "outputs": [
        {
          "name": "title",
          "type": "bytes32"
        },
        {
          "name": "value",
          "type": "uint256"
        }
      ],
      "payable": false,
      "stateMutability": "view",
      "type": "function"
    },
    {
      "constant": false,
      "inputs": [
        {
          "name": "_title",
          "type": "bytes32"
        },
        {
          "name": "_voteValue",
          "type": "uint256"
        }
      ],
      "name": "voteOnParameter",
      "outputs": [
        {
          "name": "",
          "type": "uint256"
        }
      ],
      "payable": false,
      "stateMutability": "nonpayable",
      "type": "function"
    },
    {
      "inputs": [
        {
          "name": "_DIDTokenAddress",
          "type": "address"
        }
      ],
      "payable": false,
      "stateMutability": "nonpayable",
      "type": "constructor"
    },
    {
      "anonymous": false,
      "inputs": [
        {
          "indexed": false,
          "name": "title",
          "type": "bytes32"
        },
        {
          "indexed": false,
          "name": "value",
          "type": "uint256"
        }
      ],
      "name": "LogParameterValueUpdate",
      "type": "event"
    }
  ],
  "bytecode": "0x60606040527f70726f706f73616c5063744449445265717569726564000000000000000000006006557f70756c6c52657175657374506374444944526571756972656400000000000000600a557f766f74696e67496e74657276616c000000000000000000000000000000000000600f557f6d61785265776172640000000000000000000000000000000000000000000000601355341561009f57600080fd5b6040516020806108658339810160405280805160008054600160a060020a031916600160a060020a03831617905591506040905080519081016040526006548152601960208201526003815181556020820151600191820155600654600090815260026020526040902060035481556004549082015580549091508082016101278382610281565b506000918252602090912060065491015560408051908101604052600a8054825260208201526007815181556020820151600191820155600a546000908152600260205260409020600754815560085490820155805490915080820161018d8382610281565b5060009182526020909120600a5491015560408051908101604052600f5481526213c6806020820152600c815181556020820151600191820155600f546000908152600260205260409020600c548155600d549082015580549091508082016101f68382610281565b5060009182526020909120600f549101556040805190810160405260135481526103e8602082015260108151815560208201516001918201556013546000908152600260205260409020601054815560115490820155805490915080820161025e8382610281565b506000918252602090912060135491015560015460041461027b57fe5b506102cb565b8154818355818115116102a5576000838152602090206102a59181019083016102aa565b505050565b6102c891905b808211156102c457600081556001016102b0565b5090565b90565b61058b806102da6000396000f300606060405236156100e35763ffffffff7c01000000000000000000000000000000000000000000000000000000006000350416630250680481146100e857806313148cd0146101165780631acdd7f0146101295780631cf7549c1461013c578063333606321461014f57806360232fa91461017457806364d05f4d14610187578063710368ab1461019d5780637566ad53146101b35780637da1373a146101c6578063ac847d49146101d9578063b9ff6d0f14610208578063bbda07ce1461021b578063c8f3e5f01461022e578063e2ce9aa614610244578063f2a9f0fd14610257575b600080fd5b34156100f357600080fd5b6100fe600435610270565b60405191825260208201526040908101905180910390f35b341561012157600080fd5b6100fe610289565b341561013457600080fd5b6100fe610292565b341561014757600080fd5b6100fe61029b565b341561015a57600080fd5b6101626102a4565b60405190815260200160405180910390f35b341561017f57600080fd5b6101626102aa565b341561019257600080fd5b6101626004356102b0565b34156101a857600080fd5b6101626004356102cf565b34156101be57600080fd5b6101626102e4565b34156101d157600080fd5b6101626102ea565b34156101e457600080fd5b6101ec6102f0565b604051600160a060020a03909116815260200160405180910390f35b341561021357600080fd5b6101626102ff565b341561022657600080fd5b610162610305565b341561023957600080fd5b6100fe60043561030b565b341561024f57600080fd5b6100fe610351565b341561026257600080fd5b61016260043560243561035a565b6002602052600090815260409020805460019091015482565b60035460045482565b60105460115482565b600c54600d5482565b60015490565b60065481565b60018054829081106102be57fe5b600091825260209091200154905081565b60009081526002602052604090206001015490565b600b5481565b60135481565b600054600160a060020a031681565b600f5481565b600a5481565b600080610316610548565b600084815260026020526040908190209080519081016040528154815260019091015460208201529050805181602001519250925050915091565b60075460085482565b600082815260026020526040812060018101548291829182918291889188918483101561038657600080fd5b6002810283111561039657600080fd5b60008b815260026020818152604080842033600160a060020a038116865293810190925283206001015491928e92908111156103dd57600b5481014210156103dd57600080fd5b60008054600160a060020a03169c508c90634c6bb5f6903390604051602001526040517c010000000000000000000000000000000000000000000000000000000063ffffffff8416028152600160a060020a039091166004820152602401602060405180830381600087803b151561045457600080fd5b6102c65a03f1151561046557600080fd5b50505060405180519b505060008b1161047d57600080fd5b6104868f6102cf565b99508d8a141561049557600080fd5b60648e8c020498506104a78f8a610500565b506104b28f33610518565b507fa4ca2f829529e953006ffeae7c1e288ca47c5086b391aa85fffb0a129adce3758f8a60405191825260208201526040908101905180910390a150969d9c50505050505050505050505050565b60009182526002602052604090912060010181905590565b6000918252600260208181526040808520600160a060020a03909416855292909101905281204260019091015590565b6040805190810160405260008082526020820152905600a165627a7a72305820994161928f46c8934dbc50d5158d5e4b0e469534181667422754df7e2bd78cf40029",
  "source": "pragma solidity ^0.4.17;\n\nimport './DIDToken.sol';\nimport './lib/SafeMath.sol';\n\ncontract Distense {\n  using SafeMath for uint256;\n\n  address public DIDTokenAddress;\n\n  /*\n    Distense' votable parameters\n    Parameter is the perfect word for these: \"a numerical or other measurable factor forming one of a set\n    that defines a system or sets the conditions of its operation\".\n  */\n\n  //  Titles are what uniquely define parameters, so query by titles when iterating with client\n  bytes32[] public parameterTitles;\n  struct Parameter {\n    bytes32 title;\n    uint256 value;\n    mapping (address => Vote) votes;\n  }\n  struct Vote {\n    address voter;\n    uint256 lastVoted;\n  }\n\n  mapping (bytes32 => Parameter) public parameters;\n\n  Parameter public proposalPctDIDApprovalParameter;\n  bytes32 public proposalPctDIDApprovalTitle = 'proposalPctDIDRequired';\n\n\n  Parameter public pullRequestPctDIDParameter;\n  bytes32 public pullRequestPctDIDRequiredParameterTitle = 'pullRequestPctDIDRequired';\n  uint256 public votingInterval;  // Period of time between when voters can update these Distense parameters\n\n\n  Parameter public votingIntervalParameter;\n  bytes32 public votingIntervalParameterTitle = 'votingInterval';\n\n  Parameter public maxRewardParameter;\n  bytes32 public maxRewardParameterTitle = 'maxReward';\n\n  event LogParameterValueUpdate(bytes32 title, uint256 value);\n\n  function Distense(address _DIDTokenAddress) public {\n\n    DIDTokenAddress = _DIDTokenAddress;\n\n\n    // Launch Distense with some votable parameters that can be later updated by contributors\n    proposalPctDIDApprovalParameter = Parameter({\n      title: proposalPctDIDApprovalTitle,\n      value: 25\n    });\n    parameters[proposalPctDIDApprovalTitle] = proposalPctDIDApprovalParameter;\n    parameterTitles.push(proposalPctDIDApprovalTitle);\n\n    pullRequestPctDIDParameter = Parameter({\n      title: pullRequestPctDIDRequiredParameterTitle,\n      value: 10\n    });\n    parameters[pullRequestPctDIDRequiredParameterTitle] = pullRequestPctDIDParameter;\n    parameterTitles.push(pullRequestPctDIDRequiredParameterTitle);\n    \n    votingIntervalParameter = Parameter({\n      title: votingIntervalParameterTitle,\n      value: 15 days  // 15 * 86400 = 1.296e+6\n    });\n    parameters[votingIntervalParameterTitle] = votingIntervalParameter;\n    parameterTitles.push(votingIntervalParameterTitle);\n\n    maxRewardParameter = Parameter({\n      title: maxRewardParameterTitle,\n      value: 1000\n    });\n    parameters[maxRewardParameterTitle] = maxRewardParameter;\n    parameterTitles.push(maxRewardParameterTitle);\n\n    assert(parameterTitles.length == 4);\n\n  }\n  \n  function getParameterValue(bytes32 _title) public view returns (uint256) {\n     return parameters[_title].value; \n  }\n\n  function voteOnParameter(bytes32 _title, uint256 _voteValue )\n    public\n    voteWithinRange(_title, _voteValue )\n    votingIntervalReached(msg.sender, _title)\n  returns\n    (uint256) {\n\n    DIDToken didToken = DIDToken(DIDTokenAddress);\n    uint256 votersDIDPercent = didToken.percentDID(msg.sender);\n    require (votersDIDPercent > 0);\n\n    uint256 currentValue = getParameterValue(_title);\n    require(_voteValue != currentValue);\n\n    uint updatedValue = (_voteValue * votersDIDPercent) / 100;\n\n    updateParameterValue(_title, updatedValue);\n    updateLastVotedOnParameter(_title, msg.sender);\n    LogParameterValueUpdate(_title, updatedValue);\n    return updatedValue;\n  }\n  \n  function getParameterByTitle(bytes32 _title) public view returns (bytes32, uint256) {\n    Parameter memory param = parameters[_title];\n    return (param.title, param.value);\n  }\n\n  function getNumParameters() public view returns (uint256) {\n    return parameterTitles.length;\n  }\n\n  function updateParameterValue(bytes32 _title, uint256 _newValue) internal returns (uint256) {\n    Parameter storage parameter = parameters[_title];\n    parameter.value = _newValue;\n    return parameter.value;\n  }\n\n  function updateLastVotedOnParameter(bytes32 _title, address voter) internal returns (bool) {\n    Parameter storage parameter = parameters[_title];\n    parameter.votes[voter].lastVoted = now;\n  }\n\n  modifier votingIntervalReached(address _voter, bytes32 _title) {\n    Parameter storage parameter = parameters[_title];\n    uint256 lastVotedOnParameter = parameter.votes[_voter].lastVoted;\n    if (lastVotedOnParameter > 0)\n      require(now >= lastVotedOnParameter + votingInterval);\n    _;\n  }\n\n  modifier voteWithinRange(bytes32 _title, uint256 _newValue) {\n    Parameter storage parameter = parameters[_title];\n    uint256 currentValue = parameter.value;\n    require(_newValue >= 0);\n    require(_newValue <= 2 * currentValue);\n    _;\n  }\n\n}\n",
  "sourcePath": "/Users/john/distense-contracts/contracts/Distense.sol",
  "schemaVersion": "1.0.0",
  "updatedAt": "2017-11-24T23:52:34.030Z"
}