{
  "contractName": "Distense",
  "abi": [
    {
      "constant": true,
      "inputs": [
        {
          "name": "",
          "type": "bytes32"
        }
      ],
      "name": "parameters",
      "outputs": [
        {
          "name": "title",
          "type": "bytes32"
        },
        {
          "name": "value",
          "type": "uint256"
        }
      ],
      "payable": false,
      "stateMutability": "view",
      "type": "function"
    },
    {
      "constant": true,
      "inputs": [],
      "name": "numDIDRequiredToApproveVotePullRequestParameter",
      "outputs": [
        {
          "name": "title",
          "type": "bytes32"
        },
        {
          "name": "value",
          "type": "uint256"
        }
      ],
      "payable": false,
      "stateMutability": "view",
      "type": "function"
    },
    {
      "constant": true,
      "inputs": [],
      "name": "pctDIDRequiredToMergePullRequestTitle",
      "outputs": [
        {
          "name": "",
          "type": "bytes32"
        }
      ],
      "payable": false,
      "stateMutability": "view",
      "type": "function"
    },
    {
      "constant": true,
      "inputs": [],
      "name": "maxRewardParameter",
      "outputs": [
        {
          "name": "title",
          "type": "bytes32"
        },
        {
          "name": "value",
          "type": "uint256"
        }
      ],
      "payable": false,
      "stateMutability": "view",
      "type": "function"
    },
    {
      "constant": true,
      "inputs": [],
      "name": "votingIntervalParameter",
      "outputs": [
        {
          "name": "title",
          "type": "bytes32"
        },
        {
          "name": "value",
          "type": "uint256"
        }
      ],
      "payable": false,
      "stateMutability": "view",
      "type": "function"
    },
    {
      "constant": true,
      "inputs": [],
      "name": "numDIDRequiredToTaskRewardVoteParameter",
      "outputs": [
        {
          "name": "title",
          "type": "bytes32"
        },
        {
          "name": "value",
          "type": "uint256"
        }
      ],
      "payable": false,
      "stateMutability": "view",
      "type": "function"
    },
    {
      "constant": true,
      "inputs": [],
      "name": "defaultRewardParameter",
      "outputs": [
        {
          "name": "title",
          "type": "bytes32"
        },
        {
          "name": "value",
          "type": "uint256"
        }
      ],
      "payable": false,
      "stateMutability": "view",
      "type": "function"
    },
    {
      "constant": true,
      "inputs": [],
      "name": "getNumParameters",
      "outputs": [
        {
          "name": "",
          "type": "uint256"
        }
      ],
      "payable": false,
      "stateMutability": "view",
      "type": "function"
    },
    {
      "constant": true,
      "inputs": [],
      "name": "proposalPctDIDToApproveParameterTitle",
      "outputs": [
        {
          "name": "",
          "type": "bytes32"
        }
      ],
      "payable": false,
      "stateMutability": "view",
      "type": "function"
    },
    {
      "constant": true,
      "inputs": [],
      "name": "defaultRewardParameterTitle",
      "outputs": [
        {
          "name": "",
          "type": "bytes32"
        }
      ],
      "payable": false,
      "stateMutability": "view",
      "type": "function"
    },
    {
      "constant": true,
      "inputs": [],
      "name": "numDIDRequiredToTaskRewardVoteParameterTitle",
      "outputs": [
        {
          "name": "",
          "type": "bytes32"
        }
      ],
      "payable": false,
      "stateMutability": "view",
      "type": "function"
    },
    {
      "constant": true,
      "inputs": [
        {
          "name": "",
          "type": "uint256"
        }
      ],
      "name": "parameterTitles",
      "outputs": [
        {
          "name": "",
          "type": "bytes32"
        }
      ],
      "payable": false,
      "stateMutability": "view",
      "type": "function"
    },
    {
      "constant": true,
      "inputs": [],
      "name": "maxRewardParameterTitle",
      "outputs": [
        {
          "name": "",
          "type": "bytes32"
        }
      ],
      "payable": false,
      "stateMutability": "view",
      "type": "function"
    },
    {
      "constant": true,
      "inputs": [
        {
          "name": "_title",
          "type": "bytes32"
        }
      ],
      "name": "getParameterValueByTitle",
      "outputs": [
        {
          "name": "",
          "type": "uint256"
        }
      ],
      "payable": false,
      "stateMutability": "view",
      "type": "function"
    },
    {
      "constant": true,
      "inputs": [],
      "name": "numDIDRequiredToApproveVotePullRequestParameterTitle",
      "outputs": [
        {
          "name": "",
          "type": "bytes32"
        }
      ],
      "payable": false,
      "stateMutability": "view",
      "type": "function"
    },
    {
      "constant": true,
      "inputs": [],
      "name": "DIDTokenAddress",
      "outputs": [
        {
          "name": "",
          "type": "address"
        }
      ],
      "payable": false,
      "stateMutability": "view",
      "type": "function"
    },
    {
      "constant": true,
      "inputs": [],
      "name": "pctDIDRequiredToMergePullRequest",
      "outputs": [
        {
          "name": "title",
          "type": "bytes32"
        },
        {
          "name": "value",
          "type": "uint256"
        }
      ],
      "payable": false,
      "stateMutability": "view",
      "type": "function"
    },
    {
      "constant": true,
      "inputs": [],
      "name": "minNumberOfTaskRewardVotersParameter",
      "outputs": [
        {
          "name": "title",
          "type": "bytes32"
        },
        {
          "name": "value",
          "type": "uint256"
        }
      ],
      "payable": false,
      "stateMutability": "view",
      "type": "function"
    },
    {
      "constant": true,
      "inputs": [],
      "name": "proposalPctDIDToApproveParameter",
      "outputs": [
        {
          "name": "title",
          "type": "bytes32"
        },
        {
          "name": "value",
          "type": "uint256"
        }
      ],
      "payable": false,
      "stateMutability": "view",
      "type": "function"
    },
    {
      "constant": true,
      "inputs": [],
      "name": "votingIntervalParameterTitle",
      "outputs": [
        {
          "name": "",
          "type": "bytes32"
        }
      ],
      "payable": false,
      "stateMutability": "view",
      "type": "function"
    },
    {
      "constant": true,
      "inputs": [
        {
          "name": "_title",
          "type": "bytes32"
        }
      ],
      "name": "getParameterByTitle",
      "outputs": [
        {
          "name": "",
          "type": "bytes32"
        },
        {
          "name": "",
          "type": "uint256"
        }
      ],
      "payable": false,
      "stateMutability": "view",
      "type": "function"
    },
    {
      "constant": true,
      "inputs": [],
      "name": "minNumberOfTaskRewardVotersParameterTitle",
      "outputs": [
        {
          "name": "",
          "type": "bytes32"
        }
      ],
      "payable": false,
      "stateMutability": "view",
      "type": "function"
    },
    {
      "constant": false,
      "inputs": [
        {
          "name": "_title",
          "type": "bytes32"
        },
        {
          "name": "_voteValue",
          "type": "uint256"
        }
      ],
      "name": "voteOnParameter",
      "outputs": [
        {
          "name": "",
          "type": "uint256"
        }
      ],
      "payable": false,
      "stateMutability": "nonpayable",
      "type": "function"
    },
    {
      "inputs": [
        {
          "name": "_DIDTokenAddress",
          "type": "address"
        }
      ],
      "payable": false,
      "stateMutability": "nonpayable",
      "type": "constructor"
    },
    {
      "anonymous": false,
      "inputs": [
        {
          "indexed": false,
          "name": "title",
          "type": "bytes32"
        },
        {
          "indexed": false,
          "name": "value",
          "type": "uint256"
        }
      ],
      "name": "LogParameterValueUpdate",
      "type": "event"
    }
  ],
  "bytecode": "0x60606040527f70726f706f73616c506374444944546f417070726f76650000000000000000006006557f7063744449445265717569726564546f4d6572676550756c6c52657175657374600a557f766f74696e67496e74657276616c000000000000000000000000000000000000600e557f6d617852657761726400000000000000000000000000000000000000000000006012557f6e756d444944526571417070726f7665566f746550756c6c52657175657374006016557f6e756d4449445265717569726564546f5461736b526577617264566f74650000601a557f6d696e4e756d6265724f665461736b526577617264566f746572730000000000601e557f64656661756c7452657761726400000000000000000000000000000000000000602255341561012f57600080fd5b604051602080610b9a8339810160405280805160008054600160a060020a031916600160a060020a0383161790559150604090508051908101604052600654815260fa60208201526003815181556020820151600191820155600654600090815260026020526040902060035481556004549082015580549091508082016101b783826104a7565b506000918252602090912060065491015560408051908101604052600a548152606460208201526007815181556020820151600191820155600a546000908152600260205260409020600754815560085490820155805490915080820161021e83826104a7565b5060009182526020909120600a5491015560408051908101604052600e5481526213c6806020820152600b815181556020820151600191820155600e546000908152600260205260409020600b548155600c5490820155805490915080820161028783826104a7565b5060009182526020909120600e549101556040805190810160405260125481526103e86020820152600f8151815560208201516001918201556012546000908152600260205260409020600f5481556010549082015580549091508082016102ef83826104a7565b506000918252602090912060125491015560408051908101604052601e54815260326020820152601b815181556020820151600191820155601e546000908152600260205260409020601b548155601c5490820155805490915080820161035683826104a7565b5060009182526020909120601e5491015560408051908101604052601a5481526105dc60208201526017815181556020820151600191820155601a54600090815260026020526040902060175481556018549082015580549091508082016103be83826104a7565b5060009182526020909120601a549101556040805190810160405260165481526107d0602082015260138151815560208201516001918201556016546000908152600260205260409020601354815560145490820155805490915080820161042683826104a7565b50600091825260209091206016549101556040805190810160405260225481526103e86020820152601f8151815560208201516001918201556022546000908152600260209081526040909120601f548155905490820155805490915080820161049083826104a7565b5060009182526020909120602254910155506104f1565b8154818355818115116104cb576000838152602090206104cb9181019083016104d0565b505050565b6104ee91905b808211156104ea57600081556001016104d6565b5090565b90565b61069a806105006000396000f3006060604052600436106101325763ffffffff7c0100000000000000000000000000000000000000000000000000000000600035041663025068048114610137578063032266011461016557806314eb172c146101785780631acdd7f01461019d5780631cf7549c146101b057806325172b94146101c35780632b570c5e146101d657806333360632146101e95780633c570b39146101fc57806345a528bf1461020f5780636263a27f1461022257806364d05f4d146102355780637da1373a1461024b5780638fc6ad2d1461025e578063a3b8e7b514610274578063ac847d4914610287578063adfbf396146102b6578063b1ec5c55146102c9578063b92f95f5146102dc578063b9ff6d0f146102ef578063c8f3e5f014610302578063cec9bb9f14610318578063f2a9f0fd1461032b575b600080fd5b341561014257600080fd5b61014d600435610344565b60405191825260208201526040908101905180910390f35b341561017057600080fd5b61014d61035d565b341561018357600080fd5b61018b610366565b60405190815260200160405180910390f35b34156101a857600080fd5b61014d61036c565b34156101bb57600080fd5b61014d610375565b34156101ce57600080fd5b61014d61037e565b34156101e157600080fd5b61014d610387565b34156101f457600080fd5b61018b610390565b341561020757600080fd5b61018b610396565b341561021a57600080fd5b61018b61039c565b341561022d57600080fd5b61018b6103a2565b341561024057600080fd5b61018b6004356103a8565b341561025657600080fd5b61018b6103c7565b341561026957600080fd5b61018b6004356103cd565b341561027f57600080fd5b61018b6103e2565b341561029257600080fd5b61029a6103e8565b604051600160a060020a03909116815260200160405180910390f35b34156102c157600080fd5b61014d6103f7565b34156102d457600080fd5b61014d610400565b34156102e757600080fd5b61014d610409565b34156102fa57600080fd5b61018b610412565b341561030d57600080fd5b61014d600435610418565b341561032357600080fd5b61018b61045e565b341561033657600080fd5b61018b600435602435610464565b6002602052600090815260409020805460019091015482565b60135460145482565b600a5481565b600f5460105482565b600b54600c5482565b60175460185482565b601f5460205482565b60015490565b60065481565b60225481565b601a5481565b60018054829081106103b657fe5b600091825260209091200154905081565b60125481565b60009081526002602052604090206001015490565b60165481565b600054600160a060020a031681565b60075460085482565b601b54601c5482565b60035460045482565b600e5481565b600080610423610657565b600084815260026020526040908190209080519081016040528154815260019091015460208201529050805181602001519250925050915091565b601e5481565b600082815260026020526040812060018101548291829182918291889188918483101561049057600080fd5b600281028311156104a057600080fd5b60008b815260026020818152604080842033600160a060020a038116865293810190925290922060010154600e5491928e929091906104de906103cd565b81014210156104ec57600080fd5b60008054600160a060020a03169c508c906388004950903390604051602001526040517c010000000000000000000000000000000000000000000000000000000063ffffffff8416028152600160a060020a039091166004820152602401602060405180830381600087803b151561056357600080fd5b6102c65a03f1151561057457600080fd5b50505060405180519b505060008b1161058c57600080fd5b6105958f6103cd565b99508d8a14156105a457600080fd5b60648e8c020498506105b68f8a61060f565b506105c18f33610627565b507fa4ca2f829529e953006ffeae7c1e288ca47c5086b391aa85fffb0a129adce3758f8a60405191825260208201526040908101905180910390a150969d9c50505050505050505050505050565b60009182526002602052604090912060010181905590565b6000918252600260208181526040808520600160a060020a03909416855292909101905281204260019091015590565b6040805190810160405260008082526020820152905600a165627a7a72305820ae01a30b0c34cbe2e96275ed5f3cfbabbeaec36a3d776fbc679a29ec3690a37e0029",
  "source": "pragma solidity ^0.4.17;\n\nimport './DIDToken.sol';\nimport './lib/SafeMath.sol';\n\ncontract Distense {\n  using SafeMath for uint256;\n\n  address public DIDTokenAddress;\n\n  /*\n    Distense' votable parameters\n    Parameter is the perfect word for these: \"a numerical or other measurable factor forming one of a set\n    that defines a system or sets the conditions of its operation\".\n  */\n\n  //  Titles are what uniquely define parameters, so query by titles when iterating with clients\n  bytes32[] public parameterTitles;\n  struct Parameter {\n    bytes32 title;\n    uint256 value;\n    mapping (address => Vote) votes;\n  }\n\n  struct Vote {\n    address voter;\n    uint256 lastVoted;\n  }\n\n\n  mapping (bytes32 => Parameter) public parameters;\n\n  Parameter public proposalPctDIDToApproveParameter;\n  bytes32 public proposalPctDIDToApproveParameterTitle = 'proposalPctDIDToApprove';\n\n  Parameter public pctDIDRequiredToMergePullRequest;\n  bytes32 public pctDIDRequiredToMergePullRequestTitle = 'pctDIDRequiredToMergePullRequest';\n\n  Parameter public votingIntervalParameter;\n  bytes32 public votingIntervalParameterTitle = 'votingInterval';\n\n  Parameter public maxRewardParameter;\n  bytes32 public maxRewardParameterTitle = 'maxReward';\n\n  Parameter public numDIDRequiredToApproveVotePullRequestParameter;\n  bytes32 public numDIDRequiredToApproveVotePullRequestParameterTitle = 'numDIDReqApproveVotePullRequest';\n\n  Parameter public numDIDRequiredToTaskRewardVoteParameter;\n  bytes32 public numDIDRequiredToTaskRewardVoteParameterTitle = 'numDIDRequiredToTaskRewardVote';\n\n  Parameter public minNumberOfTaskRewardVotersParameter;\n  bytes32 public minNumberOfTaskRewardVotersParameterTitle = 'minNumberOfTaskRewardVoters';\n\n  Parameter public defaultRewardParameter;\n  bytes32 public defaultRewardParameterTitle = 'defaultReward';\n\n\n  event LogParameterValueUpdate(bytes32 title, uint256 value);\n\n\n  function Distense(address _DIDTokenAddress) public {\n\n    DIDTokenAddress = _DIDTokenAddress;\n\n    // Launch Distense with some votable parameters\n    // that can be later updated by contributors\n\n    // PCT of DID that must vote on a proposal for it to be approved and payable\n    proposalPctDIDToApproveParameter = Parameter({\n      title: proposalPctDIDToApproveParameterTitle,\n      //     Every hard-coded int in Solidity is a decimal to one decimal place\n      //     So this is 25.0\n      value: 250\n    });\n    parameters[proposalPctDIDToApproveParameterTitle] = proposalPctDIDToApproveParameter;\n    parameterTitles.push(proposalPctDIDToApproveParameterTitle);\n\n\n    pctDIDRequiredToMergePullRequest = Parameter({\n      title: pctDIDRequiredToMergePullRequestTitle,\n      //     Every hard-coded int in Solidity is a decimal to one decimal place\n      //     So this is 10.0\n      value: 100\n    });\n    parameters[pctDIDRequiredToMergePullRequestTitle] = pctDIDRequiredToMergePullRequest;\n    parameterTitles.push(pctDIDRequiredToMergePullRequestTitle);\n\n\n    votingIntervalParameter = Parameter({\n      title: votingIntervalParameterTitle,\n      value: 15 days  // 15 * 86400 = 1.296e+6\n    });\n    parameters[votingIntervalParameterTitle] = votingIntervalParameter;\n    parameterTitles.push(votingIntervalParameterTitle);\n\n\n    maxRewardParameter = Parameter({\n      title: maxRewardParameterTitle,\n      //     Every hard-coded int in Solidity is a decimal to one decimal place\n      //     So this is 100.0\n      value: 1000\n    });\n    parameters[maxRewardParameterTitle] = maxRewardParameter;\n    parameterTitles.push(maxRewardParameterTitle);\n\n\n    minNumberOfTaskRewardVotersParameter = Parameter({\n      title: minNumberOfTaskRewardVotersParameterTitle,\n      //     Every hard-coded int in Solidity is a decimal to one decimal place\n      //     So this is 5.0\n      value: 50\n    });\n    parameters[minNumberOfTaskRewardVotersParameterTitle] = minNumberOfTaskRewardVotersParameter;\n    parameterTitles.push(minNumberOfTaskRewardVotersParameterTitle);\n\n    // This parameter is the number of DID an account must own to vote on a task's reward\n    // The task reward is the number of DID payable upon successful completion and approval of a task\n\n    // This parameter mostly exists to get the percentage of DID that have voted higher per voter\n    //   as looping through voters to determineReward()s is gas-expensive.\n\n    // This parameter also limits attacks by noobs that want to mess with Distense.\n    numDIDRequiredToTaskRewardVoteParameter = Parameter({\n      title: numDIDRequiredToTaskRewardVoteParameterTitle,\n      value: 1500 // 150 -> Every hard-coded int in Solidity is a decimal to one decimal place\n    });\n    parameters[numDIDRequiredToTaskRewardVoteParameterTitle] = numDIDRequiredToTaskRewardVoteParameter;\n    parameterTitles.push(numDIDRequiredToTaskRewardVoteParameterTitle);\n\n\n    numDIDRequiredToApproveVotePullRequestParameter = Parameter({\n      title: numDIDRequiredToApproveVotePullRequestParameterTitle,\n      //     Every hard-coded int in Solidity is a decimal to one decimal place\n      //     So this is 200.0\n      value: 2000\n    });\n    parameters[numDIDRequiredToApproveVotePullRequestParameterTitle] = numDIDRequiredToApproveVotePullRequestParameter;\n    parameterTitles.push(numDIDRequiredToApproveVotePullRequestParameterTitle);\n\n    defaultRewardParameter = Parameter({\n    title: defaultRewardParameterTitle,\n    //     Every hard-coded int in Solidity is a decimal to one decimal place\n    //     So this is 100.0\n    value: 1000\n    });\n    parameters[defaultRewardParameterTitle] = defaultRewardParameter;\n    parameterTitles.push(defaultRewardParameterTitle);\n\n  }\n\n\n  function getParameterValueByTitle(bytes32 _title) public view returns (uint256) {\n    return parameters[_title].value;\n  }\n\n\n  function voteOnParameter(bytes32 _title, uint256 _voteValue)\n  public\n  voteWithinRange(_title, _voteValue)\n  votingIntervalReached(msg.sender, _title)\n  returns\n  (uint256) {\n\n    DIDToken didToken = DIDToken(DIDTokenAddress);\n    uint256 votersDIDPercent = didToken.pctDIDOwned(msg.sender);\n    require (votersDIDPercent > 0);\n\n    uint256 currentValue = getParameterValueByTitle(_title);\n    require(_voteValue != currentValue);\n\n    uint updatedValue = (_voteValue * votersDIDPercent) / 100;\n\n    updateParameterValue(_title, updatedValue);\n    updateLastVotedOnParameter(_title, msg.sender);\n    LogParameterValueUpdate(_title, updatedValue);\n    return updatedValue;\n  }\n\n\n  function getParameterByTitle(bytes32 _title) public view returns (bytes32, uint256) {\n    Parameter memory param = parameters[_title];\n    return (param.title, param.value);\n  }\n\n\n  function getNumParameters() public view returns (uint256) {\n    return parameterTitles.length;\n  }\n\n\n  function updateParameterValue(bytes32 _title, uint256 _newValue) internal returns (uint256) {\n    Parameter storage parameter = parameters[_title];\n    parameter.value = _newValue;\n    return parameter.value;\n  }\n\n\n  function updateLastVotedOnParameter(bytes32 _title, address voter) internal returns (bool) {\n    Parameter storage parameter = parameters[_title];\n    parameter.votes[voter].lastVoted = now;\n  }\n\n\n  modifier votingIntervalReached(address _voter, bytes32 _title) {\n    Parameter storage parameter = parameters[_title];\n    uint256 lastVotedOnParameter = parameter.votes[_voter].lastVoted;\n    require(now >= lastVotedOnParameter + getParameterValueByTitle(votingIntervalParameterTitle));\n    _;\n  }\n\n\n  // Require parameter votes to be within two times the current value of the parameter.\n  // Otherwise someone could vote with a very large number and skew the value however they wish\n  modifier voteWithinRange(bytes32 _title, uint256 _newValue) {\n    Parameter storage parameter = parameters[_title];\n    uint256 currentValue = parameter.value;\n    require(_newValue >= 0);\n    require(_newValue <= 2 * currentValue);\n    _;\n  }\n\n}\n",
  "sourcePath": "/Users/john/distense-contracts/contracts/Distense.sol",
  "compiler": {
    "name": "solc",
    "version": "0.4.18+commit.9cf6e910.Emscripten.clang"
  },
  "schemaVersion": "1.0.1",
  "updatedAt": "2018-01-07T15:28:18.942Z"
}