{
  "contractName": "Distense",
  "abi": [
    {
      "constant": true,
      "inputs": [
        {
          "name": "",
          "type": "bytes32"
        }
      ],
      "name": "parameters",
      "outputs": [
        {
          "name": "title",
          "type": "bytes32"
        },
        {
          "name": "value",
          "type": "uint256"
        }
      ],
      "payable": false,
      "stateMutability": "view",
      "type": "function"
    },
    {
      "constant": true,
      "inputs": [],
      "name": "numDIDRequiredToApproveVotePullRequestParameter",
      "outputs": [
        {
          "name": "title",
          "type": "bytes32"
        },
        {
          "name": "value",
          "type": "uint256"
        }
      ],
      "payable": false,
      "stateMutability": "view",
      "type": "function"
    },
    {
      "constant": true,
      "inputs": [],
      "name": "pctDIDRequiredToMergePullRequestTitle",
      "outputs": [
        {
          "name": "",
          "type": "bytes32"
        }
      ],
      "payable": false,
      "stateMutability": "view",
      "type": "function"
    },
    {
      "constant": true,
      "inputs": [],
      "name": "didPerEtherParameter",
      "outputs": [
        {
          "name": "title",
          "type": "bytes32"
        },
        {
          "name": "value",
          "type": "uint256"
        }
      ],
      "payable": false,
      "stateMutability": "view",
      "type": "function"
    },
    {
      "constant": true,
      "inputs": [],
      "name": "maxRewardParameter",
      "outputs": [
        {
          "name": "title",
          "type": "bytes32"
        },
        {
          "name": "value",
          "type": "uint256"
        }
      ],
      "payable": false,
      "stateMutability": "view",
      "type": "function"
    },
    {
      "constant": true,
      "inputs": [],
      "name": "votingIntervalParameter",
      "outputs": [
        {
          "name": "title",
          "type": "bytes32"
        },
        {
          "name": "value",
          "type": "uint256"
        }
      ],
      "payable": false,
      "stateMutability": "view",
      "type": "function"
    },
    {
      "constant": true,
      "inputs": [],
      "name": "didPerEtherParameterTitle",
      "outputs": [
        {
          "name": "",
          "type": "bytes32"
        }
      ],
      "payable": false,
      "stateMutability": "view",
      "type": "function"
    },
    {
      "constant": true,
      "inputs": [],
      "name": "numDIDRequiredToTaskRewardVoteParameter",
      "outputs": [
        {
          "name": "title",
          "type": "bytes32"
        },
        {
          "name": "value",
          "type": "uint256"
        }
      ],
      "payable": false,
      "stateMutability": "view",
      "type": "function"
    },
    {
      "constant": true,
      "inputs": [],
      "name": "defaultRewardParameter",
      "outputs": [
        {
          "name": "title",
          "type": "bytes32"
        },
        {
          "name": "value",
          "type": "uint256"
        }
      ],
      "payable": false,
      "stateMutability": "view",
      "type": "function"
    },
    {
      "constant": true,
      "inputs": [],
      "name": "defaultRewardParameterTitle",
      "outputs": [
        {
          "name": "",
          "type": "bytes32"
        }
      ],
      "payable": false,
      "stateMutability": "view",
      "type": "function"
    },
    {
      "constant": true,
      "inputs": [],
      "name": "numDIDRequiredToAddTaskParameter",
      "outputs": [
        {
          "name": "title",
          "type": "bytes32"
        },
        {
          "name": "value",
          "type": "uint256"
        }
      ],
      "payable": false,
      "stateMutability": "view",
      "type": "function"
    },
    {
      "constant": true,
      "inputs": [],
      "name": "votingPowerLimitParameter",
      "outputs": [
        {
          "name": "title",
          "type": "bytes32"
        },
        {
          "name": "value",
          "type": "uint256"
        }
      ],
      "payable": false,
      "stateMutability": "view",
      "type": "function"
    },
    {
      "constant": true,
      "inputs": [],
      "name": "numDIDRequiredToTaskRewardVoteParameterTitle",
      "outputs": [
        {
          "name": "",
          "type": "bytes32"
        }
      ],
      "payable": false,
      "stateMutability": "view",
      "type": "function"
    },
    {
      "constant": true,
      "inputs": [
        {
          "name": "",
          "type": "uint256"
        }
      ],
      "name": "parameterTitles",
      "outputs": [
        {
          "name": "",
          "type": "bytes32"
        }
      ],
      "payable": false,
      "stateMutability": "view",
      "type": "function"
    },
    {
      "constant": true,
      "inputs": [],
      "name": "numDIDRequiredToAddTaskParameterTitle",
      "outputs": [
        {
          "name": "",
          "type": "bytes32"
        }
      ],
      "payable": false,
      "stateMutability": "view",
      "type": "function"
    },
    {
      "constant": true,
      "inputs": [],
      "name": "maxRewardParameterTitle",
      "outputs": [
        {
          "name": "",
          "type": "bytes32"
        }
      ],
      "payable": false,
      "stateMutability": "view",
      "type": "function"
    },
    {
      "constant": true,
      "inputs": [],
      "name": "numDIDRequiredToApproveVotePullRequestParameterTitle",
      "outputs": [
        {
          "name": "",
          "type": "bytes32"
        }
      ],
      "payable": false,
      "stateMutability": "view",
      "type": "function"
    },
    {
      "constant": true,
      "inputs": [],
      "name": "DIDTokenAddress",
      "outputs": [
        {
          "name": "",
          "type": "address"
        }
      ],
      "payable": false,
      "stateMutability": "view",
      "type": "function"
    },
    {
      "constant": true,
      "inputs": [],
      "name": "pctDIDRequiredToMergePullRequest",
      "outputs": [
        {
          "name": "title",
          "type": "bytes32"
        },
        {
          "name": "value",
          "type": "uint256"
        }
      ],
      "payable": false,
      "stateMutability": "view",
      "type": "function"
    },
    {
      "constant": true,
      "inputs": [],
      "name": "minNumberOfTaskRewardVotersParameter",
      "outputs": [
        {
          "name": "title",
          "type": "bytes32"
        },
        {
          "name": "value",
          "type": "uint256"
        }
      ],
      "payable": false,
      "stateMutability": "view",
      "type": "function"
    },
    {
      "constant": true,
      "inputs": [],
      "name": "pctDIDToDetermineTaskRewardParameter",
      "outputs": [
        {
          "name": "title",
          "type": "bytes32"
        },
        {
          "name": "value",
          "type": "uint256"
        }
      ],
      "payable": false,
      "stateMutability": "view",
      "type": "function"
    },
    {
      "constant": true,
      "inputs": [],
      "name": "votingIntervalParameterTitle",
      "outputs": [
        {
          "name": "",
          "type": "bytes32"
        }
      ],
      "payable": false,
      "stateMutability": "view",
      "type": "function"
    },
    {
      "constant": true,
      "inputs": [],
      "name": "minNumberOfTaskRewardVotersParameterTitle",
      "outputs": [
        {
          "name": "",
          "type": "bytes32"
        }
      ],
      "payable": false,
      "stateMutability": "view",
      "type": "function"
    },
    {
      "constant": true,
      "inputs": [],
      "name": "votingPowerLimitParameterTitle",
      "outputs": [
        {
          "name": "",
          "type": "bytes32"
        }
      ],
      "payable": false,
      "stateMutability": "view",
      "type": "function"
    },
    {
      "constant": true,
      "inputs": [],
      "name": "pctDIDToDetermineTaskRewardParameterTitle",
      "outputs": [
        {
          "name": "",
          "type": "bytes32"
        }
      ],
      "payable": false,
      "stateMutability": "view",
      "type": "function"
    },
    {
      "inputs": [
        {
          "name": "_DIDTokenAddress",
          "type": "address"
        }
      ],
      "payable": false,
      "stateMutability": "nonpayable",
      "type": "constructor"
    },
    {
      "anonymous": false,
      "inputs": [
        {
          "indexed": false,
          "name": "title",
          "type": "bytes32"
        },
        {
          "indexed": false,
          "name": "value",
          "type": "uint256"
        }
      ],
      "name": "LogParameterValueUpdate",
      "type": "event"
    },
    {
      "constant": true,
      "inputs": [
        {
          "name": "_title",
          "type": "bytes32"
        }
      ],
      "name": "getParameterValueByTitle",
      "outputs": [
        {
          "name": "",
          "type": "uint256"
        }
      ],
      "payable": false,
      "stateMutability": "view",
      "type": "function"
    },
    {
      "constant": false,
      "inputs": [
        {
          "name": "_title",
          "type": "bytes32"
        },
        {
          "name": "_voteValue",
          "type": "int256"
        }
      ],
      "name": "voteOnParameter",
      "outputs": [
        {
          "name": "",
          "type": "uint256"
        }
      ],
      "payable": false,
      "stateMutability": "nonpayable",
      "type": "function"
    },
    {
      "constant": true,
      "inputs": [
        {
          "name": "_title",
          "type": "bytes32"
        }
      ],
      "name": "getParameterByTitle",
      "outputs": [
        {
          "name": "",
          "type": "bytes32"
        },
        {
          "name": "",
          "type": "uint256"
        }
      ],
      "payable": false,
      "stateMutability": "view",
      "type": "function"
    },
    {
      "constant": true,
      "inputs": [],
      "name": "getNumParameters",
      "outputs": [
        {
          "name": "",
          "type": "uint256"
        }
      ],
      "payable": false,
      "stateMutability": "view",
      "type": "function"
    }
  ],
  "bytecode": "0x60606040527f766f74696e67496e74657276616c0000000000000000000000000000000000006006557f706374444944546f44657465726d696e655461736b5265776172640000000000600a557f7063744449445265717569726564546f4d6572676550756c6c52657175657374600e557f6d617852657761726400000000000000000000000000000000000000000000006012557f6e756d444944526571417070726f7665566f746550756c6c52657175657374006016557f6e756d4449445265717569726564546f5461736b526577617264566f74650000601a557f6d696e4e756d6265724f665461736b526577617264566f746572730000000000601e557f6e756d4449445265717569726564546f4164645461736b0000000000000000006022557f64656661756c74526577617264000000000000000000000000000000000000006026557f6469645065724574686572000000000000000000000000000000000000000000602a557f766f74696e67506f7765724c696d697400000000000000000000000000000000602e5534156200019c57600080fd5b60405160208062000f298339810160405280805160008054600160a060020a031916600160a060020a0383161790559150604090508051908101604052600a5481526109c460208201526007815181556020820151600191820155600a546000908152600260205260409020600754815560085490820155805490915080820162000228838262000663565b5060009182526020909120600a5491015560408051908101604052600e5481526103e86020820152600b815181556020820151600191820155600e546000908152600260205260409020600b548155600c5490820155805490915080820162000292838262000663565b5060009182526020909120600e549101556040805190810160405260065481526213c6806020820152600381518155602082015160019182015560065460009081526002602052604090206003548155600454908201558054909150808201620002fd838262000663565b50600091825260209091206006549101556040805190810160405260125481526113886020820152600f8151815560208201516001918201556012546000908152600260205260409020600f54815560105490820155805490915080820162000367838262000663565b506000918252602090912060125491015560408051908101604052601654815260c86020820152601381518155602082015160019182015560165460009081526002602052604090206013548155601454908201558054909150808201620003d0838262000663565b506000918252602090912060165491015560408051908101604052601a548152606460208201526017815181556020820151600191820155601a546000908152600260205260409020601754815560185490820155805490915080820162000439838262000663565b5060009182526020909120601a5491015560408051908101604052601e5481526102bc6020820152601b815181556020820151600191820155601e546000908152600260205260409020601b548155601c54908201558054909150808201620004a3838262000663565b5060009182526020909120601e5491015560408051908101604052602254815260646020820152601f8151815560208201516001918201556022546000908152600260209081526040909120601f54815590549082015580549091508082016200050e838262000663565b50600091825260209091206022549101556040805190810160405260265481526064602082015260238151815560208201516001918201556026546000908152600260205260409020602354815560245490820155805490915080820162000577838262000663565b506000918252602090912060265491015560408051908101604052602a5481526103e860208201526027815181556020820151600191820155602a5460009081526002602052604090206027548155602854908201558054909150808201620005e1838262000663565b5060009182526020909120602a5491015560408051908101604052602e5481526107d06020820152602b815181556020820151600191820155602e546000908152600260205260409020602b548155602c549082015580549091508082016200064b838262000663565b5060009182526020909120602e5491015550620006b3565b8154818355818115116200068a576000838152602090206200068a9181019083016200068f565b505050565b620006b091905b80821115620006ac576000815560010162000696565b5090565b90565b61086680620006c36000396000f3006060604052600436106101745763ffffffff7c010000000000000000000000000000000000000000000000000000000060003504166302506804811461017957806303226601146101a757806314eb172c146101ba57806318946e8f146101df57806319055486146101f85780631acdd7f01461020b5780631cf7549c1461021e5780632273bae21461023157806325172b94146102445780632b570c5e14610257578063333606321461026a57806345a528bf1461027d5780634882b6d2146102905780635ab3f343146102a35780636263a27f146102b657806364d05f4d146102c957806365c4284b146102df5780637da1373a146102f25780638fc6ad2d14610305578063a3b8e7b51461031b578063ac847d491461032e578063adfbf3961461036a578063b1ec5c551461037d578063b41cde5014610390578063b9ff6d0f146103a3578063c8f3e5f0146103b6578063cec9bb9f146103cc578063e2f97c8d146103df578063fb4347eb146103f2575b600080fd5b341561018457600080fd5b61018f600435610405565b60405191825260208201526040908101905180910390f35b34156101b257600080fd5b61018f61041e565b34156101c557600080fd5b6101cd610427565b60405190815260200160405180910390f35b34156101ea57600080fd5b6101cd60043560243561042d565b341561020357600080fd5b61018f610674565b341561021657600080fd5b61018f61067d565b341561022957600080fd5b61018f610686565b341561023c57600080fd5b6101cd61068f565b341561024f57600080fd5b61018f610695565b341561026257600080fd5b61018f61069e565b341561027557600080fd5b6101cd6106a7565b341561028857600080fd5b6101cd6106ad565b341561029b57600080fd5b61018f6106b3565b34156102ae57600080fd5b61018f6106bc565b34156102c157600080fd5b6101cd6106c5565b34156102d457600080fd5b6101cd6004356106cb565b34156102ea57600080fd5b6101cd6106ea565b34156102fd57600080fd5b6101cd6106f0565b341561031057600080fd5b6101cd6004356106f6565b341561032657600080fd5b6101cd61070b565b341561033957600080fd5b610341610711565b60405173ffffffffffffffffffffffffffffffffffffffff909116815260200160405180910390f35b341561037557600080fd5b61018f61072d565b341561038857600080fd5b61018f610736565b341561039b57600080fd5b61018f61073f565b34156103ae57600080fd5b6101cd610748565b34156103c157600080fd5b61018f60043561074e565b34156103d757600080fd5b6101cd610794565b34156103ea57600080fd5b6101cd61079a565b34156103fd57600080fd5b6101cd6107a0565b6002602052600090815260409020805460019091015482565b60135460145482565b600e5481565b60008281526002602081815260408084203373ffffffffffffffffffffffffffffffffffffffff81168652938101909252832060010154600654849384938493849384938493849391928d9290610483906106f6565b810142101561049157600080fd5b60648d131561049f57600080fd5b60005473ffffffffffffffffffffffffffffffffffffffff169a508a6388004950336040517c010000000000000000000000000000000000000000000000000000000063ffffffff841602815273ffffffffffffffffffffffffffffffffffffffff9091166004820152602401602060405180830381600087803b151561052557600080fd5b5af1151561053257600080fd5b50505060405180519a505060008a1161054a57600080fd5b6105538e6106f6565b9850610560602e546106f6565b9750878a1161056f5789610571565b875b96508c6001148061058357508c600019145b806105905750868d606402135b8061059e5750868d60631902135b156105b257612710878a025b0495506105eb565b60008d13156105c6576127108d8a026105aa565b60008d1215610174578c60000360640294506127108986028115156105e757fe5b0595505b60008d1315610605576105fe89876107a6565b9850610612565b61060f89876107bc565b98505b61061c8e8a6107ce565b506106278e336107e6565b507fa4ca2f829529e953006ffeae7c1e288ca47c5086b391aa85fffb0a129adce3758e8a60405191825260208201526040908101905180910390a150969c9b505050505050505050505050565b60275460285482565b600f5460105482565b60035460045482565b602a5481565b60175460185482565b60235460245482565b60015490565b60265481565b601f5460205482565b602b54602c5482565b601a5481565b60018054829081106106d957fe5b600091825260209091200154905081565b60225481565b60125481565b60009081526002602052604090206001015490565b60165481565b60005473ffffffffffffffffffffffffffffffffffffffff1681565b600b54600c5482565b601b54601c5482565b60075460085482565b60065481565b600080610759610823565b600084815260026020526040908190209080519081016040528154815260019091015460208201529050805181602001519250925050915091565b601e5481565b602e5481565b600a5481565b6000828201838110156107b557fe5b9392505050565b6000828211156107c857fe5b50900390565b60009182526002602052604090912060010181905590565b600091825260026020818152604080852073ffffffffffffffffffffffffffffffffffffffff909416855292909101905281204260019091015590565b6040805190810160405260008082526020820152905600a165627a7a72305820253f280c6d305992d1162749f0d80e6619955f4bb9e7ebeed50802ac4bcfc6cb0029",
  "source": "pragma solidity ^0.4.21;\n\nimport './DIDToken.sol';\nimport './lib/SafeMath.sol';\n\ncontract Distense {\n    using SafeMath for uint256;\n\n    address public DIDTokenAddress;\n\n    /*\n      Distense' votable parameters\n      Parameter is the perfect word` for these: \"a numerical or other measurable factor forming one of a set\n      that defines a system or sets the conditions of its operation\".\n    */\n\n    //  Titles are what uniquely identify parameters, so query by titles when iterating with clients\n    bytes32[] public parameterTitles;\n\n    struct Parameter {\n        bytes32 title;\n        uint256 value;\n        mapping(address => Vote) votes;\n    }\n\n    struct Vote {\n        address voter;\n        uint256 lastVoted;\n    }\n\n    mapping(bytes32 => Parameter) public parameters;\n\n    Parameter public votingIntervalParameter;\n    bytes32 public votingIntervalParameterTitle = 'votingInterval';\n\n    Parameter public pctDIDToDetermineTaskRewardParameter;\n    bytes32 public pctDIDToDetermineTaskRewardParameterTitle = 'pctDIDToDetermineTaskReward';\n\n    Parameter public pctDIDRequiredToMergePullRequest;\n    bytes32 public pctDIDRequiredToMergePullRequestTitle = 'pctDIDRequiredToMergePullRequest';\n\n    Parameter public maxRewardParameter;\n    bytes32 public maxRewardParameterTitle = 'maxReward';\n\n    Parameter public numDIDRequiredToApproveVotePullRequestParameter;\n    bytes32 public numDIDRequiredToApproveVotePullRequestParameterTitle = 'numDIDReqApproveVotePullRequest';\n\n    Parameter public numDIDRequiredToTaskRewardVoteParameter;\n    bytes32 public numDIDRequiredToTaskRewardVoteParameterTitle = 'numDIDRequiredToTaskRewardVote';\n\n    Parameter public minNumberOfTaskRewardVotersParameter;\n    bytes32 public minNumberOfTaskRewardVotersParameterTitle = 'minNumberOfTaskRewardVoters';\n\n    Parameter public numDIDRequiredToAddTaskParameter;\n    bytes32 public numDIDRequiredToAddTaskParameterTitle = 'numDIDRequiredToAddTask';\n\n    Parameter public defaultRewardParameter;\n    bytes32 public defaultRewardParameterTitle = 'defaultReward';\n\n    Parameter public didPerEtherParameter;\n    bytes32 public didPerEtherParameterTitle = 'didPerEther';\n\n    Parameter public votingPowerLimitParameter;\n    bytes32 public votingPowerLimitParameterTitle = 'votingPowerLimit';\n\n\n    event LogParameterValueUpdate(bytes32 title, uint256 value);\n\n\n    function Distense(address _DIDTokenAddress) public {\n\n        DIDTokenAddress = _DIDTokenAddress;\n\n        // Launch Distense with some votable parameters\n        // that can be later updated by contributors\n        // Current values can be found at https://disten.se/parameters\n\n        // Percentage of DID that must vote on a proposal for it to be approved and payable\n        pctDIDToDetermineTaskRewardParameter = Parameter({\n            title : pctDIDToDetermineTaskRewardParameterTitle,\n            //     Every hard-coded int except for dates and numbers (not percentages) pertaining to ether or DID are decimals to two decimal places\n            //     So this is 25.00%\n            value: 2500\n        });\n        parameters[pctDIDToDetermineTaskRewardParameterTitle] = pctDIDToDetermineTaskRewardParameter;\n        parameterTitles.push(pctDIDToDetermineTaskRewardParameterTitle);\n\n\n        pctDIDRequiredToMergePullRequest = Parameter({\n            title : pctDIDRequiredToMergePullRequestTitle,\n            //     Every hard-coded int except for dates and numbers (not percentages) pertaining to ether or DID are decimals to two decimal places\n            //     So this is 10.00\n            value: 1000\n        });\n        parameters[pctDIDRequiredToMergePullRequestTitle] = pctDIDRequiredToMergePullRequest;\n        parameterTitles.push(pctDIDRequiredToMergePullRequestTitle);\n\n\n        votingIntervalParameter = Parameter({\n            title : votingIntervalParameterTitle,\n            value: 1296000 // 15 * 86400 = 1.296e+6\n        });\n        parameters[votingIntervalParameterTitle] = votingIntervalParameter;\n        parameterTitles.push(votingIntervalParameterTitle);\n\n\n        maxRewardParameter = Parameter({\n            title : maxRewardParameterTitle,\n            //     Every hard-coded int except for dates and numbers (not percentages) pertaining to ether or DID are decimals to two decimal places\n            //     So this is 5000.0\n            value: 5000\n        });\n        parameters[maxRewardParameterTitle] = maxRewardParameter;\n        parameterTitles.push(maxRewardParameterTitle);\n\n\n        numDIDRequiredToApproveVotePullRequestParameter = Parameter({\n            title : numDIDRequiredToApproveVotePullRequestParameterTitle,\n            //     Every hard-coded int except for dates and numbers (not percentages) pertaining to ether or DID are decimals to two decimal places\n            //     200.00\n            value: 200\n        });\n        parameters[numDIDRequiredToApproveVotePullRequestParameterTitle] = numDIDRequiredToApproveVotePullRequestParameter;\n        parameterTitles.push(numDIDRequiredToApproveVotePullRequestParameterTitle);\n\n\n        // This parameter is the number of DID an account must own to vote on a task's reward\n        // The task reward is the number of DID payable upon successful completion and approval of a task\n\n        // This parameter mostly exists to get the percentage of DID that have voted higher per voter\n        //   as looping through voters to determineReward()s is gas-expensive.\n\n        // This parameter also limits attacks by noobs that want to mess with Distense.\n        numDIDRequiredToTaskRewardVoteParameter = Parameter({\n            title : numDIDRequiredToTaskRewardVoteParameterTitle,\n            //     Every hard-coded int except for dates and numbers (not percentages) pertaining to ether or DID are decimals to two decimal places\n            // 100.00\n            value: 100\n        });\n        parameters[numDIDRequiredToTaskRewardVoteParameterTitle] = numDIDRequiredToTaskRewardVoteParameter;\n        parameterTitles.push(numDIDRequiredToTaskRewardVoteParameterTitle);\n\n\n        minNumberOfTaskRewardVotersParameter = Parameter({\n            title : minNumberOfTaskRewardVotersParameterTitle,\n            //     Every hard-coded int except for dates and numbers (not percentages) pertaining to ether or DID are decimals to two decimal places\n            //     So this is 7.00\n            value: 700\n        });\n        parameters[minNumberOfTaskRewardVotersParameterTitle] = minNumberOfTaskRewardVotersParameter;\n        parameterTitles.push(minNumberOfTaskRewardVotersParameterTitle);\n\n\n        numDIDRequiredToAddTaskParameter = Parameter({\n            title : numDIDRequiredToAddTaskParameterTitle,\n            //     Every hard-coded int except for dates and numbers (not percentages) pertaining to ether or DID are decimals to two decimal places\n            //     So this is 100.00\n            value: 100\n        });\n        parameters[numDIDRequiredToAddTaskParameterTitle] = numDIDRequiredToAddTaskParameter;\n        parameterTitles.push(numDIDRequiredToAddTaskParameterTitle);\n\n\n        defaultRewardParameter = Parameter({\n            title : defaultRewardParameterTitle,\n            //     Every hard-coded int EXCEPT for dates and numbers (not percentages) pertaining to ether or DID are decimals to two decimal places\n            //     100.00\n            value: 100\n        });\n        parameters[defaultRewardParameterTitle] = defaultRewardParameter;\n        parameterTitles.push(defaultRewardParameterTitle);\n\n\n        didPerEtherParameter = Parameter({\n            title : didPerEtherParameterTitle,\n            //     Every hard-coded int except for dates and numbers (not percentages) pertaining to ether or DID are decimals to two decimal places\n            //     1000.00\n            value: 1000\n        });\n        parameters[didPerEtherParameterTitle] = didPerEtherParameter;\n        parameterTitles.push(didPerEtherParameterTitle);\n\n        votingPowerLimitParameter = Parameter({\n            title : votingPowerLimitParameterTitle,\n            //     Every hard-coded int except for dates and numbers (not percentages) pertaining to ether or DID are decimals to two decimal places\n            //     20.00%\n            value: 2000\n        });\n        parameters[votingPowerLimitParameterTitle] = votingPowerLimitParameter;\n        parameterTitles.push(votingPowerLimitParameterTitle);\n\n    }\n\n    function getParameterValueByTitle(bytes32 _title) public view returns (uint256) {\n        return parameters[_title].value;\n    }\n\n    /**\n        Function called when contributors vote on parameters at /parameters url\n        In the client there are: max and min buttons and a text input\n\n        @param _title name of parameter title the DID holder is voting on.  This must be one of the hardcoded titles in this file.\n        @param _voteValue integer in percentage effect.  For example if the current value of a parameter is 20, and the voter votes 24, _voteValue\n        would be 20, for a 20% increase.\n\n        If _voteValue is 1 it's a max upvote, if -1 max downvote. Maximum votes, as just mentioned, affect parameter values by the\n        maximum of the percentage of DID owned by the voter, or the value of the votingLimit parameter.\n        If _voteValue has a higher absolute value than 1, the user has voted a specific value.  In that case we update the value to the voted value\n        if the value would affect the parameter value less than their percentage DID ownership.  If they voted a value that would affect the\n        parameter's value by more than their percentage DID ownership we affect the value by their percentage DID ownership.\n    */\n    function voteOnParameter(bytes32 _title, int256 _voteValue)\n        public\n        votingIntervalReached(msg.sender, _title)\n        returns\n    (uint256) {\n\n        require(_voteValue <= 100);\n\n        DIDToken didToken = DIDToken(DIDTokenAddress);\n        uint256 votersDIDPercent = didToken.pctDIDOwned(msg.sender);\n        require(votersDIDPercent > 0);\n\n        uint256 currentValue = getParameterValueByTitle(_title);\n\n        //  For voting power purposes, limit the pctDIDOwned to the maximum of the Voting Power Limit parameter or the voter's percentage ownership\n        //  of DID\n        uint256 votingPowerLimit = getParameterValueByTitle(votingPowerLimitParameterTitle);\n        uint256 limitedVotingPower = votersDIDPercent > votingPowerLimit ? votingPowerLimit : votersDIDPercent;\n\n        uint256 update;\n        if (\n            _voteValue == 1 ||\n            _voteValue == - 1 ||\n            _voteValue * 100 > int(limitedVotingPower) ||\n            _voteValue * - 100 > int(limitedVotingPower)\n        ) {\n\n            update = (limitedVotingPower * currentValue) / 10000;\n        } else if (_voteValue > 0) {\n            update = (uint(_voteValue) * currentValue) / 10000;\n        } else if (_voteValue < 0) {\n            int256 adjustedVoteValue = (-_voteValue) * 100; // make the voteValue positive and convert to on-chain decimals\n            update = uint((adjustedVoteValue * int(currentValue)) / 10000);\n        } else revert(); //  If _voteValue is 0\n\n        if (_voteValue > 0)\n            currentValue = SafeMath.add(currentValue, update);\n        else\n            currentValue = SafeMath.sub(currentValue, update);\n\n        updateParameterValue(_title, currentValue);\n        updateLastVotedOnParameter(_title, msg.sender);\n        emit LogParameterValueUpdate(_title, currentValue);\n\n        return currentValue;\n    }\n\n    function getParameterByTitle(bytes32 _title) public view returns (bytes32, uint256) {\n        Parameter memory param = parameters[_title];\n        return (param.title, param.value);\n    }\n\n    function getNumParameters() public view returns (uint256) {\n        return parameterTitles.length;\n    }\n\n    function updateParameterValue(bytes32 _title, uint256 _newValue) internal returns (uint256) {\n        Parameter storage parameter = parameters[_title];\n        parameter.value = _newValue;\n        return parameter.value;\n    }\n\n    function updateLastVotedOnParameter(bytes32 _title, address voter) internal returns (bool) {\n        Parameter storage parameter = parameters[_title];\n        parameter.votes[voter].lastVoted = now;\n    }\n\n    modifier votingIntervalReached(address _voter, bytes32 _title) {\n        Parameter storage parameter = parameters[_title];\n        uint256 lastVotedOnParameter = parameter.votes[_voter].lastVoted;\n        require(now >= lastVotedOnParameter + getParameterValueByTitle(votingIntervalParameterTitle));\n        _;\n    }\n\n}\n",
  "sourcePath": "/Users/john/distense-contracts/contracts/Distense.sol",
  "compiler": {
    "name": "solc",
    "version": "0.4.21+commit.dfe3193c.Emscripten.clang"
  },
  "schemaVersion": "1.0.1",
  "updatedAt": "2018-03-23T22:04:42.875Z"
}