{
  "contractName": "Distense",
  "abi": [
    {
      "constant": true,
      "inputs": [
        {
          "name": "",
          "type": "bytes32"
        }
      ],
      "name": "parameters",
      "outputs": [
        {
          "name": "title",
          "type": "bytes32"
        },
        {
          "name": "value",
          "type": "uint256"
        }
      ],
      "payable": false,
      "stateMutability": "view",
      "type": "function"
    },
    {
      "constant": true,
      "inputs": [],
      "name": "proposalPctDIDApprovalParameter",
      "outputs": [
        {
          "name": "title",
          "type": "bytes32"
        },
        {
          "name": "value",
          "type": "uint256"
        }
      ],
      "payable": false,
      "stateMutability": "view",
      "type": "function"
    },
    {
      "constant": true,
      "inputs": [],
      "name": "maxRewardParameter",
      "outputs": [
        {
          "name": "title",
          "type": "bytes32"
        },
        {
          "name": "value",
          "type": "uint256"
        }
      ],
      "payable": false,
      "stateMutability": "view",
      "type": "function"
    },
    {
      "constant": true,
      "inputs": [],
      "name": "votingIntervalParameter",
      "outputs": [
        {
          "name": "title",
          "type": "bytes32"
        },
        {
          "name": "value",
          "type": "uint256"
        }
      ],
      "payable": false,
      "stateMutability": "view",
      "type": "function"
    },
    {
      "constant": true,
      "inputs": [],
      "name": "getNumParameters",
      "outputs": [
        {
          "name": "",
          "type": "uint256"
        }
      ],
      "payable": false,
      "stateMutability": "view",
      "type": "function"
    },
    {
      "constant": true,
      "inputs": [],
      "name": "proposalPctDIDApprovalTitle",
      "outputs": [
        {
          "name": "",
          "type": "bytes32"
        }
      ],
      "payable": false,
      "stateMutability": "view",
      "type": "function"
    },
    {
      "constant": true,
      "inputs": [
        {
          "name": "",
          "type": "uint256"
        }
      ],
      "name": "parameterTitles",
      "outputs": [
        {
          "name": "",
          "type": "bytes32"
        }
      ],
      "payable": false,
      "stateMutability": "view",
      "type": "function"
    },
    {
      "constant": true,
      "inputs": [
        {
          "name": "_title",
          "type": "bytes32"
        }
      ],
      "name": "getParameterValue",
      "outputs": [
        {
          "name": "",
          "type": "uint256"
        }
      ],
      "payable": false,
      "stateMutability": "view",
      "type": "function"
    },
    {
      "constant": true,
      "inputs": [],
      "name": "votingInterval",
      "outputs": [
        {
          "name": "",
          "type": "uint256"
        }
      ],
      "payable": false,
      "stateMutability": "view",
      "type": "function"
    },
    {
      "constant": true,
      "inputs": [],
      "name": "maxRewardParameterTitle",
      "outputs": [
        {
          "name": "",
          "type": "bytes32"
        }
      ],
      "payable": false,
      "stateMutability": "view",
      "type": "function"
    },
    {
      "constant": true,
      "inputs": [],
      "name": "DIDTokenAddress",
      "outputs": [
        {
          "name": "",
          "type": "address"
        }
      ],
      "payable": false,
      "stateMutability": "view",
      "type": "function"
    },
    {
      "constant": true,
      "inputs": [],
      "name": "votingIntervalParameterTitle",
      "outputs": [
        {
          "name": "",
          "type": "bytes32"
        }
      ],
      "payable": false,
      "stateMutability": "view",
      "type": "function"
    },
    {
      "constant": true,
      "inputs": [],
      "name": "pullRequestPctDIDRequiredParameterTitle",
      "outputs": [
        {
          "name": "",
          "type": "bytes32"
        }
      ],
      "payable": false,
      "stateMutability": "view",
      "type": "function"
    },
    {
      "constant": true,
      "inputs": [
        {
          "name": "_title",
          "type": "bytes32"
        }
      ],
      "name": "getParameterByTitle",
      "outputs": [
        {
          "name": "",
          "type": "bytes32"
        },
        {
          "name": "",
          "type": "uint256"
        }
      ],
      "payable": false,
      "stateMutability": "view",
      "type": "function"
    },
    {
      "constant": true,
      "inputs": [],
      "name": "pullRequestPctDIDParameter",
      "outputs": [
        {
          "name": "title",
          "type": "bytes32"
        },
        {
          "name": "value",
          "type": "uint256"
        }
      ],
      "payable": false,
      "stateMutability": "view",
      "type": "function"
    },
    {
      "constant": false,
      "inputs": [
        {
          "name": "_title",
          "type": "bytes32"
        },
        {
          "name": "_voteValue",
          "type": "uint256"
        }
      ],
      "name": "voteOnParameter",
      "outputs": [
        {
          "name": "",
          "type": "uint256"
        }
      ],
      "payable": false,
      "stateMutability": "nonpayable",
      "type": "function"
    },
    {
      "inputs": [
        {
          "name": "_DIDTokenAddress",
          "type": "address"
        }
      ],
      "payable": false,
      "stateMutability": "nonpayable",
      "type": "constructor"
    },
    {
      "anonymous": false,
      "inputs": [
        {
          "indexed": false,
          "name": "title",
          "type": "bytes32"
        },
        {
          "indexed": false,
          "name": "value",
          "type": "uint256"
        }
      ],
      "name": "LogParameterValueUpdate",
      "type": "event"
    }
  ],
  "bytecode": "0x60606040527f70726f706f73616c5063744449445265717569726564000000000000000000006006906000191690557f70756c6c52657175657374506374444944526571756972656400000000000000600a906000191690557f766f74696e67496e74657276616c000000000000000000000000000000000000600f906000191690557f6d6178526577617264000000000000000000000000000000000000000000000060139060001916905534156100b757600080fd5b604051602080610d2883398101604052808051906020019091905050604080519081016040528060065460001916815260200160fa815250600360008201518160000190600019169055602082015181600101559050506003600260006006546000191660001916815260200190815260200160002060008201548160000190600019169055600182015481600101559050506001805480600101828161015e919061037c565b91600052602060002090016000600654909190915090600019169055506040805190810160405280600a54600019168152602001606481525060076000820151816000019060001916905560208201518160010155905050600760026000600a5460001916600019168152602001908152602001600020600082015481600001906000191690556001820154816001015590505060018054806001018281610206919061037c565b91600052602060002090016000600a54909190915090600019169055506040805190810160405280600f546000191681526020016213c680815250600c6000820151816000019060001916905560208201518160010155905050600c60026000600f54600019166000191681526020019081526020016000206000820154816000019060001916905560018201548160010155905050600180548060010182816102b0919061037c565b91600052602060002090016000600f549091909150906000191690555060408051908101604052806013546000191681526020016103e88152506010600082015181600001906000191690556020820151816001015590505060106002600060135460001916600019168152602001908152602001600020600082015481600001906000191690556001820154816001015590505060018054806001018281610359919061037c565b9160005260206000209001600060135490919091509060001916905550506103cd565b8154818355818115116103a3578183600052602060002091820191016103a291906103a8565b5b505050565b6103ca91905b808211156103c65760008160009055506001016103ae565b5090565b90565b61094c806103dc6000396000f3006060604052600436106100e6576000357c0100000000000000000000000000000000000000000000000000000000900463ffffffff16806302506804146100eb57806313148cd0146101355780631acdd7f01461016d5780631cf7549c146101a557806333360632146101dd57806360232fa91461020657806364d05f4d14610237578063710368ab146102765780637566ad53146102b15780637da1373a146102da578063ac847d491461030b578063b9ff6d0f14610360578063bbda07ce14610391578063c8f3e5f0146103c2578063e2ce9aa61461040c578063f2a9f0fd14610444575b600080fd5b34156100f657600080fd5b610110600480803560001916906020019091905050610488565b6040518083600019166000191681526020018281526020019250505060405180910390f35b341561014057600080fd5b6101486104ac565b6040518083600019166000191681526020018281526020019250505060405180910390f35b341561017857600080fd5b6101806104be565b6040518083600019166000191681526020018281526020019250505060405180910390f35b34156101b057600080fd5b6101b86104d0565b6040518083600019166000191681526020018281526020019250505060405180910390f35b34156101e857600080fd5b6101f06104e2565b6040518082815260200191505060405180910390f35b341561021157600080fd5b6102196104ef565b60405180826000191660001916815260200191505060405180910390f35b341561024257600080fd5b61025860048080359060200190919050506104f5565b60405180826000191660001916815260200191505060405180910390f35b341561028157600080fd5b61029b600480803560001916906020019091905050610519565b6040518082815260200191505060405180910390f35b34156102bc57600080fd5b6102c4610541565b6040518082815260200191505060405180910390f35b34156102e557600080fd5b6102ed610547565b60405180826000191660001916815260200191505060405180910390f35b341561031657600080fd5b61031e61054d565b604051808273ffffffffffffffffffffffffffffffffffffffff1673ffffffffffffffffffffffffffffffffffffffff16815260200191505060405180910390f35b341561036b57600080fd5b610373610572565b60405180826000191660001916815260200191505060405180910390f35b341561039c57600080fd5b6103a4610578565b60405180826000191660001916815260200191505060405180910390f35b34156103cd57600080fd5b6103e760048080356000191690602001909190505061057e565b6040518083600019166000191681526020018281526020019250505060405180910390f35b341561041757600080fd5b61041f6105e1565b6040518083600019166000191681526020018281526020019250505060405180910390f35b341561044f57600080fd5b6104726004808035600019169060200190919080359060200190919050506105f3565b6040518082815260200191505060405180910390f35b60026020528060005260406000206000915090508060000154908060010154905082565b60038060000154908060010154905082565b60108060000154908060010154905082565b600c8060000154908060010154905082565b6000600180549050905090565b60065481565b60018181548110151561050457fe5b90600052602060002090016000915090505481565b6000600260008360001916600019168152602001908152602001600020600101549050919050565b600b5481565b60135481565b6000809054906101000a900473ffffffffffffffffffffffffffffffffffffffff1681565b600f5481565b600a5481565b600080610589610903565b6002600085600019166000191681526020019081526020016000206040805190810160405290816000820154600019166000191681526020016001820154815250509050806000015181602001519250925050915091565b60078060000154908060010154905082565b600080600080600086866000806002600085600019166000191681526020019081526020016000209150816001015490506000831015151561063457600080fd5b80600202831115151561064657600080fd5b338b60008060026000846000191660001916815260200190815260200160002091508160020160008573ffffffffffffffffffffffffffffffffffffffff1673ffffffffffffffffffffffffffffffffffffffff16815260200190815260200160002060010154905060008111156106cc57600b54810142101515156106cb57600080fd5b5b6000809054906101000a900473ffffffffffffffffffffffffffffffffffffffff169b508b73ffffffffffffffffffffffffffffffffffffffff166388004950336000604051602001526040518263ffffffff167c0100000000000000000000000000000000000000000000000000000000028152600401808273ffffffffffffffffffffffffffffffffffffffff1673ffffffffffffffffffffffffffffffffffffffff168152602001915050602060405180830381600087803b151561079357600080fd5b6102c65a03f115156107a457600080fd5b505050604051805190509a5060008b1115156107bf57600080fd5b6107c88f610519565b9950898e141515156107d957600080fd5b60648b8f028115156107e757fe5b0498506107f48f8a61085c565b506107ff8f33610893565b507fa4ca2f829529e953006ffeae7c1e288ca47c5086b391aa85fffb0a129adce3758f8a6040518083600019166000191681526020018281526020019250505060405180910390a1889c5050505050505050505050505092915050565b6000806002600085600019166000191681526020019081526020016000209050828160010181905550806001015491505092915050565b6000806002600085600019166000191681526020019081526020016000209050428160020160008573ffffffffffffffffffffffffffffffffffffffff1673ffffffffffffffffffffffffffffffffffffffff168152602001908152602001600020600101819055505092915050565b6040805190810160405280600080191681526020016000815250905600a165627a7a72305820500ab4fc3c76a24645f6dfda708d8f51c9042b6559169b68d9f6e86c9f7b02630029",
  "source": "pragma solidity ^0.4.17;\n\nimport './DIDToken.sol';\nimport './lib/SafeMath.sol';\n\ncontract Distense {\n  using SafeMath for uint256;\n\n  address public DIDTokenAddress;\n\n  /*\n    Distense' votable parameters\n    Parameter is the perfect word for these: \"a numerical or other measurable factor forming one of a set\n    that defines a system or sets the conditions of its operation\".\n  */\n\n  //  Titles are what uniquely define parameters, so query by titles when iterating with client\n  bytes32[] public parameterTitles;\n  struct Parameter {\n  bytes32 title;\n  uint256 value;\n  mapping (address => Vote) votes;\n  }\n  struct Vote {\n  address voter;\n  uint256 lastVoted;\n  }\n\n  mapping (bytes32 => Parameter) public parameters;\n\n  Parameter public proposalPctDIDApprovalParameter;\n  bytes32 public proposalPctDIDApprovalTitle = 'proposalPctDIDRequired';\n\n\n  Parameter public pullRequestPctDIDParameter;\n  bytes32 public pullRequestPctDIDRequiredParameterTitle = 'pullRequestPctDIDRequired';\n  uint256 public votingInterval;  // Period of time between when voters can update these Distense parameters\n\n\n  Parameter public votingIntervalParameter;\n  bytes32 public votingIntervalParameterTitle = 'votingInterval';\n\n  Parameter public maxRewardParameter;\n  bytes32 public maxRewardParameterTitle = 'maxReward';\n\n  event LogParameterValueUpdate(bytes32 title, uint256 value);\n\n  function Distense(address _DIDTokenAddress) public {\n\n    // Launch Distense with some votable parameters that can be later updated by contributors\n    proposalPctDIDApprovalParameter = Parameter({\n    title: proposalPctDIDApprovalTitle,\n    //     Every hard-coded int in Solidity is a decimal to one decimal place\n    //     So this is 25.0\n    value: 250\n    });\n    parameters[proposalPctDIDApprovalTitle] = proposalPctDIDApprovalParameter;\n    parameterTitles.push(proposalPctDIDApprovalTitle);\n\n    pullRequestPctDIDParameter = Parameter({\n    title: pullRequestPctDIDRequiredParameterTitle,\n    //     Every hard-coded int in Solidity is a decimal to one decimal place\n    //     So this is 10.0\n    value: 100\n    });\n    parameters[pullRequestPctDIDRequiredParameterTitle] = pullRequestPctDIDParameter;\n    parameterTitles.push(pullRequestPctDIDRequiredParameterTitle);\n\n    votingIntervalParameter = Parameter({\n    title: votingIntervalParameterTitle,\n    value: 15 days  // 15 * 86400 = 1.296e+6\n    });\n    parameters[votingIntervalParameterTitle] = votingIntervalParameter;\n    parameterTitles.push(votingIntervalParameterTitle);\n\n    maxRewardParameter = Parameter({\n    title: maxRewardParameterTitle,\n    //     Every hard-coded int in Solidity is a decimal to one decimal place\n    //     So this is 1000.0\n    value: 1000\n    });\n    parameters[maxRewardParameterTitle] = maxRewardParameter;\n    parameterTitles.push(maxRewardParameterTitle);\n\n  }\n\n  function getParameterValue(bytes32 _title) public view returns (uint256) {\n    return parameters[_title].value;\n  }\n\n  function voteOnParameter(bytes32 _title, uint256 _voteValue )\n  public\n  voteWithinRange(_title, _voteValue )\n  votingIntervalReached(msg.sender, _title)\n  returns\n  (uint256) {\n\n    DIDToken didToken = DIDToken(DIDTokenAddress);\n    uint256 votersDIDPercent = didToken.pctDIDOwned(msg.sender);\n    require (votersDIDPercent > 0);\n\n    uint256 currentValue = getParameterValue(_title);\n    require(_voteValue != currentValue);\n\n    uint updatedValue = (_voteValue * votersDIDPercent) / 100;\n\n    updateParameterValue(_title, updatedValue);\n    updateLastVotedOnParameter(_title, msg.sender);\n    LogParameterValueUpdate(_title, updatedValue);\n    return updatedValue;\n  }\n\n  function getParameterByTitle(bytes32 _title) public view returns (bytes32, uint256) {\n    Parameter memory param = parameters[_title];\n    return (param.title, param.value);\n  }\n\n  function getNumParameters() public view returns (uint256) {\n    return parameterTitles.length;\n  }\n\n  function updateParameterValue(bytes32 _title, uint256 _newValue) internal returns (uint256) {\n    Parameter storage parameter = parameters[_title];\n    parameter.value = _newValue;\n    return parameter.value;\n  }\n\n  function updateLastVotedOnParameter(bytes32 _title, address voter) internal returns (bool) {\n    Parameter storage parameter = parameters[_title];\n    parameter.votes[voter].lastVoted = now;\n  }\n\n  modifier votingIntervalReached(address _voter, bytes32 _title) {\n    Parameter storage parameter = parameters[_title];\n    uint256 lastVotedOnParameter = parameter.votes[_voter].lastVoted;\n    if (lastVotedOnParameter > 0)\n    require(now >= lastVotedOnParameter + votingInterval);\n    _;\n  }\n\n  modifier voteWithinRange(bytes32 _title, uint256 _newValue) {\n    Parameter storage parameter = parameters[_title];\n    uint256 currentValue = parameter.value;\n    require(_newValue >= 0);\n    require(_newValue <= 2 * currentValue);\n    _;\n  }\n\n}\n",
  "sourcePath": "/Users/john/distense-ui/node_modules/distense-contracts/contracts/Distense.sol",
  "compiler": {
    "name": "solc",
    "version": "0.4.18+commit.9cf6e910.Emscripten.clang"
  },
  "schemaVersion": "1.0.1",
  "updatedAt": "2017-12-15T06:48:22.319Z"
}