{
  "contractName": "Distense",
  "abi": [
    {
      "constant": true,
      "inputs": [
        {
          "name": "",
          "type": "bytes32"
        }
      ],
      "name": "parameters",
      "outputs": [
        {
          "name": "title",
          "type": "bytes32"
        },
        {
          "name": "value",
          "type": "uint256"
        }
      ],
      "payable": false,
      "stateMutability": "view",
      "type": "function"
    },
    {
      "constant": true,
      "inputs": [],
      "name": "numDIDRequiredToApproveVotePullRequestParameter",
      "outputs": [
        {
          "name": "title",
          "type": "bytes32"
        },
        {
          "name": "value",
          "type": "uint256"
        }
      ],
      "payable": false,
      "stateMutability": "view",
      "type": "function"
    },
    {
      "constant": true,
      "inputs": [],
      "name": "pctDIDRequiredToMergePullRequestTitle",
      "outputs": [
        {
          "name": "",
          "type": "bytes32"
        }
      ],
      "payable": false,
      "stateMutability": "view",
      "type": "function"
    },
    {
      "constant": true,
      "inputs": [],
      "name": "didPerEtherParameter",
      "outputs": [
        {
          "name": "title",
          "type": "bytes32"
        },
        {
          "name": "value",
          "type": "uint256"
        }
      ],
      "payable": false,
      "stateMutability": "view",
      "type": "function"
    },
    {
      "constant": true,
      "inputs": [],
      "name": "maxRewardParameter",
      "outputs": [
        {
          "name": "title",
          "type": "bytes32"
        },
        {
          "name": "value",
          "type": "uint256"
        }
      ],
      "payable": false,
      "stateMutability": "view",
      "type": "function"
    },
    {
      "constant": true,
      "inputs": [],
      "name": "votingIntervalParameter",
      "outputs": [
        {
          "name": "title",
          "type": "bytes32"
        },
        {
          "name": "value",
          "type": "uint256"
        }
      ],
      "payable": false,
      "stateMutability": "view",
      "type": "function"
    },
    {
      "constant": true,
      "inputs": [],
      "name": "didPerEtherParameterTitle",
      "outputs": [
        {
          "name": "",
          "type": "bytes32"
        }
      ],
      "payable": false,
      "stateMutability": "view",
      "type": "function"
    },
    {
      "constant": true,
      "inputs": [],
      "name": "numDIDRequiredToTaskRewardVoteParameter",
      "outputs": [
        {
          "name": "title",
          "type": "bytes32"
        },
        {
          "name": "value",
          "type": "uint256"
        }
      ],
      "payable": false,
      "stateMutability": "view",
      "type": "function"
    },
    {
      "constant": true,
      "inputs": [],
      "name": "defaultRewardParameter",
      "outputs": [
        {
          "name": "title",
          "type": "bytes32"
        },
        {
          "name": "value",
          "type": "uint256"
        }
      ],
      "payable": false,
      "stateMutability": "view",
      "type": "function"
    },
    {
      "constant": true,
      "inputs": [],
      "name": "getNumParameters",
      "outputs": [
        {
          "name": "",
          "type": "uint256"
        }
      ],
      "payable": false,
      "stateMutability": "view",
      "type": "function"
    },
    {
      "constant": true,
      "inputs": [],
      "name": "proposalPctDIDToApproveParameterTitle",
      "outputs": [
        {
          "name": "",
          "type": "bytes32"
        }
      ],
      "payable": false,
      "stateMutability": "view",
      "type": "function"
    },
    {
      "constant": true,
      "inputs": [],
      "name": "defaultRewardParameterTitle",
      "outputs": [
        {
          "name": "",
          "type": "bytes32"
        }
      ],
      "payable": false,
      "stateMutability": "view",
      "type": "function"
    },
    {
      "constant": true,
      "inputs": [],
      "name": "numDIDRequiredToTaskRewardVoteParameterTitle",
      "outputs": [
        {
          "name": "",
          "type": "bytes32"
        }
      ],
      "payable": false,
      "stateMutability": "view",
      "type": "function"
    },
    {
      "constant": true,
      "inputs": [
        {
          "name": "",
          "type": "uint256"
        }
      ],
      "name": "parameterTitles",
      "outputs": [
        {
          "name": "",
          "type": "bytes32"
        }
      ],
      "payable": false,
      "stateMutability": "view",
      "type": "function"
    },
    {
      "constant": true,
      "inputs": [],
      "name": "maxRewardParameterTitle",
      "outputs": [
        {
          "name": "",
          "type": "bytes32"
        }
      ],
      "payable": false,
      "stateMutability": "view",
      "type": "function"
    },
    {
      "constant": true,
      "inputs": [
        {
          "name": "_title",
          "type": "bytes32"
        }
      ],
      "name": "getParameterValueByTitle",
      "outputs": [
        {
          "name": "",
          "type": "uint256"
        }
      ],
      "payable": false,
      "stateMutability": "view",
      "type": "function"
    },
    {
      "constant": true,
      "inputs": [],
      "name": "numDIDRequiredToApproveVotePullRequestParameterTitle",
      "outputs": [
        {
          "name": "",
          "type": "bytes32"
        }
      ],
      "payable": false,
      "stateMutability": "view",
      "type": "function"
    },
    {
      "constant": true,
      "inputs": [],
      "name": "DIDTokenAddress",
      "outputs": [
        {
          "name": "",
          "type": "address"
        }
      ],
      "payable": false,
      "stateMutability": "view",
      "type": "function"
    },
    {
      "constant": true,
      "inputs": [],
      "name": "pctDIDRequiredToMergePullRequest",
      "outputs": [
        {
          "name": "title",
          "type": "bytes32"
        },
        {
          "name": "value",
          "type": "uint256"
        }
      ],
      "payable": false,
      "stateMutability": "view",
      "type": "function"
    },
    {
      "constant": true,
      "inputs": [],
      "name": "minNumberOfTaskRewardVotersParameter",
      "outputs": [
        {
          "name": "title",
          "type": "bytes32"
        },
        {
          "name": "value",
          "type": "uint256"
        }
      ],
      "payable": false,
      "stateMutability": "view",
      "type": "function"
    },
    {
      "constant": true,
      "inputs": [],
      "name": "proposalPctDIDToApproveParameter",
      "outputs": [
        {
          "name": "title",
          "type": "bytes32"
        },
        {
          "name": "value",
          "type": "uint256"
        }
      ],
      "payable": false,
      "stateMutability": "view",
      "type": "function"
    },
    {
      "constant": true,
      "inputs": [],
      "name": "votingIntervalParameterTitle",
      "outputs": [
        {
          "name": "",
          "type": "bytes32"
        }
      ],
      "payable": false,
      "stateMutability": "view",
      "type": "function"
    },
    {
      "constant": true,
      "inputs": [
        {
          "name": "_title",
          "type": "bytes32"
        }
      ],
      "name": "getParameterByTitle",
      "outputs": [
        {
          "name": "",
          "type": "bytes32"
        },
        {
          "name": "",
          "type": "uint256"
        }
      ],
      "payable": false,
      "stateMutability": "view",
      "type": "function"
    },
    {
      "constant": true,
      "inputs": [],
      "name": "minNumberOfTaskRewardVotersParameterTitle",
      "outputs": [
        {
          "name": "",
          "type": "bytes32"
        }
      ],
      "payable": false,
      "stateMutability": "view",
      "type": "function"
    },
    {
      "constant": false,
      "inputs": [
        {
          "name": "_title",
          "type": "bytes32"
        },
        {
          "name": "_voteValue",
          "type": "uint256"
        }
      ],
      "name": "voteOnParameter",
      "outputs": [
        {
          "name": "",
          "type": "uint256"
        }
      ],
      "payable": false,
      "stateMutability": "nonpayable",
      "type": "function"
    },
    {
      "inputs": [
        {
          "name": "_DIDTokenAddress",
          "type": "address"
        }
      ],
      "payable": false,
      "stateMutability": "nonpayable",
      "type": "constructor"
    },
    {
      "anonymous": false,
      "inputs": [
        {
          "indexed": false,
          "name": "title",
          "type": "bytes32"
        },
        {
          "indexed": false,
          "name": "value",
          "type": "uint256"
        }
      ],
      "name": "LogParameterValueUpdate",
      "type": "event"
    }
  ],
  "bytecode": "0x60606040527f70726f706f73616c506374444944546f417070726f76650000000000000000006006557f7063744449445265717569726564546f4d6572676550756c6c52657175657374600a557f766f74696e67496e74657276616c000000000000000000000000000000000000600e557f6d617852657761726400000000000000000000000000000000000000000000006012557f6e756d444944526571417070726f7665566f746550756c6c52657175657374006016557f6e756d4449445265717569726564546f5461736b526577617264566f74650000601a557f6d696e4e756d6265724f665461736b526577617264566f746572730000000000601e557f64656661756c74526577617264000000000000000000000000000000000000006022557f6469645065724574686572000000000000000000000000000000000000000000602655341561015357600080fd5b604051602080610c788339810160405280805160008054600160a060020a031916600160a060020a0383161790559150604090508051908101604052600654815260fa60208201526003815181556020820151600191820155600654600090815260026020526040902060035481556004549082015580549091508082016101db8382610533565b506000918252602090912060065491015560408051908101604052600a548152606460208201526007815181556020820151600191820155600a54600090815260026020526040902060075481556008549082015580549091508082016102428382610533565b5060009182526020909120600a5491015560408051908101604052600e5481526213c6806020820152600b815181556020820151600191820155600e546000908152600260205260409020600b548155600c549082015580549091508082016102ab8382610533565b5060009182526020909120600e5491015560408051908101604052601254815261c3506020820152600f8151815560208201516001918201556012546000908152600260205260409020600f5481556010549082015580549091508082016103138382610533565b506000918252602090912060125491015560408051908101604052601e54815260466020820152601b815181556020820151600191820155601e546000908152600260205260409020601b548155601c5490820155805490915080820161037a8382610533565b5060009182526020909120601e5491015560408051908101604052601a5481526105dc60208201526017815181556020820151600191820155601a54600090815260026020526040902060175481556018549082015580549091508082016103e28382610533565b5060009182526020909120601a549101556040805190810160405260165481526107d0602082015260138151815560208201516001918201556016546000908152600260205260409020601354815560145490820155805490915080820161044a8382610533565b50600091825260209091206016549101556040805190810160405260225481526103e86020820152601f8151815560208201516001918201556022546000908152600260209081526040909120601f54815590549082015580549091508082016104b48382610533565b5060009182526020909120602254910155604080519081016040526026548152612ee0602082015260238151815560208201516001918201556026546000908152600260205260409020602354815560245490820155805490915080820161051c8382610533565b50600091825260209091206026549101555061057d565b8154818355818115116105575760008381526020902061055791810190830161055c565b505050565b61057a91905b808211156105765760008155600101610562565b5090565b90565b6106ec8061058c6000396000f3006060604052600436106101485763ffffffff7c010000000000000000000000000000000000000000000000000000000060003504166302506804811461014d578063032266011461017b57806314eb172c1461018e57806319055486146101b35780631acdd7f0146101c65780631cf7549c146101d95780632273bae2146101ec57806325172b94146101ff5780632b570c5e1461021257806333360632146102255780633c570b391461023857806345a528bf1461024b5780636263a27f1461025e57806364d05f4d146102715780637da1373a146102875780638fc6ad2d1461029a578063a3b8e7b5146102b0578063ac847d49146102c3578063adfbf396146102f2578063b1ec5c5514610305578063b92f95f514610318578063b9ff6d0f1461032b578063c8f3e5f01461033e578063cec9bb9f14610354578063f2a9f0fd14610367575b600080fd5b341561015857600080fd5b610163600435610380565b60405191825260208201526040908101905180910390f35b341561018657600080fd5b610163610399565b341561019957600080fd5b6101a16103a2565b60405190815260200160405180910390f35b34156101be57600080fd5b6101636103a8565b34156101d157600080fd5b6101636103b1565b34156101e457600080fd5b6101636103ba565b34156101f757600080fd5b6101a16103c3565b341561020a57600080fd5b6101636103c9565b341561021d57600080fd5b6101636103d2565b341561023057600080fd5b6101a16103db565b341561024357600080fd5b6101a16103e1565b341561025657600080fd5b6101a16103e7565b341561026957600080fd5b6101a16103ed565b341561027c57600080fd5b6101a16004356103f3565b341561029257600080fd5b6101a1610412565b34156102a557600080fd5b6101a1600435610418565b34156102bb57600080fd5b6101a161042d565b34156102ce57600080fd5b6102d6610433565b604051600160a060020a03909116815260200160405180910390f35b34156102fd57600080fd5b610163610442565b341561031057600080fd5b61016361044b565b341561032357600080fd5b610163610454565b341561033657600080fd5b6101a161045d565b341561034957600080fd5b610163600435610463565b341561035f57600080fd5b6101a16104a9565b341561037257600080fd5b6101a16004356024356104af565b6002602052600090815260409020805460019091015482565b60135460145482565b600a5481565b60235460245482565b600f5460105482565b600b54600c5482565b60265481565b60175460185482565b601f5460205482565b60015490565b60065481565b60225481565b601a5481565b600180548290811061040157fe5b600091825260209091200154905081565b60125481565b60009081526002602052604090206001015490565b60165481565b600054600160a060020a031681565b60075460085482565b601b54601c5482565b60035460045482565b600e5481565b60008061046e6106a9565b600084815260026020526040908190209080519081016040528154815260019091015460208201529050805181602001519250925050915091565b601e5481565b600082815260026020818152604080842033600160a060020a0381168652938101909252832060010154600e5484938493849384938a9291906104f190610418565b81014210156104ff57600080fd5b60008054600160a060020a0316985088906388004950903390604051602001526040517c010000000000000000000000000000000000000000000000000000000063ffffffff8416028152600160a060020a039091166004820152602401602060405180830381600087803b151561057657600080fd5b6102c65a03f1151561058757600080fd5b50505060405180519750506000871161059f57600080fd5b6105a88b610418565b95506103e887870204945060008a11156105cd576105c68686610639565b95506105da565b6105d7868661064f565b95505b6105e48b87610661565b506105ef8b33610679565b507fa4ca2f829529e953006ffeae7c1e288ca47c5086b391aa85fffb0a129adce3758b8760405191825260208201526040908101905180910390a150939998505050505050505050565b60008282018381101561064857fe5b9392505050565b60008282111561065b57fe5b50900390565b60009182526002602052604090912060010181905590565b6000918252600260208181526040808520600160a060020a03909416855292909101905281204260019091015590565b6040805190810160405260008082526020820152905600a165627a7a72305820a6eb17566bba50a22841eac6c36f82cdc117a32b66c582c312d12bd1f1d84f420029",
  "source": "pragma solidity ^0.4.17;\n\nimport './DIDToken.sol';\nimport './lib/SafeMath.sol';\n\ncontract Distense {\n    using SafeMath for uint256;\n\n    address public DIDTokenAddress;\n\n    /*\n      Distense' votable parameters\n      Parameter is the perfect word` for these: \"a numerical or other measurable factor forming one of a set\n      that defines a system or sets the conditions of its operation\".\n    */\n\n    //  Titles are what uniquely identify parameters, so query by titles when iterating with clients\n    bytes32[] public parameterTitles;\n\n    struct Parameter {\n        bytes32 title;\n        uint256 value;\n        mapping(address => Vote) votes;\n    }\n\n    struct Vote {\n        address voter;\n        uint256 lastVoted;\n    }\n\n    mapping(bytes32 => Parameter) public parameters;\n\n    Parameter public proposalPctDIDToApproveParameter;\n    bytes32 public proposalPctDIDToApproveParameterTitle = 'proposalPctDIDToApprove';\n\n    Parameter public pctDIDRequiredToMergePullRequest;\n    bytes32 public pctDIDRequiredToMergePullRequestTitle = 'pctDIDRequiredToMergePullRequest';\n\n    Parameter public votingIntervalParameter;\n    bytes32 public votingIntervalParameterTitle = 'votingInterval';\n\n    Parameter public maxRewardParameter;\n    bytes32 public maxRewardParameterTitle = 'maxReward';\n\n    Parameter public numDIDRequiredToApproveVotePullRequestParameter;\n    bytes32 public numDIDRequiredToApproveVotePullRequestParameterTitle = 'numDIDReqApproveVotePullRequest';\n\n    Parameter public numDIDRequiredToTaskRewardVoteParameter;\n    bytes32 public numDIDRequiredToTaskRewardVoteParameterTitle = 'numDIDRequiredToTaskRewardVote';\n\n    Parameter public minNumberOfTaskRewardVotersParameter;\n    bytes32 public minNumberOfTaskRewardVotersParameterTitle = 'minNumberOfTaskRewardVoters';\n\n    Parameter public defaultRewardParameter;\n    bytes32 public defaultRewardParameterTitle = 'defaultReward';\n\n    Parameter public didPerEtherParameter;\n    bytes32 public didPerEtherParameterTitle = 'didPerEther';\n\n    event LogParameterValueUpdate(bytes32 title, uint256 value);\n\n\n    function Distense(address _DIDTokenAddress) public {\n\n        DIDTokenAddress = _DIDTokenAddress;\n\n        // Launch Distense with some votable parameters\n        // that can be later updated by contributors\n        // Current values can be found at https://disten.se/parameters\n\n        // PCT of DID that must vote on a proposal for it to be approved and payable\n        proposalPctDIDToApproveParameter = Parameter({\n            title : proposalPctDIDToApproveParameterTitle,\n            //     Every hard-coded int in Solidity is a decimal to one decimal place\n            //     So this is 25.0%\n            value : 250\n            });\n        parameters[proposalPctDIDToApproveParameterTitle] = proposalPctDIDToApproveParameter;\n        parameterTitles.push(proposalPctDIDToApproveParameterTitle);\n\n\n        pctDIDRequiredToMergePullRequest = Parameter({\n            title : pctDIDRequiredToMergePullRequestTitle,\n            //     Every hard-coded int in Solidity is a decimal to one decimal place\n            //     So this is 10.0\n            value : 100\n            });\n        parameters[pctDIDRequiredToMergePullRequestTitle] = pctDIDRequiredToMergePullRequest;\n        parameterTitles.push(pctDIDRequiredToMergePullRequestTitle);\n\n\n        votingIntervalParameter = Parameter({\n            title : votingIntervalParameterTitle,\n            value : 15 days  // 15 * 86400 = 1.296e+6\n            });\n        parameters[votingIntervalParameterTitle] = votingIntervalParameter;\n        parameterTitles.push(votingIntervalParameterTitle);\n\n\n        maxRewardParameter = Parameter({\n            title : maxRewardParameterTitle,\n            //     Every hard-coded int in Solidity is a decimal to one decimal place\n            //     So this is 5000.0\n            value : 50000\n            });\n        parameters[maxRewardParameterTitle] = maxRewardParameter;\n        parameterTitles.push(maxRewardParameterTitle);\n\n\n        minNumberOfTaskRewardVotersParameter = Parameter({\n            title : minNumberOfTaskRewardVotersParameterTitle,\n            //     Every hard-coded int in Solidity is a decimal to one decimal place\n            //     So this is 7.0\n            value : 70\n            });\n        parameters[minNumberOfTaskRewardVotersParameterTitle] = minNumberOfTaskRewardVotersParameter;\n        parameterTitles.push(minNumberOfTaskRewardVotersParameterTitle);\n\n\n        // This parameter is the number of DID an account must own to vote on a task's reward\n        // The task reward is the number of DID payable upon successful completion and approval of a task\n\n        // This parameter mostly exists to get the percentage of DID that have voted higher per voter\n        //   as looping through voters to determineReward()s is gas-expensive.\n\n        // This parameter also limits attacks by noobs that want to mess with Distense.\n        numDIDRequiredToTaskRewardVoteParameter = Parameter({\n            title : numDIDRequiredToTaskRewardVoteParameterTitle,\n            value : 1500 // 150 -> Every hard-coded int in Solidity is a decimal to one decimal place\n            });\n        parameters[numDIDRequiredToTaskRewardVoteParameterTitle] = numDIDRequiredToTaskRewardVoteParameter;\n        parameterTitles.push(numDIDRequiredToTaskRewardVoteParameterTitle);\n\n\n        numDIDRequiredToApproveVotePullRequestParameter = Parameter({\n            title : numDIDRequiredToApproveVotePullRequestParameterTitle,\n            //     Every hard-coded int in Solidity is a decimal to one decimal place\n            //     So this is 200.0\n            value : 2000\n            });\n        parameters[numDIDRequiredToApproveVotePullRequestParameterTitle] = numDIDRequiredToApproveVotePullRequestParameter;\n        parameterTitles.push(numDIDRequiredToApproveVotePullRequestParameterTitle);\n\n\n        defaultRewardParameter = Parameter({\n            title : defaultRewardParameterTitle,\n            //     Every hard-coded int in Solidity is a decimal to one decimal place\n            //     So this is 100.0\n            value : 1000\n            });\n        parameters[defaultRewardParameterTitle] = defaultRewardParameter;\n        parameterTitles.push(defaultRewardParameterTitle);\n\n\n        didPerEtherParameter = Parameter({\n            title : didPerEtherParameterTitle,\n            //     Every hard-coded int in Solidity is a decimal to one decimal place\n            //     So this is 1200.0\n            value : 12000\n            });\n        parameters[didPerEtherParameterTitle] = didPerEtherParameter;\n        parameterTitles.push(didPerEtherParameterTitle);\n\n    }\n\n    function getParameterValueByTitle(bytes32 _title) public view returns (uint256) {\n        return parameters[_title].value;\n    }\n\n    function voteOnParameter(bytes32 _title, uint256 _voteValue)\n        public\n//        voteWithinRange(_title, _voteValue)\n        votingIntervalReached(msg.sender, _title)\n    returns\n    (uint256) {\n\n        DIDToken didToken = DIDToken(DIDTokenAddress);\n        uint256 votersDIDPercent = didToken.pctDIDOwned(msg.sender);\n        require(votersDIDPercent > 0);\n\n        uint256 currentValue = getParameterValueByTitle(_title);\n\n\n        uint256 update = (currentValue * votersDIDPercent) / 1000;\n\n        if (_voteValue > 0)\n            currentValue = SafeMath.add(currentValue, update);\n        else\n            currentValue = SafeMath.sub(currentValue, update);\n\n        updateParameterValue(_title, currentValue);\n        updateLastVotedOnParameter(_title, msg.sender);\n        LogParameterValueUpdate(_title, currentValue);\n        return currentValue;\n    }\n\n    function getParameterByTitle(bytes32 _title) public view returns (bytes32, uint256) {\n        Parameter memory param = parameters[_title];\n        return (param.title, param.value);\n    }\n\n    function getNumParameters() public view returns (uint256) {\n        return parameterTitles.length;\n    }\n\n    function updateParameterValue(bytes32 _title, uint256 _newValue) internal returns (uint256) {\n        Parameter storage parameter = parameters[_title];\n        parameter.value = _newValue;\n        return parameter.value;\n    }\n\n    function updateLastVotedOnParameter(bytes32 _title, address voter) internal returns (bool) {\n        Parameter storage parameter = parameters[_title];\n        parameter.votes[voter].lastVoted = now;\n    }\n\n    modifier votingIntervalReached(address _voter, bytes32 _title) {\n        Parameter storage parameter = parameters[_title];\n        uint256 lastVotedOnParameter = parameter.votes[_voter].lastVoted;\n        require(now >= lastVotedOnParameter + getParameterValueByTitle(votingIntervalParameterTitle));\n        _;\n    }\n\n    // Require parameter votes to be within two times the current value of the parameter.\n    // Otherwise someone could vote with a very large number and skew the value however they wish\n    modifier voteWithinRange(bytes32 _title, uint256 _newValue) {\n        Parameter storage parameter = parameters[_title];\n        uint256 currentValue = parameter.value;\n        require(_newValue >= 0);\n        require(_newValue <= 2 * currentValue);\n        _;\n    }\n\n}\n",
  "sourcePath": "/Users/john/distense-contracts/contracts/Distense.sol",
  "compiler": {
    "name": "solc",
    "version": "0.4.18+commit.9cf6e910.Emscripten.clang"
  },
  "schemaVersion": "1.0.1",
  "updatedAt": "2018-01-16T15:05:27.283Z"
}