{
  "contractName": "Distense",
  "abi": [
    {
      "constant": true,
      "inputs": [
        {
          "name": "",
          "type": "bytes32"
        }
      ],
      "name": "parameters",
      "outputs": [
        {
          "name": "title",
          "type": "bytes32"
        },
        {
          "name": "value",
          "type": "uint256"
        }
      ],
      "payable": false,
      "stateMutability": "view",
      "type": "function"
    },
    {
      "constant": true,
      "inputs": [],
      "name": "numDIDRequiredToApproveVotePullRequestParameter",
      "outputs": [
        {
          "name": "title",
          "type": "bytes32"
        },
        {
          "name": "value",
          "type": "uint256"
        }
      ],
      "payable": false,
      "stateMutability": "view",
      "type": "function"
    },
    {
      "constant": true,
      "inputs": [],
      "name": "pctDIDRequiredToMergePullRequestTitle",
      "outputs": [
        {
          "name": "",
          "type": "bytes32"
        }
      ],
      "payable": false,
      "stateMutability": "view",
      "type": "function"
    },
    {
      "constant": true,
      "inputs": [],
      "name": "didPerEtherParameter",
      "outputs": [
        {
          "name": "title",
          "type": "bytes32"
        },
        {
          "name": "value",
          "type": "uint256"
        }
      ],
      "payable": false,
      "stateMutability": "view",
      "type": "function"
    },
    {
      "constant": true,
      "inputs": [],
      "name": "maxRewardParameter",
      "outputs": [
        {
          "name": "title",
          "type": "bytes32"
        },
        {
          "name": "value",
          "type": "uint256"
        }
      ],
      "payable": false,
      "stateMutability": "view",
      "type": "function"
    },
    {
      "constant": true,
      "inputs": [],
      "name": "votingIntervalParameter",
      "outputs": [
        {
          "name": "title",
          "type": "bytes32"
        },
        {
          "name": "value",
          "type": "uint256"
        }
      ],
      "payable": false,
      "stateMutability": "view",
      "type": "function"
    },
    {
      "constant": true,
      "inputs": [],
      "name": "didPerEtherParameterTitle",
      "outputs": [
        {
          "name": "",
          "type": "bytes32"
        }
      ],
      "payable": false,
      "stateMutability": "view",
      "type": "function"
    },
    {
      "constant": true,
      "inputs": [],
      "name": "numDIDRequiredToTaskRewardVoteParameter",
      "outputs": [
        {
          "name": "title",
          "type": "bytes32"
        },
        {
          "name": "value",
          "type": "uint256"
        }
      ],
      "payable": false,
      "stateMutability": "view",
      "type": "function"
    },
    {
      "constant": true,
      "inputs": [],
      "name": "defaultRewardParameter",
      "outputs": [
        {
          "name": "title",
          "type": "bytes32"
        },
        {
          "name": "value",
          "type": "uint256"
        }
      ],
      "payable": false,
      "stateMutability": "view",
      "type": "function"
    },
    {
      "constant": true,
      "inputs": [],
      "name": "defaultRewardParameterTitle",
      "outputs": [
        {
          "name": "",
          "type": "bytes32"
        }
      ],
      "payable": false,
      "stateMutability": "view",
      "type": "function"
    },
    {
      "constant": true,
      "inputs": [],
      "name": "numDIDRequiredToAddTaskParameter",
      "outputs": [
        {
          "name": "title",
          "type": "bytes32"
        },
        {
          "name": "value",
          "type": "uint256"
        }
      ],
      "payable": false,
      "stateMutability": "view",
      "type": "function"
    },
    {
      "constant": true,
      "inputs": [],
      "name": "votingPowerLimitParameter",
      "outputs": [
        {
          "name": "title",
          "type": "bytes32"
        },
        {
          "name": "value",
          "type": "uint256"
        }
      ],
      "payable": false,
      "stateMutability": "view",
      "type": "function"
    },
    {
      "constant": true,
      "inputs": [],
      "name": "numDIDRequiredToTaskRewardVoteParameterTitle",
      "outputs": [
        {
          "name": "",
          "type": "bytes32"
        }
      ],
      "payable": false,
      "stateMutability": "view",
      "type": "function"
    },
    {
      "constant": true,
      "inputs": [
        {
          "name": "",
          "type": "uint256"
        }
      ],
      "name": "parameterTitles",
      "outputs": [
        {
          "name": "",
          "type": "bytes32"
        }
      ],
      "payable": false,
      "stateMutability": "view",
      "type": "function"
    },
    {
      "constant": true,
      "inputs": [],
      "name": "numDIDRequiredToAddTaskParameterTitle",
      "outputs": [
        {
          "name": "",
          "type": "bytes32"
        }
      ],
      "payable": false,
      "stateMutability": "view",
      "type": "function"
    },
    {
      "constant": true,
      "inputs": [],
      "name": "maxRewardParameterTitle",
      "outputs": [
        {
          "name": "",
          "type": "bytes32"
        }
      ],
      "payable": false,
      "stateMutability": "view",
      "type": "function"
    },
    {
      "constant": true,
      "inputs": [],
      "name": "numDIDRequiredToApproveVotePullRequestParameterTitle",
      "outputs": [
        {
          "name": "",
          "type": "bytes32"
        }
      ],
      "payable": false,
      "stateMutability": "view",
      "type": "function"
    },
    {
      "constant": true,
      "inputs": [],
      "name": "DIDTokenAddress",
      "outputs": [
        {
          "name": "",
          "type": "address"
        }
      ],
      "payable": false,
      "stateMutability": "view",
      "type": "function"
    },
    {
      "constant": true,
      "inputs": [],
      "name": "pctDIDRequiredToMergePullRequest",
      "outputs": [
        {
          "name": "title",
          "type": "bytes32"
        },
        {
          "name": "value",
          "type": "uint256"
        }
      ],
      "payable": false,
      "stateMutability": "view",
      "type": "function"
    },
    {
      "constant": true,
      "inputs": [],
      "name": "minNumberOfTaskRewardVotersParameter",
      "outputs": [
        {
          "name": "title",
          "type": "bytes32"
        },
        {
          "name": "value",
          "type": "uint256"
        }
      ],
      "payable": false,
      "stateMutability": "view",
      "type": "function"
    },
    {
      "constant": true,
      "inputs": [],
      "name": "pctDIDToDetermineTaskRewardParameter",
      "outputs": [
        {
          "name": "title",
          "type": "bytes32"
        },
        {
          "name": "value",
          "type": "uint256"
        }
      ],
      "payable": false,
      "stateMutability": "view",
      "type": "function"
    },
    {
      "constant": true,
      "inputs": [],
      "name": "votingIntervalParameterTitle",
      "outputs": [
        {
          "name": "",
          "type": "bytes32"
        }
      ],
      "payable": false,
      "stateMutability": "view",
      "type": "function"
    },
    {
      "constant": true,
      "inputs": [],
      "name": "minNumberOfTaskRewardVotersParameterTitle",
      "outputs": [
        {
          "name": "",
          "type": "bytes32"
        }
      ],
      "payable": false,
      "stateMutability": "view",
      "type": "function"
    },
    {
      "constant": true,
      "inputs": [],
      "name": "votingPowerLimitParameterTitle",
      "outputs": [
        {
          "name": "",
          "type": "bytes32"
        }
      ],
      "payable": false,
      "stateMutability": "view",
      "type": "function"
    },
    {
      "constant": true,
      "inputs": [],
      "name": "pctDIDToDetermineTaskRewardParameterTitle",
      "outputs": [
        {
          "name": "",
          "type": "bytes32"
        }
      ],
      "payable": false,
      "stateMutability": "view",
      "type": "function"
    },
    {
      "inputs": [
        {
          "name": "_DIDTokenAddress",
          "type": "address"
        }
      ],
      "payable": false,
      "stateMutability": "nonpayable",
      "type": "constructor"
    },
    {
      "anonymous": false,
      "inputs": [
        {
          "indexed": false,
          "name": "title",
          "type": "bytes32"
        },
        {
          "indexed": false,
          "name": "value",
          "type": "uint256"
        }
      ],
      "name": "LogParameterValueUpdate",
      "type": "event"
    },
    {
      "anonymous": false,
      "inputs": [
        {
          "indexed": false,
          "name": "someAddress",
          "type": "address"
        }
      ],
      "name": "LogAddress",
      "type": "event"
    },
    {
      "anonymous": false,
      "inputs": [
        {
          "indexed": false,
          "name": "boolean",
          "type": "bool"
        }
      ],
      "name": "LogBool",
      "type": "event"
    },
    {
      "anonymous": false,
      "inputs": [
        {
          "indexed": false,
          "name": "someBytes",
          "type": "bytes"
        }
      ],
      "name": "LogBytes",
      "type": "event"
    },
    {
      "anonymous": false,
      "inputs": [
        {
          "indexed": false,
          "name": "aBytes32",
          "type": "bytes32"
        }
      ],
      "name": "LogBytes32",
      "type": "event"
    },
    {
      "anonymous": false,
      "inputs": [
        {
          "indexed": false,
          "name": "aString",
          "type": "string"
        }
      ],
      "name": "LogString",
      "type": "event"
    },
    {
      "anonymous": false,
      "inputs": [
        {
          "indexed": false,
          "name": "someInt",
          "type": "uint256"
        }
      ],
      "name": "LogUInt256",
      "type": "event"
    },
    {
      "anonymous": false,
      "inputs": [
        {
          "indexed": false,
          "name": "someInt",
          "type": "int256"
        }
      ],
      "name": "LogInt256",
      "type": "event"
    },
    {
      "constant": true,
      "inputs": [
        {
          "name": "_title",
          "type": "bytes32"
        }
      ],
      "name": "getParameterValueByTitle",
      "outputs": [
        {
          "name": "",
          "type": "uint256"
        }
      ],
      "payable": false,
      "stateMutability": "view",
      "type": "function"
    },
    {
      "constant": false,
      "inputs": [
        {
          "name": "_title",
          "type": "bytes32"
        },
        {
          "name": "_voteValue",
          "type": "int256"
        }
      ],
      "name": "voteOnParameter",
      "outputs": [
        {
          "name": "",
          "type": "uint256"
        }
      ],
      "payable": false,
      "stateMutability": "nonpayable",
      "type": "function"
    },
    {
      "constant": true,
      "inputs": [
        {
          "name": "_title",
          "type": "bytes32"
        }
      ],
      "name": "getParameterByTitle",
      "outputs": [
        {
          "name": "",
          "type": "bytes32"
        },
        {
          "name": "",
          "type": "uint256"
        }
      ],
      "payable": false,
      "stateMutability": "view",
      "type": "function"
    },
    {
      "constant": true,
      "inputs": [],
      "name": "getNumParameters",
      "outputs": [
        {
          "name": "",
          "type": "uint256"
        }
      ],
      "payable": false,
      "stateMutability": "view",
      "type": "function"
    }
  ],
  "bytecode": "0x60606040527f706374444944546f44657465726d696e655461736b52657761726400000000006006557f7063744449445265717569726564546f4d6572676550756c6c52657175657374600a557f766f74696e67496e74657276616c000000000000000000000000000000000000600e557f6d617852657761726400000000000000000000000000000000000000000000006012557f6e756d444944526571417070726f7665566f746550756c6c52657175657374006016557f6e756d4449445265717569726564546f5461736b526577617264566f74650000601a557f6d696e4e756d6265724f665461736b526577617264566f746572730000000000601e557f6e756d4449445265717569726564546f4164645461736b0000000000000000006022557f64656661756c74526577617264000000000000000000000000000000000000006026557f6469645065724574686572000000000000000000000000000000000000000000602a557f766f74696e67506f7765724c696d697400000000000000000000000000000000602e55341561019b57600080fd5b604051602080610e3a8339810160405280805160008054600160a060020a031916600160a060020a038316179055915060409050805190810160405260065481526109c46020820152600381518155602082015160019182015560065460009081526002602052604090206003548155600454908201558054909150808201610224838261064c565b506000918252602090912060065491015560408051908101604052600a5481526103e860208201526007815181556020820151600191820155600a546000908152600260205260409020600754815560085490820155805490915080820161028c838261064c565b5060009182526020909120600a5491015560408051908101604052600e5481526307b98a006020820152600b815181556020820151600191820155600e546000908152600260205260409020600b548155600c549082015580549091508082016102f6838261064c565b5060009182526020909120600e549101556040805190810160405260125481526113886020820152600f8151815560208201516001918201556012546000908152600260205260409020600f54815560105490820155805490915080820161035e838261064c565b506000918252602090912060125491015560408051908101604052601654815260c860208201526013815181556020820151600191820155601654600090815260026020526040902060135481556014549082015580549091508082016103c5838261064c565b506000918252602090912060165491015560408051908101604052601a548152606460208201526017815181556020820151600191820155601a546000908152600260205260409020601754815560185490820155805490915080820161042c838261064c565b5060009182526020909120601a5491015560408051908101604052601e5481526102bc6020820152601b815181556020820151600191820155601e546000908152600260205260409020601b548155601c54908201558054909150808201610494838261064c565b5060009182526020909120601e549101556040805190810160405260225481526127106020820152601f8151815560208201516001918201556022546000908152600260209081526040909120601f54815590549082015580549091508082016104fe838261064c565b506000918252602090912060225491015560408051908101604052602654815260646020820152602381518155602082015160019182015560265460009081526002602052604090206023548155602454908201558054909150808201610565838261064c565b506000918252602090912060265491015560408051908101604052602a5481526103e860208201526027815181556020820151600191820155602a54600090815260026020526040902060275481556028549082015580549091508082016105cd838261064c565b5060009182526020909120602a5491015560408051908101604052602e5481526107d06020820152602b815181556020820151600191820155602e546000908152600260205260409020602b548155602c54908201558054909150808201610635838261064c565b5060009182526020909120602e5491015550610696565b81548183558181151161067057600083815260209020610670918101908301610675565b505050565b61069391905b8082111561068f576000815560010161067b565b5090565b90565b610795806106a56000396000f3006060604052600436106101745763ffffffff7c010000000000000000000000000000000000000000000000000000000060003504166302506804811461017957806303226601146101a757806314eb172c146101ba57806318946e8f146101df57806319055486146101f85780631acdd7f01461020b5780631cf7549c1461021e5780632273bae21461023157806325172b94146102445780632b570c5e14610257578063333606321461026a57806345a528bf1461027d5780634882b6d2146102905780635ab3f343146102a35780636263a27f146102b657806364d05f4d146102c957806365c4284b146102df5780637da1373a146102f25780638fc6ad2d14610305578063a3b8e7b51461031b578063ac847d491461032e578063adfbf3961461035d578063b1ec5c5514610370578063b41cde5014610383578063b9ff6d0f14610396578063c8f3e5f0146103a9578063cec9bb9f146103bf578063e2f97c8d146103d2578063fb4347eb146103e5575b600080fd5b341561018457600080fd5b61018f6004356103f8565b60405191825260208201526040908101905180910390f35b34156101b257600080fd5b61018f610411565b34156101c557600080fd5b6101cd61041a565b60405190815260200160405180910390f35b34156101ea57600080fd5b6101cd600435602435610420565b341561020357600080fd5b61018f6105bd565b341561021657600080fd5b61018f6105c6565b341561022957600080fd5b61018f6105cf565b341561023c57600080fd5b6101cd6105d8565b341561024f57600080fd5b61018f6105de565b341561026257600080fd5b61018f6105e7565b341561027557600080fd5b6101cd6105f0565b341561028857600080fd5b6101cd6105f6565b341561029b57600080fd5b61018f6105fc565b34156102ae57600080fd5b61018f610605565b34156102c157600080fd5b6101cd61060e565b34156102d457600080fd5b6101cd600435610614565b34156102ea57600080fd5b6101cd610633565b34156102fd57600080fd5b6101cd610639565b341561031057600080fd5b6101cd60043561063f565b341561032657600080fd5b6101cd610654565b341561033957600080fd5b61034161065a565b604051600160a060020a03909116815260200160405180910390f35b341561036857600080fd5b61018f610669565b341561037b57600080fd5b61018f610672565b341561038e57600080fd5b61018f61067b565b34156103a157600080fd5b6101cd610684565b34156103b457600080fd5b61018f60043561068a565b34156103ca57600080fd5b6101cd6106d0565b34156103dd57600080fd5b6101cd6106d6565b34156103f057600080fd5b6101cd6106dc565b6002602052600090815260409020805460019091015482565b60135460145482565b600a5481565b600082815260026020818152604080842033600160a060020a0381168652938101909252832060010154600e5484938493849384938a9291906104629061063f565b810142101561047057600080fd5b60008054600160a060020a0316985088906388004950903390604051602001526040517c010000000000000000000000000000000000000000000000000000000063ffffffff8416028152600160a060020a039091166004820152602401602060405180830381600087803b15156104e757600080fd5b6102c65a03f115156104f857600080fd5b50505060405180519750506000871161051057600080fd5b6105198b61063f565b955060fa8711610529578661052c565b60fa5b96506103e886880204945089600114156105515761054a86866106e2565b955061055e565b61055b86866106f8565b95505b6105688b8761070a565b506105738b33610722565b507fa4ca2f829529e953006ffeae7c1e288ca47c5086b391aa85fffb0a129adce3758b8760405191825260208201526040908101905180910390a150939998505050505050505050565b60275460285482565b600f5460105482565b600b54600c5482565b602a5481565b60175460185482565b60235460245482565b60015490565b60265481565b601f5460205482565b602b54602c5482565b601a5481565b600180548290811061062257fe5b600091825260209091200154905081565b60225481565b60125481565b60009081526002602052604090206001015490565b60165481565b600054600160a060020a031681565b60075460085482565b601b54601c5482565b60035460045482565b600e5481565b600080610695610752565b600084815260026020526040908190209080519081016040528154815260019091015460208201529050805181602001519250925050915091565b601e5481565b602e5481565b60065481565b6000828201838110156106f157fe5b9392505050565b60008282111561070457fe5b50900390565b60009182526002602052604090912060010181905590565b6000918252600260208181526040808520600160a060020a03909416855292909101905281204260019091015590565b6040805190810160405260008082526020820152905600a165627a7a723058200fe5147ac9618a7c22b85d153083d8f2ae44132364503fa48be9fd5c7993569d0029",
  "source": "pragma solidity ^0.4.17;\n\nimport './DIDToken.sol';\nimport './lib/SafeMath.sol';\nimport './Debuggable.sol';\n\ncontract Distense is Debuggable {\n    using SafeMath for uint256;\n\n    address public DIDTokenAddress;\n\n    /*\n      Distense' votable parameters\n      Parameter is the perfect word` for these: \"a numerical or other measurable factor forming one of a set\n      that defines a system or sets the conditions of its operation\".\n    */\n\n    //  Titles are what uniquely identify parameters, so query by titles when iterating with clients\n    bytes32[] public parameterTitles;\n\n    struct Parameter {\n        bytes32 title;\n        uint256 value;\n        mapping(address => Vote) votes;\n    }\n\n    struct Vote {\n        address voter;\n        uint256 lastVoted;\n    }\n\n    mapping(bytes32 => Parameter) public parameters;\n\n    Parameter public pctDIDToDetermineTaskRewardParameter;\n    bytes32 public pctDIDToDetermineTaskRewardParameterTitle = 'pctDIDToDetermineTaskReward';\n\n    Parameter public pctDIDRequiredToMergePullRequest;\n    bytes32 public pctDIDRequiredToMergePullRequestTitle = 'pctDIDRequiredToMergePullRequest';\n\n    Parameter public votingIntervalParameter;\n    bytes32 public votingIntervalParameterTitle = 'votingInterval';\n\n    Parameter public maxRewardParameter;\n    bytes32 public maxRewardParameterTitle = 'maxReward';\n\n    Parameter public numDIDRequiredToApproveVotePullRequestParameter;\n    bytes32 public numDIDRequiredToApproveVotePullRequestParameterTitle = 'numDIDReqApproveVotePullRequest';\n\n    Parameter public numDIDRequiredToTaskRewardVoteParameter;\n    bytes32 public numDIDRequiredToTaskRewardVoteParameterTitle = 'numDIDRequiredToTaskRewardVote';\n\n    Parameter public minNumberOfTaskRewardVotersParameter;\n    bytes32 public minNumberOfTaskRewardVotersParameterTitle = 'minNumberOfTaskRewardVoters';\n\n    Parameter public numDIDRequiredToAddTaskParameter;\n    bytes32 public numDIDRequiredToAddTaskParameterTitle = 'numDIDRequiredToAddTask';\n\n    Parameter public defaultRewardParameter;\n    bytes32 public defaultRewardParameterTitle = 'defaultReward';\n\n    Parameter public didPerEtherParameter;\n    bytes32 public didPerEtherParameterTitle = 'didPerEther';\n\n    Parameter public votingPowerLimitParameter;\n    bytes32 public votingPowerLimitParameterTitle = 'votingPowerLimit';\n\n\n    event LogParameterValueUpdate(bytes32 title, uint256 value);\n\n\n    function Distense(address _DIDTokenAddress) public {\n\n        DIDTokenAddress = _DIDTokenAddress;\n\n        // Launch Distense with some votable parameters\n        // that can be later updated by contributors\n        // Current values can be found at https://disten.se/parameters\n\n        // Percentage of DID that must vote on a proposal for it to be approved and payable\n        pctDIDToDetermineTaskRewardParameter = Parameter({\n            title: pctDIDToDetermineTaskRewardParameterTitle,\n            //     Every hard-coded int except for dates and numbers (not percentages) pertaining to ether or DID are decimals to two decimal places\n            //     So this is 25.00%\n            value: 2500\n        });\n        parameters[pctDIDToDetermineTaskRewardParameterTitle] = pctDIDToDetermineTaskRewardParameter;\n        parameterTitles.push(pctDIDToDetermineTaskRewardParameterTitle);\n\n\n        pctDIDRequiredToMergePullRequest = Parameter({\n            title: pctDIDRequiredToMergePullRequestTitle,\n            //     Every hard-coded int except for dates and numbers (not percentages) pertaining to ether or DID are decimals to two decimal places\n            //     So this is 10.00\n            value: 1000\n        });\n        parameters[pctDIDRequiredToMergePullRequestTitle] = pctDIDRequiredToMergePullRequest;\n        parameterTitles.push(pctDIDRequiredToMergePullRequestTitle);\n\n\n        votingIntervalParameter = Parameter({\n            title: votingIntervalParameterTitle,\n            value: 129600000 // 15 * 86400 = 1.296e+6\n        });\n        parameters[votingIntervalParameterTitle] = votingIntervalParameter;\n        parameterTitles.push(votingIntervalParameterTitle);\n\n\n        maxRewardParameter = Parameter({\n            title: maxRewardParameterTitle,\n            //     Every hard-coded int except for dates and numbers (not percentages) pertaining to ether or DID are decimals to two decimal places\n            //     So this is 5000.0\n            value: 5000\n        });\n        parameters[maxRewardParameterTitle] = maxRewardParameter;\n        parameterTitles.push(maxRewardParameterTitle);\n\n\n        numDIDRequiredToApproveVotePullRequestParameter = Parameter({\n            title: numDIDRequiredToApproveVotePullRequestParameterTitle,\n            //     Every hard-coded int except for dates and numbers (not percentages) pertaining to ether or DID are decimals to two decimal places\n            //     200.00\n            value: 200\n        });\n        parameters[numDIDRequiredToApproveVotePullRequestParameterTitle] = numDIDRequiredToApproveVotePullRequestParameter;\n        parameterTitles.push(numDIDRequiredToApproveVotePullRequestParameterTitle);\n\n\n        // This parameter is the number of DID an account must own to vote on a task's reward\n        // The task reward is the number of DID payable upon successful completion and approval of a task\n\n        // This parameter mostly exists to get the percentage of DID that have voted higher per voter\n        //   as looping through voters to determineReward()s is gas-expensive.\n\n        // This parameter also limits attacks by noobs that want to mess with Distense.\n        numDIDRequiredToTaskRewardVoteParameter = Parameter({\n            title: numDIDRequiredToTaskRewardVoteParameterTitle,\n            //     Every hard-coded int except for dates and numbers (not percentages) pertaining to ether or DID are decimals to two decimal places\n            // 100.00\n            value: 100\n        });\n        parameters[numDIDRequiredToTaskRewardVoteParameterTitle] = numDIDRequiredToTaskRewardVoteParameter;\n        parameterTitles.push(numDIDRequiredToTaskRewardVoteParameterTitle);\n\n\n        minNumberOfTaskRewardVotersParameter = Parameter({\n            title: minNumberOfTaskRewardVotersParameterTitle,\n            //     Every hard-coded int except for dates and numbers (not percentages) pertaining to ether or DID are decimals to two decimal places\n            //     So this is 7.00\n            value: 700\n        });\n        parameters[minNumberOfTaskRewardVotersParameterTitle] = minNumberOfTaskRewardVotersParameter;\n        parameterTitles.push(minNumberOfTaskRewardVotersParameterTitle);\n\n\n        numDIDRequiredToAddTaskParameter = Parameter({\n            title: numDIDRequiredToAddTaskParameterTitle,\n            //     Every hard-coded int except for dates and numbers (not percentages) pertaining to ether or DID are decimals to two decimal places\n            //     So this is 100.00\n            value: 10000\n        });\n        parameters[numDIDRequiredToAddTaskParameterTitle] = numDIDRequiredToAddTaskParameter;\n        parameterTitles.push(numDIDRequiredToAddTaskParameterTitle);\n\n\n        defaultRewardParameter = Parameter({\n            title: defaultRewardParameterTitle,\n            //     Every hard-coded int EXCEPT for dates and numbers (not percentages) pertaining to ether or DID are decimals to two decimal places\n            //     100.00\n            value: 100\n        });\n        parameters[defaultRewardParameterTitle] = defaultRewardParameter;\n        parameterTitles.push(defaultRewardParameterTitle);\n\n\n        didPerEtherParameter = Parameter({\n            title: didPerEtherParameterTitle,\n            //     Every hard-coded int except for dates and numbers (not percentages) pertaining to ether or DID are decimals to two decimal places\n            //     1000.00\n            value: 1000\n        });\n        parameters[didPerEtherParameterTitle] = didPerEtherParameter;\n        parameterTitles.push(didPerEtherParameterTitle);\n\n        votingPowerLimitParameter = Parameter({\n            title: votingPowerLimitParameterTitle,\n            //     Every hard-coded int except for dates and numbers (not percentages) pertaining to ether or DID are decimals to two decimal places\n            //     20.00%\n            value: 2000\n        });\n        parameters[votingPowerLimitParameterTitle] = votingPowerLimitParameter;\n        parameterTitles.push(votingPowerLimitParameterTitle);\n\n    }\n\n    function getParameterValueByTitle(bytes32 _title) public view returns (uint256) {\n        return parameters[_title].value;\n    }\n\n    function voteOnParameter(bytes32 _title, int256 _voteValue)\n        public\n        votingIntervalReached(msg.sender, _title)\n    returns\n    (uint256) {\n\n        DIDToken didToken = DIDToken(DIDTokenAddress);\n        uint256 votersDIDPercent = didToken.pctDIDOwned(msg.sender);\n        require(votersDIDPercent > 0);\n\n        uint256 currentValue = getParameterValueByTitle(_title);\n\n        votersDIDPercent = votersDIDPercent > 250 ? 250 : votersDIDPercent;\n\n        uint256 update = (votersDIDPercent * currentValue) / 1000;\n\n        if (_voteValue == 1)\n            currentValue = SafeMath.add(currentValue, update);\n        else\n            currentValue = SafeMath.sub(currentValue, update);\n\n        updateParameterValue(_title, currentValue);\n        updateLastVotedOnParameter(_title, msg.sender);\n        LogParameterValueUpdate(_title, currentValue);\n\n        return currentValue;\n    }\n\n    function getParameterByTitle(bytes32 _title) public view returns (bytes32, uint256) {\n        Parameter memory param = parameters[_title];\n        return (param.title, param.value);\n    }\n\n    function getNumParameters() public view returns (uint256) {\n        return parameterTitles.length;\n    }\n\n    function updateParameterValue(bytes32 _title, uint256 _newValue) internal returns (uint256) {\n        Parameter storage parameter = parameters[_title];\n        parameter.value = _newValue;\n        return parameter.value;\n    }\n\n    function updateLastVotedOnParameter(bytes32 _title, address voter) internal returns (bool) {\n        Parameter storage parameter = parameters[_title];\n        parameter.votes[voter].lastVoted = now;\n    }\n\n    modifier votingIntervalReached(address _voter, bytes32 _title) {\n        Parameter storage parameter = parameters[_title];\n        uint256 lastVotedOnParameter = parameter.votes[_voter].lastVoted;\n        require(now >= lastVotedOnParameter + getParameterValueByTitle(votingIntervalParameterTitle));\n        _;\n    }\n\n}\n",
  "sourcePath": "/Users/john/distense-contracts/contracts/Distense.sol",
  "compiler": {
    "name": "solc",
    "version": "0.4.19+commit.c4cbbb05.Emscripten.clang"
  },
  "schemaVersion": "1.0.1",
  "updatedAt": "2018-03-13T21:56:36.116Z"
}