{
  "contractName": "Distense",
  "abi": [
    {
      "constant": true,
      "inputs": [
        {
          "name": "",
          "type": "bytes32"
        }
      ],
      "name": "parameters",
      "outputs": [
        {
          "name": "title",
          "type": "bytes32"
        },
        {
          "name": "value",
          "type": "uint256"
        }
      ],
      "payable": false,
      "stateMutability": "view",
      "type": "function"
    },
    {
      "constant": true,
      "inputs": [],
      "name": "numDIDRequiredToApproveVotePullRequestParameter",
      "outputs": [
        {
          "name": "title",
          "type": "bytes32"
        },
        {
          "name": "value",
          "type": "uint256"
        }
      ],
      "payable": false,
      "stateMutability": "view",
      "type": "function"
    },
    {
      "constant": true,
      "inputs": [],
      "name": "pctDIDRequiredToMergePullRequestTitle",
      "outputs": [
        {
          "name": "",
          "type": "bytes32"
        }
      ],
      "payable": false,
      "stateMutability": "view",
      "type": "function"
    },
    {
      "constant": true,
      "inputs": [],
      "name": "didPerEtherParameter",
      "outputs": [
        {
          "name": "title",
          "type": "bytes32"
        },
        {
          "name": "value",
          "type": "uint256"
        }
      ],
      "payable": false,
      "stateMutability": "view",
      "type": "function"
    },
    {
      "constant": true,
      "inputs": [],
      "name": "maxRewardParameter",
      "outputs": [
        {
          "name": "title",
          "type": "bytes32"
        },
        {
          "name": "value",
          "type": "uint256"
        }
      ],
      "payable": false,
      "stateMutability": "view",
      "type": "function"
    },
    {
      "constant": true,
      "inputs": [],
      "name": "votingIntervalParameter",
      "outputs": [
        {
          "name": "title",
          "type": "bytes32"
        },
        {
          "name": "value",
          "type": "uint256"
        }
      ],
      "payable": false,
      "stateMutability": "view",
      "type": "function"
    },
    {
      "constant": true,
      "inputs": [],
      "name": "didPerEtherParameterTitle",
      "outputs": [
        {
          "name": "",
          "type": "bytes32"
        }
      ],
      "payable": false,
      "stateMutability": "view",
      "type": "function"
    },
    {
      "constant": true,
      "inputs": [],
      "name": "numDIDRequiredToTaskRewardVoteParameter",
      "outputs": [
        {
          "name": "title",
          "type": "bytes32"
        },
        {
          "name": "value",
          "type": "uint256"
        }
      ],
      "payable": false,
      "stateMutability": "view",
      "type": "function"
    },
    {
      "constant": true,
      "inputs": [],
      "name": "defaultRewardParameter",
      "outputs": [
        {
          "name": "title",
          "type": "bytes32"
        },
        {
          "name": "value",
          "type": "uint256"
        }
      ],
      "payable": false,
      "stateMutability": "view",
      "type": "function"
    },
    {
      "constant": true,
      "inputs": [],
      "name": "defaultRewardParameterTitle",
      "outputs": [
        {
          "name": "",
          "type": "bytes32"
        }
      ],
      "payable": false,
      "stateMutability": "view",
      "type": "function"
    },
    {
      "constant": false,
      "inputs": [
        {
          "name": "_address",
          "type": "address"
        }
      ],
      "name": "revokeApproval",
      "outputs": [],
      "payable": false,
      "stateMutability": "nonpayable",
      "type": "function"
    },
    {
      "constant": true,
      "inputs": [],
      "name": "numDIDRequiredToAddTaskParameter",
      "outputs": [
        {
          "name": "title",
          "type": "bytes32"
        },
        {
          "name": "value",
          "type": "uint256"
        }
      ],
      "payable": false,
      "stateMutability": "view",
      "type": "function"
    },
    {
      "constant": true,
      "inputs": [],
      "name": "votingPowerLimitParameter",
      "outputs": [
        {
          "name": "title",
          "type": "bytes32"
        },
        {
          "name": "value",
          "type": "uint256"
        }
      ],
      "payable": false,
      "stateMutability": "view",
      "type": "function"
    },
    {
      "constant": true,
      "inputs": [],
      "name": "numDIDRequiredToTaskRewardVoteParameterTitle",
      "outputs": [
        {
          "name": "",
          "type": "bytes32"
        }
      ],
      "payable": false,
      "stateMutability": "view",
      "type": "function"
    },
    {
      "constant": true,
      "inputs": [
        {
          "name": "",
          "type": "uint256"
        }
      ],
      "name": "parameterTitles",
      "outputs": [
        {
          "name": "",
          "type": "bytes32"
        }
      ],
      "payable": false,
      "stateMutability": "view",
      "type": "function"
    },
    {
      "constant": true,
      "inputs": [],
      "name": "numDIDRequiredToAddTaskParameterTitle",
      "outputs": [
        {
          "name": "",
          "type": "bytes32"
        }
      ],
      "payable": false,
      "stateMutability": "view",
      "type": "function"
    },
    {
      "constant": true,
      "inputs": [],
      "name": "maxRewardParameterTitle",
      "outputs": [
        {
          "name": "",
          "type": "bytes32"
        }
      ],
      "payable": false,
      "stateMutability": "view",
      "type": "function"
    },
    {
      "constant": true,
      "inputs": [],
      "name": "numDIDRequiredToApproveVotePullRequestParameterTitle",
      "outputs": [
        {
          "name": "",
          "type": "bytes32"
        }
      ],
      "payable": false,
      "stateMutability": "view",
      "type": "function"
    },
    {
      "constant": true,
      "inputs": [],
      "name": "DIDTokenAddress",
      "outputs": [
        {
          "name": "",
          "type": "address"
        }
      ],
      "payable": false,
      "stateMutability": "view",
      "type": "function"
    },
    {
      "constant": true,
      "inputs": [],
      "name": "pctDIDRequiredToMergePullRequest",
      "outputs": [
        {
          "name": "title",
          "type": "bytes32"
        },
        {
          "name": "value",
          "type": "uint256"
        }
      ],
      "payable": false,
      "stateMutability": "view",
      "type": "function"
    },
    {
      "constant": true,
      "inputs": [],
      "name": "minNumberOfTaskRewardVotersParameter",
      "outputs": [
        {
          "name": "title",
          "type": "bytes32"
        },
        {
          "name": "value",
          "type": "uint256"
        }
      ],
      "payable": false,
      "stateMutability": "view",
      "type": "function"
    },
    {
      "constant": true,
      "inputs": [],
      "name": "pctDIDToDetermineTaskRewardParameter",
      "outputs": [
        {
          "name": "title",
          "type": "bytes32"
        },
        {
          "name": "value",
          "type": "uint256"
        }
      ],
      "payable": false,
      "stateMutability": "view",
      "type": "function"
    },
    {
      "constant": true,
      "inputs": [],
      "name": "votingIntervalParameterTitle",
      "outputs": [
        {
          "name": "",
          "type": "bytes32"
        }
      ],
      "payable": false,
      "stateMutability": "view",
      "type": "function"
    },
    {
      "constant": true,
      "inputs": [],
      "name": "minNumberOfTaskRewardVotersParameterTitle",
      "outputs": [
        {
          "name": "",
          "type": "bytes32"
        }
      ],
      "payable": false,
      "stateMutability": "view",
      "type": "function"
    },
    {
      "constant": true,
      "inputs": [
        {
          "name": "",
          "type": "address"
        }
      ],
      "name": "approved",
      "outputs": [
        {
          "name": "",
          "type": "bool"
        }
      ],
      "payable": false,
      "stateMutability": "view",
      "type": "function"
    },
    {
      "constant": false,
      "inputs": [
        {
          "name": "_address",
          "type": "address"
        }
      ],
      "name": "approve",
      "outputs": [],
      "payable": false,
      "stateMutability": "nonpayable",
      "type": "function"
    },
    {
      "constant": true,
      "inputs": [],
      "name": "votingPowerLimitParameterTitle",
      "outputs": [
        {
          "name": "",
          "type": "bytes32"
        }
      ],
      "payable": false,
      "stateMutability": "view",
      "type": "function"
    },
    {
      "constant": true,
      "inputs": [],
      "name": "pctDIDToDetermineTaskRewardParameterTitle",
      "outputs": [
        {
          "name": "",
          "type": "bytes32"
        }
      ],
      "payable": false,
      "stateMutability": "view",
      "type": "function"
    },
    {
      "inputs": [
        {
          "name": "_DIDTokenAddress",
          "type": "address"
        }
      ],
      "payable": false,
      "stateMutability": "nonpayable",
      "type": "constructor"
    },
    {
      "anonymous": false,
      "inputs": [
        {
          "indexed": false,
          "name": "title",
          "type": "bytes32"
        },
        {
          "indexed": false,
          "name": "value",
          "type": "uint256"
        }
      ],
      "name": "LogParameterValueUpdate",
      "type": "event"
    },
    {
      "constant": true,
      "inputs": [
        {
          "name": "_title",
          "type": "bytes32"
        }
      ],
      "name": "getParameterValueByTitle",
      "outputs": [
        {
          "name": "",
          "type": "uint256"
        }
      ],
      "payable": false,
      "stateMutability": "view",
      "type": "function"
    },
    {
      "constant": false,
      "inputs": [
        {
          "name": "_title",
          "type": "bytes32"
        },
        {
          "name": "_voteValue",
          "type": "int256"
        }
      ],
      "name": "voteOnParameter",
      "outputs": [
        {
          "name": "",
          "type": "uint256"
        }
      ],
      "payable": false,
      "stateMutability": "nonpayable",
      "type": "function"
    },
    {
      "constant": true,
      "inputs": [
        {
          "name": "_title",
          "type": "bytes32"
        }
      ],
      "name": "getParameterByTitle",
      "outputs": [
        {
          "name": "",
          "type": "bytes32"
        },
        {
          "name": "",
          "type": "uint256"
        }
      ],
      "payable": false,
      "stateMutability": "view",
      "type": "function"
    },
    {
      "constant": true,
      "inputs": [],
      "name": "getNumParameters",
      "outputs": [
        {
          "name": "",
          "type": "uint256"
        }
      ],
      "payable": false,
      "stateMutability": "view",
      "type": "function"
    },
    {
      "constant": false,
      "inputs": [
        {
          "name": "_didTokenAddress",
          "type": "address"
        }
      ],
      "name": "setDIDTokenAddress",
      "outputs": [],
      "payable": false,
      "stateMutability": "nonpayable",
      "type": "function"
    }
  ],
  "bytecode": "0x60606040527f766f74696e67496e74657276616c0000000000000000000000000000000000006007557f706374444944546f44657465726d696e655461736b5265776172640000000000600b557f7063744449445265717569726564546f4d6572676550756c6c52657175657374600f557f6d617852657761726400000000000000000000000000000000000000000000006013557f6e756d444944526571417070726f7665566f746550756c6c52657175657374006017557f6e756d4449445265717569726564546f5461736b526577617264566f74650000601b557f6d696e4e756d6265724f665461736b526577617264566f746572730000000000601f557f6e756d4449445265717569726564546f4164645461736b0000000000000000006023557f64656661756c74526577617264000000000000000000000000000000000000006027557f6469645065724574686572000000000000000000000000000000000000000000602b557f766f74696e67506f7765724c696d697400000000000000000000000000000000602f5534156200019c57600080fd5b6040516020806200110183398101604052808051600160a060020a0333811660009081526020819052604090819020805460ff191660019081179091558054928416600160a060020a03199093169290921790915590925090508051908101604052600b5481526109c460208201526008815181556020820151600191820155600b546000908152600360205260409020600854815560095490820155600280549092509081016200024f8382620006a0565b5060009182526020909120600b5491015560408051908101604052600f5481526103e86020820152600c815181556020820151600191820155600f546000908152600360205260409020600c548155600d549082015560028054909250908101620002bb8382620006a0565b5060009182526020909120600f549101556040805190810160405260075481526213c68060208201526004815181556020820151600191820155600754600090815260036020526040902060045481556005549082015560028054909250908101620003288382620006a0565b506000918252602090912060075491015560408051908101604052601354815261138860208201526010815181556020820151600191820155601354600090815260036020526040902060105481556011549082015560028054909250908101620003948382620006a0565b506000918252602090912060135491015560408051908101604052601754815260c860208201526014815181556020820151600191820155601754600090815260036020526040902060145481556015549082015560028054909250908101620003ff8382620006a0565b506000918252602090912060175491015560408051908101604052601b548152606460208201526018815181556020820151600191820155601b546000908152600360205260409020601854815560195490820155600280549092509081016200046a8382620006a0565b5060009182526020909120601b5491015560408051908101604052601f5481526102bc6020820152601c815181556020820151600191820155601f546000908152600360205260409020601c548155601d549082015560028054909250908101620004d68382620006a0565b5060009182526020909120601f5491015560408051908101604052602354815260646020808301919091528151815560208201516001918201556023546000908152600360209081526040909120905481556021549082015560028054909250908101620005458382620006a0565b5060009182526020909120602354910155604080519081016040526027548152606460208201526024815181556020820151600191820155602754600090815260036020526040902060245481556025549082015560028054909250908101620005b08382620006a0565b506000918252602090912060275491015560408051908101604052602b5481526103e860208201526028815181556020820151600191820155602b546000908152600360205260409020602854815560295490820155600280549092509081016200061c8382620006a0565b5060009182526020909120602b5491015560408051908101604052602f5481526107d06020820152602c815181556020820151600191820155602f546000908152600360205260409020602c548155602d549082015560028054909250908101620006888382620006a0565b5060009182526020909120602f5491015550620006f0565b815481835581811511620006c757600083815260209020620006c7918101908301620006cc565b505050565b620006ed91905b80821115620006e95760008155600101620006d3565b5090565b90565b610a0180620007006000396000f3006060604052600436106101a05763ffffffff7c01000000000000000000000000000000000000000000000000000000006000350416630250680481146101a557806303226601146101d357806314eb172c146101e657806318946e8f1461020b57806319055486146102245780631acdd7f0146102375780631cf7549c1461024a5780632273bae21461025d57806325172b94146102705780632b570c5e14610283578063333606321461029657806345a528bf146102a9578063484685b0146102bc5780634882b6d2146102dd5780635ab3f343146102f05780636263a27f1461030357806364d05f4d1461031657806365c4284b1461032c5780637da1373a1461033f5780638fc6ad2d14610352578063a3b8e7b514610368578063ac847d491461037b578063adfbf396146103aa578063b1ec5c55146103bd578063b41cde50146103d0578063b9ff6d0f146103e3578063c8f3e5f0146103f6578063cec9bb9f1461040c578063cf2fb7ca1461041f578063d8b964e61461043e578063daea85c514610471578063e2f97c8d14610490578063fb4347eb146104a3575b600080fd5b34156101b057600080fd5b6101bb6004356104b6565b60405191825260208201526040908101905180910390f35b34156101de57600080fd5b6101bb6104cf565b34156101f157600080fd5b6101f96104d8565b60405190815260200160405180910390f35b341561021657600080fd5b6101f96004356024356104de565b341561022f57600080fd5b6101bb610700565b341561024257600080fd5b6101bb610709565b341561025557600080fd5b6101bb610712565b341561026857600080fd5b6101f961071b565b341561027b57600080fd5b6101bb610721565b341561028e57600080fd5b6101bb61072a565b34156102a157600080fd5b6101f9610733565b34156102b457600080fd5b6101f9610739565b34156102c757600080fd5b6102db600160a060020a036004351661073f565b005b34156102e857600080fd5b6101bb61079c565b34156102fb57600080fd5b6101bb6107a5565b341561030e57600080fd5b6101f96107ae565b341561032157600080fd5b6101f96004356107b4565b341561033757600080fd5b6101f96107d3565b341561034a57600080fd5b6101f96107d9565b341561035d57600080fd5b6101f96004356107df565b341561037357600080fd5b6101f96107f4565b341561038657600080fd5b61038e6107fa565b604051600160a060020a03909116815260200160405180910390f35b34156103b557600080fd5b6101bb610809565b34156103c857600080fd5b6101bb610812565b34156103db57600080fd5b6101bb61081b565b34156103ee57600080fd5b6101f9610824565b341561040157600080fd5b6101bb60043561082a565b341561041757600080fd5b6101f9610870565b341561042a57600080fd5b6102db600160a060020a0360043516610876565b341561044957600080fd5b61045d600160a060020a03600435166108cc565b604051901515815260200160405180910390f35b341561047c57600080fd5b6102db600160a060020a03600435166108e1565b341561049b57600080fd5b6101f9610941565b34156104ae57600080fd5b6101f9610947565b6003602052600090815260409020805460019091015482565b60145460155482565b600f5481565b600082815260036020908152604080832033600160a060020a03811685526002820190935290832060010154600754849384938493849384938493849391928d9290610529906107df565b810142101561053757600080fd5b60648d131561054557600080fd5b600154600160a060020a03169a508a6388004950336040517c010000000000000000000000000000000000000000000000000000000063ffffffff8416028152600160a060020a039091166004820152602401602060405180830381600087803b15156105b157600080fd5b5af115156105be57600080fd5b50505060405180519a505060008a116105d657600080fd5b6105df8e6107df565b98506105ec602f546107df565b9750878a116105fb57896105fd565b875b96508c6001148061060f57508c600019145b8061061c5750868d606402135b8061062a5750868d60631902135b1561063e57612710878a025b049550610677565b60008d1315610652576127108d8a02610636565b60008d12156101a0578c600003606402945061271089860281151561067357fe5b0595505b60008d13156106915761068a898761094d565b985061069e565b61069b8987610963565b98505b6106a88e8a610975565b506106b38e3361098d565b507fa4ca2f829529e953006ffeae7c1e288ca47c5086b391aa85fffb0a129adce3758e8a60405191825260208201526040908101905180910390a150969c9b505050505050505050505050565b60285460295482565b60105460115482565b60045460055482565b602b5481565b60185460195482565b60245460255482565b60025490565b60275481565b600160a060020a03331660009081526020819052604090205460ff16151561076657600080fd5b600160a060020a038116151561077b57600080fd5b600160a060020a03166000908152602081905260409020805460ff19169055565b60205460215482565b602c54602d5482565b601b5481565b60028054829081106107c257fe5b600091825260209091200154905081565b60235481565b60135481565b60009081526003602052604090206001015490565b60175481565b600154600160a060020a031681565b600c54600d5482565b601c54601d5482565b60085460095482565b60075481565b6000806108356109be565b600084815260036020526040908190209080519081016040528154815260019091015460208201529050805181602001519250925050915091565b601f5481565b600160a060020a03331660009081526020819052604090205460ff16151561089d57600080fd5b6001805473ffffffffffffffffffffffffffffffffffffffff1916600160a060020a0392909216919091179055565b60006020819052908152604090205460ff1681565b600160a060020a03331660009081526020819052604090205460ff16151561090857600080fd5b600160a060020a038116151561091d57600080fd5b600160a060020a03166000908152602081905260409020805460ff19166001179055565b602f5481565b600b5481565b60008282018381101561095c57fe5b9392505050565b60008282111561096f57fe5b50900390565b60009182526003602052604090912060010181905590565b6000918252600360209081526040808420600160a060020a0390931684526002909201905281204260019091015590565b6040805190810160405260008082526020820152905600a165627a7a723058202b24006691daf3e47b1c247b4eafe5add66d6145d54c90dce4510d0cd6a4e36c0029",
  "source": "pragma solidity ^0.4.21;\n\nimport './lib/Approvable.sol';\nimport './DIDToken.sol';\nimport './lib/SafeMath.sol';\n\ncontract Distense is Approvable {\n    using SafeMath for uint256;\n\n    address public DIDTokenAddress;\n\n    /*\n      Distense' votable parameters\n      Parameter is the perfect word` for these: \"a numerical or other measurable factor forming one of a set\n      that defines a system or sets the conditions of its operation\".\n    */\n\n    //  Titles are what uniquely identify parameters, so query by titles when iterating with clients\n    bytes32[] public parameterTitles;\n\n    struct Parameter {\n        bytes32 title;\n        uint256 value;\n        mapping(address => Vote) votes;\n    }\n\n    struct Vote {\n        address voter;\n        uint256 lastVoted;\n    }\n\n    mapping(bytes32 => Parameter) public parameters;\n\n    Parameter public votingIntervalParameter;\n    bytes32 public votingIntervalParameterTitle = 'votingInterval';\n\n    Parameter public pctDIDToDetermineTaskRewardParameter;\n    bytes32 public pctDIDToDetermineTaskRewardParameterTitle = 'pctDIDToDetermineTaskReward';\n\n    Parameter public pctDIDRequiredToMergePullRequest;\n    bytes32 public pctDIDRequiredToMergePullRequestTitle = 'pctDIDRequiredToMergePullRequest';\n\n    Parameter public maxRewardParameter;\n    bytes32 public maxRewardParameterTitle = 'maxReward';\n\n    Parameter public numDIDRequiredToApproveVotePullRequestParameter;\n    bytes32 public numDIDRequiredToApproveVotePullRequestParameterTitle = 'numDIDReqApproveVotePullRequest';\n\n    Parameter public numDIDRequiredToTaskRewardVoteParameter;\n    bytes32 public numDIDRequiredToTaskRewardVoteParameterTitle = 'numDIDRequiredToTaskRewardVote';\n\n    Parameter public minNumberOfTaskRewardVotersParameter;\n    bytes32 public minNumberOfTaskRewardVotersParameterTitle = 'minNumberOfTaskRewardVoters';\n\n    Parameter public numDIDRequiredToAddTaskParameter;\n    bytes32 public numDIDRequiredToAddTaskParameterTitle = 'numDIDRequiredToAddTask';\n\n    Parameter public defaultRewardParameter;\n    bytes32 public defaultRewardParameterTitle = 'defaultReward';\n\n    Parameter public didPerEtherParameter;\n    bytes32 public didPerEtherParameterTitle = 'didPerEther';\n\n    Parameter public votingPowerLimitParameter;\n    bytes32 public votingPowerLimitParameterTitle = 'votingPowerLimit';\n\n\n    event LogParameterValueUpdate(bytes32 title, uint256 value);\n\n\n    function Distense(address _DIDTokenAddress) public {\n\n        DIDTokenAddress = _DIDTokenAddress;\n\n        // Launch Distense with some votable parameters\n        // that can be later updated by contributors\n        // Current values can be found at https://disten.se/parameters\n\n        // Percentage of DID that must vote on a proposal for it to be approved and payable\n        pctDIDToDetermineTaskRewardParameter = Parameter({\n            title : pctDIDToDetermineTaskRewardParameterTitle,\n            //     Every hard-coded int except for dates and numbers (not percentages) pertaining to ether or DID are decimals to two decimal places\n            //     So this is 25.00%\n            value: 2500\n        });\n        parameters[pctDIDToDetermineTaskRewardParameterTitle] = pctDIDToDetermineTaskRewardParameter;\n        parameterTitles.push(pctDIDToDetermineTaskRewardParameterTitle);\n\n\n        pctDIDRequiredToMergePullRequest = Parameter({\n            title : pctDIDRequiredToMergePullRequestTitle,\n            //     Every hard-coded int except for dates and numbers (not percentages) pertaining to ether or DID are decimals to two decimal places\n            //     So this is 10.00\n            value: 1000\n        });\n        parameters[pctDIDRequiredToMergePullRequestTitle] = pctDIDRequiredToMergePullRequest;\n        parameterTitles.push(pctDIDRequiredToMergePullRequestTitle);\n\n\n        votingIntervalParameter = Parameter({\n            title : votingIntervalParameterTitle,\n            value: 1296000 // 15 * 86400 = 1.296e+6\n        });\n        parameters[votingIntervalParameterTitle] = votingIntervalParameter;\n        parameterTitles.push(votingIntervalParameterTitle);\n\n\n        maxRewardParameter = Parameter({\n            title : maxRewardParameterTitle,\n            //     Every hard-coded int except for dates and numbers (not percentages) pertaining to ether or DID are decimals to two decimal places\n            //     So this is 5000.0\n            value: 5000\n        });\n        parameters[maxRewardParameterTitle] = maxRewardParameter;\n        parameterTitles.push(maxRewardParameterTitle);\n\n\n        numDIDRequiredToApproveVotePullRequestParameter = Parameter({\n            title : numDIDRequiredToApproveVotePullRequestParameterTitle,\n            //     Every hard-coded int except for dates and numbers (not percentages) pertaining to ether or DID are decimals to two decimal places\n            //     200.00\n            value: 200\n        });\n        parameters[numDIDRequiredToApproveVotePullRequestParameterTitle] = numDIDRequiredToApproveVotePullRequestParameter;\n        parameterTitles.push(numDIDRequiredToApproveVotePullRequestParameterTitle);\n\n\n        // This parameter is the number of DID an account must own to vote on a task's reward\n        // The task reward is the number of DID payable upon successful completion and approval of a task\n\n        // This parameter mostly exists to get the percentage of DID that have voted higher per voter\n        //   as looping through voters to determineReward()s is gas-expensive.\n\n        // This parameter also limits attacks by noobs that want to mess with Distense.\n        numDIDRequiredToTaskRewardVoteParameter = Parameter({\n            title : numDIDRequiredToTaskRewardVoteParameterTitle,\n            //     Every hard-coded int except for dates and numbers (not percentages) pertaining to ether or DID are decimals to two decimal places\n            // 100.00\n            value: 100\n        });\n        parameters[numDIDRequiredToTaskRewardVoteParameterTitle] = numDIDRequiredToTaskRewardVoteParameter;\n        parameterTitles.push(numDIDRequiredToTaskRewardVoteParameterTitle);\n\n\n        minNumberOfTaskRewardVotersParameter = Parameter({\n            title : minNumberOfTaskRewardVotersParameterTitle,\n            //     Every hard-coded int except for dates and numbers (not percentages) pertaining to ether or DID are decimals to two decimal places\n            //     So this is 7.00\n            value: 700\n        });\n        parameters[minNumberOfTaskRewardVotersParameterTitle] = minNumberOfTaskRewardVotersParameter;\n        parameterTitles.push(minNumberOfTaskRewardVotersParameterTitle);\n\n\n        numDIDRequiredToAddTaskParameter = Parameter({\n            title : numDIDRequiredToAddTaskParameterTitle,\n            //     Every hard-coded int except for dates and numbers (not percentages) pertaining to ether or DID are decimals to two decimal places\n            //     So this is 100.00\n            value: 100\n        });\n        parameters[numDIDRequiredToAddTaskParameterTitle] = numDIDRequiredToAddTaskParameter;\n        parameterTitles.push(numDIDRequiredToAddTaskParameterTitle);\n\n\n        defaultRewardParameter = Parameter({\n            title : defaultRewardParameterTitle,\n            //     Every hard-coded int EXCEPT for dates and numbers (not percentages) pertaining to ether or DID are decimals to two decimal places\n            //     100.00\n            value: 100\n        });\n        parameters[defaultRewardParameterTitle] = defaultRewardParameter;\n        parameterTitles.push(defaultRewardParameterTitle);\n\n\n        didPerEtherParameter = Parameter({\n            title : didPerEtherParameterTitle,\n            //     Every hard-coded int except for dates and numbers (not percentages) pertaining to ether or DID are decimals to two decimal places\n            //     1000.00\n            value: 1000\n        });\n        parameters[didPerEtherParameterTitle] = didPerEtherParameter;\n        parameterTitles.push(didPerEtherParameterTitle);\n\n        votingPowerLimitParameter = Parameter({\n            title : votingPowerLimitParameterTitle,\n            //     Every hard-coded int except for dates and numbers (not percentages) pertaining to ether or DID are decimals to two decimal places\n            //     20.00%\n            value: 2000\n        });\n        parameters[votingPowerLimitParameterTitle] = votingPowerLimitParameter;\n        parameterTitles.push(votingPowerLimitParameterTitle);\n\n    }\n\n    function getParameterValueByTitle(bytes32 _title) public view returns (uint256) {\n        return parameters[_title].value;\n    }\n\n    /**\n        Function called when contributors vote on parameters at /parameters url\n        In the client there are: max and min buttons and a text input\n\n        @param _title name of parameter title the DID holder is voting on.  This must be one of the hardcoded titles in this file.\n        @param _voteValue integer in percentage effect.  For example if the current value of a parameter is 20, and the voter votes 24, _voteValue\n        would be 20, for a 20% increase.\n\n        If _voteValue is 1 it's a max upvote, if -1 max downvote. Maximum votes, as just mentioned, affect parameter values by the\n        maximum of the percentage of DID owned by the voter, or the value of the votingLimit parameter.\n        If _voteValue has a higher absolute value than 1, the user has voted a specific value.  In that case we update the value to the voted value\n        if the value would affect the parameter value less than their percentage DID ownership.  If they voted a value that would affect the\n        parameter's value by more than their percentage DID ownership we affect the value by their percentage DID ownership.\n    */\n    function voteOnParameter(bytes32 _title, int256 _voteValue)\n        public\n        votingIntervalReached(msg.sender, _title)\n        returns\n    (uint256) {\n\n        require(_voteValue <= 100);\n\n        DIDToken didToken = DIDToken(DIDTokenAddress);\n        uint256 votersDIDPercent = didToken.pctDIDOwned(msg.sender);\n        require(votersDIDPercent > 0);\n\n        uint256 currentValue = getParameterValueByTitle(_title);\n\n        //  For voting power purposes, limit the pctDIDOwned to the maximum of the Voting Power Limit parameter or the voter's percentage ownership\n        //  of DID\n        uint256 votingPowerLimit = getParameterValueByTitle(votingPowerLimitParameterTitle);\n        uint256 limitedVotingPower = votersDIDPercent > votingPowerLimit ? votingPowerLimit : votersDIDPercent;\n\n        uint256 update;\n        if (\n            _voteValue == 1 ||\n            _voteValue == - 1 ||\n            _voteValue * 100 > int(limitedVotingPower) ||\n            _voteValue * - 100 > int(limitedVotingPower)\n        ) {\n\n            update = (limitedVotingPower * currentValue) / 10000;\n        } else if (_voteValue > 0) {\n            update = (uint(_voteValue) * currentValue) / 10000;\n        } else if (_voteValue < 0) {\n            int256 adjustedVoteValue = (-_voteValue) * 100; // make the voteValue positive and convert to on-chain decimals\n            update = uint((adjustedVoteValue * int(currentValue)) / 10000);\n        } else revert(); //  If _voteValue is 0\n\n        if (_voteValue > 0)\n            currentValue = SafeMath.add(currentValue, update);\n        else\n            currentValue = SafeMath.sub(currentValue, update);\n\n        updateParameterValue(_title, currentValue);\n        updateLastVotedOnParameter(_title, msg.sender);\n        emit LogParameterValueUpdate(_title, currentValue);\n\n        return currentValue;\n    }\n\n    function getParameterByTitle(bytes32 _title) public view returns (bytes32, uint256) {\n        Parameter memory param = parameters[_title];\n        return (param.title, param.value);\n    }\n\n    function getNumParameters() public view returns (uint256) {\n        return parameterTitles.length;\n    }\n\n    function updateParameterValue(bytes32 _title, uint256 _newValue) internal returns (uint256) {\n        Parameter storage parameter = parameters[_title];\n        parameter.value = _newValue;\n        return parameter.value;\n    }\n\n    function updateLastVotedOnParameter(bytes32 _title, address voter) internal returns (bool) {\n        Parameter storage parameter = parameters[_title];\n        parameter.votes[voter].lastVoted = now;\n    }\n\n    modifier votingIntervalReached(address _voter, bytes32 _title) {\n        Parameter storage parameter = parameters[_title];\n        uint256 lastVotedOnParameter = parameter.votes[_voter].lastVoted;\n        require(now >= lastVotedOnParameter + getParameterValueByTitle(votingIntervalParameterTitle));\n        _;\n    }\n\n    function setDIDTokenAddress(address _didTokenAddress) public onlyApproved {\n        DIDTokenAddress = _didTokenAddress;\n    }\n\n}\n",
  "sourcePath": "/Users/john/distense-contracts/contracts/Distense.sol",
  "compiler": {
    "name": "solc",
    "version": "0.4.21+commit.dfe3193c.Emscripten.clang"
  },
  "schemaVersion": "1.0.1",
  "updatedAt": "2018-03-30T21:10:22.307Z"
}