{
  "contractName": "Faucet",
  "abi": [
    {
      "inputs": [],
      "payable": false,
      "stateMutability": "nonpayable",
      "type": "constructor"
    },
    {
      "payable": true,
      "stateMutability": "payable",
      "type": "fallback"
    },
    {
      "anonymous": false,
      "inputs": [
        {
          "indexed": false,
          "name": "receiver",
          "type": "address"
        }
      ],
      "name": "SendEther",
      "type": "event"
    },
    {
      "constant": false,
      "inputs": [],
      "name": "requestEther",
      "outputs": [
        {
          "name": "",
          "type": "bool"
        }
      ],
      "payable": false,
      "stateMutability": "nonpayable",
      "type": "function"
    }
  ],
  "bytecode": "0x606060405242600155341561001357600080fd5b6101a9806100226000396000f3006060604052600436106100405763ffffffff7c010000000000000000000000000000000000000000000000000000000060003504166361ed46488114610042575b005b341561004d57600080fd5b610055610069565b604051901515815260200160405180910390f35b6000674563918244f4000033600160a060020a0316311080156100c75750600160a060020a033316600090815260208190526040902054610708014211806100c75750600160a060020a033316600090815260208190526040902054155b80156100d75750600154600a0142115b15610176577f52a051bca553b0a466ddf55904bf9b9a11c8234e4b8c33f40bf79749a8df067033604051600160a060020a03909116815260200160405180910390a1600160a060020a0333166000678ac7230489e80000604051600060405180830381858888f19350505050151561014e57600080fd5b50600160a060020a03331660009081526020819052604090204290819055600190815561017a565b5060005b905600a165627a7a723058203e415b1bfb7c4da2c5df70df4e264fece81aa9c7d3bbd79db39c14477df8dda00029",
  "source": "pragma solidity ^0.4.18;\n\ncontract Faucet {\n\n    event SendEther(address receiver);\n\n    mapping(address => uint256) lastRequested;\n\n    uint256 lastPaid = now;\n    function Faucet() public {\n\n    }\n\n    function requestEther() public returns (bool) {\n        if (\n            msg.sender.balance < 5 ether &&\n            (\n                now > (lastRequested[msg.sender] + 30 minutes) ||\n                lastRequested[msg.sender] == 0\n            ) &&\n            now > lastPaid + 10 seconds\n        ) {\n            SendEther(msg.sender);\n            msg.sender.transfer(10 ether);\n            lastRequested[msg.sender] = now;\n            lastPaid = now;\n            return true;\n        } else return false;\n    }\n\n    function () public payable {\n\n    }\n}\n",
  "sourcePath": "/Users/john/distense-contracts/contracts/Faucet.sol",
  "compiler": {
    "name": "solc",
    "version": "0.4.19+commit.c4cbbb05.Emscripten.clang"
  },
  "schemaVersion": "1.0.1",
  "updatedAt": "2018-02-20T17:26:40.953Z"
}