{
  "contractName": "Faucet",
  "abi": [
    {
      "inputs": [],
      "payable": false,
      "stateMutability": "nonpayable",
      "type": "constructor"
    },
    {
      "payable": true,
      "stateMutability": "payable",
      "type": "fallback"
    },
    {
      "anonymous": false,
      "inputs": [
        {
          "indexed": false,
          "name": "receiver",
          "type": "address"
        }
      ],
      "name": "SendEther",
      "type": "event"
    },
    {
      "constant": false,
      "inputs": [],
      "name": "requestEther",
      "outputs": [
        {
          "name": "",
          "type": "bool"
        }
      ],
      "payable": false,
      "stateMutability": "nonpayable",
      "type": "function"
    }
  ],
  "bytecode": "0x606060405242600155341561001357600080fd5b6101f7806100226000396000f3006060604052600436106100405763ffffffff7c010000000000000000000000000000000000000000000000000000000060003504166361ed46488114610042575b005b341561004d57600080fd5b610055610069565b604051901515815260200160405180910390f35b6000674563918244f400003373ffffffffffffffffffffffffffffffffffffffff16311080156100ee575073ffffffffffffffffffffffffffffffffffffffff3316600090815260208190526040902054610708014211806100ee575073ffffffffffffffffffffffffffffffffffffffff3316600090815260208190526040902054155b80156100fe5750600154600a0142115b156101c4577f52a051bca553b0a466ddf55904bf9b9a11c8234e4b8c33f40bf79749a8df06703360405173ffffffffffffffffffffffffffffffffffffffff909116815260200160405180910390a173ffffffffffffffffffffffffffffffffffffffff33166000678ac7230489e80000604051600060405180830381858888f19350505050151561018f57600080fd5b5073ffffffffffffffffffffffffffffffffffffffff33166000908152602081905260409020429081905560019081556101c8565b5060005b905600a165627a7a72305820cc9011a39bb618cf9a4525e9a7fe44915c2ba4cc994d88e168d72371334dd6ee0029",
  "source": "pragma solidity ^0.4.21;\n\ncontract Faucet {\n\n    event SendEther(address receiver);\n\n    mapping(address => uint256) lastRequested;\n\n    uint256 lastPaid = now;\n    function Faucet() public {\n\n    }\n\n    function requestEther() public returns (bool) {\n        if (\n            msg.sender.balance < 5 ether &&\n            (\n                now > (lastRequested[msg.sender] + 30 minutes) ||\n                lastRequested[msg.sender] == 0\n            ) &&\n            now > lastPaid + 10 seconds\n        ) {\n            emit SendEther(msg.sender);\n            msg.sender.transfer(10 ether);\n            lastRequested[msg.sender] = now;\n            lastPaid = now;\n            return true;\n        } else return false;\n    }\n\n    function () public payable {\n\n    }\n}\n",
  "sourcePath": "/Users/john/distense-contracts/contracts/Faucet.sol",
  "compiler": {
    "name": "solc",
    "version": "0.4.21+commit.dfe3193c.Emscripten.clang"
  },
  "schemaVersion": "1.0.1",
  "updatedAt": "2018-03-30T21:10:22.316Z"
}