{
  "contractName": "GitTool",
  "abi": [
    {
      "constant": false,
      "inputs": [
        {
          "name": "_repoName",
          "type": "string"
        },
        {
          "name": "_gitHash",
          "type": "string"
        },
        {
          "name": "_type",
          "type": "uint8"
        },
        {
          "name": "_ipfsHash",
          "type": "string"
        }
      ],
      "name": "addObject",
      "outputs": [],
      "payable": false,
      "stateMutability": "nonpayable",
      "type": "function"
    },
    {
      "constant": true,
      "inputs": [
        {
          "name": "_repoName",
          "type": "string"
        },
        {
          "name": "_gitHash",
          "type": "string"
        }
      ],
      "name": "getObject",
      "outputs": [
        {
          "name": "",
          "type": "uint8"
        },
        {
          "name": "",
          "type": "string"
        }
      ],
      "payable": false,
      "stateMutability": "view",
      "type": "function"
    },
    {
      "constant": false,
      "inputs": [
        {
          "name": "_repoName",
          "type": "string"
        },
        {
          "name": "_refOwner",
          "type": "address"
        },
        {
          "name": "_refName",
          "type": "string"
        },
        {
          "name": "_gitHash",
          "type": "string"
        }
      ],
      "name": "setRef",
      "outputs": [],
      "payable": false,
      "stateMutability": "nonpayable",
      "type": "function"
    },
    {
      "constant": true,
      "inputs": [],
      "name": "owner",
      "outputs": [
        {
          "name": "",
          "type": "address"
        }
      ],
      "payable": false,
      "stateMutability": "view",
      "type": "function"
    },
    {
      "constant": false,
      "inputs": [
        {
          "name": "_repoName",
          "type": "string"
        }
      ],
      "name": "removeRepo",
      "outputs": [],
      "payable": false,
      "stateMutability": "nonpayable",
      "type": "function"
    },
    {
      "constant": true,
      "inputs": [
        {
          "name": "_repoName",
          "type": "string"
        },
        {
          "name": "_refOwner",
          "type": "address"
        }
      ],
      "name": "getRefCount",
      "outputs": [
        {
          "name": "",
          "type": "uint256"
        }
      ],
      "payable": false,
      "stateMutability": "view",
      "type": "function"
    },
    {
      "constant": false,
      "inputs": [
        {
          "name": "_repoName",
          "type": "string"
        }
      ],
      "name": "addRepo",
      "outputs": [],
      "payable": false,
      "stateMutability": "nonpayable",
      "type": "function"
    },
    {
      "constant": false,
      "inputs": [
        {
          "name": "_newOwner",
          "type": "address"
        }
      ],
      "name": "transferOwnership",
      "outputs": [],
      "payable": false,
      "stateMutability": "nonpayable",
      "type": "function"
    },
    {
      "constant": true,
      "inputs": [
        {
          "name": "_repoName",
          "type": "string"
        },
        {
          "name": "_refOwner",
          "type": "address"
        },
        {
          "name": "_index",
          "type": "uint256"
        }
      ],
      "name": "getRef",
      "outputs": [
        {
          "name": "",
          "type": "string"
        },
        {
          "name": "",
          "type": "string"
        }
      ],
      "payable": false,
      "stateMutability": "view",
      "type": "function"
    },
    {
      "constant": true,
      "inputs": [
        {
          "name": "",
          "type": "uint256"
        }
      ],
      "name": "repoNames",
      "outputs": [
        {
          "name": "",
          "type": "string"
        }
      ],
      "payable": false,
      "stateMutability": "view",
      "type": "function"
    }
  ],
  "bytecode": "0x6060604052336000806101000a81548173ffffffffffffffffffffffffffffffffffffffff021916908373ffffffffffffffffffffffffffffffffffffffff160217905550612911806100536000396000f3006060604052600436106100a4576000357c0100000000000000000000000000000000000000000000000000000000900463ffffffff1680633196b2cd146100a957806346643c2f1461019857806349ed71ee146102c65780638da5cb5b146103c8578063a10e5dbc1461041d578063c77c881a1461047a578063dda35ea61461050a578063f2fde38b14610567578063fd23cd37146105a0578063fffbd5561461070a575b600080fd5b34156100b457600080fd5b610196600480803590602001908201803590602001908080601f0160208091040260200160405190810160405280939291908181526020018383808284378201915050505050509190803590602001908201803590602001908080601f0160208091040260200160405190810160405280939291908181526020018383808284378201915050505050509190803560ff1690602001909190803590602001908201803590602001908080601f016020809104026020016040519081016040528093929190818152602001838380828437820191505050505050919050506107a6565b005b34156101a357600080fd5b610236600480803590602001908201803590602001908080601f0160208091040260200160405190810160405280939291908181526020018383808284378201915050505050509190803590602001908201803590602001908080601f01602080910402602001604051908101604052809392919081815260200183838082843782019150505050505091905050610aaf565b6040518083600381111561024657fe5b60ff16815260200180602001828103825283818151815260200191508051906020019080838360005b8381101561028a57808201518184015260208101905061026f565b50505050905090810190601f1680156102b75780820380516001836020036101000a031916815260200191505b50935050505060405180910390f35b34156102d157600080fd5b6103c6600480803590602001908201803590602001908080601f0160208091040260200160405190810160405280939291908181526020018383808284378201915050505050509190803573ffffffffffffffffffffffffffffffffffffffff1690602001909190803590602001908201803590602001908080601f0160208091040260200160405190810160405280939291908181526020018383808284378201915050505050509190803590602001908201803590602001908080601f01602080910402602001604051908101604052809392919081815260200183838082843782019150505050505091905050610e83565b005b34156103d357600080fd5b6103db611471565b604051808273ffffffffffffffffffffffffffffffffffffffff1673ffffffffffffffffffffffffffffffffffffffff16815260200191505060405180910390f35b341561042857600080fd5b610478600480803590602001908201803590602001908080601f01602080910402602001604051908101604052809392919081815260200183838082843782019150505050505091905050611496565b005b341561048557600080fd5b6104f4600480803590602001908201803590602001908080601f0160208091040260200160405190810160405280939291908181526020018383808284378201915050505050509190803573ffffffffffffffffffffffffffffffffffffffff16906020019091905050611720565b6040518082815260200191505060405180910390f35b341561051557600080fd5b610565600480803590602001908201803590602001908080601f0160208091040260200160405190810160405280939291908181526020018383808284378201915050505050509190505061199c565b005b341561057257600080fd5b61059e600480803573ffffffffffffffffffffffffffffffffffffffff16906020019091905050611b0c565b005b34156105ab57600080fd5b610623600480803590602001908201803590602001908080601f0160208091040260200160405190810160405280939291908181526020018383808284378201915050505050509190803573ffffffffffffffffffffffffffffffffffffffff16906020019091908035906020019091905050611bd4565b604051808060200180602001838103835285818151815260200191508051906020019080838360005b8381101561066757808201518184015260208101905061064c565b50505050905090810190601f1680156106945780820380516001836020036101000a031916815260200191505b50838103825284818151815260200191508051906020019080838360005b838110156106cd5780820151818401526020810190506106b2565b50505050905090810190601f1680156106fa5780820380516001836020036101000a031916815260200191505b5094505050505060405180910390f35b341561071557600080fd5b61072b60048080359060200190919050506120cb565b6040518080602001828103825283818151815260200191508051906020019080838360005b8381101561076b578082015181840152602081019050610750565b50505050905090810190601f1680156107985780820380516001836020036101000a031916815260200191505b509250505060405180910390f35b8361089c816001805480602002602001604051908101604052809291908181526020016000905b8282101561088a57838290600052602060002090018054600181600116156101000203166002900480601f0160208091040260200160405190810160405280929190818152602001828054600181600116156101000203166002900480156108765780601f1061084b57610100808354040283529160200191610876565b820191906000526020600020905b81548152906001019060200180831161085957829003601f168201915b5050505050815260200190600101906107cd565b5050505061218790919063ffffffff16565b801561095d57506002816040518082805190602001908083835b6020831015156108db57805182526020820191506020810190506020830392506108b6565b6001836020036101000a038019825116818451168082178552505050505050905001915050908152602001604051809103902060000160003373ffffffffffffffffffffffffffffffffffffffff1673ffffffffffffffffffffffffffffffffffffffff16815260200190815260200160002060009054906101000a900460ff165b151561096857600080fd5b604080519081016040528084600381111561097f57fe5b8152602001838152506002866040518082805190602001908083835b6020831015156109c0578051825260208201915060208101905060208303925061099b565b6001836020036101000a0380198251168184511680821785525050505050509050019150509081526020016040518091039020600301856040518082805190602001908083835b602083101515610a2c5780518252602082019150602081019050602083039250610a07565b6001836020036101000a038019825116818451168082178552505050505050905001915050908152602001604051809103902060008201518160000160006101000a81548160ff02191690836003811115610a8357fe5b02179055506020820151816001019080519060200190610aa49291906126b9565b509050505050505050565b6000610ab9612739565b610ac161274d565b84610bb7816001805480602002602001604051908101604052809291908181526020016000905b82821015610ba557838290600052602060002090018054600181600116156101000203166002900480601f016020809104026020016040519081016040528092919081815260200182805460018160011615610100020316600290048015610b915780601f10610b6657610100808354040283529160200191610b91565b820191906000526020600020905b815481529060010190602001808311610b7457829003601f168201915b505050505081526020019060010190610ae8565b5050505061218790919063ffffffff16565b8015610c7857506002816040518082805190602001908083835b602083101515610bf65780518252602082019150602081019050602083039250610bd1565b6001836020036101000a038019825116818451168082178552505050505050905001915050908152602001604051809103902060000160003373ffffffffffffffffffffffffffffffffffffffff1673ffffffffffffffffffffffffffffffffffffffff16815260200190815260200160002060009054906101000a900460ff165b1515610c8357600080fd5b6002866040518082805190602001908083835b602083101515610cbb5780518252602082019150602081019050602083039250610c96565b6001836020036101000a0380198251168184511680821785525050505050509050019150509081526020016040518091039020600301856040518082805190602001908083835b602083101515610d275780518252602082019150602081019050602083039250610d02565b6001836020036101000a03801982511681845116808217855250505050505090500191505090815260200160405180910390206040805190810160405290816000820160009054906101000a900460ff166003811115610d8357fe5b6003811115610d8e57fe5b8152602001600182018054600181600116156101000203166002900480601f016020809104026020016040519081016040528092919081815260200182805460018160011615610100020316600290048015610e2b5780601f10610e0057610100808354040283529160200191610e2b565b820191906000526020600020905b815481529060010190602001808311610e0e57829003601f168201915b5050505050815250509150610e5d6020604051908101604052806000815250836020015161219e90919063ffffffff16565b151515610e6957600080fd5b816000015182602001518090509350935050509250929050565b823373ffffffffffffffffffffffffffffffffffffffff168173ffffffffffffffffffffffffffffffffffffffff161480610ee957503073ffffffffffffffffffffffffffffffffffffffff168173ffffffffffffffffffffffffffffffffffffffff16145b1515610ef457600080fd5b84610fea816001805480602002602001604051908101604052809291908181526020016000905b82821015610fd857838290600052602060002090018054600181600116156101000203166002900480601f016020809104026020016040519081016040528092919081815260200182805460018160011615610100020316600290048015610fc45780601f10610f9957610100808354040283529160200191610fc4565b820191906000526020600020905b815481529060010190602001808311610fa757829003601f168201915b505050505081526020019060010190610f1b565b5050505061218790919063ffffffff16565b80156110ab57506002816040518082805190602001908083835b6020831015156110295780518252602082019150602081019050602083039250611004565b6001836020036101000a038019825116818451168082178552505050505050905001915050908152602001604051809103902060000160003373ffffffffffffffffffffffffffffffffffffffff1673ffffffffffffffffffffffffffffffffffffffff16815260200190815260200160002060009054906101000a900460ff165b15156110b657600080fd5b611254846002886040518082805190602001908083835b6020831015156110f257805182526020820191506020810190506020830392506110cd565b6001836020036101000a038019825116818451168082178552505050505050905001915050908152602001604051809103902060010160008873ffffffffffffffffffffffffffffffffffffffff1673ffffffffffffffffffffffffffffffffffffffff168152602001908152602001600020805480602002602001604051908101604052809291908181526020016000905b8282101561124257838290600052602060002090018054600181600116156101000203166002900480601f01602080910402602001604051908101604052809291908181526020018280546001816001161561010002031660029004801561122e5780601f106112035761010080835404028352916020019161122e565b820191906000526020600020905b81548152906001019060200180831161121157829003601f168201915b505050505081526020019060010190611185565b5050505061218790919063ffffffff16565b1515611340576002866040518082805190602001908083835b602083101515611292578051825260208201915060208101905060208303925061126d565b6001836020036101000a038019825116818451168082178552505050505050905001915050908152602001604051809103902060010160008673ffffffffffffffffffffffffffffffffffffffff1673ffffffffffffffffffffffffffffffffffffffff16815260200190815260200160002080548060010182816113179190612778565b91600052602060002090016000869091909150908051906020019061133d9291906127a4565b50505b826002876040518082805190602001908083835b6020831015156113795780518252602082019150602081019050602083039250611354565b6001836020036101000a0380198251168184511680821785525050505050509050019150509081526020016040518091039020600201856040518082805190602001908083835b6020831015156113e557805182526020820191506020810190506020830392506113c0565b6001836020036101000a038019825116818451168082178552505050505050905001915050908152602001604051809103902060008773ffffffffffffffffffffffffffffffffffffffff1673ffffffffffffffffffffffffffffffffffffffff16815260200190815260200160002090805190602001906114689291906127a4565b50505050505050565b6000809054906101000a900473ffffffffffffffffffffffffffffffffffffffff1681565b8061158c816001805480602002602001604051908101604052809291908181526020016000905b8282101561157a57838290600052602060002090018054600181600116156101000203166002900480601f0160208091040260200160405190810160405280929190818152602001828054600181600116156101000203166002900480156115665780601f1061153b57610100808354040283529160200191611566565b820191906000526020600020905b81548152906001019060200180831161154957829003601f168201915b5050505050815260200190600101906114bd565b5050505061218790919063ffffffff16565b801561164d57506002816040518082805190602001908083835b6020831015156115cb57805182526020820191506020810190506020830392506115a6565b6001836020036101000a038019825116818451168082178552505050505050905001915050908152602001604051809103902060000160003373ffffffffffffffffffffffffffffffffffffffff1673ffffffffffffffffffffffffffffffffffffffff16815260200190815260200160002060009054906101000a900460ff165b151561165857600080fd5b60006002836040518082805190602001908083835b602083101515611692578051825260208201915060208101905060208303925061166d565b6001836020036101000a038019825116818451168082178552505050505050905001915050908152602001604051809103902060000160003373ffffffffffffffffffffffffffffffffffffffff1673ffffffffffffffffffffffffffffffffffffffff16815260200190815260200160002060006101000a81548160ff0219169083151502179055505050565b600082611818816001805480602002602001604051908101604052809291908181526020016000905b8282101561180657838290600052602060002090018054600181600116156101000203166002900480601f0160208091040260200160405190810160405280929190818152602001828054600181600116156101000203166002900480156117f25780601f106117c7576101008083540402835291602001916117f2565b820191906000526020600020905b8154815290600101906020018083116117d557829003601f168201915b505050505081526020019060010190611749565b5050505061218790919063ffffffff16565b80156118d957506002816040518082805190602001908083835b6020831015156118575780518252602082019150602081019050602083039250611832565b6001836020036101000a038019825116818451168082178552505050505050905001915050908152602001604051809103902060000160003373ffffffffffffffffffffffffffffffffffffffff1673ffffffffffffffffffffffffffffffffffffffff16815260200190815260200160002060009054906101000a900460ff165b15156118e457600080fd5b6002846040518082805190602001908083835b60208310151561191c57805182526020820191506020810190506020830392506118f7565b6001836020036101000a038019825116818451168082178552505050505050905001915050908152602001604051809103902060010160008473ffffffffffffffffffffffffffffffffffffffff1673ffffffffffffffffffffffffffffffffffffffff1681526020019081526020016000208054905091505092915050565b611a91816001805480602002602001604051908101604052809291908181526020016000905b82821015611a7f57838290600052602060002090018054600181600116156101000203166002900480601f016020809104026020016040519081016040528092919081815260200182805460018160011615610100020316600290048015611a6b5780601f10611a4057610100808354040283529160200191611a6b565b820191906000526020600020905b815481529060010190602001808311611a4e57829003601f168201915b5050505050815260200190600101906119c2565b5050505061218790919063ffffffff16565b1515611ad45760018054806001018281611aab9190612778565b916000526020600020900160008390919091509080519060200190611ad19291906127a4565b50505b611aff816000809054906101000a900473ffffffffffffffffffffffffffffffffffffffff166121b4565b611b0981336121b4565b50565b6000809054906101000a900473ffffffffffffffffffffffffffffffffffffffff1673ffffffffffffffffffffffffffffffffffffffff163373ffffffffffffffffffffffffffffffffffffffff16141515611b6757600080fd5b611b868173ffffffffffffffffffffffffffffffffffffffff1661233c565b1515611b9157600080fd5b806000806101000a81548173ffffffffffffffffffffffffffffffffffffffff021916908373ffffffffffffffffffffffffffffffffffffffff16021790555050565b611bdc612739565b611be4612739565b611bec612739565b85611ce2816001805480602002602001604051908101604052809291908181526020016000905b82821015611cd057838290600052602060002090018054600181600116156101000203166002900480601f016020809104026020016040519081016040528092919081815260200182805460018160011615610100020316600290048015611cbc5780601f10611c9157610100808354040283529160200191611cbc565b820191906000526020600020905b815481529060010190602001808311611c9f57829003601f168201915b505050505081526020019060010190611c13565b5050505061218790919063ffffffff16565b8015611da357506002816040518082805190602001908083835b602083101515611d215780518252602082019150602081019050602083039250611cfc565b6001836020036101000a038019825116818451168082178552505050505050905001915050908152602001604051809103902060000160003373ffffffffffffffffffffffffffffffffffffffff1673ffffffffffffffffffffffffffffffffffffffff16815260200190815260200160002060009054906101000a900460ff165b1515611dae57600080fd5b6002876040518082805190602001908083835b602083101515611de65780518252602082019150602081019050602083039250611dc1565b6001836020036101000a038019825116818451168082178552505050505050905001915050908152602001604051809103902060010160008773ffffffffffffffffffffffffffffffffffffffff1673ffffffffffffffffffffffffffffffffffffffff16815260200190815260200160002085815481101515611e6657fe5b90600052602060002090018054600181600116156101000203166002900480601f016020809104026020016040519081016040528092919081815260200182805460018160011615610100020316600290048015611f055780601f10611eda57610100808354040283529160200191611f05565b820191906000526020600020905b815481529060010190602001808311611ee857829003601f168201915b50505050509150816002886040518082805190602001908083835b602083101515611f455780518252602082019150602081019050602083039250611f20565b6001836020036101000a0380198251168184511680821785525050505050509050019150509081526020016040518091039020600201836040518082805190602001908083835b602083101515611fb15780518252602082019150602081019050602083039250611f8c565b6001836020036101000a038019825116818451168082178552505050505050905001915050908152602001604051809103902060008873ffffffffffffffffffffffffffffffffffffffff1673ffffffffffffffffffffffffffffffffffffffff168152602001908152602001600020808054600181600116156101000203166002900480601f0160208091040260200160405190810160405280929190818152602001828054600181600116156101000203166002900480156120b65780601f1061208b576101008083540402835291602001916120b6565b820191906000526020600020905b81548152906001019060200180831161209957829003601f168201915b50505050509050935093505050935093915050565b6001818154811015156120da57fe5b90600052602060002090016000915090508054600181600116156101000203166002900480601f01602080910402602001604051908101604052809291908181526020018280546001816001161561010002031660029004801561217f5780601f106121545761010080835404028352916020019161217f565b820191906000526020600020905b81548152906001019060200180831161216257829003601f168201915b505050505081565b6000806121948484612375565b1215905092915050565b6000806121ab84846123f5565b14905092915050565b6002826040518082805190602001908083835b6020831015156121ec57805182526020820191506020810190506020830392506121c7565b6001836020036101000a038019825116818451168082178552505050505050905001915050908152602001604051809103902060000160008273ffffffffffffffffffffffffffffffffffffffff1673ffffffffffffffffffffffffffffffffffffffff16815260200190815260200160002060009054906101000a900460ff1615156123385760016002836040518082805190602001908083835b6020831015156122ad5780518252602082019150602081019050602083039250612288565b6001836020036101000a038019825116818451168082178552505050505050905001915050908152602001604051809103902060000160008373ffffffffffffffffffffffffffffffffffffffff1673ffffffffffffffffffffffffffffffffffffffff16815260200190815260200160002060006101000a81548160ff0219169083151502179055505b5050565b60008073ffffffffffffffffffffffffffffffffffffffff168273ffffffffffffffffffffffffffffffffffffffff1614159050919050565b600080600090505b83518110156123ca576123b083858381518110151561239857fe5b9060200190602002015161219e90919063ffffffff16565b156123bd578091506123ee565b808060010191505061237d565b7fffffffffffffffffffffffffffffffffffffffffffffffffffffffffffffffff91505b5092915050565b60006123ff612824565b612407612824565b60008086935085925083519150818351101561242257825191505b600090505b8181101561266557828181518110151561243d57fe5b9060200101517f010000000000000000000000000000000000000000000000000000000000000090047f0100000000000000000000000000000000000000000000000000000000000000027effffffffffffffffffffffffffffffffffffffffffffffffffffffffffffff191684828151811015156124b857fe5b9060200101517f010000000000000000000000000000000000000000000000000000000000000090047f0100000000000000000000000000000000000000000000000000000000000000027effffffffffffffffffffffffffffffffffffffffffffffffffffffffffffff19161015612553577fffffffffffffffffffffffffffffffffffffffffffffffffffffffffffffffff94506126af565b828181518110151561256157fe5b9060200101517f010000000000000000000000000000000000000000000000000000000000000090047f0100000000000000000000000000000000000000000000000000000000000000027effffffffffffffffffffffffffffffffffffffffffffffffffffffffffffff191684828151811015156125dc57fe5b9060200101517f010000000000000000000000000000000000000000000000000000000000000090047f0100000000000000000000000000000000000000000000000000000000000000027effffffffffffffffffffffffffffffffffffffffffffffffffffffffffffff1916111561265857600194506126af565b8080600101915050612427565b825184511015612697577fffffffffffffffffffffffffffffffffffffffffffffffffffffffffffffffff94506126af565b8251845111156126aa57600194506126af565b600094505b5050505092915050565b828054600181600116156101000203166002900490600052602060002090601f016020900481019282601f106126fa57805160ff1916838001178555612728565b82800160010185558215612728579182015b8281111561272757825182559160200191906001019061270c565b5b5090506127359190612838565b5090565b602060405190810160405280600081525090565b60408051908101604052806000600381111561276557fe5b815260200161277261285d565b81525090565b81548183558181151161279f5781836000526020600020918201910161279e9190612871565b5b505050565b828054600181600116156101000203166002900490600052602060002090601f016020900481019282601f106127e557805160ff1916838001178555612813565b82800160010185558215612813579182015b828111156128125782518255916020019190600101906127f7565b5b5090506128209190612838565b5090565b602060405190810160405280600081525090565b61285a91905b8082111561285657600081600090555060010161283e565b5090565b90565b602060405190810160405280600081525090565b61289a91905b80821115612896576000818161288d919061289d565b50600101612877565b5090565b90565b50805460018160011615610100020316600290046000825580601f106128c357506128e2565b601f0160209004906000526020600020908101906128e19190612838565b5b505600a165627a7a7230582006b1e785ca41c963d1ad3b607f00d2ffb0e2c05cdce9d0a0a542f796028ecf8e0029",
  "source": "pragma solidity ^0.4.17;\n\nimport './lib/AddressUtils.sol';\nimport './lib/StringUtils.sol';\nimport './lib/StringArrayUtils.sol';\nimport './lib/Ownable.sol';\n\ncontract GitTool is Ownable {\n  using AddressUtils for address;\n  using StringUtils for string;\n  using StringArrayUtils for string[];\n\n  enum ObjectType { tag, commit, tree, blob }\n  struct GitObject {\n    ObjectType objectType;\n    string ipfsHash;\n  }\n\n  struct Repo {\n    mapping(address => bool) owners;\n    mapping(address => string[]) refNames;\n    mapping(string => mapping(address => string)) refs;\n    mapping(string => GitObject) objects;\n  }\n\n  string[] public repoNames;\n  mapping(string => Repo) repos;\n\n  modifier repoExists(string _repoName) {\n    require(repoNames.contains(_repoName) && repos[_repoName].owners[msg.sender]);\n    _;\n  }\n\n  modifier onlyRefOwner(address _refOwner) {\n    // TEMPORARY! This allows anyone to push to the contract's remote\n    require(_refOwner == msg.sender || _refOwner == address(this));\n    // require(_refOwner == msg.sender);\n    _;\n  }\n\n  function _addRepoOwner(string _repoName, address _repoOwner) private {\n    if (!repos[_repoName].owners[_repoOwner]) {\n      repos[_repoName].owners[_repoOwner] = true;\n    }\n  }\n\n  function addRepo(string _repoName) public{\n    if (!repoNames.contains(_repoName)) {\n      repoNames.push(_repoName);\n    }\n\n    _addRepoOwner(_repoName, owner);\n    _addRepoOwner(_repoName, msg.sender);\n  }\n\n  function removeRepo(string _repoName) public repoExists(_repoName) {\n    repos[_repoName].owners[msg.sender] = false;\n  }\n\n  function addObject(string _repoName, string _gitHash, ObjectType _type, string _ipfsHash) public repoExists(_repoName) {\n    repos[_repoName].objects[_gitHash] = GitObject(_type, _ipfsHash);\n  }\n\n  function getObject(string _repoName, string _gitHash) public repoExists(_repoName) view returns (ObjectType, string) {\n    GitObject memory _object = repos[_repoName].objects[_gitHash];\n    require(!_object.ipfsHash.equal(\"\"));\n    return (_object.objectType, _object.ipfsHash);\n  }\n\n  function setRef(string _repoName, address _refOwner, string _refName, string _gitHash) public onlyRefOwner(_refOwner) repoExists(_repoName) {\n    if (!repos[_repoName].refNames[_refOwner].contains(_refName)) {\n      repos[_repoName].refNames[_refOwner].push(_refName);\n    }\n\n    repos[_repoName].refs[_refName][_refOwner] = _gitHash;\n  }\n\n//  function removeRef(string _repoName, address _refOwner, string _refName) public onlyRefOwner(_refOwner) repoExists(_repoName) {\n//    require(repos[_repoName].refNames[_refOwner].contains(_refName));\n//    repos[_repoName].refNames[_refOwner].remove(_refName);\n//  }\n\n  function getRef(string _repoName, address _refOwner, uint _index) public repoExists(_repoName) view returns (string, string) {\n    string memory _refName = repos[_repoName].refNames[_refOwner][_index];\n    return (_refName, repos[_repoName].refs[_refName][_refOwner]);\n  }\n\n  function getRefCount(string _repoName, address _refOwner) repoExists(_repoName) public view returns (uint) {\n    return repos[_repoName].refNames[_refOwner].length;\n  }\n\n}\n",
  "sourcePath": "/Users/john/distense-ui/node_modules/distense-contracts/contracts/GitTool.sol",
  "compiler": {
    "name": "solc",
    "version": "0.4.18+commit.9cf6e910.Emscripten.clang"
  },
  "schemaVersion": "1.0.1",
  "updatedAt": "2017-12-15T06:19:47.763Z"
}