{
  "contractName": "GitTool",
  "abi": [
    {
      "constant": false,
      "inputs": [
        {
          "name": "_repoName",
          "type": "string"
        },
        {
          "name": "_gitHash",
          "type": "string"
        },
        {
          "name": "_type",
          "type": "uint8"
        },
        {
          "name": "_ipfsHash",
          "type": "string"
        }
      ],
      "name": "addObject",
      "outputs": [],
      "payable": false,
      "stateMutability": "nonpayable",
      "type": "function"
    },
    {
      "constant": true,
      "inputs": [
        {
          "name": "_repoName",
          "type": "string"
        },
        {
          "name": "_gitHash",
          "type": "string"
        }
      ],
      "name": "getObject",
      "outputs": [
        {
          "name": "",
          "type": "uint8"
        },
        {
          "name": "",
          "type": "string"
        }
      ],
      "payable": false,
      "stateMutability": "view",
      "type": "function"
    },
    {
      "constant": false,
      "inputs": [
        {
          "name": "_repoName",
          "type": "string"
        },
        {
          "name": "_refOwner",
          "type": "address"
        },
        {
          "name": "_refName",
          "type": "string"
        },
        {
          "name": "_gitHash",
          "type": "string"
        }
      ],
      "name": "setRef",
      "outputs": [],
      "payable": false,
      "stateMutability": "nonpayable",
      "type": "function"
    },
    {
      "constant": true,
      "inputs": [],
      "name": "owner",
      "outputs": [
        {
          "name": "",
          "type": "address"
        }
      ],
      "payable": false,
      "stateMutability": "view",
      "type": "function"
    },
    {
      "constant": false,
      "inputs": [
        {
          "name": "_repoName",
          "type": "string"
        }
      ],
      "name": "removeRepo",
      "outputs": [],
      "payable": false,
      "stateMutability": "nonpayable",
      "type": "function"
    },
    {
      "constant": true,
      "inputs": [
        {
          "name": "_repoName",
          "type": "string"
        },
        {
          "name": "_refOwner",
          "type": "address"
        }
      ],
      "name": "getRefCount",
      "outputs": [
        {
          "name": "",
          "type": "uint256"
        }
      ],
      "payable": false,
      "stateMutability": "view",
      "type": "function"
    },
    {
      "constant": false,
      "inputs": [
        {
          "name": "_repoName",
          "type": "string"
        }
      ],
      "name": "addRepo",
      "outputs": [],
      "payable": false,
      "stateMutability": "nonpayable",
      "type": "function"
    },
    {
      "constant": false,
      "inputs": [
        {
          "name": "_newOwner",
          "type": "address"
        }
      ],
      "name": "transferOwnership",
      "outputs": [],
      "payable": false,
      "stateMutability": "nonpayable",
      "type": "function"
    },
    {
      "constant": true,
      "inputs": [
        {
          "name": "_repoName",
          "type": "string"
        },
        {
          "name": "_refOwner",
          "type": "address"
        },
        {
          "name": "_index",
          "type": "uint256"
        }
      ],
      "name": "getRef",
      "outputs": [
        {
          "name": "",
          "type": "string"
        },
        {
          "name": "",
          "type": "string"
        }
      ],
      "payable": false,
      "stateMutability": "view",
      "type": "function"
    },
    {
      "constant": true,
      "inputs": [
        {
          "name": "",
          "type": "uint256"
        }
      ],
      "name": "repoNames",
      "outputs": [
        {
          "name": "",
          "type": "string"
        }
      ],
      "payable": false,
      "stateMutability": "view",
      "type": "function"
    }
  ],
  "bytecode": "0x606060405260008054600160a060020a033316600160a060020a03199091161790556120f0806100306000396000f300606060405236156100a15763ffffffff7c01000000000000000000000000000000000000000000000000000000006000350416633196b2cd81146100a657806346643c2f1461018957806349ed71ee146102a95780638da5cb5b14610390578063a10e5dbc146103bf578063c77c881a14610410578063dda35ea61461047e578063f2fde38b146104cf578063fd23cd37146104ee578063fffbd55614610630575b600080fd5b34156100b157600080fd5b61018760046024813581810190830135806020601f8201819004810201604051908101604052818152929190602084018383808284378201915050505050509190803590602001908201803590602001908080601f01602080910402602001604051908101604052818152929190602084018383808284378201915050505050509190803560ff1690602001909190803590602001908201803590602001908080601f0160208091040260200160405190810160405281815292919060208401838380828437509496506106bd95505050505050565b005b341561019457600080fd5b61021c60046024813581810190830135806020601f8201819004810201604051908101604052818152929190602084018383808284378201915050505050509190803590602001908201803590602001908080601f01602080910402602001604051908101604052818152929190602084018383808284375094965061097395505050505050565b6040518083600381111561022c57fe5b60ff16815260200180602001828103825283818151815260200191508051906020019080838360005b8381101561026d578082015183820152602001610255565b50505050905090810190601f16801561029a5780820380516001836020036101000a031916815260200191505b50935050505060405180910390f35b34156102b457600080fd5b61018760046024813581810190830135806020601f82018190048102016040519081016040528181529291906020840183838082843782019150505050505091908035600160a060020a031690602001909190803590602001908201803590602001908080601f01602080910402602001604051908101604052818152929190602084018383808284378201915050505050509190803590602001908201803590602001908080601f016020809104026020016040519081016040528181529291906020840183838082843750949650610cdb95505050505050565b341561039b57600080fd5b6103a36111b0565b604051600160a060020a03909116815260200160405180910390f35b34156103ca57600080fd5b61018760046024813581810190830135806020601f820181900481020160405190810160405281815292919060208401838380828437509496506111bf95505050505050565b341561041b57600080fd5b61046c60046024813581810190830135806020601f8201819004810201604051908101604052818152929190602084018383808284375094965050509235600160a060020a031692506113cb915050565b60405190815260200160405180910390f35b341561048957600080fd5b61018760046024813581810190830135806020601f820181900481020160405190810160405281815292919060208401838380828437509496506115d195505050505050565b34156104da57600080fd5b610187600160a060020a036004351661170c565b34156104f957600080fd5b61054f60046024813581810190830135806020601f8201819004810201604051908101604052818152929190602084018383808284375094965050600160a060020a038535169460200135935061177392505050565b604051808060200180602001838103835285818151815260200191508051906020019080838360005b83811015610590578082015183820152602001610578565b50505050905090810190601f1680156105bd5780820380516001836020036101000a031916815260200191505b50838103825284818151815260200191508051906020019080838360005b838110156105f35780820151838201526020016105db565b50505050905090810190601f1680156106205780820380516001836020036101000a031916815260200191505b5094505050505060405180910390f35b341561063b57600080fd5b610646600435611bcf565b60405160208082528190810183818151815260200191508051906020019080838360005b8381101561068257808201518382015260200161066a565b50505050905090810190601f1680156106af5780820380516001836020036101000a031916815260200191505b509250505060405180910390f35b836107b181600180548060200260200160405190810160405281815291906000602084015b8282101561079f57838290600052602060002090018054600181600116156101000203166002900480601f01602080910402602001604051908101604052809291908181526020018280546001816001161561010002031660029004801561078b5780601f106107605761010080835404028352916020019161078b565b820191906000526020600020905b81548152906001019060200180831161076e57829003601f168201915b5050505050815260200190600101906106e2565b50505050611c8a90919063ffffffff16565b801561083c57506002816040518082805190602001908083835b602083106107ea5780518252601f1990920191602091820191016107cb565b6001836020036101000a038019825116818451168082178552505050505050905001915050908152602001604051908190039020600160a060020a0333166000908152602091909152604090205460ff165b151561084757600080fd5b604080519081016040528084600381111561085e57fe5b81526020018390526002866040518082805190602001908083835b602083106108985780518252601f199092019160209182019101610879565b6001836020036101000a0380198251168184511680821785525050505050509050019150509081526020016040518091039020600301856040518082805190602001908083835b602083106108fe5780518252601f1990920191602091820191016108df565b6001836020036101000a03801982511681845116808217855250505050505090500191505090815260200160405190819003902081518154829060ff1916600183600381111561094a57fe5b0217905550602082015181600101908051610969929160200190611f68565b5050505050505050565b600061097d611fe6565b610985611ff8565b84610a6781600180548060200260200160405190810160405281815291906000602084015b8282101561079f57838290600052602060002090018054600181600116156101000203166002900480601f016020809104026020016040519081016040528092919081815260200182805460018160011615610100020316600290048015610a535780601f10610a2857610100808354040283529160200191610a53565b820191906000526020600020905b815481529060010190602001808311610a3657829003601f168201915b5050505050815260200190600101906109aa565b8015610af257506002816040518082805190602001908083835b60208310610aa05780518252601f199092019160209182019101610a81565b6001836020036101000a038019825116818451168082178552505050505050905001915050908152602001604051908190039020600160a060020a0333166000908152602091909152604090205460ff165b1515610afd57600080fd5b6002866040518082805190602001908083835b60208310610b2f5780518252601f199092019160209182019101610b10565b6001836020036101000a0380198251168184511680821785525050505050509050019150509081526020016040518091039020600301856040518082805190602001908083835b60208310610b955780518252601f199092019160209182019101610b76565b6001836020036101000a0380198251168184511680821785525050505050509050019150509081526020016040518091039020604080519081016040528154909190829060ff166003811115610be757fe5b6003811115610bf257fe5b8152602001600182018054600181600116156101000203166002900480601f016020809104026020016040519081016040528092919081815260200182805460018160011615610100020316600290048015610c8f5780601f10610c6457610100808354040283529160200191610c8f565b820191906000526020600020905b815481529060010190602001808311610c7257829003601f168201915b5050505050815250509150610cbd60206040519081016040526000815260208401519063ffffffff611ca016565b15610cc757600080fd5b815182602001519097909650945050505050565b8233600160a060020a031681600160a060020a03161480610d0d575030600160a060020a031681600160a060020a0316145b1515610d1857600080fd5b84610dfa81600180548060200260200160405190810160405281815291906000602084015b8282101561079f57838290600052602060002090018054600181600116156101000203166002900480601f016020809104026020016040519081016040528092919081815260200182805460018160011615610100020316600290048015610de65780601f10610dbb57610100808354040283529160200191610de6565b820191906000526020600020905b815481529060010190602001808311610dc957829003601f168201915b505050505081526020019060010190610d3d565b8015610e8557506002816040518082805190602001908083835b60208310610e335780518252601f199092019160209182019101610e14565b6001836020036101000a038019825116818451168082178552505050505050905001915050908152602001604051908190039020600160a060020a0333166000908152602091909152604090205460ff165b1515610e9057600080fd5b610ffa846002886040518082805190602001908083835b60208310610ec65780518252601f199092019160209182019101610ea7565b6001836020036101000a0380198251168184511680821785525050505050509050019150509081526020016040518091039020600101600088600160a060020a0316600160a060020a0316815260200190815260200160002080548060200260200160405190810160405281815291906000602084015b8282101561079f57838290600052602060002090018054600181600116156101000203166002900480601f016020809104026020016040519081016040528092919081815260200182805460018160011615610100020316600290048015610fe65780601f10610fbb57610100808354040283529160200191610fe6565b820191906000526020600020905b815481529060010190602001808311610fc957829003601f168201915b505050505081526020019060010190610f3d565b15156110b0576002866040518082805190602001908083835b602083106110325780518252601f199092019160209182019101611013565b6001836020036101000a038019825116818451168082178552505050505050905001915050908152602001604051908190039020600160a060020a03861660009081526001918201602052604090208054909181016110918382612017565b60009283526020909220018580516110ad929160200190611f68565b50505b826002876040518082805190602001908083835b602083106110e35780518252601f1990920191602091820191016110c4565b6001836020036101000a0380198251168184511680821785525050505050509050019150509081526020016040518091039020600201856040518082805190602001908083835b602083106111495780518252601f19909201916020918201910161112a565b6001836020036101000a038019825116818451168082178552505050505050905001915050908152602001604051908190039020600160a060020a0387166000908152602091909152604090209080516111a7929160200190611f68565b50505050505050565b600054600160a060020a031681565b806112a181600180548060200260200160405190810160405281815291906000602084015b8282101561079f57838290600052602060002090018054600181600116156101000203166002900480601f01602080910402602001604051908101604052809291908181526020018280546001816001161561010002031660029004801561128d5780601f106112625761010080835404028352916020019161128d565b820191906000526020600020905b81548152906001019060200180831161127057829003601f168201915b5050505050815260200190600101906111e4565b801561132c57506002816040518082805190602001908083835b602083106112da5780518252601f1990920191602091820191016112bb565b6001836020036101000a038019825116818451168082178552505050505050905001915050908152602001604051908190039020600160a060020a0333166000908152602091909152604090205460ff165b151561133757600080fd5b60006002836040518082805190602001908083835b6020831061136b5780518252601f19909201916020918201910161134c565b6001836020036101000a03801982511681845116808217855250505050505090500191505090815260200160405190819003902033600160a060020a0316600090815260209190915260409020805460ff19169115159190911790555050565b6000826114af81600180548060200260200160405190810160405281815291906000602084015b8282101561079f57838290600052602060002090018054600181600116156101000203166002900480601f01602080910402602001604051908101604052809291908181526020018280546001816001161561010002031660029004801561149b5780601f106114705761010080835404028352916020019161149b565b820191906000526020600020905b81548152906001019060200180831161147e57829003601f168201915b5050505050815260200190600101906113f2565b801561153a57506002816040518082805190602001908083835b602083106114e85780518252601f1990920191602091820191016114c9565b6001836020036101000a038019825116818451168082178552505050505050905001915050908152602001604051908190039020600160a060020a0333166000908152602091909152604090205460ff165b151561154557600080fd5b6002846040518082805190602001908083835b602083106115775780518252601f199092019160209182019101611558565b6001836020036101000a038019825116818451168082178552505050505050905001915050908152602001604051908190039020600160a060020a03841660009081526001909101602052604090205491505b5092915050565b6116b281600180548060200260200160405190810160405281815291906000602084015b8282101561079f57838290600052602060002090018054600181600116156101000203166002900480601f01602080910402602001604051908101604052809291908181526020018280546001816001161561010002031660029004801561169e5780601f106116735761010080835404028352916020019161169e565b820191906000526020600020905b81548152906001019060200180831161168157829003601f168201915b5050505050815260200190600101906115f5565b15156116e857600180548082016116c98382612017565b60009283526020909220018280516116e5929160200190611f68565b50505b6000546116ff908290600160a060020a0316611cb4565b6117098133611cb4565b50565b60005433600160a060020a0390811691161461172757600080fd5b61173981600160a060020a0316611dd2565b151561174457600080fd5b6000805473ffffffffffffffffffffffffffffffffffffffff1916600160a060020a0392909216919091179055565b61177b611fe6565b611783611fe6565b61178b611fe6565b8561186d81600180548060200260200160405190810160405281815291906000602084015b8282101561079f57838290600052602060002090018054600181600116156101000203166002900480601f0160208091040260200160405190810160405280929190818152602001828054600181600116156101000203166002900480156118595780601f1061182e57610100808354040283529160200191611859565b820191906000526020600020905b81548152906001019060200180831161183c57829003601f168201915b5050505050815260200190600101906117b0565b80156118f857506002816040518082805190602001908083835b602083106118a65780518252601f199092019160209182019101611887565b6001836020036101000a038019825116818451168082178552505050505050905001915050908152602001604051908190039020600160a060020a0333166000908152602091909152604090205460ff165b151561190357600080fd5b6002876040518082805190602001908083835b602083106119355780518252601f199092019160209182019101611916565b6001836020036101000a038019825116818451168082178552505050505050905001915050908152602001604051908190039020600160a060020a038716600090815260019091016020526040902080548690811061199057fe5b90600052602060002090018054600181600116156101000203166002900480601f016020809104026020016040519081016040528092919081815260200182805460018160011615610100020316600290048015611a2f5780601f10611a0457610100808354040283529160200191611a2f565b820191906000526020600020905b815481529060010190602001808311611a1257829003601f168201915b50505050509150816002886040518082805190602001908083835b60208310611a695780518252601f199092019160209182019101611a4a565b6001836020036101000a0380198251168184511680821785525050505050509050019150509081526020016040518091039020600201836040518082805190602001908083835b60208310611acf5780518252601f199092019160209182019101611ab0565b6001836020036101000a0380198251168184511680821785525050505050509050019150509081526020016040518091039020600088600160a060020a0316600160a060020a03168152602001908152602001600020808054600181600116156101000203166002900480601f016020809104026020016040519081016040528092919081815260200182805460018160011615610100020316600290048015611bba5780601f10611b8f57610100808354040283529160200191611bba565b820191906000526020600020905b815481529060010190602001808311611b9d57829003601f168201915b50505050509050935093505050935093915050565b6001805482908110611bdd57fe5b90600052602060002090016000915090508054600181600116156101000203166002900480601f016020809104026020016040519081016040528092919081815260200182805460018160011615610100020316600290048015611c825780601f10611c5757610100808354040283529160200191611c82565b820191906000526020600020905b815481529060010190602001808311611c6557829003601f168201915b505050505081565b600080611c978484611de0565b12159392505050565b6000611cac8383611e33565b159392505050565b6002826040518082805190602001908083835b60208310611ce65780518252601f199092019160209182019101611cc7565b6001836020036101000a038019825116818451168082178552505050505050905001915050908152602001604051908190039020600160a060020a0382166000908152602091909152604090205460ff161515611dce5760016002836040518082805190602001908083835b60208310611d715780518252601f199092019160209182019101611d52565b6001836020036101000a038019825116818451168082178552505050505050905001915050908152602001604051908190039020600160a060020a038316600090815260209190915260409020805460ff19169115159190911790555b5050565b600160a060020a0316151590565b6000805b8351811015611e2857611e1383858381518110611dfd57fe5b906020019060200201519063ffffffff611ca016565b15611e20578091506115ca565b600101611de4565b506000199392505050565b6000611e3d611fe6565b611e45611fe6565b5083905082600080835191508183511015611e5f57825191505b5060005b81811015611f3257828181518110611e7757fe5b016020015160f860020a900460f860020a02600160f860020a031916848281518110611e9f57fe5b016020015160f860020a900460f860020a02600160f860020a0319161015611ecb576000199450611f5e565b828181518110611ed757fe5b016020015160f860020a900460f860020a02600160f860020a031916848281518110611eff57fe5b016020015160f860020a900460f860020a02600160f860020a0319161115611f2a5760019450611f5e565b600101611e63565b825184511015611f46576000199450611f5e565b825184511115611f595760019450611f5e565b600094505b5050505092915050565b828054600181600116156101000203166002900490600052602060002090601f016020900481019282601f10611fa957805160ff1916838001178555611fd6565b82800160010185558215611fd6579182015b82811115611fd6578251825591602001919060010190611fbb565b50611fe2929150612040565b5090565b60206040519081016040526000815290565b604080519081016040528060008152602001612012611fe6565b905290565b81548183558181151161203b5760008381526020902061203b91810190830161205d565b505050565b61205a91905b80821115611fe25760008155600101612046565b90565b61205a91905b80821115611fe25760006120778282612080565b50600101612063565b50805460018160011615610100020316600290046000825580601f106120a65750611709565b601f01602090049060005260206000209081019061170991906120405600a165627a7a72305820fbb31198fbfab10569047dbae1e38e10e80e5ea9ab716ae09d0d24175cf2a1b00029",
  "source": "pragma solidity ^0.4.17;\n\nimport './lib/AddressUtils.sol';\nimport './lib/StringUtils.sol';\nimport './lib/StringArrayUtils.sol';\nimport './lib/Ownable.sol';\n\ncontract GitTool is Ownable {\n  using AddressUtils for address;\n  using StringUtils for string;\n  using StringArrayUtils for string[];\n\n  enum ObjectType { tag, commit, tree, blob }\n  struct GitObject {\n    ObjectType objectType;\n    string ipfsHash;\n  }\n\n  struct Repo {\n    mapping(address => bool) owners;\n    mapping(address => string[]) refNames;\n    mapping(string => mapping(address => string)) refs;\n    mapping(string => GitObject) objects;\n  }\n\n  string[] public repoNames;\n  mapping(string => Repo) repos;\n\n  modifier repoExists(string _repoName) {\n    require(repoNames.contains(_repoName) && repos[_repoName].owners[msg.sender]);\n    _;\n  }\n\n  modifier onlyRefOwner(address _refOwner) {\n    // TEMPORARY! This allows anyone to push to the contract's remote\n    require(_refOwner == msg.sender || _refOwner == address(this));\n    // require(_refOwner == msg.sender);\n    _;\n  }\n\n  function _addRepoOwner(string _repoName, address _repoOwner) private {\n    if (!repos[_repoName].owners[_repoOwner]) {\n      repos[_repoName].owners[_repoOwner] = true;\n    }\n  }\n\n  function addRepo(string _repoName) public{\n    if (!repoNames.contains(_repoName)) {\n      repoNames.push(_repoName);\n    }\n\n    _addRepoOwner(_repoName, owner);\n    _addRepoOwner(_repoName, msg.sender);\n  }\n\n  function removeRepo(string _repoName) public repoExists(_repoName) {\n    repos[_repoName].owners[msg.sender] = false;\n  }\n\n  function addObject(string _repoName, string _gitHash, ObjectType _type, string _ipfsHash) public repoExists(_repoName) {\n    repos[_repoName].objects[_gitHash] = GitObject(_type, _ipfsHash);\n  }\n\n  function getObject(string _repoName, string _gitHash) public repoExists(_repoName) view returns (ObjectType, string) {\n    GitObject memory _object = repos[_repoName].objects[_gitHash];\n    require(!_object.ipfsHash.equal(\"\"));\n    return (_object.objectType, _object.ipfsHash);\n  }\n\n  function setRef(string _repoName, address _refOwner, string _refName, string _gitHash) public onlyRefOwner(_refOwner) repoExists(_repoName) {\n    if (!repos[_repoName].refNames[_refOwner].contains(_refName)) {\n      repos[_repoName].refNames[_refOwner].push(_refName);\n    }\n\n    repos[_repoName].refs[_refName][_refOwner] = _gitHash;\n  }\n\n//  function removeRef(string _repoName, address _refOwner, string _refName) public onlyRefOwner(_refOwner) repoExists(_repoName) {\n//    require(repos[_repoName].refNames[_refOwner].contains(_refName));\n//    repos[_repoName].refNames[_refOwner].remove(_refName);\n//  }\n\n  function getRef(string _repoName, address _refOwner, uint _index) public repoExists(_repoName) view returns (string, string) {\n    string memory _refName = repos[_repoName].refNames[_refOwner][_index];\n    return (_refName, repos[_repoName].refs[_refName][_refOwner]);\n  }\n\n  function getRefCount(string _repoName, address _refOwner) repoExists(_repoName) public view returns (uint) {\n    return repos[_repoName].refNames[_refOwner].length;\n  }\n\n}\n",
  "sourcePath": "/Users/john/distense-contracts/contracts/GitTool.sol",
  "schemaVersion": "1.0.0",
  "updatedAt": "2017-11-24T23:52:34.022Z"
}