{
  "contractName": "Migrations",
  "abi": [
    {
      "constant": false,
      "inputs": [
        {
          "name": "new_address",
          "type": "address"
        }
      ],
      "name": "upgrade",
      "outputs": [],
      "payable": false,
      "stateMutability": "nonpayable",
      "type": "function"
    },
    {
      "constant": true,
      "inputs": [],
      "name": "last_completed_migration",
      "outputs": [
        {
          "name": "",
          "type": "uint256"
        }
      ],
      "payable": false,
      "stateMutability": "view",
      "type": "function"
    },
    {
      "constant": true,
      "inputs": [],
      "name": "owner",
      "outputs": [
        {
          "name": "",
          "type": "address"
        }
      ],
      "payable": false,
      "stateMutability": "view",
      "type": "function"
    },
    {
      "constant": false,
      "inputs": [
        {
          "name": "_newOwner",
          "type": "address"
        }
      ],
      "name": "transferOwnership",
      "outputs": [],
      "payable": false,
      "stateMutability": "nonpayable",
      "type": "function"
    },
    {
      "constant": false,
      "inputs": [
        {
          "name": "completed",
          "type": "uint256"
        }
      ],
      "name": "setCompleted",
      "outputs": [],
      "payable": false,
      "stateMutability": "nonpayable",
      "type": "function"
    }
  ],
  "bytecode": "0x606060405260008054600160a060020a033316600160a060020a0319909116179055610280806100306000396000f300606060405263ffffffff7c01000000000000000000000000000000000000000000000000000000006000350416630900f0108114610068578063445df0ac146100895780638da5cb5b146100ae578063f2fde38b146100dd578063fdacd576146100fc57600080fd5b341561007357600080fd5b610087600160a060020a0360043516610112565b005b341561009457600080fd5b61009c6101aa565b60405190815260200160405180910390f35b34156100b957600080fd5b6100c16101b0565b604051600160a060020a03909116815260200160405180910390f35b34156100e857600080fd5b610087600160a060020a03600435166101bf565b341561010757600080fd5b610087600435610226565b6000805433600160a060020a0390811691161461012e57600080fd5b81905080600160a060020a031663fdacd5766001546040517c010000000000000000000000000000000000000000000000000000000063ffffffff84160281526004810191909152602401600060405180830381600087803b151561019257600080fd5b6102c65a03f115156101a357600080fd5b5050505050565b60015481565b600054600160a060020a031681565b60005433600160a060020a039081169116146101da57600080fd5b6101ec81600160a060020a0316610246565b15156101f757600080fd5b6000805473ffffffffffffffffffffffffffffffffffffffff1916600160a060020a0392909216919091179055565b60005433600160a060020a0390811691161461024157600080fd5b600155565b600160a060020a03161515905600a165627a7a72305820b3b7612d3e624a29064a2048eb443ac82ddfa2da77b7289ceb7eb3f1a9dbaf510029",
  "source": "pragma solidity ^0.4.17;\n\nimport './lib/Ownable.sol';\n\ncontract Migrations is Ownable {\n  uint public last_completed_migration;\n\n  function setCompleted(uint completed) public onlyOwner {\n    last_completed_migration = completed;\n  }\n\n  function upgrade(address new_address) public onlyOwner {\n    Migrations upgraded = Migrations(new_address);\n    upgraded.setCompleted(last_completed_migration);\n  }\n}\n",
  "sourcePath": "/Users/john/contracts/contracts/Migrations.sol",
  "schemaVersion": "1.0.0",
  "updatedAt": "2017-10-30T21:38:00.697Z"
}