{
  "contractName": "PullRequests",
  "abi": [
    {
      "constant": true,
      "inputs": [],
      "name": "TasksAddress",
      "outputs": [
        {
          "name": "",
          "type": "address"
        }
      ],
      "payable": false,
      "stateMutability": "view",
      "type": "function"
    },
    {
      "constant": true,
      "inputs": [],
      "name": "DistenseAddress",
      "outputs": [
        {
          "name": "",
          "type": "address"
        }
      ],
      "payable": false,
      "stateMutability": "view",
      "type": "function"
    },
    {
      "constant": false,
      "inputs": [
        {
          "name": "_address",
          "type": "address"
        }
      ],
      "name": "revokeApproval",
      "outputs": [],
      "payable": false,
      "stateMutability": "nonpayable",
      "type": "function"
    },
    {
      "constant": true,
      "inputs": [
        {
          "name": "",
          "type": "uint256"
        }
      ],
      "name": "pullRequestIds",
      "outputs": [
        {
          "name": "",
          "type": "bytes32"
        }
      ],
      "payable": false,
      "stateMutability": "view",
      "type": "function"
    },
    {
      "constant": false,
      "inputs": [
        {
          "name": "_prId",
          "type": "bytes32"
        },
        {
          "name": "_taskId",
          "type": "bytes32"
        }
      ],
      "name": "addPullRequest",
      "outputs": [
        {
          "name": "",
          "type": "bool"
        }
      ],
      "payable": false,
      "stateMutability": "nonpayable",
      "type": "function"
    },
    {
      "constant": false,
      "inputs": [
        {
          "name": "_prId",
          "type": "bytes32"
        }
      ],
      "name": "approvePullRequest",
      "outputs": [
        {
          "name": "",
          "type": "uint256"
        }
      ],
      "payable": false,
      "stateMutability": "nonpayable",
      "type": "function"
    },
    {
      "constant": true,
      "inputs": [],
      "name": "DIDTokenAddress",
      "outputs": [
        {
          "name": "",
          "type": "address"
        }
      ],
      "payable": false,
      "stateMutability": "view",
      "type": "function"
    },
    {
      "constant": true,
      "inputs": [
        {
          "name": "_prId",
          "type": "bytes32"
        }
      ],
      "name": "getPullRequestById",
      "outputs": [
        {
          "name": "",
          "type": "address"
        },
        {
          "name": "",
          "type": "bytes32"
        },
        {
          "name": "",
          "type": "uint64"
        },
        {
          "name": "",
          "type": "uint256"
        }
      ],
      "payable": false,
      "stateMutability": "view",
      "type": "function"
    },
    {
      "constant": true,
      "inputs": [
        {
          "name": "",
          "type": "address"
        }
      ],
      "name": "approved",
      "outputs": [
        {
          "name": "",
          "type": "bool"
        }
      ],
      "payable": false,
      "stateMutability": "view",
      "type": "function"
    },
    {
      "constant": false,
      "inputs": [
        {
          "name": "_address",
          "type": "address"
        }
      ],
      "name": "approve",
      "outputs": [],
      "payable": false,
      "stateMutability": "nonpayable",
      "type": "function"
    },
    {
      "constant": true,
      "inputs": [],
      "name": "getNumPullRequests",
      "outputs": [
        {
          "name": "",
          "type": "uint256"
        }
      ],
      "payable": false,
      "stateMutability": "view",
      "type": "function"
    },
    {
      "inputs": [
        {
          "name": "_DIDTokenAddress",
          "type": "address"
        },
        {
          "name": "_DistenseAddress",
          "type": "address"
        },
        {
          "name": "_TasksAddress",
          "type": "address"
        }
      ],
      "payable": false,
      "stateMutability": "nonpayable",
      "type": "constructor"
    },
    {
      "anonymous": false,
      "inputs": [
        {
          "indexed": false,
          "name": "_prId",
          "type": "bytes32"
        },
        {
          "indexed": false,
          "name": "taskId",
          "type": "bytes32"
        }
      ],
      "name": "LogAddPullRequest",
      "type": "event"
    },
    {
      "anonymous": false,
      "inputs": [
        {
          "indexed": false,
          "name": "_prId",
          "type": "bytes32"
        },
        {
          "indexed": false,
          "name": "pctDIDApproved",
          "type": "uint256"
        }
      ],
      "name": "LogPullRequestApprovalVote",
      "type": "event"
    },
    {
      "anonymous": false,
      "inputs": [
        {
          "indexed": false,
          "name": "_prId",
          "type": "bytes32"
        },
        {
          "indexed": false,
          "name": "taskId",
          "type": "bytes32"
        }
      ],
      "name": "LogRewardPullRequest",
      "type": "event"
    },
    {
      "anonymous": false,
      "inputs": [
        {
          "indexed": false,
          "name": "someAddress",
          "type": "address"
        }
      ],
      "name": "LogAddress",
      "type": "event"
    },
    {
      "anonymous": false,
      "inputs": [
        {
          "indexed": false,
          "name": "boolean",
          "type": "bool"
        }
      ],
      "name": "LogBool",
      "type": "event"
    },
    {
      "anonymous": false,
      "inputs": [
        {
          "indexed": false,
          "name": "someBytes",
          "type": "bytes"
        }
      ],
      "name": "LogBytes",
      "type": "event"
    },
    {
      "anonymous": false,
      "inputs": [
        {
          "indexed": false,
          "name": "aBytes32",
          "type": "bytes32"
        }
      ],
      "name": "LogBytes32",
      "type": "event"
    },
    {
      "anonymous": false,
      "inputs": [
        {
          "indexed": false,
          "name": "aString",
          "type": "string"
        }
      ],
      "name": "LogString",
      "type": "event"
    },
    {
      "anonymous": false,
      "inputs": [
        {
          "indexed": false,
          "name": "someInt",
          "type": "uint256"
        }
      ],
      "name": "LogUInt256",
      "type": "event"
    },
    {
      "anonymous": false,
      "inputs": [
        {
          "indexed": false,
          "name": "someInt",
          "type": "int256"
        }
      ],
      "name": "LogInt256",
      "type": "event"
    }
  ],
  "bytecode": "0x6060604052341561000f57600080fd5b604051606080610c2c833981016040528080519190602001805191906020018051600160a060020a033381166000908152602081905260409020805460ff191660019081179091558054968216600160a060020a03199788161790556002805495821695871695909517909455600380549490911693909416929092179092555050610b8c806100a06000396000f3006060604052600436106100955763ffffffff60e060020a600035041663072f630c811461009a5780630afdbaed146100c9578063484685b0146100dc578063650ee0ff146100fd5780637c27f8de14610125578063a01fdbef14610152578063ac847d4914610168578063af692e001461017b578063d8b964e6146101d1578063daea85c5146101f0578063e71a55771461020f575b600080fd5b34156100a557600080fd5b6100ad610222565b604051600160a060020a03909116815260200160405180910390f35b34156100d457600080fd5b6100ad610231565b34156100e757600080fd5b6100fb600160a060020a0360043516610240565b005b341561010857600080fd5b61011360043561029d565b60405190815260200160405180910390f35b341561013057600080fd5b61013e6004356024356102bc565b604051901515815260200160405180910390f35b341561015d57600080fd5b61011360043561035c565b341561017357600080fd5b6100ad6109e4565b341561018657600080fd5b6101916004356109f3565b604051600160a060020a039094168452602084019290925267ffffffffffffffff1660408084019190915260608301919091526080909101905180910390f35b34156101dc57600080fd5b61013e600160a060020a0360043516610a76565b34156101fb57600080fd5b6100fb600160a060020a0360043516610a8b565b341561021a57600080fd5b610113610aeb565b600354600160a060020a031681565b600254600160a060020a031681565b600160a060020a03331660009081526020819052604090205460ff16151561026757600080fd5b600160a060020a038116151561027c57600080fd5b600160a060020a03166000908152602081905260409020805460ff19169055565b60048054829081106102ab57fe5b600091825260209091200154905081565b6000828152600560205260408120805473ffffffffffffffffffffffffffffffffffffffff191633600160a060020a03161781556001908101839055600480549091810161030a8382610af2565b5060009182526020909120018390557f8a619a6a24e7829052cde917e248d39cae8a2556a3e41377e93746b0f06f6285838360405191825260208201526040908101905180910390a150600192915050565b6000818152600560209081526040808320600160a060020a03331684526004019091528120548190819081908190819081908190899060ff1680156103a057600080fd5b600254600160a060020a031660008082638fc6ad2d8163a3b8e7b584604051602001526040518163ffffffff1660e060020a028152600401602060405180830381600087803b15156103f157600080fd5b6102c65a03f1151561040257600080fd5b5050506040518051905060006040516020015260405160e060020a63ffffffff84160281526004810191909152602401602060405180830381600087803b151561044b57600080fd5b6102c65a03f1151561045c57600080fd5b5050506040518051600154909350600160a060020a03169150829050816327e235e33360006040516020015260405160e060020a63ffffffff8416028152600160a060020a039091166004820152602401602060405180830381600087803b15156104c657600080fd5b6102c65a03f115156104d757600080fd5b505050604051805190501115156104ed57600080fd5b600254600154600160a060020a039182169d50169a508b638fc6ad2d8163a3b8e7b56000604051602001526040518163ffffffff1660e060020a028152600401602060405180830381600087803b151561054657600080fd5b6102c65a03f1151561055757600080fd5b5050506040518051905060006040516020015260405160e060020a63ffffffff84160281526004810191909152602401602060405180830381600087803b15156105a057600080fd5b6102c65a03f115156105b157600080fd5b505050604051805190508b600160a060020a03166327e235e33360006040516020015260405160e060020a63ffffffff8416028152600160a060020a039091166004820152602401602060405180830381600087803b151561061257600080fd5b6102c65a03f1151561062357600080fd5b505050604051805190501015151561063a57600080fd5b60008e8152600560209081526040808320600160a060020a0333818116865260048301909452828520805460ff19166001179055909d508e169263880049509291516020015260405160e060020a63ffffffff8416028152600160a060020a039091166004820152602401602060405180830381600087803b15156106be57600080fd5b6102c65a03f115156106cf57600080fd5b505050604051805160038c018054909101905550600160a060020a038c16638fc6ad2d816314eb172c6000604051602001526040518163ffffffff1660e060020a028152600401602060405180830381600087803b151561072f57600080fd5b6102c65a03f1151561074057600080fd5b5050506040518051905060006040516020015260405160e060020a63ffffffff84160281526004810191909152602401602060405180830381600087803b151561078957600080fd5b6102c65a03f1151561079a57600080fd5b505050604051805190508a60030154111561098f5760035460018b0154600160a060020a039091169950899063b9c105cf9060006040516040015260405160e060020a63ffffffff841602815260048101919091526024016040805180830381600087803b151561080a57600080fd5b6102c65a03f1151561081b57600080fd5b50505060405180519060200180519199509097506002905087600281111561083f57fe5b141561084a57600080fd5b88600160a060020a031663d30bf3238b6001015460006040516020015260405160e060020a63ffffffff84160281526004810191909152602401602060405180830381600087803b151561089d57600080fd5b6102c65a03f115156108ae57600080fd5b50505060405180519650600290508660028111156108c857fe5b146108d257600080fd5b8954600160a060020a03808d1691630261a40391168a60006040516020015260405160e060020a63ffffffff8516028152600160a060020a0390921660048301526024820152604401602060405180830381600087803b151561093457600080fd5b6102c65a03f1151561094557600080fd5b50505060405180519050507ff75915359fdf3afd7b51f73a3805eb3dcda74c358519743949311b6c7181e4058e8b6001015460405191825260208201526040908101905180910390a15b7f38f90e6894903aa729dbd3b9fab7151d08066ab4be17eb5e695d541eb1fe73518e8b6003015460405191825260208201526040908101905180910390a15050506003909601549a9950505050505050505050565b600154600160a060020a031681565b600080600080610a01610b1b565b60008681526005602052604090819020906080905190810160409081528254600160a060020a0316825260018301546020830152600283015467ffffffffffffffff16908201526003909101546060820152905080518160200151826040015183606001519450945094509450509193509193565b60006020819052908152604090205460ff1681565b600160a060020a03331660009081526020819052604090205460ff161515610ab257600080fd5b600160a060020a0381161515610ac757600080fd5b600160a060020a03166000908152602081905260409020805460ff19166001179055565b6004545b90565b815481835581811511610b1657600083815260209020610b16918101908301610b42565b505050565b60806040519081016040908152600080835260208301819052908201819052606082015290565b610aef91905b80821115610b5c5760008155600101610b48565b50905600a165627a7a7230582056a550f5fc59244c691f64535a8353eb5c970b42ee5cbef0200393639b8a36200029",
  "source": "pragma solidity ^0.4.17;\n\n\nimport './lib/Approvable.sol';\nimport './DIDToken.sol';\nimport './Distense.sol';\nimport './Tasks.sol';\n\n\ncontract PullRequests is Approvable, Debuggable {\n\n\n    address public DIDTokenAddress;\n    address public DistenseAddress;\n    address public TasksAddress;\n\n    struct PullRequest {\n        address contributor;\n        bytes32 taskId;\n        uint64 prNum;\n        uint256 pctDIDApproved;\n        mapping(address => bool) voted;\n    }\n\n    bytes32[] public pullRequestIds;\n\n    mapping(bytes32 => PullRequest) pullRequests;\n\n    event LogAddPullRequest(bytes32 _prId, bytes32 taskId);\n    event LogPullRequestApprovalVote(bytes32 _prId, uint256 pctDIDApproved);\n    event LogRewardPullRequest(bytes32 _prId, bytes32 taskId);\n\n    function PullRequests(\n        address _DIDTokenAddress,\n        address _DistenseAddress,\n        address _TasksAddress\n    ) public {\n        DIDTokenAddress = _DIDTokenAddress;\n        DistenseAddress = _DistenseAddress;\n        TasksAddress = _TasksAddress;\n    }\n\n\n    function addPullRequest(bytes32 _prId, bytes32 _taskId) external returns (bool) {\n        pullRequests[_prId].contributor = msg.sender;\n        pullRequests[_prId].taskId = _taskId;\n        pullRequestIds.push(_prId);\n\n        LogAddPullRequest(_prId, _taskId);\n\n        return true;\n    }\n\n\n    function getPullRequestById(bytes32 _prId) external view returns (address, bytes32, uint64, uint256) {\n        PullRequest memory pr = pullRequests[_prId];\n        return (pr.contributor, pr.taskId, pr.prNum, pr.pctDIDApproved);\n    }\n\n\n    function getNumPullRequests() external view returns (uint256) {\n        return pullRequestIds.length;\n    }\n\n\n    function approvePullRequest(bytes32 _prId)\n        hasntVoted(_prId)\n        hasEnoughDIDToApprovePR()\n        external\n    returns (uint256) {\n\n        Distense distense = Distense(DistenseAddress);\n        DIDToken didToken = DIDToken(DIDTokenAddress);\n\n        require(didToken.balances(msg.sender) >= distense.getParameterValueByTitle(\n            distense.numDIDRequiredToApproveVotePullRequestParameterTitle()\n        ));\n\n        PullRequest storage _pr = pullRequests[_prId];\n\n        //  Record approval vote to prevent multiple voting\n        _pr.voted[msg.sender] = true;\n        _pr.pctDIDApproved += didToken.pctDIDOwned(msg.sender);\n\n        if (\n            _pr.pctDIDApproved > distense.getParameterValueByTitle(\n                distense.pctDIDRequiredToMergePullRequestTitle()\n            )\n        ) {\n            Tasks tasks = Tasks(TasksAddress);\n            var (reward, rewardStatus) = tasks.getTaskRewardAndStatus(_pr.taskId);\n            require(rewardStatus != Tasks.RewardStatus.PAID);\n            //  Only issueDID after we confirm taskRewardPaid\n            Tasks.RewardStatus updatedRewardStatus = tasks.setTaskRewardPaid(_pr.taskId);\n            require(updatedRewardStatus == Tasks.RewardStatus.PAID);\n            didToken.issueDID(_pr.contributor, reward);\n            LogRewardPullRequest(_prId, _pr.taskId);\n        }\n\n        LogPullRequestApprovalVote(_prId, _pr.pctDIDApproved);\n        return _pr.pctDIDApproved;\n\n    }\n\n    modifier hasntVoted(bytes32 _prId) {\n        bool alreadyVoted = pullRequests[_prId].voted[msg.sender];\n        require(alreadyVoted == false);\n        _;\n    }\n\n    modifier hasEnoughDIDToApprovePR() {\n\n        Distense distense = Distense(DistenseAddress);\n        uint256 threshold = distense.getParameterValueByTitle(\n            distense.numDIDRequiredToApproveVotePullRequestParameterTitle()\n        );\n\n        DIDToken didToken = DIDToken(DIDTokenAddress);\n\n        require(didToken.balances(msg.sender) > threshold);\n        _;\n    }\n\n}\n",
  "sourcePath": "/Users/john/distense-contracts/contracts/PullRequests.sol",
  "compiler": {
    "name": "solc",
    "version": "0.4.18+commit.9cf6e910.Emscripten.clang"
  },
  "schemaVersion": "1.0.1",
  "updatedAt": "2018-01-22T20:57:00.618Z"
}