{
  "contractName": "PullRequests",
  "abi": [
    {
      "constant": true,
      "inputs": [],
      "name": "TasksAddress",
      "outputs": [
        {
          "name": "",
          "type": "address"
        }
      ],
      "payable": false,
      "stateMutability": "view",
      "type": "function"
    },
    {
      "constant": true,
      "inputs": [],
      "name": "DistenseAddress",
      "outputs": [
        {
          "name": "",
          "type": "address"
        }
      ],
      "payable": false,
      "stateMutability": "view",
      "type": "function"
    },
    {
      "constant": false,
      "inputs": [
        {
          "name": "_address",
          "type": "address"
        }
      ],
      "name": "revokeApproval",
      "outputs": [],
      "payable": false,
      "stateMutability": "nonpayable",
      "type": "function"
    },
    {
      "constant": true,
      "inputs": [
        {
          "name": "",
          "type": "uint256"
        }
      ],
      "name": "pullRequestIds",
      "outputs": [
        {
          "name": "",
          "type": "bytes32"
        }
      ],
      "payable": false,
      "stateMutability": "view",
      "type": "function"
    },
    {
      "constant": false,
      "inputs": [
        {
          "name": "_prId",
          "type": "bytes32"
        },
        {
          "name": "_taskId",
          "type": "bytes32"
        }
      ],
      "name": "addPullRequest",
      "outputs": [
        {
          "name": "",
          "type": "bool"
        }
      ],
      "payable": false,
      "stateMutability": "nonpayable",
      "type": "function"
    },
    {
      "constant": false,
      "inputs": [
        {
          "name": "_prId",
          "type": "bytes32"
        }
      ],
      "name": "approvePullRequest",
      "outputs": [
        {
          "name": "",
          "type": "uint256"
        }
      ],
      "payable": false,
      "stateMutability": "nonpayable",
      "type": "function"
    },
    {
      "constant": true,
      "inputs": [],
      "name": "DIDTokenAddress",
      "outputs": [
        {
          "name": "",
          "type": "address"
        }
      ],
      "payable": false,
      "stateMutability": "view",
      "type": "function"
    },
    {
      "constant": true,
      "inputs": [
        {
          "name": "_prId",
          "type": "bytes32"
        }
      ],
      "name": "getPullRequestById",
      "outputs": [
        {
          "name": "",
          "type": "address"
        },
        {
          "name": "",
          "type": "bytes32"
        },
        {
          "name": "",
          "type": "uint256"
        }
      ],
      "payable": false,
      "stateMutability": "view",
      "type": "function"
    },
    {
      "constant": true,
      "inputs": [
        {
          "name": "",
          "type": "address"
        }
      ],
      "name": "approved",
      "outputs": [
        {
          "name": "",
          "type": "bool"
        }
      ],
      "payable": false,
      "stateMutability": "view",
      "type": "function"
    },
    {
      "constant": false,
      "inputs": [
        {
          "name": "_address",
          "type": "address"
        }
      ],
      "name": "approve",
      "outputs": [],
      "payable": false,
      "stateMutability": "nonpayable",
      "type": "function"
    },
    {
      "constant": true,
      "inputs": [],
      "name": "getNumPullRequests",
      "outputs": [
        {
          "name": "",
          "type": "uint256"
        }
      ],
      "payable": false,
      "stateMutability": "view",
      "type": "function"
    },
    {
      "inputs": [
        {
          "name": "_DIDTokenAddress",
          "type": "address"
        },
        {
          "name": "_DistenseAddress",
          "type": "address"
        },
        {
          "name": "_TasksAddress",
          "type": "address"
        }
      ],
      "payable": false,
      "stateMutability": "nonpayable",
      "type": "constructor"
    },
    {
      "anonymous": false,
      "inputs": [
        {
          "indexed": false,
          "name": "_prId",
          "type": "bytes32"
        },
        {
          "indexed": false,
          "name": "taskId",
          "type": "bytes32"
        }
      ],
      "name": "LogRewardPullRequest",
      "type": "event"
    },
    {
      "anonymous": false,
      "inputs": [
        {
          "indexed": false,
          "name": "_prId",
          "type": "bytes32"
        },
        {
          "indexed": false,
          "name": "pctDIDApproved",
          "type": "uint256"
        }
      ],
      "name": "LogPullRequestApprovalVote",
      "type": "event"
    },
    {
      "anonymous": false,
      "inputs": [
        {
          "indexed": false,
          "name": "someAddress",
          "type": "address"
        }
      ],
      "name": "LogAddress",
      "type": "event"
    },
    {
      "anonymous": false,
      "inputs": [
        {
          "indexed": false,
          "name": "boolean",
          "type": "bool"
        }
      ],
      "name": "LogBool",
      "type": "event"
    },
    {
      "anonymous": false,
      "inputs": [
        {
          "indexed": false,
          "name": "someBytes",
          "type": "bytes"
        }
      ],
      "name": "LogBytes",
      "type": "event"
    },
    {
      "anonymous": false,
      "inputs": [
        {
          "indexed": false,
          "name": "aBytes32",
          "type": "bytes32"
        }
      ],
      "name": "LogBytes32",
      "type": "event"
    },
    {
      "anonymous": false,
      "inputs": [
        {
          "indexed": false,
          "name": "aString",
          "type": "string"
        }
      ],
      "name": "LogString",
      "type": "event"
    },
    {
      "anonymous": false,
      "inputs": [
        {
          "indexed": false,
          "name": "someInt",
          "type": "uint256"
        }
      ],
      "name": "LogUInt256",
      "type": "event"
    }
  ],
  "bytecode": "0x6060604052341561000f57600080fd5b604051606080610bde833981016040528080519190602001805191906020018051600160a060020a033381166000908152602081905260409020805460ff191660019081179091558054968216600160a060020a03199788161790556002805495821695871695909517909455600380549490911693909416929092179092555050610b3e806100a06000396000f3006060604052600436106100955763ffffffff60e060020a600035041663072f630c811461009a5780630afdbaed146100c9578063484685b0146100dc578063650ee0ff146100fd5780637c27f8de14610125578063a01fdbef14610152578063ac847d4914610168578063af692e001461017b578063d8b964e6146101bf578063daea85c5146101de578063e71a5577146101fd575b600080fd5b34156100a557600080fd5b6100ad610210565b604051600160a060020a03909116815260200160405180910390f35b34156100d457600080fd5b6100ad61021f565b34156100e757600080fd5b6100fb600160a060020a036004351661022e565b005b341561010857600080fd5b61011360043561028b565b60405190815260200160405180910390f35b341561013057600080fd5b61013e6004356024356102aa565b604051901515815260200160405180910390f35b341561015d57600080fd5b610113600435610310565b341561017357600080fd5b6100ad61099e565b341561018657600080fd5b6101916004356109ad565b604051600160a060020a03909316835260208301919091526040808301919091526060909101905180910390f35b34156101ca57600080fd5b61013e600160a060020a0360043516610a28565b34156101e957600080fd5b6100fb600160a060020a0360043516610a3d565b341561020857600080fd5b610113610a9d565b600354600160a060020a031681565b600254600160a060020a031681565b600160a060020a03331660009081526020819052604090205460ff16151561025557600080fd5b600160a060020a038116151561026a57600080fd5b600160a060020a03166000908152602081905260409020805460ff19169055565b600480548290811061029957fe5b600091825260209091200154905081565b6000828152600560205260408120805473ffffffffffffffffffffffffffffffffffffffff191633600160a060020a0316178155600190810183905560048054909181016102f88382610aa4565b50600091825260209091200183905550600192915050565b6000818152600560209081526040808320600160a060020a03331684526004019091528120548190819081908190819081908190899060ff16801561035457600080fd5b600254600160a060020a031660008082638fc6ad2d8163a3b8e7b584604051602001526040518163ffffffff1660e060020a028152600401602060405180830381600087803b15156103a557600080fd5b6102c65a03f115156103b657600080fd5b5050506040518051905060006040516020015260405160e060020a63ffffffff84160281526004810191909152602401602060405180830381600087803b15156103ff57600080fd5b6102c65a03f1151561041057600080fd5b5050506040518051600154909350600160a060020a03169150829050816327e235e33360006040516020015260405160e060020a63ffffffff8416028152600160a060020a039091166004820152602401602060405180830381600087803b151561047a57600080fd5b6102c65a03f1151561048b57600080fd5b505050604051805190501115156104a157600080fd5b600254600154600160a060020a039182169d50169a508b638fc6ad2d8163a3b8e7b56000604051602001526040518163ffffffff1660e060020a028152600401602060405180830381600087803b15156104fa57600080fd5b6102c65a03f1151561050b57600080fd5b5050506040518051905060006040516020015260405160e060020a63ffffffff84160281526004810191909152602401602060405180830381600087803b151561055457600080fd5b6102c65a03f1151561056557600080fd5b505050604051805190508b600160a060020a03166327e235e33360006040516020015260405160e060020a63ffffffff8416028152600160a060020a039091166004820152602401602060405180830381600087803b15156105c657600080fd5b6102c65a03f115156105d757600080fd5b50505060405180519050101515156105ee57600080fd5b60008e8152600560209081526040808320600160a060020a03338116855260048201909352818420805460ff191660011790559c50908e1691638fc6ad2d9183916314eb172c9151602001526040518163ffffffff1660e060020a028152600401602060405180830381600087803b151561066857600080fd5b6102c65a03f1151561067957600080fd5b5050506040518051905060006040516020015260405160e060020a63ffffffff84160281526004810191909152602401602060405180830381600087803b15156106c257600080fd5b6102c65a03f115156106d357600080fd5b505050604051805190508a6003015411156108cc5760035460018b0154600160a060020a039091169950899063b9c105cf9060006040516040015260405160e060020a63ffffffff841602815260048101919091526024016040805180830381600087803b151561074357600080fd5b6102c65a03f1151561075457600080fd5b50505060405180519060200180519199509097506002905087600281111561077857fe5b141561078357600080fd5b88600160a060020a031663d30bf3238b6001015460006040516020015260405160e060020a63ffffffff84160281526004810191909152602401602060405180830381600087803b15156107d657600080fd5b6102c65a03f115156107e757600080fd5b505050604051805196506002905086600281111561080157fe5b1461080b57600080fd5b8954600160a060020a03808d1691630261a40391168a60006040516020015260405160e060020a63ffffffff8516028152600160a060020a0390921660048301526024820152604401602060405180830381600087803b151561086d57600080fd5b6102c65a03f1151561087e57600080fd5b50505060405180519050507ff75915359fdf3afd7b51f73a3805eb3dcda74c358519743949311b6c7181e4058a600101548f60405191825260208201526040908101905180910390a1610987565b7f38f90e6894903aa729dbd3b9fab7151d08066ab4be17eb5e695d541eb1fe73518e8b6003015460405191825260208201526040908101905180910390a18a600160a060020a031663880049503360006040516020015260405160e060020a63ffffffff8416028152600160a060020a039091166004820152602401602060405180830381600087803b151561096157600080fd5b6102c65a03f1151561097257600080fd5b505050604051805160038c0180549091019055505b5050506003909601549a9950505050505050505050565b600154600160a060020a031681565b60008060006109ba610acd565b60008581526005602052604090819020906080905190810160409081528254600160a060020a0316825260018301546020830152600283015467ffffffffffffffff169082015260039091015460608201529050805181602001518260600151935093509350509193909250565b60006020819052908152604090205460ff1681565b600160a060020a03331660009081526020819052604090205460ff161515610a6457600080fd5b600160a060020a0381161515610a7957600080fd5b600160a060020a03166000908152602081905260409020805460ff19166001179055565b6004545b90565b815481835581811511610ac857600083815260209020610ac8918101908301610af4565b505050565b60806040519081016040908152600080835260208301819052908201819052606082015290565b610aa191905b80821115610b0e5760008155600101610afa565b50905600a165627a7a72305820ce282c595d912d02429ded4c2c8e20b217a14e24fcb593b89087060fb21357c10029",
  "source": "pragma solidity ^0.4.17;\n\n\nimport './lib/Approvable.sol';\nimport './DIDToken.sol';\nimport './Distense.sol';\nimport './Tasks.sol';\n\n\ncontract PullRequests is Approvable, Debuggable {\n\n\n  address public DIDTokenAddress;\n  address public DistenseAddress;\n  address public TasksAddress;\n\n  struct PullRequest {\n    address contributor;\n    bytes32 taskId;\n    uint64  prNum;\n    uint256 pctDIDApproved;\n    mapping (address => bool) voted;\n  }\n\n  bytes32[] public pullRequestIds;\n\n  mapping (bytes32 => PullRequest) pullRequests;\n\n  event LogRewardPullRequest(bytes32 _prId, bytes32 taskId);\n  event LogPullRequestApprovalVote(bytes32  _prId, uint256 pctDIDApproved);\n\n  function PullRequests(\n    address _DIDTokenAddress,\n    address _DistenseAddress,\n    address _TasksAddress\n  ) public {\n    DIDTokenAddress = _DIDTokenAddress;\n    DistenseAddress = _DistenseAddress;\n    TasksAddress = _TasksAddress;\n  }\n\n\n  function addPullRequest(bytes32 _prId, bytes32 _taskId) external returns (bool) {\n    pullRequests[_prId].contributor = msg.sender;\n    pullRequests[_prId].taskId = _taskId;\n    pullRequestIds.push(_prId);\n\n    return true;\n  }\n\n\n  function getPullRequestById(bytes32 _prId) external view returns (address, bytes32, uint256) {\n    PullRequest memory pr = pullRequests[_prId];\n    return (pr.contributor, pr.taskId, pr.pctDIDApproved);\n  }\n\n\n  function getNumPullRequests() external view returns (uint256) {\n    return pullRequestIds.length;\n  }\n\n\n  function approvePullRequest(bytes32 _prId)\n    hasntVoted(_prId)\n    hasEnoughDIDToApprovePR()\n    external\n  returns (uint256) {\n\n    Distense distense = Distense(DistenseAddress);\n    DIDToken didToken = DIDToken(DIDTokenAddress);\n\n    require(didToken.balances(msg.sender) >= distense.getParameterValueByTitle(\n      distense.numDIDRequiredToApproveVotePullRequestParameterTitle()\n    ));\n\n    PullRequest storage _pr = pullRequests[_prId];\n\n    //  Record approval vote to prevent multiple voting\n    _pr.voted[msg.sender] = true;\n\n    if (_pr.pctDIDApproved > distense.getParameterValueByTitle(\n      distense.pctDIDRequiredToMergePullRequestTitle()\n      )\n    ) {\n      Tasks tasks = Tasks(TasksAddress);\n      var (reward, rewardStatus) = tasks.getTaskRewardAndStatus(_pr.taskId);\n      require(rewardStatus != Tasks.RewardStatus.Paid);\n      //  Only issueDID after we confirm taskRewardPaid\n      Tasks.RewardStatus updatedRewardStatus = tasks.setTaskRewardPaid(_pr.taskId);\n      require(updatedRewardStatus == Tasks.RewardStatus.Paid);\n      didToken.issueDID(_pr.contributor, reward);\n      LogRewardPullRequest(_pr.taskId, _prId);\n    } else {\n      LogPullRequestApprovalVote(_prId, _pr.pctDIDApproved);\n      //  Increment pctDIDApproved by percentage ownership of voter\n      _pr.pctDIDApproved += didToken.pctDIDOwned(msg.sender);\n    }\n\n    return _pr.pctDIDApproved;\n\n  }\n\n  modifier hasntVoted(bytes32 _prId) {\n    bool alreadyVoted = pullRequests[_prId].voted[msg.sender];\n    require(alreadyVoted == false);\n    _;\n  }\n\n  modifier hasEnoughDIDToApprovePR() {\n\n    Distense distense = Distense(DistenseAddress);\n    uint256 threshold = distense.getParameterValueByTitle(\n      distense.numDIDRequiredToApproveVotePullRequestParameterTitle()\n    );\n\n    DIDToken didToken = DIDToken(DIDTokenAddress);\n\n    require(didToken.balances(msg.sender) > threshold);\n    _;\n  }\n\n}\n\n\n\n\n\n\n\n\n\n\n\n\n\n\n",
  "sourcePath": "/Users/john/distense-contracts/contracts/PullRequests.sol",
  "compiler": {
    "name": "solc",
    "version": "0.4.18+commit.9cf6e910.Emscripten.clang"
  },
  "schemaVersion": "1.0.1",
  "updatedAt": "2018-01-11T01:14:49.252Z"
}