{
  "contractName": "PullRequests",
  "abi": [
    {
      "constant": true,
      "inputs": [],
      "name": "TasksAddress",
      "outputs": [
        {
          "name": "",
          "type": "address"
        }
      ],
      "payable": false,
      "stateMutability": "view",
      "type": "function"
    },
    {
      "constant": true,
      "inputs": [],
      "name": "DistenseAddress",
      "outputs": [
        {
          "name": "",
          "type": "address"
        }
      ],
      "payable": false,
      "stateMutability": "view",
      "type": "function"
    },
    {
      "constant": false,
      "inputs": [
        {
          "name": "_prId",
          "type": "bytes32"
        },
        {
          "name": "_taskId",
          "type": "bytes32"
        }
      ],
      "name": "submitPullRequest",
      "outputs": [
        {
          "name": "",
          "type": "uint256"
        }
      ],
      "payable": false,
      "stateMutability": "nonpayable",
      "type": "function"
    },
    {
      "constant": false,
      "inputs": [
        {
          "name": "_address",
          "type": "address"
        }
      ],
      "name": "revokeApproval",
      "outputs": [],
      "payable": false,
      "stateMutability": "nonpayable",
      "type": "function"
    },
    {
      "constant": true,
      "inputs": [
        {
          "name": "",
          "type": "uint256"
        }
      ],
      "name": "pullRequestIds",
      "outputs": [
        {
          "name": "",
          "type": "bytes32"
        }
      ],
      "payable": false,
      "stateMutability": "view",
      "type": "function"
    },
    {
      "constant": true,
      "inputs": [],
      "name": "numDIDRequiredToApprovePRs",
      "outputs": [
        {
          "name": "",
          "type": "uint256"
        }
      ],
      "payable": false,
      "stateMutability": "view",
      "type": "function"
    },
    {
      "constant": true,
      "inputs": [],
      "name": "DIDTokenAddress",
      "outputs": [
        {
          "name": "",
          "type": "address"
        }
      ],
      "payable": false,
      "stateMutability": "view",
      "type": "function"
    },
    {
      "constant": true,
      "inputs": [
        {
          "name": "_prId",
          "type": "bytes32"
        }
      ],
      "name": "getPullRequestById",
      "outputs": [
        {
          "name": "",
          "type": "address"
        },
        {
          "name": "",
          "type": "bytes32"
        },
        {
          "name": "",
          "type": "uint256"
        }
      ],
      "payable": false,
      "stateMutability": "view",
      "type": "function"
    },
    {
      "constant": true,
      "inputs": [
        {
          "name": "",
          "type": "address"
        }
      ],
      "name": "approved",
      "outputs": [
        {
          "name": "",
          "type": "bool"
        }
      ],
      "payable": false,
      "stateMutability": "view",
      "type": "function"
    },
    {
      "constant": false,
      "inputs": [
        {
          "name": "_address",
          "type": "address"
        }
      ],
      "name": "approve",
      "outputs": [],
      "payable": false,
      "stateMutability": "nonpayable",
      "type": "function"
    },
    {
      "constant": false,
      "inputs": [
        {
          "name": "_prId",
          "type": "bytes32"
        },
        {
          "name": "_approve",
          "type": "bool"
        }
      ],
      "name": "voteOnApproval",
      "outputs": [
        {
          "name": "",
          "type": "uint256"
        }
      ],
      "payable": false,
      "stateMutability": "nonpayable",
      "type": "function"
    },
    {
      "constant": true,
      "inputs": [],
      "name": "getNumPullRequests",
      "outputs": [
        {
          "name": "",
          "type": "uint256"
        }
      ],
      "payable": false,
      "stateMutability": "view",
      "type": "function"
    },
    {
      "inputs": [
        {
          "name": "_DIDTokenAddress",
          "type": "address"
        },
        {
          "name": "_DistenseAddress",
          "type": "address"
        },
        {
          "name": "_TasksAddress",
          "type": "address"
        }
      ],
      "payable": false,
      "stateMutability": "nonpayable",
      "type": "constructor"
    },
    {
      "anonymous": false,
      "inputs": [
        {
          "indexed": false,
          "name": "someInt",
          "type": "uint256"
        }
      ],
      "name": "LogInt",
      "type": "event"
    },
    {
      "anonymous": false,
      "inputs": [
        {
          "indexed": false,
          "name": "_prId",
          "type": "bytes32"
        },
        {
          "indexed": true,
          "name": "taskId",
          "type": "bytes32"
        }
      ],
      "name": "LogPullRequestApproval",
      "type": "event"
    },
    {
      "anonymous": false,
      "inputs": [
        {
          "indexed": true,
          "name": "_prId",
          "type": "bytes32"
        },
        {
          "indexed": false,
          "name": "pctDIDApproved",
          "type": "uint256"
        }
      ],
      "name": "LogPullRequestVote",
      "type": "event"
    }
  ],
  "bytecode": "0x6060604052600260009054906101000a900473ffffffffffffffffffffffffffffffffffffffff16600160006101000a81548173ffffffffffffffffffffffffffffffffffffffff021916908373ffffffffffffffffffffffffffffffffffffffff160217905550341561007257600080fd5b6040516060806111948339810160405280805190602001909190805190602001909190805190602001909190505060016000803373ffffffffffffffffffffffffffffffffffffffff1673ffffffffffffffffffffffffffffffffffffffff16815260200190815260200160002060006101000a81548160ff02191690831515021790555082600260006101000a81548173ffffffffffffffffffffffffffffffffffffffff021916908373ffffffffffffffffffffffffffffffffffffffff16021790555081600460006101000a81548173ffffffffffffffffffffffffffffffffffffffff021916908373ffffffffffffffffffffffffffffffffffffffff16021790555080600660006101000a81548173ffffffffffffffffffffffffffffffffffffffff021916908373ffffffffffffffffffffffffffffffffffffffff160217905550505050610fc8806101cc6000396000f3006060604052600436106100ba576000357c0100000000000000000000000000000000000000000000000000000000900463ffffffff168063072f630c146100bf5780630afdbaed146101145780633b0ec08414610169578063484685b0146101b1578063650ee0ff146101ea578063750b3c8c14610229578063ac847d4914610252578063af692e00146102a7578063d8b964e614610324578063daea85c514610375578063e2b068f5146103ae578063e71a5577146103f4575b600080fd5b34156100ca57600080fd5b6100d261041d565b604051808273ffffffffffffffffffffffffffffffffffffffff1673ffffffffffffffffffffffffffffffffffffffff16815260200191505060405180910390f35b341561011f57600080fd5b610127610443565b604051808273ffffffffffffffffffffffffffffffffffffffff1673ffffffffffffffffffffffffffffffffffffffff16815260200191505060405180910390f35b341561017457600080fd5b61019b60048080356000191690602001909190803560001916906020019091905050610469565b6040518082815260200191505060405180910390f35b34156101bc57600080fd5b6101e8600480803573ffffffffffffffffffffffffffffffffffffffff16906020019091905050610575565b005b34156101f557600080fd5b61020b6004808035906020019091905050610650565b60405180826000191660001916815260200191505060405180910390f35b341561023457600080fd5b61023c610674565b6040518082815260200191505060405180910390f35b341561025d57600080fd5b610265610679565b604051808273ffffffffffffffffffffffffffffffffffffffff1673ffffffffffffffffffffffffffffffffffffffff16815260200191505060405180910390f35b34156102b257600080fd5b6102cc60048080356000191690602001909190505061069f565b604051808473ffffffffffffffffffffffffffffffffffffffff1673ffffffffffffffffffffffffffffffffffffffff1681526020018360001916600019168152602001828152602001935050505060405180910390f35b341561032f57600080fd5b61035b600480803573ffffffffffffffffffffffffffffffffffffffff16906020019091905050610764565b604051808215151515815260200191505060405180910390f35b341561038057600080fd5b6103ac600480803573ffffffffffffffffffffffffffffffffffffffff16906020019091905050610784565b005b34156103b957600080fd5b6103de600480803560001916906020019091908035151590602001909190505061085f565b6040518082815260200191505060405180910390f35b34156103ff57600080fd5b610407610cd0565b6040518082815260200191505060405180910390f35b600660009054906101000a900473ffffffffffffffffffffffffffffffffffffffff1681565b600460009054906101000a900473ffffffffffffffffffffffffffffffffffffffff1681565b6000610473610f10565b6060604051908101604052803373ffffffffffffffffffffffffffffffffffffffff168152602001846000191681526020016000815250905060008160400181815250508060086000866000191660001916815260200190815260200160002060008201518160000160006101000a81548173ffffffffffffffffffffffffffffffffffffffff021916908373ffffffffffffffffffffffffffffffffffffffff16021790555060208201518160010190600019169055604082015181600201559050506007805480600101828161054b9190610f4b565b91600052602060002090016000869091909150906000191690555060078054905091505092915050565b6000803373ffffffffffffffffffffffffffffffffffffffff1673ffffffffffffffffffffffffffffffffffffffff16815260200190815260200160002060009054906101000a900460ff1615156105cc57600080fd5b6105eb8173ffffffffffffffffffffffffffffffffffffffff16610cdd565b15156105f657600080fd5b60008060008373ffffffffffffffffffffffffffffffffffffffff1673ffffffffffffffffffffffffffffffffffffffff16815260200190815260200160002060006101000a81548160ff02191690831515021790555050565b60078181548110151561065f57fe5b90600052602060002090016000915090505481565b606481565b600260009054906101000a900473ffffffffffffffffffffffffffffffffffffffff1681565b60008060006106ac610f10565b600860008660001916600019168152602001908152602001600020606060405190810160405290816000820160009054906101000a900473ffffffffffffffffffffffffffffffffffffffff1673ffffffffffffffffffffffffffffffffffffffff1673ffffffffffffffffffffffffffffffffffffffff1681526020016001820154600019166000191681526020016002820154815250509050806000015181602001518260400151935093509350509193909250565b60006020528060005260406000206000915054906101000a900460ff1681565b6000803373ffffffffffffffffffffffffffffffffffffffff1673ffffffffffffffffffffffffffffffffffffffff16815260200190815260200160002060009054906101000a900460ff1615156107db57600080fd5b6107fa8173ffffffffffffffffffffffffffffffffffffffff16610cdd565b151561080557600080fd5b60016000808373ffffffffffffffffffffffffffffffffffffffff1673ffffffffffffffffffffffffffffffffffffffff16815260200190815260200160002060006101000a81548160ff02191690831515021790555050565b600080600080336000600160009054906101000a900473ffffffffffffffffffffffffffffffffffffffff1673ffffffffffffffffffffffffffffffffffffffff166327e235e3836000604051602001526040518263ffffffff167c0100000000000000000000000000000000000000000000000000000000028152600401808273ffffffffffffffffffffffffffffffffffffffff1673ffffffffffffffffffffffffffffffffffffffff168152602001915050602060405180830381600087803b151561092d57600080fd5b6102c65a03f1151561093e57600080fd5b5050506040518051905090506064811015151561095a57600080fd5b6008600089600019166000191681526020019081526020016000209450600160009054906101000a900473ffffffffffffffffffffffffffffffffffffffff1673ffffffffffffffffffffffffffffffffffffffff166388004950336000604051602001526040518263ffffffff167c0100000000000000000000000000000000000000000000000000000000028152600401808273ffffffffffffffffffffffffffffffffffffffff1673ffffffffffffffffffffffffffffffffffffffff168152602001915050602060405180830381600087803b1515610a3c57600080fd5b6102c65a03f11515610a4d57600080fd5b505050604051805190509350868560030160003373ffffffffffffffffffffffffffffffffffffffff1673ffffffffffffffffffffffffffffffffffffffff16815260200190815260200160002060000160146101000a81548160ff021916908315150217905550861515610ac55783600003840193505b838560020160008282540192505081905550600360009054906101000a900473ffffffffffffffffffffffffffffffffffffffff1673ffffffffffffffffffffffffffffffffffffffff1663710368ab600360009054906101000a900473ffffffffffffffffffffffffffffffffffffffff1673ffffffffffffffffffffffffffffffffffffffff1663bbda07ce6000604051602001526040518163ffffffff167c0100000000000000000000000000000000000000000000000000000000028152600401602060405180830381600087803b1515610ba357600080fd5b6102c65a03f11515610bb457600080fd5b505050604051805190506000604051602001526040518263ffffffff167c0100000000000000000000000000000000000000000000000000000000028152600401808260001916600019168152602001915050602060405180830381600087803b1515610c2057600080fd5b6102c65a03f11515610c3157600080fd5b5050506040518051905092508285600201541115610c7e57610c7c8560010154898760000160009054906101000a900473ffffffffffffffffffffffffffffffffffffffff16610d16565b505b87600019167ff0b15b9f086b2a1c36f39c6e19538985152381a937027d31b2ee82a1db8c5f8b86600201546040518082815260200191505060405180910390a284600201549550505050505092915050565b6000600780549050905090565b60008073ffffffffffffffffffffffffffffffffffffffff168273ffffffffffffffffffffffffffffffffffffffff1614159050919050565b60008083600019167fdf65e06eb6f566efef050e33de94f5eb82fbaaa7ba0488d049221cc515f8d7b08660405180826000191660001916815260200191505060405180910390a2600560009054906101000a900473ffffffffffffffffffffffffffffffffffffffff1673ffffffffffffffffffffffffffffffffffffffff1663a022c15e866000604051602001526040518263ffffffff167c0100000000000000000000000000000000000000000000000000000000028152600401808260001916600019168152602001915050602060405180830381600087803b1515610dfe57600080fd5b6102c65a03f11515610e0f57600080fd5b505050604051805190509050600160009054906101000a900473ffffffffffffffffffffffffffffffffffffffff1673ffffffffffffffffffffffffffffffffffffffff16630261a40384836000604051602001526040518363ffffffff167c0100000000000000000000000000000000000000000000000000000000028152600401808373ffffffffffffffffffffffffffffffffffffffff1673ffffffffffffffffffffffffffffffffffffffff16815260200182815260200192505050602060405180830381600087803b1515610ee857600080fd5b6102c65a03f11515610ef957600080fd5b505050604051805190505060019150509392505050565b606060405190810160405280600073ffffffffffffffffffffffffffffffffffffffff16815260200160008019168152602001600081525090565b815481835581811511610f7257818360005260206000209182019101610f719190610f77565b5b505050565b610f9991905b80821115610f95576000816000905550600101610f7d565b5090565b905600a165627a7a72305820e3c75c7272ebb2827c4f10ff2a1eb836606a7d9ba97888dad1d3e8b578df0d720029",
  "source": "pragma solidity ^0.4.17;\n\n\nimport './lib/Approvable.sol';\nimport './DIDToken.sol';\nimport './Distense.sol';\nimport './Tasks.sol';\n\n\ncontract PullRequests is Approvable {\n\n  DIDToken didToken = DIDToken(DIDTokenAddress);\n  address public DIDTokenAddress;\n\n  Distense distense;\n  address public DistenseAddress;\n\n  Tasks tasks;\n  address public TasksAddress;\n\n  uint256 constant public numDIDRequiredToApprovePRs = 100;\n\n  struct PullRequest {\n    address createdBy;\n    bytes32 taskId;\n    uint256 pctDIDApproved;\n    mapping (address => Vote) votes;\n  }\n\n  struct Vote {\n    address voter;\n    bool approves;\n  }\n\n  bytes32[] public pullRequestIds;\n\n  mapping (bytes32 => PullRequest) pullRequests;\n\n  event LogInt(uint256 someInt);\n  event LogPullRequestApproval(bytes32 _prId, bytes32 indexed taskId);\n  event LogPullRequestVote(bytes32 indexed _prId, uint256 pctDIDApproved);\n\n  function PullRequests(address _DIDTokenAddress, address _DistenseAddress, address _TasksAddress) public {\n    DIDTokenAddress = _DIDTokenAddress;\n    DistenseAddress = _DistenseAddress;\n    TasksAddress = _TasksAddress;\n  }\n\n  function submitPullRequest(bytes32 _prId, bytes32 _taskId) external returns (uint256) {\n    PullRequest memory _pr = PullRequest(msg.sender, _taskId, 0);\n    //Write the _pr struct to storage\n    _pr.pctDIDApproved = 0;\n    pullRequests[_prId] = _pr;\n    pullRequestIds.push(_prId);\n    return pullRequestIds.length;\n  }\n\n  function getPullRequestById(bytes32 _prId) public view returns (address, bytes32, uint256) {\n    PullRequest memory pr = pullRequests[_prId];\n    return (pr.createdBy, pr.taskId, pr.pctDIDApproved);\n  }\n\n  function getNumPullRequests() public view returns (uint256) {\n    return pullRequestIds.length;\n  }\n\n  function voteOnApproval(bytes32 _prId, bool _approve) /*hasntVotedThisWay(_prId, msg.sender, _approve)*/ enoughDIDToApprove(msg\n.sender)\n  external\n  returns (uint256) {\n    PullRequest storage _pr = pullRequests[_prId];\n\n    uint256 pctDIDOwned = didToken.pctDIDOwned(msg.sender);\n    _pr.votes[msg.sender].approves = _approve;\n\n    if (!_approve) {\n      pctDIDOwned += -pctDIDOwned;\n    }\n    _pr.pctDIDApproved += pctDIDOwned;\n    uint256 approvalValue = distense.getParameterValue(distense.pullRequestPctDIDRequiredParameterTitle());\n    if (_pr.pctDIDApproved > approvalValue) {\n      approvePullRequest(_pr.taskId, _prId, _pr.createdBy);\n    }\n\n    LogPullRequestVote(_prId, _pr.pctDIDApproved);\n    return _pr.pctDIDApproved;\n  }\n\n  function approvePullRequest(bytes32 _taskId, bytes32 _prId, address contributor) internal returns (bool) {\n    LogPullRequestApproval(_taskId, _prId);\n    uint256 taskReward = tasks.getTaskReward(_taskId);\n    didToken.issueDID(contributor, taskReward);\n    return true;\n  }\n\n  modifier hasntVotedThisWay(bytes32 _prId, address voter, bool vote) {\n    bool alreadyVoted = pullRequests[_prId].votes[voter].approves == vote;\n    require(!alreadyVoted);\n    _;\n  }\n\n  modifier enoughDIDToApprove(address voter) {\n    uint256 didOwned = didToken.balances(voter);\n    require(didOwned >= numDIDRequiredToApprovePRs);\n    _;\n  }\n\n}\n",
  "sourcePath": "/Users/john/distense-ui/node_modules/distense-contracts/contracts/PullRequests.sol",
  "compiler": {
    "name": "solc",
    "version": "0.4.18+commit.9cf6e910.Emscripten.clang"
  },
  "schemaVersion": "1.0.1",
  "updatedAt": "2017-12-15T06:48:22.336Z"
}