{
  "contractName": "PullRequests",
  "abi": [
    {
      "constant": true,
      "inputs": [],
      "name": "TasksAddress",
      "outputs": [
        {
          "name": "",
          "type": "address"
        }
      ],
      "payable": false,
      "stateMutability": "view",
      "type": "function"
    },
    {
      "constant": true,
      "inputs": [],
      "name": "DistenseAddress",
      "outputs": [
        {
          "name": "",
          "type": "address"
        }
      ],
      "payable": false,
      "stateMutability": "view",
      "type": "function"
    },
    {
      "constant": false,
      "inputs": [
        {
          "name": "_address",
          "type": "address"
        }
      ],
      "name": "revokeApproval",
      "outputs": [],
      "payable": false,
      "stateMutability": "nonpayable",
      "type": "function"
    },
    {
      "constant": true,
      "inputs": [
        {
          "name": "",
          "type": "uint256"
        }
      ],
      "name": "pullRequestIds",
      "outputs": [
        {
          "name": "",
          "type": "bytes32"
        }
      ],
      "payable": false,
      "stateMutability": "view",
      "type": "function"
    },
    {
      "constant": true,
      "inputs": [],
      "name": "DIDTokenAddress",
      "outputs": [
        {
          "name": "",
          "type": "address"
        }
      ],
      "payable": false,
      "stateMutability": "view",
      "type": "function"
    },
    {
      "constant": true,
      "inputs": [
        {
          "name": "",
          "type": "address"
        }
      ],
      "name": "approved",
      "outputs": [
        {
          "name": "",
          "type": "bool"
        }
      ],
      "payable": false,
      "stateMutability": "view",
      "type": "function"
    },
    {
      "constant": false,
      "inputs": [
        {
          "name": "_address",
          "type": "address"
        }
      ],
      "name": "approve",
      "outputs": [],
      "payable": false,
      "stateMutability": "nonpayable",
      "type": "function"
    },
    {
      "inputs": [
        {
          "name": "_DIDTokenAddress",
          "type": "address"
        },
        {
          "name": "_DistenseAddress",
          "type": "address"
        },
        {
          "name": "_TasksAddress",
          "type": "address"
        }
      ],
      "payable": false,
      "stateMutability": "nonpayable",
      "type": "constructor"
    },
    {
      "anonymous": false,
      "inputs": [
        {
          "indexed": false,
          "name": "_prId",
          "type": "bytes32"
        },
        {
          "indexed": false,
          "name": "taskId",
          "type": "bytes32"
        },
        {
          "indexed": false,
          "name": "prNum",
          "type": "uint128"
        }
      ],
      "name": "LogAddPullRequest",
      "type": "event"
    },
    {
      "anonymous": false,
      "inputs": [
        {
          "indexed": false,
          "name": "_prId",
          "type": "bytes32"
        },
        {
          "indexed": false,
          "name": "pctDIDApproved",
          "type": "uint256"
        }
      ],
      "name": "LogPullRequestApprovalVote",
      "type": "event"
    },
    {
      "anonymous": false,
      "inputs": [
        {
          "indexed": false,
          "name": "_prId",
          "type": "bytes32"
        },
        {
          "indexed": false,
          "name": "taskId",
          "type": "bytes32"
        },
        {
          "indexed": false,
          "name": "prNum",
          "type": "uint128"
        }
      ],
      "name": "LogRewardPullRequest",
      "type": "event"
    },
    {
      "constant": false,
      "inputs": [
        {
          "name": "_prId",
          "type": "bytes32"
        },
        {
          "name": "_taskId",
          "type": "bytes32"
        },
        {
          "name": "_prNum",
          "type": "uint128"
        }
      ],
      "name": "addPullRequest",
      "outputs": [
        {
          "name": "",
          "type": "bool"
        }
      ],
      "payable": false,
      "stateMutability": "nonpayable",
      "type": "function"
    },
    {
      "constant": true,
      "inputs": [
        {
          "name": "_prId",
          "type": "bytes32"
        }
      ],
      "name": "getPullRequestById",
      "outputs": [
        {
          "name": "",
          "type": "address"
        },
        {
          "name": "",
          "type": "bytes32"
        },
        {
          "name": "",
          "type": "uint128"
        },
        {
          "name": "",
          "type": "uint256"
        }
      ],
      "payable": false,
      "stateMutability": "view",
      "type": "function"
    },
    {
      "constant": true,
      "inputs": [],
      "name": "getNumPullRequests",
      "outputs": [
        {
          "name": "",
          "type": "uint256"
        }
      ],
      "payable": false,
      "stateMutability": "view",
      "type": "function"
    },
    {
      "constant": false,
      "inputs": [
        {
          "name": "_prId",
          "type": "bytes32"
        }
      ],
      "name": "approvePullRequest",
      "outputs": [
        {
          "name": "",
          "type": "uint256"
        }
      ],
      "payable": false,
      "stateMutability": "nonpayable",
      "type": "function"
    },
    {
      "constant": false,
      "inputs": [
        {
          "name": "_DIDTokenAddress",
          "type": "address"
        }
      ],
      "name": "setDIDTokenAddress",
      "outputs": [],
      "payable": false,
      "stateMutability": "nonpayable",
      "type": "function"
    },
    {
      "constant": false,
      "inputs": [
        {
          "name": "_DistenseAddress",
          "type": "address"
        }
      ],
      "name": "setDistenseAddress",
      "outputs": [],
      "payable": false,
      "stateMutability": "nonpayable",
      "type": "function"
    },
    {
      "constant": false,
      "inputs": [
        {
          "name": "_TasksAddress",
          "type": "address"
        }
      ],
      "name": "setTasksAddress",
      "outputs": [],
      "payable": false,
      "stateMutability": "nonpayable",
      "type": "function"
    }
  ],
  "bytecode": "0x6060604052341561000f57600080fd5b604051606080610f88833981016040528080519190602001805191906020018051600160a060020a033381166000908152602081905260409020805460ff191660019081179091558054968216600160a060020a03199788161790556002805495821695871695909517909455600380549490911693909416929092179092555050610ee8806100a06000396000f3006060604052600436106100b65763ffffffff60e060020a600035041663072f630c81146100bb5780630afdbaed146100ea578063253caf94146100fd5780632a4caf671461011e578063484685b01461013d578063650ee0ff1461015c5780637caf59d914610184578063a01fdbef146101c6578063ac847d49146101dc578063af692e00146101ef578063cf2fb7ca1461024d578063d8b964e61461026c578063daea85c51461028b578063e71a5577146102aa575b600080fd5b34156100c657600080fd5b6100ce6102bd565b604051600160a060020a03909116815260200160405180910390f35b34156100f557600080fd5b6100ce6102cc565b341561010857600080fd5b61011c600160a060020a03600435166102db565b005b341561012957600080fd5b61011c600160a060020a0360043516610331565b341561014857600080fd5b61011c600160a060020a0360043516610387565b341561016757600080fd5b6101726004356103e4565b60405190815260200160405180910390f35b341561018f57600080fd5b6101b26004356024356fffffffffffffffffffffffffffffffff60443516610403565b604051901515815260200160405180910390f35b34156101d157600080fd5b6101726004356104f3565b34156101e757600080fd5b6100ce610ce2565b34156101fa57600080fd5b610205600435610cf1565b604051600160a060020a03909416845260208401929092526fffffffffffffffffffffffffffffffff1660408084019190915260608301919091526080909101905180910390f35b341561025857600080fd5b61011c600160a060020a0360043516610d7c565b341561027757600080fd5b6101b2600160a060020a0360043516610dd2565b341561029657600080fd5b61011c600160a060020a0360043516610de7565b34156102b557600080fd5b610172610e47565b600354600160a060020a031681565b600254600160a060020a031681565b600160a060020a03331660009081526020819052604090205460ff16151561030257600080fd5b6003805473ffffffffffffffffffffffffffffffffffffffff1916600160a060020a0392909216919091179055565b600160a060020a03331660009081526020819052604090205460ff16151561035857600080fd5b6002805473ffffffffffffffffffffffffffffffffffffffff1916600160a060020a0392909216919091179055565b600160a060020a03331660009081526020819052604090205460ff1615156103ae57600080fd5b600160a060020a03811615156103c357600080fd5b600160a060020a03166000908152602081905260409020805460ff19169055565b60048054829081106103f257fe5b600091825260209091200154905081565b6000838152600560205260408120805473ffffffffffffffffffffffffffffffffffffffff191633600160a060020a03161781556001808201859055600290910180546fffffffffffffffffffffffffffffffff19166fffffffffffffffffffffffffffffffff851617905560048054909181016104818382610e4e565b5060009182526020909120018490557f1cb7fef23eb23bac1c82dc07555d40809aa3ecde37c0fd1d06481a512352c04e84848460405192835260208301919091526fffffffffffffffffffffffffffffffff166040808301919091526060909101905180910390a15060019392505050565b6000818152600560209081526040808320600160a060020a03331684526004019091528120548190819081908190819081908190899060ff16801561053757600080fd5b600254600160a060020a031660008082638fc6ad2d8163a3b8e7b56040518163ffffffff1660e060020a028152600401602060405180830381600087803b151561058057600080fd5b5af1151561058d57600080fd5b5050506040518051905060405160e060020a63ffffffff84160281526004810191909152602401602060405180830381600087803b15156105cd57600080fd5b5af115156105da57600080fd5b5050506040518051600154909350600160a060020a031691508290508163350467223360405160e060020a63ffffffff8416028152600160a060020a039091166004820152602401602060405180830381600087803b151561063b57600080fd5b5af1151561064857600080fd5b5050506040518051905011151561065e57600080fd5b600254600154600160a060020a039182169d50169a508b638fc6ad2d8163a3b8e7b56040518163ffffffff1660e060020a028152600401602060405180830381600087803b15156106ae57600080fd5b5af115156106bb57600080fd5b5050506040518051905060405160e060020a63ffffffff84160281526004810191909152602401602060405180830381600087803b15156106fb57600080fd5b5af1151561070857600080fd5b505050604051805190508b600160a060020a031663350467223360405160e060020a63ffffffff8416028152600160a060020a039091166004820152602401602060405180830381600087803b151561076057600080fd5b5af1151561076d57600080fd5b505050604051805190501015151561078457600080fd5b60008e8152600560209081526040808320600160a060020a0333811685526004820190935292819020805460ff19166001179055919b508d1690638fc6ad2d90829063e2f97c8d90518163ffffffff1660e060020a028152600401602060405180830381600087803b15156107f857600080fd5b5af1151561080557600080fd5b5050506040518051905060405160e060020a63ffffffff84160281526004810191909152602401602060405180830381600087803b151561084557600080fd5b5af1151561085257600080fd5b505050604051805190508b600160a060020a031663880049503360405160e060020a63ffffffff8416028152600160a060020a039091166004820152602401602060405180830381600087803b15156108aa57600080fd5b5af115156108b757600080fd5b5050506040518051905011610930578a600160a060020a031663880049503360405160e060020a63ffffffff8416028152600160a060020a039091166004820152602401602060405180830381600087803b151561091457600080fd5b5af1151561092157600080fd5b505050604051805190506109d8565b600160a060020a038c16638fc6ad2d8163e2f97c8d6040518163ffffffff1660e060020a028152600401602060405180830381600087803b151561097357600080fd5b5af1151561098057600080fd5b5050506040518051905060405160e060020a63ffffffff84160281526004810191909152602401602060405180830381600087803b15156109c057600080fd5b5af115156109cd57600080fd5b505050604051805190505b60038b0180549091019055600160a060020a038c16638fc6ad2d816314eb172c6040518163ffffffff1660e060020a028152600401602060405180830381600087803b1515610a2657600080fd5b5af11515610a3357600080fd5b5050506040518051905060405160e060020a63ffffffff84160281526004810191909152602401602060405180830381600087803b1515610a7357600080fd5b5af11515610a8057600080fd5b505050604051805190508a600301541115610c8d5760035460018b0154600160a060020a039091169950899063b9c105cf9060405160e060020a63ffffffff841602815260048101919091526024016040805180830381600087803b1515610ae757600080fd5b5af11515610af457600080fd5b505050604051805190602001805191995090975060029050876002811115610b1857fe5b1415610b2357600080fd5b88600160a060020a031663d30bf3238b6001015460405160e060020a63ffffffff84160281526004810191909152602401602060405180830381600087803b1515610b6d57600080fd5b5af11515610b7a57600080fd5b5050506040518051965060029050866002811115610b9457fe5b14610b9e57600080fd5b8954600160a060020a03808d1691630261a40391168a60405160e060020a63ffffffff8516028152600160a060020a0390921660048301526024820152604401602060405180830381600087803b1515610bf757600080fd5b5af11515610c0457600080fd5b50505060405180519050507f4027175c911e4ac813df71c7433aa237efa18e51adbe2f8deb2e21d5d1db81c68e8b600101548c60020160009054906101000a90046fffffffffffffffffffffffffffffffff1660405192835260208301919091526fffffffffffffffffffffffffffffffff166040808301919091526060909101905180910390a15b7f38f90e6894903aa729dbd3b9fab7151d08066ab4be17eb5e695d541eb1fe73518e8b6003015460405191825260208201526040908101905180910390a15050506003909601549a9950505050505050505050565b600154600160a060020a031681565b600080600080610cff610e77565b60008681526005602052604090819020906080905190810160409081528254600160a060020a031682526001830154602083015260028301546fffffffffffffffffffffffffffffffff16908201526003909101546060820152905080518160200151826040015183606001519450945094509450509193509193565b600160a060020a03331660009081526020819052604090205460ff161515610da357600080fd5b6001805473ffffffffffffffffffffffffffffffffffffffff1916600160a060020a0392909216919091179055565b60006020819052908152604090205460ff1681565b600160a060020a03331660009081526020819052604090205460ff161515610e0e57600080fd5b600160a060020a0381161515610e2357600080fd5b600160a060020a03166000908152602081905260409020805460ff19166001179055565b6004545b90565b815481835581811511610e7257600083815260209020610e72918101908301610e9e565b505050565b60806040519081016040908152600080835260208301819052908201819052606082015290565b610e4b91905b80821115610eb85760008155600101610ea4565b50905600a165627a7a72305820fb5e8a4a8fa0aeff9bc1d83fd0394fd801b219794d005cab38d6c199ea518d180029",
  "source": "pragma solidity ^0.4.21;\n\nimport './lib/Approvable.sol';\nimport './DIDToken.sol';\nimport './Distense.sol';\nimport './Tasks.sol';\n\ncontract PullRequests is Approvable {\n\n    address public DIDTokenAddress;\n    address public DistenseAddress;\n    address public TasksAddress;\n\n    struct PullRequest {\n        address contributor;\n        bytes32 taskId;\n        uint128 prNum;\n        uint256 pctDIDApproved;\n        mapping(address => bool) voted;\n    }\n\n    bytes32[] public pullRequestIds;\n\n    mapping(bytes32 => PullRequest) pullRequests;\n\n    event LogAddPullRequest(bytes32 _prId, bytes32 taskId, uint128 prNum);\n    event LogPullRequestApprovalVote(bytes32 _prId, uint256 pctDIDApproved);\n    event LogRewardPullRequest(bytes32 _prId, bytes32 taskId, uint128 prNum);\n\n    function PullRequests(\n        address _DIDTokenAddress,\n        address _DistenseAddress,\n        address _TasksAddress\n    ) public {\n        DIDTokenAddress = _DIDTokenAddress;\n        DistenseAddress = _DistenseAddress;\n        TasksAddress = _TasksAddress;\n    }\n\n    function addPullRequest(bytes32 _prId, bytes32 _taskId, uint128 _prNum) external returns (bool) {\n        pullRequests[_prId].contributor = msg.sender;\n        pullRequests[_prId].taskId = _taskId;\n        pullRequests[_prId].prNum = _prNum;\n        pullRequestIds.push(_prId);\n\n        emit LogAddPullRequest(_prId, _taskId, _prNum);\n\n        return true;\n    }\n\n    function getPullRequestById(bytes32 _prId) external view returns (address, bytes32, uint128, uint256) {\n        PullRequest memory pr = pullRequests[_prId];\n        return (pr.contributor, pr.taskId, pr.prNum, pr.pctDIDApproved);\n    }\n\n    function getNumPullRequests() external view returns (uint256) {\n        return pullRequestIds.length;\n    }\n\n    function approvePullRequest(bytes32 _prId)\n        hasntVoted(_prId)\n        hasEnoughDIDToApprovePR()\n        external\n    returns (uint256) {\n\n        Distense distense = Distense(DistenseAddress);\n        DIDToken didToken = DIDToken(DIDTokenAddress);\n\n        require(didToken.getAddressBalance(msg.sender) >= distense.getParameterValueByTitle(\n            distense.numDIDRequiredToApproveVotePullRequestParameterTitle()\n        ));\n\n        PullRequest storage _pr = pullRequests[_prId];\n\n        //  Record approval vote to prevent multiple voting\n        _pr.voted[msg.sender] = true;\n\n        //  This is not very gas efficient at all but the stack was too deep.  Need to refactor/research ways to improve\n        _pr.pctDIDApproved += didToken.pctDIDOwned(msg.sender) > distense.getParameterValueByTitle(\n            distense.votingPowerLimitParameterTitle()\n        ) ? distense.getParameterValueByTitle(\n            distense.votingPowerLimitParameterTitle()\n        ) : didToken.pctDIDOwned(msg.sender);\n\n        if (\n            _pr.pctDIDApproved > distense.getParameterValueByTitle(\n                distense.pctDIDRequiredToMergePullRequestTitle()\n            )\n        ) {\n            Tasks tasks = Tasks(TasksAddress);\n            uint256 reward;\n            Tasks.RewardStatus rewardStatus;\n            (reward , rewardStatus) = tasks.getTaskRewardAndStatus(_pr.taskId);\n\n            require(rewardStatus != Tasks.RewardStatus.PAID);\n            Tasks.RewardStatus updatedRewardStatus = tasks.setTaskRewardPaid(_pr.taskId);\n            //  Only issueDID after we confirm taskRewardPaid\n            require(updatedRewardStatus == Tasks.RewardStatus.PAID);\n            didToken.issueDID(_pr.contributor, reward);\n            emit LogRewardPullRequest(_prId, _pr.taskId, _pr.prNum);\n        }\n\n        emit LogPullRequestApprovalVote(_prId, _pr.pctDIDApproved);\n        return _pr.pctDIDApproved;\n    }\n\n    modifier hasntVoted(bytes32 _prId) {\n        bool alreadyVoted = pullRequests[_prId].voted[msg.sender];\n        require(alreadyVoted == false);\n        _;\n    }\n\n    modifier hasEnoughDIDToApprovePR() {\n\n        Distense distense = Distense(DistenseAddress);\n        uint256 threshold = distense.getParameterValueByTitle(\n            distense.numDIDRequiredToApproveVotePullRequestParameterTitle()\n        );\n\n        DIDToken didToken = DIDToken(DIDTokenAddress);\n\n        require(didToken.getAddressBalance(msg.sender) > threshold);\n        _;\n    }\n\n    function setDIDTokenAddress(address _DIDTokenAddress) public onlyApproved {\n        DIDTokenAddress = _DIDTokenAddress;\n    }\n\n    function setDistenseAddress(address _DistenseAddress) public onlyApproved {\n        DistenseAddress = _DistenseAddress;\n    }\n\n    function setTasksAddress(address _TasksAddress) public onlyApproved {\n        TasksAddress = _TasksAddress;\n    }\n}\n",
  "sourcePath": "/Users/john/distense-contracts/contracts/PullRequests.sol",
  "compiler": {
    "name": "solc",
    "version": "0.4.21+commit.dfe3193c.Emscripten.clang"
  },
  "schemaVersion": "1.0.1",
  "updatedAt": "2018-03-30T21:10:22.303Z"
}