{
  "contractName": "PullRequests",
  "abi": [
    {
      "constant": true,
      "inputs": [],
      "name": "TasksAddress",
      "outputs": [
        {
          "name": "",
          "type": "address"
        }
      ],
      "payable": false,
      "stateMutability": "view",
      "type": "function"
    },
    {
      "constant": true,
      "inputs": [],
      "name": "DistenseAddress",
      "outputs": [
        {
          "name": "",
          "type": "address"
        }
      ],
      "payable": false,
      "stateMutability": "view",
      "type": "function"
    },
    {
      "constant": false,
      "inputs": [
        {
          "name": "_prId",
          "type": "string"
        },
        {
          "name": "_taskId",
          "type": "bytes32"
        }
      ],
      "name": "addPullRequest",
      "outputs": [
        {
          "name": "",
          "type": "bool"
        }
      ],
      "payable": false,
      "stateMutability": "nonpayable",
      "type": "function"
    },
    {
      "constant": false,
      "inputs": [
        {
          "name": "_prId",
          "type": "string"
        }
      ],
      "name": "approvePullRequest",
      "outputs": [
        {
          "name": "",
          "type": "uint256"
        }
      ],
      "payable": false,
      "stateMutability": "nonpayable",
      "type": "function"
    },
    {
      "constant": false,
      "inputs": [
        {
          "name": "_address",
          "type": "address"
        }
      ],
      "name": "revokeApproval",
      "outputs": [],
      "payable": false,
      "stateMutability": "nonpayable",
      "type": "function"
    },
    {
      "constant": true,
      "inputs": [
        {
          "name": "",
          "type": "uint256"
        }
      ],
      "name": "pullRequestIds",
      "outputs": [
        {
          "name": "",
          "type": "string"
        }
      ],
      "payable": false,
      "stateMutability": "view",
      "type": "function"
    },
    {
      "constant": true,
      "inputs": [
        {
          "name": "_prId",
          "type": "string"
        }
      ],
      "name": "getPullRequestById",
      "outputs": [
        {
          "name": "",
          "type": "address"
        },
        {
          "name": "",
          "type": "bytes32"
        },
        {
          "name": "",
          "type": "uint256"
        }
      ],
      "payable": false,
      "stateMutability": "view",
      "type": "function"
    },
    {
      "constant": true,
      "inputs": [],
      "name": "DIDTokenAddress",
      "outputs": [
        {
          "name": "",
          "type": "address"
        }
      ],
      "payable": false,
      "stateMutability": "view",
      "type": "function"
    },
    {
      "constant": true,
      "inputs": [
        {
          "name": "",
          "type": "address"
        }
      ],
      "name": "approved",
      "outputs": [
        {
          "name": "",
          "type": "bool"
        }
      ],
      "payable": false,
      "stateMutability": "view",
      "type": "function"
    },
    {
      "constant": false,
      "inputs": [
        {
          "name": "_address",
          "type": "address"
        }
      ],
      "name": "approve",
      "outputs": [],
      "payable": false,
      "stateMutability": "nonpayable",
      "type": "function"
    },
    {
      "constant": true,
      "inputs": [],
      "name": "getNumPullRequests",
      "outputs": [
        {
          "name": "",
          "type": "uint256"
        }
      ],
      "payable": false,
      "stateMutability": "view",
      "type": "function"
    },
    {
      "inputs": [
        {
          "name": "_DIDTokenAddress",
          "type": "address"
        },
        {
          "name": "_DistenseAddress",
          "type": "address"
        },
        {
          "name": "_TasksAddress",
          "type": "address"
        }
      ],
      "payable": false,
      "stateMutability": "nonpayable",
      "type": "constructor"
    },
    {
      "anonymous": false,
      "inputs": [
        {
          "indexed": false,
          "name": "someInt",
          "type": "uint256"
        }
      ],
      "name": "LogInt",
      "type": "event"
    },
    {
      "anonymous": false,
      "inputs": [
        {
          "indexed": false,
          "name": "_prId",
          "type": "string"
        },
        {
          "indexed": false,
          "name": "taskId",
          "type": "bytes32"
        }
      ],
      "name": "LogRewardPullRequest",
      "type": "event"
    },
    {
      "anonymous": false,
      "inputs": [
        {
          "indexed": false,
          "name": "_prId",
          "type": "string"
        },
        {
          "indexed": false,
          "name": "pctDIDApproved",
          "type": "uint256"
        }
      ],
      "name": "LogPullRequestApprovalVote",
      "type": "event"
    },
    {
      "anonymous": false,
      "inputs": [
        {
          "indexed": false,
          "name": "someAddress",
          "type": "address"
        }
      ],
      "name": "LogAddress",
      "type": "event"
    },
    {
      "anonymous": false,
      "inputs": [
        {
          "indexed": false,
          "name": "boolean",
          "type": "bool"
        }
      ],
      "name": "LogBool",
      "type": "event"
    },
    {
      "anonymous": false,
      "inputs": [
        {
          "indexed": false,
          "name": "someBytes",
          "type": "bytes"
        }
      ],
      "name": "LogBytes",
      "type": "event"
    },
    {
      "anonymous": false,
      "inputs": [
        {
          "indexed": false,
          "name": "aBytes32",
          "type": "bytes32"
        }
      ],
      "name": "LogBytes32",
      "type": "event"
    },
    {
      "anonymous": false,
      "inputs": [
        {
          "indexed": false,
          "name": "aString",
          "type": "string"
        }
      ],
      "name": "LogString",
      "type": "event"
    },
    {
      "anonymous": false,
      "inputs": [
        {
          "indexed": false,
          "name": "someInt",
          "type": "uint256"
        }
      ],
      "name": "LogUInt256",
      "type": "event"
    }
  ],
  "bytecode": "0x6060604052341561000f57600080fd5b604051606080610fc9833981016040528080519190602001805191906020018051600160a060020a033381166000908152602081905260409020805460ff191660019081179091558054968216600160a060020a03199788161790556002805495821695871695909517909455600380549490911693909416929092179092555050610f29806100a06000396000f3006060604052600436106100955763ffffffff60e060020a600035041663072f630c811461009a5780630afdbaed146100c95780631fc82081146100dc5780633267eb4c14610143578063484685b0146101a6578063650ee0ff146101c75780637703986414610254578063ac847d49146102d3578063d8b964e6146102e6578063daea85c514610305578063e71a557714610324575b600080fd5b34156100a557600080fd5b6100ad610337565b604051600160a060020a03909116815260200160405180910390f35b34156100d457600080fd5b6100ad610346565b34156100e757600080fd5b61012f60046024813581810190830135806020601f82018190048102016040519081016040528181529291906020840183838082843750949650509335935061035592505050565b604051901515815260200160405180910390f35b341561014e57600080fd5b61019460046024813581810190830135806020601f8201819004810201604051908101604052818152929190602084018383808284375094965061049295505050505050565b60405190815260200160405180910390f35b34156101b157600080fd5b6101c5600160a060020a0360043516610b50565b005b34156101d257600080fd5b6101dd600435610bad565b60405160208082528190810183818151815260200191508051906020019080838360005b83811015610219578082015183820152602001610201565b50505050905090810190601f1680156102465780820380516001836020036101000a031916815260200191505b509250505060405180910390f35b341561025f57600080fd5b6102a560046024813581810190830135806020601f82018190048102016040519081016040528181529291906020840183838082843750949650610c6895505050505050565b604051600160a060020a03909316835260208301919091526040808301919091526060909101905180910390f35b34156102de57600080fd5b6100ad610d27565b34156102f157600080fd5b61012f600160a060020a0360043516610d36565b341561031057600080fd5b6101c5600160a060020a0360043516610d4b565b341561032f57600080fd5b610194610dab565b600354600160a060020a031681565b600254600160a060020a031681565b6000336005846040518082805190602001908083835b6020831061038a5780518252601f19909201916020918201910161036b565b6001836020036101000a038019825116818451168082178552505050505050905001915050908152602001604051908190039020805473ffffffffffffffffffffffffffffffffffffffff1916600160a060020a0392909216919091179055816005846040518082805190602001908083835b6020831061041c5780518252601f1990920191602091820191016103fd565b6001836020036101000a038019825116818451168082178552505050505050905001915050908152602001604051908190039020600190810191909155600480549091810161046b8382610db2565b6000928352602090922001848051610487929160200190610ddb565b506001949350505050565b60008060008060008060008760006005826040518082805190602001908083835b602083106104d25780518252601f1990920191602091820191016104b3565b6001836020036101000a038019825116818451168082178552505050505050905001915050908152602001604051908190039020600160a060020a03331660009081526003909101602052604090205460ff169050801561053257600080fd5b600254600160a060020a031660008082638fc6ad2d8163a3b8e7b584604051602001526040518163ffffffff1660e060020a028152600401602060405180830381600087803b151561058357600080fd5b6102c65a03f1151561059457600080fd5b5050506040518051905060006040516020015260405160e060020a63ffffffff84160281526004810191909152602401602060405180830381600087803b15156105dd57600080fd5b6102c65a03f115156105ee57600080fd5b5050506040518051600154909350600160a060020a03169150829050816327e235e33360006040516020015260405160e060020a63ffffffff8416028152600160a060020a039091166004820152602401602060405180830381600087803b151561065857600080fd5b6102c65a03f1151561066957600080fd5b5050506040518051905011151561067f57600080fd5b600254600154600160a060020a039182169c501699508a63a3b8e7b56000604051602001526040518163ffffffff1660e060020a028152600401602060405180830381600087803b15156106d257600080fd5b6102c65a03f115156106e357600080fd5b5050506040518051995050600160a060020a038b16638fc6ad2d8a60006040516020015260405160e060020a63ffffffff84160281526004810191909152602401602060405180830381600087803b151561073d57600080fd5b6102c65a03f1151561074e57600080fd5b505050604051805190508a600160a060020a03166327e235e33360006040516020015260405160e060020a63ffffffff8416028152600160a060020a039091166004820152602401602060405180830381600087803b15156107af57600080fd5b6102c65a03f115156107c057600080fd5b50505060405180519050101515156107d757600080fd5b60058d6040518082805190602001908083835b602083106108095780518252601f1990920191602091820191016107ea565b6001836020036101000a0380198251168184511680821785525050505050509050019150509081526020016040518091039020975089600160a060020a031663880049503360006040516020015260405160e060020a63ffffffff8416028152600160a060020a039091166004820152602401602060405180830381600087803b151561089557600080fd5b6102c65a03f115156108a657600080fd5b505050604051805160028a018054909101905550600160a060020a03338116600090815260038a016020526040808220805460ff19166001179055918d1691638fc6ad2d9183916314eb172c919051602001526040518163ffffffff1660e060020a028152600401602060405180830381600087803b151561092757600080fd5b6102c65a03f1151561093857600080fd5b5050506040518051905060006040516020015260405160e060020a63ffffffff84160281526004810191909152602401602060405180830381600087803b151561098157600080fd5b6102c65a03f1151561099257600080fd5b5050506040518051905088600201541115610a94576003546001890154600160a060020a039091169750879063a022c15e9060006040516020015260405160e060020a63ffffffff84160281526004810191909152602401602060405180830381600087803b1515610a0357600080fd5b6102c65a03f11515610a1457600080fd5b50505060405180519050955086600160a060020a031663d30bf323896001015460006040516020015260405160e060020a63ffffffff84160281526004810191909152602401602060405180830381600087803b1515610a7357600080fd5b6102c65a03f11515610a8457600080fd5b5050506040518051905050610b3a565b7f1d9189ffaf26bb48a90a05c970f8eb0b29bd3a06527069c4f367fd79272c4cad8d89600201546040518080602001838152602001828103825284818151815260200191508051906020019080838360005b83811015610afe578082015183820152602001610ae6565b50505050905090810190601f168015610b2b5780820380516001836020036101000a031916815260200191505b50935050505060405180910390a15b5050506002909401549998505050505050505050565b600160a060020a03331660009081526020819052604090205460ff161515610b7757600080fd5b600160a060020a0381161515610b8c57600080fd5b600160a060020a03166000908152602081905260409020805460ff19169055565b6004805482908110610bbb57fe5b90600052602060002090016000915090508054600181600116156101000203166002900480601f016020809104026020016040519081016040528092919081815260200182805460018160011615610100020316600290048015610c605780601f10610c3557610100808354040283529160200191610c60565b820191906000526020600020905b815481529060010190602001808311610c4357829003601f168201915b505050505081565b6000806000610c75610e59565b6005856040518082805190602001908083835b60208310610ca75780518252601f199092019160209182019101610c88565b6001836020036101000a0380198251168184511680821785525050505050509050019150509081526020016040518091039020606060405190810160409081528254600160a060020a0316825260018301546020830152600290920154918101919091529050805181602001518260400151935093509350509193909250565b600154600160a060020a031681565b60006020819052908152604090205460ff1681565b600160a060020a03331660009081526020819052604090205460ff161515610d7257600080fd5b600160a060020a0381161515610d8757600080fd5b600160a060020a03166000908152602081905260409020805460ff19166001179055565b6004545b90565b815481835581811511610dd657600083815260209020610dd6918101908301610e79565b505050565b828054600181600116156101000203166002900490600052602060002090601f016020900481019282601f10610e1c57805160ff1916838001178555610e49565b82800160010185558215610e49579182015b82811115610e49578251825591602001919060010190610e2e565b50610e55929150610e9c565b5090565b606060405190810160409081526000808352602083018190529082015290565b610daf91905b80821115610e55576000610e938282610eb6565b50600101610e7f565b610daf91905b80821115610e555760008155600101610ea2565b50805460018160011615610100020316600290046000825580601f10610edc5750610efa565b601f016020900490600052602060002090810190610efa9190610e9c565b505600a165627a7a723058202408e2b35795976985f8843d1462a658d459acce5b74807db82c0e8550df1feb0029",
  "source": "pragma solidity ^0.4.17;\n\n\nimport './lib/Approvable.sol';\nimport './DIDToken.sol';\nimport './Distense.sol';\nimport './Tasks.sol';\n\n\ncontract PullRequests is Approvable, Debuggable {\n\n\n  address public DIDTokenAddress;\n  address public DistenseAddress;\n  address public TasksAddress;\n\n  struct PullRequest {\n    address contributor;\n    bytes32 taskId;\n    uint256 pctDIDApproved;\n    mapping (address => bool) voted;\n  }\n\n  string[] public pullRequestIds;\n\n  mapping (string => PullRequest) pullRequests;\n\n  event LogInt(uint256 someInt);\n  event LogRewardPullRequest(string _prId, bytes32 taskId);\n  event LogPullRequestApprovalVote(string  _prId, uint256 pctDIDApproved);\n\n\n  function PullRequests(\n    address _DIDTokenAddress,\n    address _DistenseAddress,\n    address _TasksAddress\n  ) public {\n    DIDTokenAddress = _DIDTokenAddress;\n    DistenseAddress = _DistenseAddress;\n    TasksAddress = _TasksAddress;\n  }\n\n\n  //  TODO should we require DID here?\n  function addPullRequest(string _prId, bytes32 _taskId) public returns (bool) {\n    pullRequests[_prId].contributor = msg.sender;\n    pullRequests[_prId].taskId = _taskId;\n    pullRequestIds.push(_prId);\n\n    return true;\n  }\n\n\n  function getPullRequestById(string _prId) public view returns (address, bytes32, uint256) {\n    PullRequest memory pr = pullRequests[_prId];\n    return (pr.contributor, pr.taskId, pr.pctDIDApproved);\n  }\n\n\n  function getNumPullRequests() public view returns (uint256) {\n    return pullRequestIds.length;\n  }\n\n\n  function approvePullRequest(string _prId)\n    hasntVoted(_prId)\n    hasEnoughDIDToApprovePR()\n    public\n  returns (uint256) {\n\n    Distense distense = Distense(DistenseAddress);\n    DIDToken didToken = DIDToken(DIDTokenAddress);\n\n    bytes32 title = distense.numDIDRequiredToApproveVotePullRequestParameterTitle();\n    require(didToken.balances(msg.sender) >= distense.getParameterValueByTitle(title));\n\n    PullRequest storage _pr = pullRequests[_prId];\n\n    //  Increment pctDIDApproved by percentage ownership of voter\n    _pr.pctDIDApproved += didToken.pctDIDOwned(msg.sender);\n\n    //  Record approval to prevent multiple voting\n    _pr.voted[msg.sender] = true;\n\n    if (_pr.pctDIDApproved > distense.getParameterValueByTitle(\n      distense.pctDIDRequiredToMergePullRequestTitle()\n      )\n    ) {\n      Tasks tasks = Tasks(TasksAddress);\n      uint256 taskReward = tasks.getTaskReward(_pr.taskId);\n      tasks.setTaskRewardPaid(_pr.taskId);\n//\n//      didToken.issueDID(_pr.contributor, taskReward);\n//\n//      LogRewardPullRequest(_pr.taskId, _prId);\n    } else {\n      LogPullRequestApprovalVote(_prId, _pr.pctDIDApproved);\n    }\n\n    return _pr.pctDIDApproved;\n\n  }\n\n  modifier hasntVoted(string _prId) {\n    bool alreadyVoted = pullRequests[_prId].voted[msg.sender];\n    require(alreadyVoted == false);\n    _;\n  }\n\n  modifier hasEnoughDIDToApprovePR() {\n\n    Distense distense = Distense(DistenseAddress);\n    uint256 threshold = distense.getParameterValueByTitle(\n      distense.numDIDRequiredToApproveVotePullRequestParameterTitle()\n    );\n\n    DIDToken didToken = DIDToken(DIDTokenAddress);\n\n    require(didToken.balances(msg.sender) > threshold);\n    _;\n  }\n\n}\n",
  "sourcePath": "/Users/john/distense-contracts/contracts/PullRequests.sol",
  "compiler": {
    "name": "solc",
    "version": "0.4.18+commit.9cf6e910.Emscripten.clang"
  },
  "schemaVersion": "1.0.1",
  "updatedAt": "2018-01-07T15:28:18.917Z"
}