{
  "contractName": "PullRequests",
  "abi": [
    {
      "constant": true,
      "inputs": [],
      "name": "TasksAddress",
      "outputs": [
        {
          "name": "",
          "type": "address"
        }
      ],
      "payable": false,
      "stateMutability": "view",
      "type": "function"
    },
    {
      "constant": true,
      "inputs": [],
      "name": "DistenseAddress",
      "outputs": [
        {
          "name": "",
          "type": "address"
        }
      ],
      "payable": false,
      "stateMutability": "view",
      "type": "function"
    },
    {
      "constant": false,
      "inputs": [
        {
          "name": "_prId",
          "type": "bytes32"
        },
        {
          "name": "_taskId",
          "type": "bytes32"
        }
      ],
      "name": "submitPullRequest",
      "outputs": [
        {
          "name": "",
          "type": "uint256"
        }
      ],
      "payable": false,
      "stateMutability": "nonpayable",
      "type": "function"
    },
    {
      "constant": false,
      "inputs": [
        {
          "name": "_address",
          "type": "address"
        }
      ],
      "name": "revokeApproval",
      "outputs": [],
      "payable": false,
      "stateMutability": "nonpayable",
      "type": "function"
    },
    {
      "constant": true,
      "inputs": [
        {
          "name": "",
          "type": "uint256"
        }
      ],
      "name": "pullRequestIds",
      "outputs": [
        {
          "name": "",
          "type": "bytes32"
        }
      ],
      "payable": false,
      "stateMutability": "view",
      "type": "function"
    },
    {
      "constant": true,
      "inputs": [],
      "name": "numDIDRequiredToApprovePRs",
      "outputs": [
        {
          "name": "",
          "type": "uint256"
        }
      ],
      "payable": false,
      "stateMutability": "view",
      "type": "function"
    },
    {
      "constant": true,
      "inputs": [],
      "name": "DIDTokenAddress",
      "outputs": [
        {
          "name": "",
          "type": "address"
        }
      ],
      "payable": false,
      "stateMutability": "view",
      "type": "function"
    },
    {
      "constant": true,
      "inputs": [
        {
          "name": "_prId",
          "type": "bytes32"
        }
      ],
      "name": "getPullRequestById",
      "outputs": [
        {
          "name": "",
          "type": "address"
        },
        {
          "name": "",
          "type": "bytes32"
        },
        {
          "name": "",
          "type": "uint256"
        }
      ],
      "payable": false,
      "stateMutability": "view",
      "type": "function"
    },
    {
      "constant": true,
      "inputs": [
        {
          "name": "",
          "type": "address"
        }
      ],
      "name": "approved",
      "outputs": [
        {
          "name": "",
          "type": "bool"
        }
      ],
      "payable": false,
      "stateMutability": "view",
      "type": "function"
    },
    {
      "constant": false,
      "inputs": [
        {
          "name": "_address",
          "type": "address"
        }
      ],
      "name": "approve",
      "outputs": [],
      "payable": false,
      "stateMutability": "nonpayable",
      "type": "function"
    },
    {
      "constant": false,
      "inputs": [
        {
          "name": "_prId",
          "type": "bytes32"
        },
        {
          "name": "_approve",
          "type": "bool"
        }
      ],
      "name": "voteOnApproval",
      "outputs": [
        {
          "name": "",
          "type": "uint256"
        }
      ],
      "payable": false,
      "stateMutability": "nonpayable",
      "type": "function"
    },
    {
      "constant": true,
      "inputs": [],
      "name": "getNumPullRequests",
      "outputs": [
        {
          "name": "",
          "type": "uint256"
        }
      ],
      "payable": false,
      "stateMutability": "view",
      "type": "function"
    },
    {
      "inputs": [
        {
          "name": "_DIDTokenAddress",
          "type": "address"
        },
        {
          "name": "_DistenseAddress",
          "type": "address"
        },
        {
          "name": "_TasksAddress",
          "type": "address"
        }
      ],
      "payable": false,
      "stateMutability": "nonpayable",
      "type": "constructor"
    },
    {
      "anonymous": false,
      "inputs": [
        {
          "indexed": false,
          "name": "someInt",
          "type": "uint256"
        }
      ],
      "name": "LogInt",
      "type": "event"
    },
    {
      "anonymous": false,
      "inputs": [
        {
          "indexed": false,
          "name": "_prId",
          "type": "bytes32"
        },
        {
          "indexed": true,
          "name": "taskId",
          "type": "bytes32"
        }
      ],
      "name": "LogPullRequestApproval",
      "type": "event"
    },
    {
      "anonymous": false,
      "inputs": [
        {
          "indexed": true,
          "name": "_prId",
          "type": "bytes32"
        },
        {
          "indexed": false,
          "name": "pctDIDApproved",
          "type": "uint256"
        }
      ],
      "name": "LogPullRequestVote",
      "type": "event"
    }
  ],
  "bytecode": "0x606060405260025460018054600160a060020a031916600160a060020a03909216919091179055341561003157600080fd5b6040516060806106aa833981016040528080519190602001805191906020018051600160a060020a033381166000908152602081905260409020805460ff1916600117905560028054968216600160a060020a031997881617905560048054958216958716959095179094556006805494909116939094169290921790925550506105e9806100c16000396000f300606060405236156100b75763ffffffff7c0100000000000000000000000000000000000000000000000000000000600035041663072f630c81146100bc5780630afdbaed146100eb5780633b0ec084146100fe578063484685b014610129578063650ee0ff1461014a578063750b3c8c14610160578063ac847d4914610173578063af692e0014610186578063d8b964e6146101ca578063daea85c5146101fd578063e2b068f51461021c578063e71a557714610237575b600080fd5b34156100c757600080fd5b6100cf61024a565b604051600160a060020a03909116815260200160405180910390f35b34156100f657600080fd5b6100cf610259565b341561010957600080fd5b610117600435602435610268565b60405190815260200160405180910390f35b341561013457600080fd5b610148600160a060020a0360043516610315565b005b341561015557600080fd5b61011760043561037a565b341561016b57600080fd5b610117610399565b341561017e57600080fd5b6100cf61039e565b341561019157600080fd5b61019c6004356103ad565b604051600160a060020a03909316835260208301919091526040808301919091526060909101905180910390f35b34156101d557600080fd5b6101e9600160a060020a0360043516610417565b604051901515815260200160405180910390f35b341561020857600080fd5b610148600160a060020a036004351661042c565b341561022757600080fd5b6101176004356024351515610494565b341561024257600080fd5b610117610541565b600654600160a060020a031681565b600454600160a060020a031681565b6000610272610556565b60606040519081016040908152600160a060020a03331682526020808301869052600082840181905287815260089091522090915081908151815473ffffffffffffffffffffffffffffffffffffffff1916600160a060020a03919091161781556020820151600182015560408201516002909101555060078054600181016102fb8382610576565b506000918252602090912001939093555050600754919050565b600160a060020a03331660009081526020819052604090205460ff16151561033c57600080fd5b61034e81600160a060020a0316610548565b151561035957600080fd5b600160a060020a03166000908152602081905260409020805460ff19169055565b600780548290811061038857fe5b600091825260209091200154905081565b606481565b600254600160a060020a031681565b60008060006103ba610556565b60008581526008602052604090819020906060905190810160409081528254600160a060020a0316825260018301546020830152600290920154918101919091529050805181602001518260400151935093509350509193909250565b60006020819052908152604090205460ff1681565b600160a060020a03331660009081526020819052604090205460ff16151561045357600080fd5b61046581600160a060020a0316610548565b151561047057600080fd5b600160a060020a03166000908152602081905260409020805460ff19166001179055565b60015460009033908290600160a060020a03166327e235e38383604051602001526040517c010000000000000000000000000000000000000000000000000000000063ffffffff8416028152600160a060020a039091166004820152602401602060405180830381600087803b151561050c57600080fd5b6102c65a03f1151561051d57600080fd5b5050506040518051915050606481101561053657600080fd5b506064949350505050565b6007545b90565b600160a060020a0316151590565b606060405190810160409081526000808352602083018190529082015290565b81548183558181151161059a5760008381526020902061059a91810190830161059f565b505050565b61054591905b808211156105b957600081556001016105a5565b50905600a165627a7a723058204cb023902a576c6effb39296aa71bbd7eb3b822b8d679c62be1cb7c15a37f9e80029",
  "source": "pragma solidity ^0.4.17;\n\n\nimport './lib/Approvable.sol';\nimport './DIDToken.sol';\nimport './Distense.sol';\nimport './Tasks.sol';\n\n\ncontract PullRequests is Approvable {\n\n  DIDToken didToken = DIDToken(DIDTokenAddress);\n  address public DIDTokenAddress;\n\n  Distense distense;\n  address public DistenseAddress;\n\n  Tasks tasks;\n  address public TasksAddress;\n\n  uint256 constant public numDIDRequiredToApprovePRs = 100;\n\n  struct PullRequest {\n    address createdBy;\n    bytes32 taskId;\n    uint256 pctDIDApproved;\n    mapping (address => Vote) votes;\n  }\n\n  struct Vote {\n    address voter;\n    bool approves;\n  }\n\n  bytes32[] public pullRequestIds;\n\n  mapping (bytes32 => PullRequest) pullRequests;\n\n  event LogInt(uint256 someInt);\n  event LogPullRequestApproval(bytes32 _prId, bytes32 indexed taskId);\n  event LogPullRequestVote(bytes32 indexed _prId, uint256 pctDIDApproved);\n\n  function PullRequests(address _DIDTokenAddress, address _DistenseAddress, address _TasksAddress) public {\n    DIDTokenAddress = _DIDTokenAddress;\n    DistenseAddress = _DistenseAddress;\n    TasksAddress = _TasksAddress;\n  }\n\n  function submitPullRequest(bytes32 _prId, bytes32 _taskId) external returns (uint256) {\n    PullRequest memory _pr = PullRequest(msg.sender, _taskId, 0);\n    //Write the _pr struct to storage\n    _pr.pctDIDApproved = 0;\n    pullRequests[_prId] = _pr;\n    pullRequestIds.push(_prId);\n    return pullRequestIds.length;\n  }\n\n  function getPullRequestById(bytes32 _prId) public view returns (address, bytes32, uint256) {\n    PullRequest memory pr = pullRequests[_prId];\n    return (pr.createdBy, pr.taskId, pr.pctDIDApproved);\n  }\n\n  function getNumPullRequests() public view returns (uint256) {\n    return pullRequestIds.length;\n  }\n\n  function voteOnApproval(bytes32 _prId, bool _approve) /*hasntVotedThisWay(_prId, msg.sender, _approve)*/ enoughDIDToApprove(msg\n.sender)\n  external\n  returns (uint256) {\n//    PullRequest storage _pr = pullRequests[_prId];\n//\n//    uint256 pctDIDOwned = didToken.percentDID(msg.sender);\n//    _pr.votes[msg.sender].approves = _approve;\n\n//    if (!_approve) {\n//      pctDIDOwned += -pctDIDOwned;\n//    }\n//    _pr.pctDIDApproved += pctDIDOwned;\n    return 100;\n//    uint256 approvalValue = distense.getParameterValue(distense.pullRequestPctDIDRequiredParameterTitle());\n//    if (_pr.pctDIDApproved > approvalValue) {\n//      approvePullRequest(_pr.taskId, _prId, _pr.createdBy);\n//    }\n//\n//    LogPullRequestVote(_prId, _pr.pctDIDApproved);\n//    return _pr.pctDIDApproved;\n  }\n\n  function approvePullRequest(bytes32 _taskId, bytes32 _prId, address contributor) internal returns (bool) {\n    LogPullRequestApproval(_taskId, _prId);\n    uint256 taskReward = tasks.getTaskReward(_taskId);\n    didToken.issueDID(contributor, taskReward);\n    return true;\n  }\n\n  modifier hasntVotedThisWay(bytes32 _prId, address voter, bool vote) {\n    bool alreadyVoted = pullRequests[_prId].votes[voter].approves == vote;\n    require(!alreadyVoted);\n    _;\n  }\n\n  modifier enoughDIDToApprove(address voter) {\n    uint256 didOwned = didToken.balances(voter);\n    require(didOwned >= numDIDRequiredToApprovePRs);\n    _;\n  }\n\n}\n",
  "sourcePath": "/Users/john/distense-contracts/contracts/PullRequests.sol",
  "schemaVersion": "1.0.0",
  "updatedAt": "2017-11-24T23:52:34.036Z"
}