{
  "contractName": "PullRequests",
  "abi": [
    {
      "constant": true,
      "inputs": [],
      "name": "TasksAddress",
      "outputs": [
        {
          "name": "",
          "type": "address"
        }
      ],
      "payable": false,
      "stateMutability": "view",
      "type": "function"
    },
    {
      "constant": true,
      "inputs": [],
      "name": "DistenseAddress",
      "outputs": [
        {
          "name": "",
          "type": "address"
        }
      ],
      "payable": false,
      "stateMutability": "view",
      "type": "function"
    },
    {
      "constant": false,
      "inputs": [
        {
          "name": "_address",
          "type": "address"
        }
      ],
      "name": "revokeApproval",
      "outputs": [],
      "payable": false,
      "stateMutability": "nonpayable",
      "type": "function"
    },
    {
      "constant": true,
      "inputs": [
        {
          "name": "",
          "type": "uint256"
        }
      ],
      "name": "pullRequestIds",
      "outputs": [
        {
          "name": "",
          "type": "bytes32"
        }
      ],
      "payable": false,
      "stateMutability": "view",
      "type": "function"
    },
    {
      "constant": true,
      "inputs": [],
      "name": "DIDTokenAddress",
      "outputs": [
        {
          "name": "",
          "type": "address"
        }
      ],
      "payable": false,
      "stateMutability": "view",
      "type": "function"
    },
    {
      "constant": true,
      "inputs": [
        {
          "name": "",
          "type": "address"
        }
      ],
      "name": "approved",
      "outputs": [
        {
          "name": "",
          "type": "bool"
        }
      ],
      "payable": false,
      "stateMutability": "view",
      "type": "function"
    },
    {
      "constant": false,
      "inputs": [
        {
          "name": "_address",
          "type": "address"
        }
      ],
      "name": "approve",
      "outputs": [],
      "payable": false,
      "stateMutability": "nonpayable",
      "type": "function"
    },
    {
      "inputs": [
        {
          "name": "_DIDTokenAddress",
          "type": "address"
        },
        {
          "name": "_DistenseAddress",
          "type": "address"
        },
        {
          "name": "_TasksAddress",
          "type": "address"
        }
      ],
      "payable": false,
      "stateMutability": "nonpayable",
      "type": "constructor"
    },
    {
      "anonymous": false,
      "inputs": [
        {
          "indexed": false,
          "name": "_prId",
          "type": "bytes32"
        },
        {
          "indexed": false,
          "name": "taskId",
          "type": "bytes32"
        },
        {
          "indexed": false,
          "name": "prNum",
          "type": "uint128"
        }
      ],
      "name": "LogAddPullRequest",
      "type": "event"
    },
    {
      "anonymous": false,
      "inputs": [
        {
          "indexed": false,
          "name": "_prId",
          "type": "bytes32"
        },
        {
          "indexed": false,
          "name": "pctDIDApproved",
          "type": "uint256"
        }
      ],
      "name": "LogPullRequestApprovalVote",
      "type": "event"
    },
    {
      "anonymous": false,
      "inputs": [
        {
          "indexed": false,
          "name": "_prId",
          "type": "bytes32"
        },
        {
          "indexed": false,
          "name": "taskId",
          "type": "bytes32"
        },
        {
          "indexed": false,
          "name": "prNum",
          "type": "uint128"
        }
      ],
      "name": "LogRewardPullRequest",
      "type": "event"
    },
    {
      "anonymous": false,
      "inputs": [
        {
          "indexed": false,
          "name": "someAddress",
          "type": "address"
        }
      ],
      "name": "LogAddress",
      "type": "event"
    },
    {
      "anonymous": false,
      "inputs": [
        {
          "indexed": false,
          "name": "boolean",
          "type": "bool"
        }
      ],
      "name": "LogBool",
      "type": "event"
    },
    {
      "anonymous": false,
      "inputs": [
        {
          "indexed": false,
          "name": "someBytes",
          "type": "bytes"
        }
      ],
      "name": "LogBytes",
      "type": "event"
    },
    {
      "anonymous": false,
      "inputs": [
        {
          "indexed": false,
          "name": "aBytes32",
          "type": "bytes32"
        }
      ],
      "name": "LogBytes32",
      "type": "event"
    },
    {
      "anonymous": false,
      "inputs": [
        {
          "indexed": false,
          "name": "aString",
          "type": "string"
        }
      ],
      "name": "LogString",
      "type": "event"
    },
    {
      "anonymous": false,
      "inputs": [
        {
          "indexed": false,
          "name": "someInt",
          "type": "uint256"
        }
      ],
      "name": "LogUInt256",
      "type": "event"
    },
    {
      "anonymous": false,
      "inputs": [
        {
          "indexed": false,
          "name": "someInt",
          "type": "int256"
        }
      ],
      "name": "LogInt256",
      "type": "event"
    },
    {
      "constant": false,
      "inputs": [
        {
          "name": "_prId",
          "type": "bytes32"
        },
        {
          "name": "_taskId",
          "type": "bytes32"
        },
        {
          "name": "_prNum",
          "type": "uint128"
        }
      ],
      "name": "addPullRequest",
      "outputs": [
        {
          "name": "",
          "type": "bool"
        }
      ],
      "payable": false,
      "stateMutability": "nonpayable",
      "type": "function"
    },
    {
      "constant": true,
      "inputs": [
        {
          "name": "_prId",
          "type": "bytes32"
        }
      ],
      "name": "getPullRequestById",
      "outputs": [
        {
          "name": "",
          "type": "address"
        },
        {
          "name": "",
          "type": "bytes32"
        },
        {
          "name": "",
          "type": "uint128"
        },
        {
          "name": "",
          "type": "uint256"
        }
      ],
      "payable": false,
      "stateMutability": "view",
      "type": "function"
    },
    {
      "constant": true,
      "inputs": [],
      "name": "getNumPullRequests",
      "outputs": [
        {
          "name": "",
          "type": "uint256"
        }
      ],
      "payable": false,
      "stateMutability": "view",
      "type": "function"
    },
    {
      "constant": false,
      "inputs": [
        {
          "name": "_prId",
          "type": "bytes32"
        }
      ],
      "name": "approvePullRequest",
      "outputs": [
        {
          "name": "",
          "type": "uint256"
        }
      ],
      "payable": false,
      "stateMutability": "nonpayable",
      "type": "function"
    }
  ],
  "bytecode": "0x6060604052341561000f57600080fd5b604051606080610d76833981016040528080519190602001805191906020018051600160a060020a033381166000908152602081905260409020805460ff191660019081179091558054968216600160a060020a03199788161790556002805495821695871695909517909455600380549490911693909416929092179092555050610cd6806100a06000396000f3006060604052600436106100955763ffffffff60e060020a600035041663072f630c811461009a5780630afdbaed146100c9578063484685b0146100dc578063650ee0ff146100fd5780637caf59d914610125578063a01fdbef14610167578063ac847d491461017d578063af692e0014610190578063d8b964e6146101ee578063daea85c51461020d578063e71a55771461022c575b600080fd5b34156100a557600080fd5b6100ad61023f565b604051600160a060020a03909116815260200160405180910390f35b34156100d457600080fd5b6100ad61024e565b34156100e757600080fd5b6100fb600160a060020a036004351661025d565b005b341561010857600080fd5b6101136004356102ba565b60405190815260200160405180910390f35b341561013057600080fd5b6101536004356024356fffffffffffffffffffffffffffffffff604435166102d9565b604051901515815260200160405180910390f35b341561017257600080fd5b6101136004356103c9565b341561018857600080fd5b6100ad610b26565b341561019b57600080fd5b6101a6600435610b35565b604051600160a060020a03909416845260208401929092526fffffffffffffffffffffffffffffffff1660408084019190915260608301919091526080909101905180910390f35b34156101f957600080fd5b610153600160a060020a0360043516610bc0565b341561021857600080fd5b6100fb600160a060020a0360043516610bd5565b341561023757600080fd5b610113610c35565b600354600160a060020a031681565b600254600160a060020a031681565b600160a060020a03331660009081526020819052604090205460ff16151561028457600080fd5b600160a060020a038116151561029957600080fd5b600160a060020a03166000908152602081905260409020805460ff19169055565b60048054829081106102c857fe5b600091825260209091200154905081565b6000838152600560205260408120805473ffffffffffffffffffffffffffffffffffffffff191633600160a060020a03161781556001808201859055600290910180546fffffffffffffffffffffffffffffffff19166fffffffffffffffffffffffffffffffff851617905560048054909181016103578382610c3c565b5060009182526020909120018490557f1cb7fef23eb23bac1c82dc07555d40809aa3ecde37c0fd1d06481a512352c04e84848460405192835260208301919091526fffffffffffffffffffffffffffffffff166040808301919091526060909101905180910390a15060019392505050565b6000818152600560209081526040808320600160a060020a03331684526004019091528120548190819081908190819081908190899060ff16801561040d57600080fd5b600254600160a060020a031660008082638fc6ad2d8163a3b8e7b584604051602001526040518163ffffffff1660e060020a028152600401602060405180830381600087803b151561045e57600080fd5b6102c65a03f1151561046f57600080fd5b5050506040518051905060006040516020015260405160e060020a63ffffffff84160281526004810191909152602401602060405180830381600087803b15156104b857600080fd5b6102c65a03f115156104c957600080fd5b5050506040518051600154909350600160a060020a03169150829050816327e235e33360006040516020015260405160e060020a63ffffffff8416028152600160a060020a039091166004820152602401602060405180830381600087803b151561053357600080fd5b6102c65a03f1151561054457600080fd5b5050506040518051905011151561055a57600080fd5b600254600154600160a060020a039182169d50169a508b638fc6ad2d8163a3b8e7b56000604051602001526040518163ffffffff1660e060020a028152600401602060405180830381600087803b15156105b357600080fd5b6102c65a03f115156105c457600080fd5b5050506040518051905060006040516020015260405160e060020a63ffffffff84160281526004810191909152602401602060405180830381600087803b151561060d57600080fd5b6102c65a03f1151561061e57600080fd5b505050604051805190508b600160a060020a03166327e235e33360006040516020015260405160e060020a63ffffffff8416028152600160a060020a039091166004820152602401602060405180830381600087803b151561067f57600080fd5b6102c65a03f1151561069057600080fd5b50505060405180519050101515156106a757600080fd5b60008e8152600560209081526040808320600160a060020a0333818116865260048301909452828520805460ff19166001179055909d508e169263880049509291516020015260405160e060020a63ffffffff8416028152600160a060020a039091166004820152602401602060405180830381600087803b151561072b57600080fd5b6102c65a03f1151561073c57600080fd5b505050604051805160038c018054909101905550600160a060020a038c16638fc6ad2d816314eb172c6000604051602001526040518163ffffffff1660e060020a028152600401602060405180830381600087803b151561079c57600080fd5b6102c65a03f115156107ad57600080fd5b5050506040518051905060006040516020015260405160e060020a63ffffffff84160281526004810191909152602401602060405180830381600087803b15156107f657600080fd5b6102c65a03f1151561080757600080fd5b505050604051805190508a600301541115610ad15760035460018b0154600160a060020a039091169950899063b9c105cf9060006040516040015260405160e060020a63ffffffff841602815260048101919091526024016040805180830381600087803b151561087757600080fd5b6102c65a03f1151561088857600080fd5b50505060405180519060200180519050975097507fa95e6e2a182411e7a6f9ed114a85c3761d87f9b8f453d842c71235aa64fff99f60405160208082526006908201527f72657761726400000000000000000000000000000000000000000000000000006040808301919091526060909101905180910390a17f6536338e7b8ce3f2c94d49d2f6856289a266a956762141121a8598f2be01f21e8860405190815260200160405180910390a1600287600281111561094257fe5b141561094d57600080fd5b88600160a060020a031663d30bf3238b6001015460006040516020015260405160e060020a63ffffffff84160281526004810191909152602401602060405180830381600087803b15156109a057600080fd5b6102c65a03f115156109b157600080fd5b50505060405180519650600290508660028111156109cb57fe5b146109d557600080fd5b8954600160a060020a03808d1691630261a40391168a60006040516020015260405160e060020a63ffffffff8516028152600160a060020a0390921660048301526024820152604401602060405180830381600087803b1515610a3757600080fd5b6102c65a03f11515610a4857600080fd5b50505060405180519050507f4027175c911e4ac813df71c7433aa237efa18e51adbe2f8deb2e21d5d1db81c68e8b600101548c60020160009054906101000a90046fffffffffffffffffffffffffffffffff1660405192835260208301919091526fffffffffffffffffffffffffffffffff166040808301919091526060909101905180910390a15b7f38f90e6894903aa729dbd3b9fab7151d08066ab4be17eb5e695d541eb1fe73518e8b6003015460405191825260208201526040908101905180910390a15050506003909601549a9950505050505050505050565b600154600160a060020a031681565b600080600080610b43610c65565b60008681526005602052604090819020906080905190810160409081528254600160a060020a031682526001830154602083015260028301546fffffffffffffffffffffffffffffffff16908201526003909101546060820152905080518160200151826040015183606001519450945094509450509193509193565b60006020819052908152604090205460ff1681565b600160a060020a03331660009081526020819052604090205460ff161515610bfc57600080fd5b600160a060020a0381161515610c1157600080fd5b600160a060020a03166000908152602081905260409020805460ff19166001179055565b6004545b90565b815481835581811511610c6057600083815260209020610c60918101908301610c8c565b505050565b60806040519081016040908152600080835260208301819052908201819052606082015290565b610c3991905b80821115610ca65760008155600101610c92565b50905600a165627a7a7230582027c57a4a0e9c732c437ad4d2fc5a06f1bbe6bd5ef78418369f8283fe5539d6820029",
  "source": "pragma solidity ^0.4.17;\n\n\nimport './lib/Approvable.sol';\nimport './DIDToken.sol';\nimport './Distense.sol';\nimport './Tasks.sol';\n\n\ncontract PullRequests is Approvable, Debuggable {\n\n\n    address public DIDTokenAddress;\n    address public DistenseAddress;\n    address public TasksAddress;\n\n    struct PullRequest {\n        address contributor;\n        bytes32 taskId;\n        uint128 prNum;\n        uint256 pctDIDApproved;\n        mapping(address => bool) voted;\n    }\n\n    bytes32[] public pullRequestIds;\n\n    mapping(bytes32 => PullRequest) pullRequests;\n\n    event LogAddPullRequest(bytes32 _prId, bytes32 taskId, uint128 prNum);\n    event LogPullRequestApprovalVote(bytes32 _prId, uint256 pctDIDApproved);\n    event LogRewardPullRequest(bytes32 _prId, bytes32 taskId, uint128 prNum);\n\n    function PullRequests(\n        address _DIDTokenAddress,\n        address _DistenseAddress,\n        address _TasksAddress\n    ) public {\n        DIDTokenAddress = _DIDTokenAddress;\n        DistenseAddress = _DistenseAddress;\n        TasksAddress = _TasksAddress;\n    }\n\n\n    function addPullRequest(bytes32 _prId, bytes32 _taskId, uint128 _prNum) external returns (bool) {\n        pullRequests[_prId].contributor = msg.sender;\n        pullRequests[_prId].taskId = _taskId;\n        pullRequests[_prId].prNum = _prNum;\n        pullRequestIds.push(_prId);\n\n        LogAddPullRequest(_prId, _taskId, _prNum);\n\n        return true;\n    }\n\n\n    function getPullRequestById(bytes32 _prId) external view returns (address, bytes32, uint128, uint256) {\n        PullRequest memory pr = pullRequests[_prId];\n        return (pr.contributor, pr.taskId, pr.prNum, pr.pctDIDApproved);\n    }\n\n\n    function getNumPullRequests() external view returns (uint256) {\n        return pullRequestIds.length;\n    }\n\n\n    function approvePullRequest(bytes32 _prId)\n        hasntVoted(_prId)\n        hasEnoughDIDToApprovePR()\n        external\n    returns (uint256) {\n\n        Distense distense = Distense(DistenseAddress);\n        DIDToken didToken = DIDToken(DIDTokenAddress);\n\n        require(didToken.balances(msg.sender) >= distense.getParameterValueByTitle(\n            distense.numDIDRequiredToApproveVotePullRequestParameterTitle()\n        ));\n\n        PullRequest storage _pr = pullRequests[_prId];\n\n        //  Record approval vote to prevent multiple voting\n        _pr.voted[msg.sender] = true;\n        _pr.pctDIDApproved += didToken.pctDIDOwned(msg.sender);\n\n        if (\n            _pr.pctDIDApproved > distense.getParameterValueByTitle(\n                distense.pctDIDRequiredToMergePullRequestTitle()\n            )\n        ) {\n            Tasks tasks = Tasks(TasksAddress);\n            var (reward, rewardStatus) = tasks.getTaskRewardAndStatus(_pr.taskId);\n            LogString('reward');\n            LogUInt256(reward);\n            require(rewardStatus != Tasks.RewardStatus.PAID);\n            //  Only issueDID after we confirm taskRewardPaid\n            Tasks.RewardStatus updatedRewardStatus = tasks.setTaskRewardPaid(_pr.taskId);\n            require(updatedRewardStatus == Tasks.RewardStatus.PAID);\n            didToken.issueDID(_pr.contributor, reward);\n            LogRewardPullRequest(_prId, _pr.taskId, _pr.prNum);\n        }\n\n        LogPullRequestApprovalVote(_prId, _pr.pctDIDApproved);\n        return _pr.pctDIDApproved;\n\n    }\n\n    modifier hasntVoted(bytes32 _prId) {\n        bool alreadyVoted = pullRequests[_prId].voted[msg.sender];\n        require(alreadyVoted == false);\n        _;\n    }\n\n    modifier hasEnoughDIDToApprovePR() {\n\n        Distense distense = Distense(DistenseAddress);\n        uint256 threshold = distense.getParameterValueByTitle(\n            distense.numDIDRequiredToApproveVotePullRequestParameterTitle()\n        );\n\n        DIDToken didToken = DIDToken(DIDTokenAddress);\n\n        require(didToken.balances(msg.sender) > threshold);\n        _;\n    }\n\n}\n",
  "sourcePath": "/Users/john/distense-contracts/contracts/PullRequests.sol",
  "compiler": {
    "name": "solc",
    "version": "0.4.19+commit.c4cbbb05.Emscripten.clang"
  },
  "schemaVersion": "1.0.1",
  "updatedAt": "2018-03-13T21:56:36.103Z"
}