{
  "contractName": "PullRequests",
  "abi": [
    {
      "constant": true,
      "inputs": [],
      "name": "TasksAddress",
      "outputs": [
        {
          "name": "",
          "type": "address"
        }
      ],
      "payable": false,
      "stateMutability": "view",
      "type": "function"
    },
    {
      "constant": true,
      "inputs": [],
      "name": "DistenseAddress",
      "outputs": [
        {
          "name": "",
          "type": "address"
        }
      ],
      "payable": false,
      "stateMutability": "view",
      "type": "function"
    },
    {
      "constant": false,
      "inputs": [
        {
          "name": "_prId",
          "type": "string"
        },
        {
          "name": "_taskId",
          "type": "string"
        }
      ],
      "name": "addPullRequest",
      "outputs": [
        {
          "name": "",
          "type": "bool"
        }
      ],
      "payable": false,
      "stateMutability": "nonpayable",
      "type": "function"
    },
    {
      "constant": false,
      "inputs": [
        {
          "name": "_prId",
          "type": "string"
        }
      ],
      "name": "approvePullRequest",
      "outputs": [
        {
          "name": "",
          "type": "uint256"
        }
      ],
      "payable": false,
      "stateMutability": "nonpayable",
      "type": "function"
    },
    {
      "constant": false,
      "inputs": [
        {
          "name": "_address",
          "type": "address"
        }
      ],
      "name": "revokeApproval",
      "outputs": [],
      "payable": false,
      "stateMutability": "nonpayable",
      "type": "function"
    },
    {
      "constant": true,
      "inputs": [
        {
          "name": "",
          "type": "uint256"
        }
      ],
      "name": "pullRequestIds",
      "outputs": [
        {
          "name": "",
          "type": "string"
        }
      ],
      "payable": false,
      "stateMutability": "view",
      "type": "function"
    },
    {
      "constant": true,
      "inputs": [
        {
          "name": "_prId",
          "type": "string"
        }
      ],
      "name": "getPullRequestById",
      "outputs": [
        {
          "name": "",
          "type": "address"
        },
        {
          "name": "",
          "type": "string"
        },
        {
          "name": "",
          "type": "uint256"
        }
      ],
      "payable": false,
      "stateMutability": "view",
      "type": "function"
    },
    {
      "constant": true,
      "inputs": [],
      "name": "DIDTokenAddress",
      "outputs": [
        {
          "name": "",
          "type": "address"
        }
      ],
      "payable": false,
      "stateMutability": "view",
      "type": "function"
    },
    {
      "constant": true,
      "inputs": [
        {
          "name": "",
          "type": "address"
        }
      ],
      "name": "approved",
      "outputs": [
        {
          "name": "",
          "type": "bool"
        }
      ],
      "payable": false,
      "stateMutability": "view",
      "type": "function"
    },
    {
      "constant": false,
      "inputs": [
        {
          "name": "_address",
          "type": "address"
        }
      ],
      "name": "approve",
      "outputs": [],
      "payable": false,
      "stateMutability": "nonpayable",
      "type": "function"
    },
    {
      "constant": true,
      "inputs": [],
      "name": "getNumPullRequests",
      "outputs": [
        {
          "name": "",
          "type": "uint256"
        }
      ],
      "payable": false,
      "stateMutability": "view",
      "type": "function"
    },
    {
      "inputs": [
        {
          "name": "_DIDTokenAddress",
          "type": "address"
        },
        {
          "name": "_DistenseAddress",
          "type": "address"
        },
        {
          "name": "_TasksAddress",
          "type": "address"
        }
      ],
      "payable": false,
      "stateMutability": "nonpayable",
      "type": "constructor"
    },
    {
      "anonymous": false,
      "inputs": [
        {
          "indexed": false,
          "name": "someInt",
          "type": "uint256"
        }
      ],
      "name": "LogInt",
      "type": "event"
    },
    {
      "anonymous": false,
      "inputs": [
        {
          "indexed": false,
          "name": "_prId",
          "type": "string"
        },
        {
          "indexed": false,
          "name": "taskId",
          "type": "string"
        }
      ],
      "name": "LogRewardPullRequest",
      "type": "event"
    },
    {
      "anonymous": false,
      "inputs": [
        {
          "indexed": false,
          "name": "_prId",
          "type": "string"
        },
        {
          "indexed": false,
          "name": "pctDIDApproved",
          "type": "uint256"
        }
      ],
      "name": "LogPullRequestApprovalVote",
      "type": "event"
    },
    {
      "anonymous": false,
      "inputs": [
        {
          "indexed": false,
          "name": "someAddress",
          "type": "address"
        }
      ],
      "name": "LogAddress",
      "type": "event"
    },
    {
      "anonymous": false,
      "inputs": [
        {
          "indexed": false,
          "name": "boolean",
          "type": "bool"
        }
      ],
      "name": "LogBool",
      "type": "event"
    },
    {
      "anonymous": false,
      "inputs": [
        {
          "indexed": false,
          "name": "someBytes",
          "type": "bytes"
        }
      ],
      "name": "LogBytes",
      "type": "event"
    },
    {
      "anonymous": false,
      "inputs": [
        {
          "indexed": false,
          "name": "aBytes32",
          "type": "bytes32"
        }
      ],
      "name": "LogBytes32",
      "type": "event"
    },
    {
      "anonymous": false,
      "inputs": [
        {
          "indexed": false,
          "name": "aString",
          "type": "string"
        }
      ],
      "name": "LogString",
      "type": "event"
    },
    {
      "anonymous": false,
      "inputs": [
        {
          "indexed": false,
          "name": "someInt",
          "type": "uint256"
        }
      ],
      "name": "LogUInt256",
      "type": "event"
    }
  ],
  "bytecode": "0x6060604052341561000f57600080fd5b60405160608061123a833981016040528080519190602001805191906020018051600160a060020a033381166000908152602081905260409020805460ff191660019081179091558054968216600160a060020a0319978816179055600280549582169587169590951790945560038054949091169390941692909217909255505061119a806100a06000396000f3006060604052600436106100955763ffffffff60e060020a600035041663072f630c811461009a5780630afdbaed146100c95780631a6d4083146100dc5780633267eb4c14610183578063484685b0146101e6578063650ee0ff146102075780637703986414610294578063ac847d4914610374578063d8b964e614610387578063daea85c5146103a6578063e71a5577146103c5575b600080fd5b34156100a557600080fd5b6100ad6103d8565b604051600160a060020a03909116815260200160405180910390f35b34156100d457600080fd5b6100ad6103e7565b34156100e757600080fd5b61016f60046024813581810190830135806020601f8201819004810201604051908101604052818152929190602084018383808284378201915050505050509190803590602001908201803590602001908080601f0160208091040260200160405190810160405281815292919060208401838380828437509496506103f695505050505050565b604051901515815260200160405180910390f35b341561018e57600080fd5b6101d460046024813581810190830135806020601f8201819004810201604051908101604052818152929190602084018383808284375094965061053e95505050505050565b60405190815260200160405180910390f35b34156101f157600080fd5b610205600160a060020a0360043516610ce7565b005b341561021257600080fd5b61021d600435610d44565b60405160208082528190810183818151815260200191508051906020019080838360005b83811015610259578082015183820152602001610241565b50505050905090810190601f1680156102865780820380516001836020036101000a031916815260200191505b509250505060405180910390f35b341561029f57600080fd5b6102e560046024813581810190830135806020601f82018190048102016040519081016040528181529291906020840183838082843750949650610dff95505050505050565b604051600160a060020a03841681526040810182905260606020820181815290820184818151815260200191508051906020019080838360005b8381101561033757808201518382015260200161031f565b50505050905090810190601f1680156103645780820380516001836020036101000a031916815260200191505b5094505050505060405180910390f35b341561037f57600080fd5b6100ad610f7e565b341561039257600080fd5b61016f600160a060020a0360043516610f8d565b34156103b157600080fd5b610205600160a060020a0360043516610fa2565b34156103d057600080fd5b6101d4611002565b600354600160a060020a031681565b600254600160a060020a031681565b6000336005846040518082805190602001908083835b6020831061042b5780518252601f19909201916020918201910161040c565b6001836020036101000a038019825116818451168082178552505050505050905001915050908152602001604051908190039020805473ffffffffffffffffffffffffffffffffffffffff1916600160a060020a0392909216919091179055816005846040518082805190602001908083835b602083106104bd5780518252601f19909201916020918201910161049e565b6001836020036101000a0380198251168184511680821785525050505050509050019150509081526020016040518091039020600101908051610504929160200190611009565b5060048054600181016105178382611087565b6000928352602090922001848051610533929160200190611009565b506001949350505050565b60008060008060008060008760006005826040518082805190602001908083835b6020831061057e5780518252601f19909201916020918201910161055f565b6001836020036101000a038019825116818451168082178552505050505050905001915050908152602001604051908190039020600160a060020a03331660009081526003909101602052604090205460ff16905080156105de57600080fd5b600254600160a060020a031660008082638fc6ad2d8163a3b8e7b584604051602001526040518163ffffffff1660e060020a028152600401602060405180830381600087803b151561062f57600080fd5b6102c65a03f1151561064057600080fd5b5050506040518051905060006040516020015260405160e060020a63ffffffff84160281526004810191909152602401602060405180830381600087803b151561068957600080fd5b6102c65a03f1151561069a57600080fd5b5050506040518051600154909350600160a060020a03169150829050816327e235e33360006040516020015260405160e060020a63ffffffff8416028152600160a060020a039091166004820152602401602060405180830381600087803b151561070457600080fd5b6102c65a03f1151561071557600080fd5b5050506040518051905011151561072b57600080fd5b600254600154600160a060020a039182169c501699508a63a3b8e7b56000604051602001526040518163ffffffff1660e060020a028152600401602060405180830381600087803b151561077e57600080fd5b6102c65a03f1151561078f57600080fd5b5050506040518051995050600160a060020a038b16638fc6ad2d8a60006040516020015260405160e060020a63ffffffff84160281526004810191909152602401602060405180830381600087803b15156107e957600080fd5b6102c65a03f115156107fa57600080fd5b505050604051805190508a600160a060020a03166327e235e33360006040516020015260405160e060020a63ffffffff8416028152600160a060020a039091166004820152602401602060405180830381600087803b151561085b57600080fd5b6102c65a03f1151561086c57600080fd5b505050604051805190501015151561088357600080fd5b60058d6040518082805190602001908083835b602083106108b55780518252601f199092019160209182019101610896565b6001836020036101000a0380198251168184511680821785525050505050509050019150509081526020016040518091039020975089600160a060020a031663880049503360006040516020015260405160e060020a63ffffffff8416028152600160a060020a039091166004820152602401602060405180830381600087803b151561094157600080fd5b6102c65a03f1151561095257600080fd5b505050604051805160028a018054909101905550600160a060020a03338116600090815260038a016020526040808220805460ff19166001179055918d1691638fc6ad2d9183916314eb172c919051602001526040518163ffffffff1660e060020a028152600401602060405180830381600087803b15156109d357600080fd5b6102c65a03f115156109e457600080fd5b5050506040518051905060006040516020015260405160e060020a63ffffffff84160281526004810191909152602401602060405180830381600087803b1515610a2d57600080fd5b6102c65a03f11515610a3e57600080fd5b5050506040518051905088600201541115610c2b57600354600160a060020a0316965086630d7a113160018a0160006040516020015260405160e060020a63ffffffff8416028152602060048201908152825460026000196101006001841615020190911604602483018190529091829160449091019084908015610b045780601f10610ad957610100808354040283529160200191610b04565b820191906000526020600020905b815481529060010190602001808311610ae757829003601f168201915b505092505050602060405180830381600087803b1515610b2357600080fd5b6102c65a03f11515610b3457600080fd5b5050506040518051965050600160a060020a038716635285c36560018a0160006040516020015260405160e060020a63ffffffff8416028152602060048201908152825460026000196101006001841615020190911604602483018190529091829160449091019084908015610beb5780601f10610bc057610100808354040283529160200191610beb565b820191906000526020600020905b815481529060010190602001808311610bce57829003601f168201915b505092505050602060405180830381600087803b1515610c0a57600080fd5b6102c65a03f11515610c1b57600080fd5b5050506040518051905050610cd1565b7f1d9189ffaf26bb48a90a05c970f8eb0b29bd3a06527069c4f367fd79272c4cad8d89600201546040518080602001838152602001828103825284818151815260200191508051906020019080838360005b83811015610c95578082015183820152602001610c7d565b50505050905090810190601f168015610cc25780820380516001836020036101000a031916815260200191505b50935050505060405180910390a15b5050506002909401549998505050505050505050565b600160a060020a03331660009081526020819052604090205460ff161515610d0e57600080fd5b600160a060020a0381161515610d2357600080fd5b600160a060020a03166000908152602081905260409020805460ff19169055565b6004805482908110610d5257fe5b90600052602060002090016000915090508054600181600116156101000203166002900480601f016020809104026020016040519081016040528092919081815260200182805460018160011615610100020316600290048015610df75780601f10610dcc57610100808354040283529160200191610df7565b820191906000526020600020905b815481529060010190602001808311610dda57829003601f168201915b505050505081565b6000610e096110b0565b6000610e136110c2565b6005856040518082805190602001908083835b60208310610e455780518252601f199092019160209182019101610e26565b6001836020036101000a0380198251168184511680821785525050505050509050019150509081526020016040518091039020606060405190810160405290816000820160009054906101000a9004600160a060020a0316600160a060020a0316600160a060020a03168152602001600182018054600181600116156101000203166002900480601f016020809104026020016040519081016040528092919081815260200182805460018160011615610100020316600290048015610f4c5780601f10610f2157610100808354040283529160200191610f4c565b820191906000526020600020905b815481529060010190602001808311610f2f57829003601f168201915b505050505081526020016002820154815250509050806000015181602001518260400151919790965090945092505050565b600154600160a060020a031681565b60006020819052908152604090205460ff1681565b600160a060020a03331660009081526020819052604090205460ff161515610fc957600080fd5b600160a060020a0381161515610fde57600080fd5b600160a060020a03166000908152602081905260409020805460ff19166001179055565b6004545b90565b828054600181600116156101000203166002900490600052602060002090601f016020900481019282601f1061104a57805160ff1916838001178555611077565b82800160010185558215611077579182015b8281111561107757825182559160200191906001019061105c565b506110839291506110ea565b5090565b8154818355818115116110ab576000838152602090206110ab918101908301611104565b505050565b60206040519081016040526000815290565b606060405190810160405260008152602081016110dd6110b0565b8152602001600081525090565b61100691905b8082111561108357600081556001016110f0565b61100691905b8082111561108357600061111e8282611127565b5060010161110a565b50805460018160011615610100020316600290046000825580601f1061114d575061116b565b601f01602090049060005260206000209081019061116b91906110ea565b505600a165627a7a723058202b71519b39c3a4e87f9fdac366fd4a1c3c8f39f52e26ac86f57447f559b0bfbf0029",
  "source": "pragma solidity ^0.4.17;\n\n\nimport './lib/Approvable.sol';\nimport './DIDToken.sol';\nimport './Distense.sol';\nimport './Tasks.sol';\n\n\ncontract PullRequests is Approvable, Debuggable {\n\n\n  address public DIDTokenAddress;\n  address public DistenseAddress;\n  address public TasksAddress;\n\n  struct PullRequest {\n    address contributor;\n    string taskId;\n    uint256 pctDIDApproved;\n    mapping (address => bool) voted;\n  }\n\n  string[] public pullRequestIds;\n\n  mapping (string => PullRequest) pullRequests;\n\n  event LogInt(uint256 someInt);\n  event LogRewardPullRequest(string _prId, string taskId);\n  event LogPullRequestApprovalVote(string  _prId, uint256 pctDIDApproved);\n\n\n  function PullRequests(\n    address _DIDTokenAddress,\n    address _DistenseAddress,\n    address _TasksAddress\n  ) public {\n    DIDTokenAddress = _DIDTokenAddress;\n    DistenseAddress = _DistenseAddress;\n    TasksAddress = _TasksAddress;\n  }\n\n\n  //  TODO should we require DID here?\n  function addPullRequest(string _prId, string _taskId) public returns (bool) {\n    pullRequests[_prId].contributor = msg.sender;\n    pullRequests[_prId].taskId = _taskId;\n    pullRequestIds.push(_prId);\n\n    return true;\n  }\n\n\n  function getPullRequestById(string _prId) public view returns (address, string, uint256) {\n    PullRequest memory pr = pullRequests[_prId];\n    return (pr.contributor, pr.taskId, pr.pctDIDApproved);\n  }\n\n\n  function getNumPullRequests() public view returns (uint256) {\n    return pullRequestIds.length;\n  }\n\n\n  function approvePullRequest(string _prId)\n    hasntVoted(_prId)\n    hasEnoughDIDToApprovePR()\n    public\n  returns (uint256) {\n\n    Distense distense = Distense(DistenseAddress);\n    DIDToken didToken = DIDToken(DIDTokenAddress);\n\n    bytes32 title = distense.numDIDRequiredToApproveVotePullRequestParameterTitle();\n    require(didToken.balances(msg.sender) >= distense.getParameterValueByTitle(title));\n\n    PullRequest storage _pr = pullRequests[_prId];\n\n    //  Increment pctDIDApproved by percentage ownership of voter\n    _pr.pctDIDApproved += didToken.pctDIDOwned(msg.sender);\n\n    //  Record approval to prevent multiple voting\n    _pr.voted[msg.sender] = true;\n\n    if (_pr.pctDIDApproved > distense.getParameterValueByTitle(\n      distense.pctDIDRequiredToMergePullRequestTitle()\n      )\n    ) {\n      Tasks tasks = Tasks(TasksAddress);\n      uint256 taskReward = tasks.getTaskReward(_pr.taskId);\n      tasks.setTaskRewardPaid(_pr.taskId);\n//\n//      didToken.issueDID(_pr.contributor, taskReward);\n//\n//      LogRewardPullRequest(_pr.taskId, _prId);\n    } else {\n      LogPullRequestApprovalVote(_prId, _pr.pctDIDApproved);\n    }\n\n    return _pr.pctDIDApproved;\n\n  }\n\n  modifier hasntVoted(string _prId) {\n    bool alreadyVoted = pullRequests[_prId].voted[msg.sender];\n    require(alreadyVoted == false);\n    _;\n  }\n\n  modifier hasEnoughDIDToApprovePR() {\n\n    Distense distense = Distense(DistenseAddress);\n    uint256 threshold = distense.getParameterValueByTitle(\n      distense.numDIDRequiredToApproveVotePullRequestParameterTitle()\n    );\n\n    DIDToken didToken = DIDToken(DIDTokenAddress);\n\n    require(didToken.balances(msg.sender) > threshold);\n    _;\n  }\n\n}\n",
  "sourcePath": "/Users/john/distense-contracts/contracts/PullRequests.sol",
  "compiler": {
    "name": "solc",
    "version": "0.4.18+commit.9cf6e910.Emscripten.clang"
  },
  "schemaVersion": "1.0.1",
  "updatedAt": "2018-01-06T00:47:59.569Z"
}