{
  "contractName": "PullRequests",
  "abi": [
    {
      "constant": true,
      "inputs": [],
      "name": "TasksAddress",
      "outputs": [
        {
          "name": "",
          "type": "address"
        }
      ],
      "payable": false,
      "stateMutability": "view",
      "type": "function"
    },
    {
      "constant": true,
      "inputs": [],
      "name": "DistenseAddress",
      "outputs": [
        {
          "name": "",
          "type": "address"
        }
      ],
      "payable": false,
      "stateMutability": "view",
      "type": "function"
    },
    {
      "constant": true,
      "inputs": [],
      "name": "numDIDToApprove",
      "outputs": [
        {
          "name": "",
          "type": "uint256"
        }
      ],
      "payable": false,
      "stateMutability": "view",
      "type": "function"
    },
    {
      "constant": false,
      "inputs": [
        {
          "name": "_prId",
          "type": "bytes32"
        },
        {
          "name": "_taskId",
          "type": "bytes32"
        }
      ],
      "name": "submitPullRequest",
      "outputs": [
        {
          "name": "",
          "type": "uint256"
        }
      ],
      "payable": false,
      "stateMutability": "nonpayable",
      "type": "function"
    },
    {
      "constant": false,
      "inputs": [
        {
          "name": "_address",
          "type": "address"
        }
      ],
      "name": "revokeApproval",
      "outputs": [],
      "payable": false,
      "stateMutability": "nonpayable",
      "type": "function"
    },
    {
      "constant": true,
      "inputs": [
        {
          "name": "",
          "type": "uint256"
        }
      ],
      "name": "pullRequestIds",
      "outputs": [
        {
          "name": "",
          "type": "bytes32"
        }
      ],
      "payable": false,
      "stateMutability": "view",
      "type": "function"
    },
    {
      "constant": true,
      "inputs": [],
      "name": "DIDTokenAddress",
      "outputs": [
        {
          "name": "",
          "type": "address"
        }
      ],
      "payable": false,
      "stateMutability": "view",
      "type": "function"
    },
    {
      "constant": true,
      "inputs": [
        {
          "name": "_prId",
          "type": "bytes32"
        }
      ],
      "name": "getPullRequestById",
      "outputs": [
        {
          "name": "",
          "type": "address"
        },
        {
          "name": "",
          "type": "bytes32"
        },
        {
          "name": "",
          "type": "uint256"
        }
      ],
      "payable": false,
      "stateMutability": "view",
      "type": "function"
    },
    {
      "constant": true,
      "inputs": [
        {
          "name": "",
          "type": "address"
        }
      ],
      "name": "approved",
      "outputs": [
        {
          "name": "",
          "type": "bool"
        }
      ],
      "payable": false,
      "stateMutability": "view",
      "type": "function"
    },
    {
      "constant": false,
      "inputs": [
        {
          "name": "_address",
          "type": "address"
        }
      ],
      "name": "approve",
      "outputs": [],
      "payable": false,
      "stateMutability": "nonpayable",
      "type": "function"
    },
    {
      "constant": false,
      "inputs": [
        {
          "name": "_prId",
          "type": "bytes32"
        },
        {
          "name": "_approve",
          "type": "bool"
        }
      ],
      "name": "voteOnApproval",
      "outputs": [
        {
          "name": "",
          "type": "uint256"
        }
      ],
      "payable": false,
      "stateMutability": "nonpayable",
      "type": "function"
    },
    {
      "constant": true,
      "inputs": [],
      "name": "getNumPullRequests",
      "outputs": [
        {
          "name": "",
          "type": "uint256"
        }
      ],
      "payable": false,
      "stateMutability": "view",
      "type": "function"
    },
    {
      "inputs": [
        {
          "name": "_DIDTokenAddress",
          "type": "address"
        },
        {
          "name": "_DistenseAddress",
          "type": "address"
        },
        {
          "name": "_TasksAddress",
          "type": "address"
        }
      ],
      "payable": false,
      "stateMutability": "nonpayable",
      "type": "constructor"
    },
    {
      "anonymous": false,
      "inputs": [
        {
          "indexed": false,
          "name": "_prId",
          "type": "bytes32"
        },
        {
          "indexed": true,
          "name": "taskId",
          "type": "bytes32"
        }
      ],
      "name": "LogPullRequestApproval",
      "type": "event"
    },
    {
      "anonymous": false,
      "inputs": [
        {
          "indexed": true,
          "name": "_prId",
          "type": "bytes32"
        },
        {
          "indexed": false,
          "name": "pctDIDApproved",
          "type": "uint256"
        }
      ],
      "name": "LogPullRequestVote",
      "type": "event"
    }
  ],
  "bytecode": "0x606060405260025460018054600160a060020a031916600160a060020a03909216919091179055341561003157600080fd5b6040516060806107c0833981016040528080519190602001805191906020018051600160a060020a033381166000908152602081905260409020805460ff1916600117905560028054968216600160a060020a031997881617905560048054958216958716959095179094556006805494909116939094169290921790925550506106ff806100c16000396000f3006060604052361561009e5763ffffffff60e060020a600035041663072f630c81146100a35780630afdbaed146100d2578063127b5b71146100e55780633b0ec0841461010a578063484685b014610123578063650ee0ff14610144578063ac847d491461015a578063af692e001461016d578063d8b964e6146101b1578063daea85c5146101e4578063e2b068f514610203578063e71a55771461021e575b600080fd5b34156100ae57600080fd5b6100b6610231565b604051600160a060020a03909116815260200160405180910390f35b34156100dd57600080fd5b6100b6610240565b34156100f057600080fd5b6100f861024f565b60405190815260200160405180910390f35b341561011557600080fd5b6100f8600435602435610254565b341561012e57600080fd5b610142600160a060020a0360043516610301565b005b341561014f57600080fd5b6100f8600435610366565b341561016557600080fd5b6100b6610385565b341561017857600080fd5b610183600435610394565b604051600160a060020a03909316835260208301919091526040808301919091526060909101905180910390f35b34156101bc57600080fd5b6101d0600160a060020a03600435166103fe565b604051901515815260200160405180910390f35b34156101ef57600080fd5b610142600160a060020a0360043516610413565b341561020e57600080fd5b6100f8600435602435151561047b565b341561022957600080fd5b6100f8610657565b600654600160a060020a031681565b600454600160a060020a031681565b603281565b600061025e61066c565b60606040519081016040908152600160a060020a03331682526020808301869052600082840181905287815260089091522090915081908151815473ffffffffffffffffffffffffffffffffffffffff1916600160a060020a03919091161781556020820151600182015560408201516002909101555060078054600181016102e7838261068c565b506000918252602090912001939093555050600754919050565b600160a060020a03331660009081526020819052604090205460ff16151561032857600080fd5b61033a81600160a060020a031661065e565b151561034557600080fd5b600160a060020a03166000908152602081905260409020805460ff19169055565b600780548290811061037457fe5b600091825260209091200154905081565b600254600160a060020a031681565b60008060006103a161066c565b60008581526008602052604090819020906060905190810160409081528254600160a060020a0316825260018301546020830152600290920154918101919091529050805181602001518260400151935093509350509193909250565b60006020819052908152604090205460ff1681565b600160a060020a03331660009081526020819052604090205460ff16151561043a57600080fd5b61044c81600160a060020a031661065e565b151561045757600080fd5b600160a060020a03166000908152602081905260409020805460ff19166001179055565b600082815260086020908152604080832033600160a060020a038116855260039091019092528220548291829186919086908115157401000000000000000000000000000000000000000090910460ff1615151480156104da57600080fd5b6001543390600090600160a060020a03166327e235e383836040516020015260405160e060020a63ffffffff8416028152600160a060020a039091166004820152602401602060405180830381600087803b151561053757600080fd5b6102c65a03f1151561054857600080fd5b5050506040518051915050603281101561056157600080fd5b60008b815260086020526040808220600154909a50600160a060020a031691634c6bb5f691339190516020015260405160e060020a63ffffffff8416028152600160a060020a039091166004820152602401602060405180830381600087803b15156105cc57600080fd5b6102c65a03f115156105dd57600080fd5b5050506040518051600160a060020a033316600090815260038b016020526040902080548d1515740100000000000000000000000000000000000000000274ff00000000000000000000000000000000000000001990911617905560028a0180548201905560649a50975050505050505050505092915050565b6007545b90565b600160a060020a0316151590565b606060405190810160409081526000808352602083018190529082015290565b8154818355818115116106b0576000838152602090206106b09181019083016106b5565b505050565b61065b91905b808211156106cf57600081556001016106bb565b50905600a165627a7a72305820bad47d5b272362704cf4a75122c51e2918b992c4096f3e83472039255d59e4b40029",
  "source": "pragma solidity ^0.4.17;\n\n\nimport './lib/Approvable.sol';\nimport './DIDToken.sol';\nimport './Distense.sol';\nimport './Tasks.sol';\n\n\ncontract PullRequests is Approvable {\n\n  DIDToken didToken = DIDToken(DIDTokenAddress);\n  address public DIDTokenAddress;\n\n  Distense distense;\n  address public DistenseAddress;\n\n  Tasks tasks;\n  address public TasksAddress;\n\n  uint256 constant public numDIDToApprove = 50;\n\n  struct PullRequest {\n    address createdBy;\n    bytes32 taskId;\n    uint256 pctDIDApproved;\n    mapping (address => Vote) votes;\n  }\n\n  struct Vote {\n    address voter;\n    bool approves;\n  }\n\n  bytes32[] public pullRequestIds;\n\n  mapping (bytes32 => PullRequest) pullRequests;\n\n  event LogPullRequestApproval(bytes32 _prId, bytes32 indexed taskId);\n  event LogPullRequestVote(bytes32 indexed _prId, uint256 pctDIDApproved);\n\n  function PullRequests(address _DIDTokenAddress, address _DistenseAddress, address _TasksAddress) public {\n    DIDTokenAddress = _DIDTokenAddress;\n    DistenseAddress = _DistenseAddress;\n    TasksAddress = _TasksAddress;\n  }\n\n  function submitPullRequest(bytes32 _prId, bytes32 _taskId) external returns (uint256) {\n    PullRequest memory _pr = PullRequest(msg.sender, _taskId, 0);\n    //Write the _pr struct to storage\n    _pr.pctDIDApproved = 0;\n    pullRequests[_prId] = _pr;\n    pullRequestIds.push(_prId);\n    return pullRequestIds.length;\n  }\n\n  function getPullRequestById(bytes32 _prId) public view returns (address, bytes32, uint256) {\n    PullRequest memory pr = pullRequests[_prId];\n    return (pr.createdBy, pr.taskId, pr.pctDIDApproved);\n  }\n\n  function getNumPullRequests() public view returns (uint256) {\n    return pullRequestIds.length;\n  }\n\n  function voteOnApproval(bytes32 _prId, bool _approve) hasntVotedThisWay(_prId, msg.sender, _approve) enoughDIDToApprove(msg.sender) external\n  returns (uint256) {\n    PullRequest storage _pr = pullRequests[_prId];\n\n    uint256 pctDIDOwned = didToken.percentDID(msg.sender);\n    _pr.votes[msg.sender].approves = _approve;\n\n//    if (!_approve) {\n//      pctDIDOwned += -pctDIDOwned;\n//    }\n//    LogUint256(pctDIDOwned);\n    _pr.pctDIDApproved += pctDIDOwned;\n    return 100;\n//    uint256 approvalValue = distense.getParameterValue(distense.pullRequestPctDIDRequiredParameterTitle());\n//    if (_pr.pctDIDApproved > approvalValue) {\n//      approvePullRequest(_pr.taskId, _prId, _pr.createdBy);\n//    }\n//\n//    LogPullRequestVote(_prId, _pr.pctDIDApproved);\n//    return _pr.pctDIDApproved;\n  }\n\n  function approvePullRequest(bytes32 _taskId, bytes32 _prId, address contributor) internal returns (bool) {\n    LogPullRequestApproval(_taskId, _prId);\n    uint256 taskReward = tasks.getTaskReward(_taskId);\n    didToken.issueDID(contributor, taskReward);\n    return true;\n  }\n\n  modifier hasntVotedThisWay(bytes32 _prId, address voter, bool vote) {\n    bool alreadyVoted = pullRequests[_prId].votes[voter].approves == vote;\n    require(!alreadyVoted);\n    _;\n  }\n\n  modifier enoughDIDToApprove(address voter) {\n    uint256 didOwned = didToken.balances(voter);\n    require(didOwned >= numDIDToApprove);\n    _;\n  }\n\n}\n",
  "sourcePath": "/Users/john/contracts/contracts/PullRequests.sol",
  "schemaVersion": "1.0.0",
  "updatedAt": "2017-10-27T15:34:30.625Z"
}