{
  "contractName": "SafeMathMock",
  "abi": [
    {
      "constant": true,
      "inputs": [],
      "name": "result",
      "outputs": [
        {
          "name": "",
          "type": "uint256"
        }
      ],
      "payable": false,
      "stateMutability": "view",
      "type": "function"
    },
    {
      "constant": false,
      "inputs": [
        {
          "name": "a",
          "type": "uint256"
        },
        {
          "name": "b",
          "type": "uint256"
        }
      ],
      "name": "multiply",
      "outputs": [],
      "payable": false,
      "stateMutability": "nonpayable",
      "type": "function"
    },
    {
      "constant": false,
      "inputs": [
        {
          "name": "a",
          "type": "uint256"
        },
        {
          "name": "b",
          "type": "uint256"
        }
      ],
      "name": "subtract",
      "outputs": [],
      "payable": false,
      "stateMutability": "nonpayable",
      "type": "function"
    },
    {
      "constant": false,
      "inputs": [
        {
          "name": "a",
          "type": "uint256"
        },
        {
          "name": "b",
          "type": "uint256"
        }
      ],
      "name": "add",
      "outputs": [],
      "payable": false,
      "stateMutability": "nonpayable",
      "type": "function"
    },
    {
      "constant": false,
      "inputs": [
        {
          "name": "num",
          "type": "uint256"
        },
        {
          "name": "denom",
          "type": "uint256"
        },
        {
          "name": "precision",
          "type": "uint256"
        }
      ],
      "name": "percent",
      "outputs": [],
      "payable": false,
      "stateMutability": "nonpayable",
      "type": "function"
    }
  ],
  "bytecode": "0x6060604052341561000f57600080fd5b6102408061001e6000396000f30060606040526004361061006b5763ffffffff7c01000000000000000000000000000000000000000000000000000000006000350416622c1a9e8114610070578063165c4a161461008e5780633ef5e445146100a757806365372147146100c0578063771602f7146100e5575b600080fd5b341561007b57600080fd5b61008c6004356024356044356100fe565b005b341561009957600080fd5b61008c600435602435610192565b34156100b257600080fd5b61008c6004356024356101a3565b34156100cb57600080fd5b6100d36101ad565b60405190815260200160405180910390f35b34156100f057600080fd5b61008c6004356024356101b3565b73__SafeMath______________________________622c1a9e8484846040517c010000000000000000000000000000000000000000000000000000000063ffffffff861602815260048101939093526024830191909152604482015260640160206040518083038186803b151561017457600080fd5b5af4151561018157600080fd5b505050604051805160005550505050565b61019c82826101bd565b6000555050565b61019c82826101f3565b60005481565b61019c8282610205565b6000808315156101d057600091506101ec565b508282028284828115156101e057fe5b04146101e857fe5b8091505b5092915050565b6000828211156101ff57fe5b50900390565b6000828201838110156101e857fe00a165627a7a723058207f3ccba394be7aa46d1eaa094a2242eb5e6aa8baa2790734f3ea6c4a8735f9af0029",
  "source": "pragma solidity ^0.4.21;\n\n\nimport './lib/SafeMath.sol';\n\n\ncontract SafeMathMock {\n  using SafeMath for uint256;\n  uint256 public result;\n\n  function multiply(uint256 a, uint256 b) public {\n    result = SafeMath.mul(a, b);\n  }\n\n  function subtract(uint256 a, uint256 b) public {\n    result = SafeMath.sub(a, b);\n  }\n\n  function add(uint256 a, uint256 b) public {\n    result = SafeMath.add(a, b);\n  }\n\n  function percent(uint256 num, uint256 denom, uint256 precision) public {\n    result =  SafeMath.percent(num, denom, precision);\n  }\n\n}\n",
  "sourcePath": "/Users/john/distense-contracts/contracts/SafeMathMock.sol",
  "compiler": {
    "name": "solc",
    "version": "0.4.21+commit.dfe3193c.Emscripten.clang"
  },
  "schemaVersion": "1.0.1",
  "updatedAt": "2018-03-30T21:10:22.315Z"
}