{
  "contractName": "SafeMath",
  "abi": [
    {
      "constant": true,
      "inputs": [
        {
          "name": "numerator",
          "type": "uint256"
        },
        {
          "name": "denominator",
          "type": "uint256"
        },
        {
          "name": "precision",
          "type": "uint256"
        }
      ],
      "name": "percent",
      "outputs": [
        {
          "name": "quotient",
          "type": "uint256"
        }
      ],
      "payable": false,
      "stateMutability": "pure",
      "type": "function"
    }
  ],
  "bytecode": "0x60d961002f600b82828239805160001a6073146000811461001f57610021565bfe5b5030600052607381538281f300730000000000000000000000000000000000000000301460606040526004361060545763ffffffff7c01000000000000000000000000000000000000000000000000000000006000350416622c1a9e81146059575b600080fd5b6068600435602435604435607a565b60405190815260200160405180910390f35b600080600083600101600a0a86029150600a8583811515609657fe5b0460050181151560a257fe5b0496955050505050505600a165627a7a7230582047ec3e71a7eb3097800d2eb5461bb266f635cb98dc6232282dfa4303d261ecd80029",
  "source": "pragma solidity ^0.4.21;\n\n/**\n * @title SafeMath\n * @dev Math operations with safety checks that throw on error\n */\nlibrary SafeMath {\n  function mul(uint256 a, uint256 b) internal pure returns (uint256) {\n    if (a == 0) {\n      return 0;\n    }\n    uint256 c = a * b;\n    assert(c / a == b);\n    return c;\n  }\n\n  function div(uint256 a, uint256 b) internal pure returns (uint256) {\n    // assert(b > 0); // Solidity automatically throws when dividing by 0\n    uint256 c = a / b;\n    // assert(a == b * c + a % b); // There is no case in which this doesn't hold\n    return c;\n  }\n\n  function sub(uint256 a, uint256 b) internal pure returns (uint256) {\n    assert(b <= a);\n    return a - b;\n  }\n\n  function add(uint256 a, uint256 b) internal pure returns (uint256) {\n    uint256 c = a + b;\n    assert(c >= a);\n    return c;\n  }\n\n\n  function percent(uint numerator, uint denominator, uint precision) public pure\n  returns(uint quotient) {\n\n    // caution, check safe-to-multiply here\n    uint _numerator  = numerator * 10 ** (precision + 1);\n\n    // with rounding of last digit\n    uint _quotient =  ((_numerator / denominator) + 5) / 10;\n    return _quotient;\n  }\n\n}\n",
  "sourcePath": "/Users/john/distense-contracts/contracts/lib/SafeMath.sol",
  "compiler": {
    "name": "solc",
    "version": "0.4.21+commit.dfe3193c.Emscripten.clang"
  },
  "schemaVersion": "1.0.1",
  "updatedAt": "2018-03-23T22:04:42.872Z"
}