{
  "contractName": "SafeMath",
  "abi": [
    {
      "constant": true,
      "inputs": [
        {
          "name": "numerator",
          "type": "uint256"
        },
        {
          "name": "denominator",
          "type": "uint256"
        },
        {
          "name": "precision",
          "type": "uint256"
        }
      ],
      "name": "percent",
      "outputs": [
        {
          "name": "quotient",
          "type": "uint256"
        }
      ],
      "payable": false,
      "stateMutability": "pure",
      "type": "function"
    }
  ],
  "bytecode": "0x6060604052341561000f57600080fd5b60c28061001d6000396000f300606060405260043610603d5763ffffffff7c01000000000000000000000000000000000000000000000000000000006000350416622c1a9e81146042575b600080fd5b60516004356024356044356063565b60405190815260200160405180910390f35b600080600083600101600a0a86029150600a8583811515607f57fe5b04600501811515608b57fe5b0496955050505050505600a165627a7a72305820efa655f882bace4cff555e29bdf08696c4dcf79d99ddc72cd6543634edfbd8120029",
  "source": "pragma solidity ^0.4.17;\n\n/**\n * @title SafeMath\n * @dev Math operations with safety checks that throw on error\n */\nlibrary SafeMath {\n  function mul(uint256 a, uint256 b) internal pure returns (uint256) {\n    if (a == 0) {\n      return 0;\n    }\n    uint256 c = a * b;\n    assert(c / a == b);\n    return c;\n  }\n\n  function div(uint256 a, uint256 b) internal pure returns (uint256) {\n    // assert(b > 0); // Solidity automatically throws when dividing by 0\n    uint256 c = a / b;\n    // assert(a == b * c + a % b); // There is no case in which this doesn't hold\n    return c;\n  }\n\n  function sub(uint256 a, uint256 b) internal pure returns (uint256) {\n    assert(b <= a);\n    return a - b;\n  }\n\n  function add(uint256 a, uint256 b) internal pure returns (uint256) {\n    uint256 c = a + b;\n    assert(c >= a);\n    return c;\n  }\n\n\n  function percent(uint numerator, uint denominator, uint precision) public pure\n  returns(uint quotient) {\n\n    // caution, check safe-to-multiply here\n    uint _numerator  = numerator * 10 ** (precision + 1);\n\n    // with rounding of last digit\n    uint _quotient =  ((_numerator / denominator) + 5) / 10;\n    return _quotient;\n  }\n\n}\n",
  "sourcePath": "/Users/john/distense-contracts/contracts/lib/SafeMath.sol",
  "compiler": {
    "name": "solc",
    "version": "0.4.18+commit.9cf6e910.Emscripten.clang"
  },
  "schemaVersion": "1.0.1",
  "updatedAt": "2018-01-22T20:57:00.623Z"
}