{
  "contractName": "SafeMathMock",
  "abi": [
    {
      "constant": false,
      "inputs": [
        {
          "name": "num",
          "type": "uint256"
        },
        {
          "name": "denom",
          "type": "uint256"
        },
        {
          "name": "precision",
          "type": "uint256"
        }
      ],
      "name": "percent",
      "outputs": [],
      "payable": false,
      "stateMutability": "nonpayable",
      "type": "function"
    },
    {
      "constant": false,
      "inputs": [
        {
          "name": "a",
          "type": "uint256"
        },
        {
          "name": "b",
          "type": "uint256"
        }
      ],
      "name": "multiply",
      "outputs": [],
      "payable": false,
      "stateMutability": "nonpayable",
      "type": "function"
    },
    {
      "constant": false,
      "inputs": [
        {
          "name": "a",
          "type": "uint256"
        },
        {
          "name": "b",
          "type": "uint256"
        }
      ],
      "name": "subtract",
      "outputs": [],
      "payable": false,
      "stateMutability": "nonpayable",
      "type": "function"
    },
    {
      "constant": true,
      "inputs": [],
      "name": "result",
      "outputs": [
        {
          "name": "",
          "type": "uint256"
        }
      ],
      "payable": false,
      "stateMutability": "view",
      "type": "function"
    },
    {
      "constant": false,
      "inputs": [
        {
          "name": "a",
          "type": "uint256"
        },
        {
          "name": "b",
          "type": "uint256"
        }
      ],
      "name": "add",
      "outputs": [],
      "payable": false,
      "stateMutability": "nonpayable",
      "type": "function"
    }
  ],
  "bytecode": "0x6060604052341561000f57600080fd5b61024d8061001e6000396000f30060606040526004361061006b5763ffffffff7c01000000000000000000000000000000000000000000000000000000006000350416622c1a9e8114610070578063165c4a161461008e5780633ef5e445146100a757806365372147146100c0578063771602f7146100e5575b600080fd5b341561007b57600080fd5b61008c6004356024356044356100fe565b005b341561009957600080fd5b61008c60043560243561019f565b34156100b257600080fd5b61008c6004356024356101b0565b34156100cb57600080fd5b6100d36101ba565b60405190815260200160405180910390f35b34156100f057600080fd5b61008c6004356024356101c0565b73__SafeMath______________________________622c1a9e8484846000604051602001526040517c010000000000000000000000000000000000000000000000000000000063ffffffff861602815260048101939093526024830191909152604482015260640160206040518083038186803b151561017d57600080fd5b6102c65a03f4151561018e57600080fd5b505050604051805160005550505050565b6101a982826101ca565b6000555050565b6101a98282610200565b60005481565b6101a98282610212565b6000808315156101dd57600091506101f9565b508282028284828115156101ed57fe5b04146101f557fe5b8091505b5092915050565b60008282111561020c57fe5b50900390565b6000828201838110156101f557fe00a165627a7a7230582049e7b222d6adf73d45f18017d80fb59c1b6f2757ef4f25ceae7b4dce97a04a000029",
  "source": "pragma solidity ^0.4.17;\n\n\nimport './lib/SafeMath.sol';\n\n\ncontract SafeMathMock {\n  using SafeMath for uint256;\n  uint256 public result;\n\n  function multiply(uint256 a, uint256 b) public {\n    result = SafeMath.mul(a, b);\n  }\n\n  function subtract(uint256 a, uint256 b) public {\n    result = SafeMath.sub(a, b);\n  }\n\n  function add(uint256 a, uint256 b) public {\n    result = SafeMath.add(a, b);\n  }\n\n  function percent(uint256 num, uint256 denom, uint256 precision) public {\n    result =  SafeMath.percent(num, denom, precision);\n  }\n\n}\n",
  "sourcePath": "/Users/john/distense-contracts/contracts/SafeMathMock.sol",
  "compiler": {
    "name": "solc",
    "version": "0.4.18+commit.9cf6e910.Emscripten.clang"
  },
  "schemaVersion": "1.0.1",
  "updatedAt": "2018-01-12T23:47:12.482Z"
}