{
  "contractName": "Tasks",
  "abi": [
    {
      "constant": true,
      "inputs": [],
      "name": "DistenseAddress",
      "outputs": [
        {
          "name": "",
          "type": "address"
        }
      ],
      "payable": false,
      "stateMutability": "view",
      "type": "function"
    },
    {
      "constant": true,
      "inputs": [
        {
          "name": "_taskId",
          "type": "string"
        }
      ],
      "name": "getTaskReward",
      "outputs": [
        {
          "name": "",
          "type": "uint256"
        }
      ],
      "payable": false,
      "stateMutability": "view",
      "type": "function"
    },
    {
      "constant": true,
      "inputs": [],
      "name": "getNumTasks",
      "outputs": [
        {
          "name": "",
          "type": "uint256"
        }
      ],
      "payable": false,
      "stateMutability": "view",
      "type": "function"
    },
    {
      "constant": true,
      "inputs": [
        {
          "name": "",
          "type": "uint256"
        }
      ],
      "name": "taskIds",
      "outputs": [
        {
          "name": "",
          "type": "string"
        }
      ],
      "payable": false,
      "stateMutability": "view",
      "type": "function"
    },
    {
      "constant": false,
      "inputs": [
        {
          "name": "_taskId",
          "type": "string"
        },
        {
          "name": "_reward",
          "type": "uint256"
        }
      ],
      "name": "taskRewardVote",
      "outputs": [
        {
          "name": "",
          "type": "bool"
        }
      ],
      "payable": false,
      "stateMutability": "nonpayable",
      "type": "function"
    },
    {
      "constant": true,
      "inputs": [],
      "name": "PullRequestsAddress",
      "outputs": [
        {
          "name": "",
          "type": "address"
        }
      ],
      "payable": false,
      "stateMutability": "view",
      "type": "function"
    },
    {
      "constant": false,
      "inputs": [
        {
          "name": "_address",
          "type": "address"
        }
      ],
      "name": "revokeApproval",
      "outputs": [],
      "payable": false,
      "stateMutability": "nonpayable",
      "type": "function"
    },
    {
      "constant": false,
      "inputs": [
        {
          "name": "_taskId",
          "type": "string"
        }
      ],
      "name": "setTaskRewardPaid",
      "outputs": [
        {
          "name": "",
          "type": "bool"
        }
      ],
      "payable": false,
      "stateMutability": "nonpayable",
      "type": "function"
    },
    {
      "constant": true,
      "inputs": [
        {
          "name": "_taskId",
          "type": "string"
        }
      ],
      "name": "taskExists",
      "outputs": [
        {
          "name": "",
          "type": "bool"
        }
      ],
      "payable": false,
      "stateMutability": "view",
      "type": "function"
    },
    {
      "constant": true,
      "inputs": [],
      "name": "DIDTokenAddress",
      "outputs": [
        {
          "name": "",
          "type": "address"
        }
      ],
      "payable": false,
      "stateMutability": "view",
      "type": "function"
    },
    {
      "constant": false,
      "inputs": [
        {
          "name": "_taskId",
          "type": "string"
        },
        {
          "name": "_title",
          "type": "string"
        },
        {
          "name": "_tagsString",
          "type": "string"
        },
        {
          "name": "_issueNum",
          "type": "bytes16"
        },
        {
          "name": "_repo",
          "type": "bytes16"
        }
      ],
      "name": "addTask",
      "outputs": [
        {
          "name": "",
          "type": "bool"
        }
      ],
      "payable": false,
      "stateMutability": "nonpayable",
      "type": "function"
    },
    {
      "constant": true,
      "inputs": [
        {
          "name": "_taskId",
          "type": "string"
        }
      ],
      "name": "getTaskById",
      "outputs": [
        {
          "name": "",
          "type": "address"
        },
        {
          "name": "",
          "type": "uint256"
        },
        {
          "name": "",
          "type": "uint256"
        },
        {
          "name": "",
          "type": "uint8"
        },
        {
          "name": "",
          "type": "uint256"
        },
        {
          "name": "",
          "type": "uint64"
        },
        {
          "name": "",
          "type": "string"
        },
        {
          "name": "",
          "type": "bytes16"
        },
        {
          "name": "",
          "type": "bytes16"
        },
        {
          "name": "",
          "type": "string"
        }
      ],
      "payable": false,
      "stateMutability": "view",
      "type": "function"
    },
    {
      "constant": true,
      "inputs": [
        {
          "name": "",
          "type": "address"
        }
      ],
      "name": "approved",
      "outputs": [
        {
          "name": "",
          "type": "bool"
        }
      ],
      "payable": false,
      "stateMutability": "view",
      "type": "function"
    },
    {
      "constant": false,
      "inputs": [
        {
          "name": "_address",
          "type": "address"
        }
      ],
      "name": "approve",
      "outputs": [],
      "payable": false,
      "stateMutability": "nonpayable",
      "type": "function"
    },
    {
      "inputs": [
        {
          "name": "_DIDTokenAddress",
          "type": "address"
        },
        {
          "name": "_DistenseAddress",
          "type": "address"
        }
      ],
      "payable": false,
      "stateMutability": "nonpayable",
      "type": "constructor"
    },
    {
      "anonymous": false,
      "inputs": [
        {
          "indexed": false,
          "name": "taskId",
          "type": "string"
        }
      ],
      "name": "LogAddTask",
      "type": "event"
    },
    {
      "anonymous": false,
      "inputs": [
        {
          "indexed": false,
          "name": "taskId",
          "type": "string"
        },
        {
          "indexed": false,
          "name": "reward",
          "type": "uint256"
        },
        {
          "indexed": false,
          "name": "pctDIDVoted",
          "type": "uint256"
        }
      ],
      "name": "LogTaskRewardVote",
      "type": "event"
    },
    {
      "anonymous": false,
      "inputs": [
        {
          "indexed": false,
          "name": "taskId",
          "type": "string"
        },
        {
          "indexed": false,
          "name": "reward",
          "type": "uint256"
        }
      ],
      "name": "LogTaskRewardDetermined",
      "type": "event"
    },
    {
      "anonymous": false,
      "inputs": [
        {
          "indexed": false,
          "name": "someAddress",
          "type": "address"
        }
      ],
      "name": "LogAddress",
      "type": "event"
    },
    {
      "anonymous": false,
      "inputs": [
        {
          "indexed": false,
          "name": "boolean",
          "type": "bool"
        }
      ],
      "name": "LogBool",
      "type": "event"
    },
    {
      "anonymous": false,
      "inputs": [
        {
          "indexed": false,
          "name": "someBytes",
          "type": "bytes"
        }
      ],
      "name": "LogBytes",
      "type": "event"
    },
    {
      "anonymous": false,
      "inputs": [
        {
          "indexed": false,
          "name": "aBytes32",
          "type": "bytes32"
        }
      ],
      "name": "LogBytes32",
      "type": "event"
    },
    {
      "anonymous": false,
      "inputs": [
        {
          "indexed": false,
          "name": "aString",
          "type": "string"
        }
      ],
      "name": "LogString",
      "type": "event"
    },
    {
      "anonymous": false,
      "inputs": [
        {
          "indexed": false,
          "name": "someInt",
          "type": "uint256"
        }
      ],
      "name": "LogUInt256",
      "type": "event"
    }
  ],
  "bytecode": "0x6060604052341561000f57600080fd5b604051604080611c938339810160405280805191906020018051600160a060020a033381166000908152602081905260409020805460ff191660019081179091558054958216600160a060020a031996871617905560028054919092169416939093179092555050611c0d806100866000396000f3006060604052600436106100b65763ffffffff60e060020a6000350416630afdbaed81146100bb5780630d7a1131146100ea5780631efe3abf1461014d57806339118d25146101605780633d6fbe9d146101ed57806346da6eee14610254578063484685b0146102675780635285c365146102885780636843f7f2146102d9578063ac847d491461032a578063aed2e49f1461033d578063d32317271461042e578063d8b964e6146105dd578063daea85c5146105fc575b600080fd5b34156100c657600080fd5b6100ce61061b565b604051600160a060020a03909116815260200160405180910390f35b34156100f557600080fd5b61013b60046024813581810190830135806020601f8201819004810201604051908101604052818152929190602084018383808284375094965061062a95505050505050565b60405190815260200160405180910390f35b341561015857600080fd5b61013b61069c565b341561016b57600080fd5b6101766004356106a3565b60405160208082528190810183818151815260200191508051906020019080838360005b838110156101b257808201518382015260200161019a565b50505050905090810190601f1680156101df5780820380516001836020036101000a031916815260200191505b509250505060405180910390f35b34156101f857600080fd5b61024060046024813581810190830135806020601f82018190048102016040519081016040528181529291906020840183838082843750949650509335935061075e92505050565b604051901515815260200160405180910390f35b341561025f57600080fd5b6100ce610ea0565b341561027257600080fd5b610286600160a060020a0360043516610eaf565b005b341561029357600080fd5b61024060046024813581810190830135806020601f82018190048102016040519081016040528181529291906020840183838082843750949650610f0c95505050505050565b34156102e457600080fd5b61024060046024813581810190830135806020601f82018190048102016040519081016040528181529291906020840183838082843750949650610fc595505050505050565b341561033557600080fd5b6100ce61103f565b341561034857600080fd5b61024060046024813581810190830135806020601f8201819004810201604051908101604052818152929190602084018383808284378201915050505050509190803590602001908201803590602001908080601f01602080910402602001604051908101604052818152929190602084018383808284378201915050505050509190803590602001908201803590602001908080601f016020809104026020016040519081016040528181529291906020840183838082843750949650506fffffffffffffffffffffffffffffffff1985358116956020013516935061104e92505050565b341561043957600080fd5b61047f60046024813581810190830135806020601f820181900481020160405190810160405281815292919060208401838380828437509496506116be95505050505050565b604051808b600160a060020a0316600160a060020a031681526020018a81526020018981526020018860038111156104b357fe5b60ff1681526020810188905267ffffffffffffffff871660408201526fffffffffffffffffffffffffffffffff198581166080830152841660a082015260e08282038101606083019081529160c08101910187818151815260200191508051906020019080838360005b8381101561053557808201518382015260200161051d565b50505050905090810190601f1680156105625780820380516001836020036101000a031916815260200191505b50838103825284818151815260200191508051906020019080838360005b83811015610598578082015183820152602001610580565b50505050905090810190601f1680156105c55780820380516001836020036101000a031916815260200191505b509c5050505050505050505050505060405180910390f35b34156105e857600080fd5b610240600160a060020a03600435166119cf565b341561060757600080fd5b610286600160a060020a03600435166119e4565b600254600160a060020a031681565b60006005826040518082805190602001908083835b6020831061065e5780518252601f19909201916020918201910161063f565b6001836020036101000a0380198251168184511680821785525050505050509050019150509081526020016040518091039020600201549050919050565b6004545b90565b60048054829081106106b157fe5b90600052602060002090016000915090508054600181600116156101000203166002900480601f0160208091040260200160405190810160405280929190818152602001828054600181600116156101000203166002900480156107565780601f1061072b57610100808354040283529160200191610756565b820191906000526020600020905b81548152906001019060200180831161073957829003601f168201915b505050505081565b600154600090600160a060020a031681808080808080876327e235e333836040516020015260405160e060020a63ffffffff8416028152600160a060020a039091166004820152602401602060405180830381600087803b15156107c157600080fd5b6102c65a03f115156107d257600080fd5b5050506040518051600254909850600160a060020a03169650869050638fc6ad2d81633c570b396000604051602001526040518163ffffffff1660e060020a028152600401602060405180830381600087803b151561083057600080fd5b6102c65a03f1151561084157600080fd5b5050506040518051905060006040516020015260405160e060020a63ffffffff84160281526004810191909152602401602060405180830381600087803b151561088a57600080fd5b6102c65a03f1151561089b57600080fd5b5050506040518051955050600160a060020a038616638fc6ad2d8163cec9bb9f6000604051602001526040518163ffffffff1660e060020a028152600401602060405180830381600087803b15156108f257600080fd5b6102c65a03f1151561090357600080fd5b5050506040518051905060006040516020015260405160e060020a63ffffffff84160281526004810191909152602401602060405180830381600087803b151561094c57600080fd5b6102c65a03f1151561095d57600080fd5b50505060405180519050935060058b6040518082805190602001908083835b6020831061099b5780518252601f19909201916020918201910161097c565b6001836020036101000a038019825116818451168082178552505050505050905001915050908152602001604051908190039020925060008a10156109df57600080fd5b60028301548a14156109f057600080fd5b6004830154859010610a0157600080fd5b600583015467ffffffffffffffff16849010610a1c57600080fd5b600160a060020a033316600090815260098401602052604090205460ff1615610a4457600080fd5b600160a060020a038616638fc6ad2d81636263a27f6000604051602001526040518163ffffffff1660e060020a028152600401602060405180830381600087803b1515610a9057600080fd5b6102c65a03f11515610aa157600080fd5b5050506040518051905060006040516020015260405160e060020a63ffffffff84160281526004810191909152602401602060405180830381600087803b1515610aea57600080fd5b6102c65a03f11515610afb57600080fd5b505050604051805188119050610b1057600080fd5b600160a060020a038616638fc6ad2d81637da1373a6000604051602001526040518163ffffffff1660e060020a028152600401602060405180830381600087803b1515610b5c57600080fd5b6102c65a03f11515610b6d57600080fd5b5050506040518051905060006040516020015260405160e060020a63ffffffff84160281526004810191909152602401602060405180830381600087803b1515610bb657600080fd5b6102c65a03f11515610bc757600080fd5b50505060405180518b11159050610bdd57600080fd5b600160a060020a03338181166000908152600986016020526040808220805460ff19166001179055928b16926388004950929190516020015260405160e060020a63ffffffff8416028152600160a060020a039091166004820152602401602060405180830381600087803b1515610c5457600080fd5b6102c65a03f11515610c6557600080fd5b5050506040518051600485018054820190559250508915610c8b5760648a830204610c8d565b815b905082600201548a1115610caa5760028301805482019055610cb6565b60028301805482900390555b7f5e641fc566b63bcd6da3ca90ec9d7f1989ac38d265b0a0bb447529292bb0b2e88b8b85600401546040518080602001848152602001838152602001828103825285818151815260200191508051906020019080838360005b83811015610d27578082015183820152602001610d0f565b50505050905090810190601f168015610d545780820380516001836020036101000a031916815260200191505b5094505050505060405180910390a1600060038085015460ff1690811115610d7857fe5b1415610d8e5760038301805460ff191660011790555b60058301805467ffffffffffffffff8082166001011667ffffffffffffffff19909116179055600483015485901180610dd55750600583015467ffffffffffffffff168490115b15610e8f577f276fba7410857340eb04cf9e4a96c32eb2ece590de0f6c2d84ba880f78b787aa8b84600201546040518080602001838152602001828103825284818151815260200191508051906020019080838360005b83811015610e44578082015183820152602001610e2c565b50505050905090810190601f168015610e715780820380516001836020036101000a031916815260200191505b50935050505060405180910390a160038301805460ff191660021790555b5060019a9950505050505050505050565b600354600160a060020a031681565b600160a060020a03331660009081526020819052604090205460ff161515610ed657600080fd5b600160a060020a0381161515610eeb57600080fd5b600160a060020a03166000908152602081905260409020805460ff19169055565b600160a060020a03331660009081526020819052604081205460ff161515610f3357600080fd5b60036005836040518082805190602001908083835b60208310610f675780518252601f199092019160209182019101610f48565b6001836020036101000a038019825116818451168082178552505050505050905001915050908152602001604051809103902060030160006101000a81548160ff02191690836003811115610fb857fe5b0217905550600192915050565b60006005826040518082805190602001908083835b60208310610ff95780518252601f199092019160209182019101610fda565b6001836020036101000a03801982511681845116808217855250505050505090500191505090815260200160405190819003902054600160a060020a0316151592915050565b600154600160a060020a031681565b6000611058611a44565b6001546000903390603290600160a060020a031683816327e235e385836040516020015260405160e060020a63ffffffff8416028152600160a060020a039091166004820152602401602060405180830381600087803b15156110ba57600080fd5b6102c65a03f115156110cb57600080fd5b50505060405180519150508281116110e257600080fd5b8b955060008651116110f357600080fd5b600254600160a060020a031694503360058d6040518082805190602001908083835b602083106111345780518252601f199092019160209182019101611115565b6001836020036101000a038019825116818451168082178552505050505050905001915050908152602001604051908190039020805473ffffffffffffffffffffffffffffffffffffffff1916600160a060020a03929092169190911790554260058d6040518082805190602001908083835b602083106111c65780518252601f1990920191602091820191016111a7565b6001836020036101000a03801982511681845116808217855250505050505090500191505090815260200160405190819003902060010155600160a060020a038516638fc6ad2d816345a528bf6000604051602001526040518163ffffffff1660e060020a028152600401602060405180830381600087803b151561124a57600080fd5b6102c65a03f1151561125b57600080fd5b5050506040518051905060006040516020015260405160e060020a63ffffffff84160281526004810191909152602401602060405180830381600087803b15156112a457600080fd5b6102c65a03f115156112b557600080fd5b5050506040518051905060058d6040518082805190602001908083835b602083106112f15780518252601f1990920191602091820191016112d2565b6001836020036101000a03801982511681845116808217855250505050505090500191505090815260200160405190819003902060020155600060058d6040518082805190602001908083835b6020831061135d5780518252601f19909201916020918201910161133e565b6001836020036101000a038019825116818451168082178552505050505050905001915050908152602001604051809103902060030160006101000a81548160ff021916908360038111156113ae57fe5b02179055508a60058d6040518082805190602001908083835b602083106113e65780518252601f1990920191602091820191016113c7565b6001836020036101000a038019825116818451168082178552505050505050905001915050908152602001604051809103902060060190805161142d929160200190611a56565b508860058d6040518082805190602001908083835b602083106114615780518252601f199092019160209182019101611442565b6001836020036101000a03801982511681845116808217855250505050505090500191505090815260200160405190819003902060070180546fffffffffffffffffffffffffffffffff19167001000000000000000000000000000000009092049190911790558760058d6040518082805190602001908083835b602083106114fb5780518252601f1990920191602091820191016114dc565b6001836020036101000a038019825116818451168082178552505050505050905001915050908152602001604051809103902060070160106101000a8154816fffffffffffffffffffffffffffffffff0219169083700100000000000000000000000000000000900402179055508960058d6040518082805190602001908083835b6020831061159c5780518252601f19909201916020918201910161157d565b6001836020036101000a03801982511681845116808217855250505050505090500191505090815260200160405180910390206008019080516115e3929160200190611a56565b5060048054600181016115f68382611ad4565b60009283526020909220018d8051611612929160200190611a56565b50507f61b677181b7536fe88ffa9b46229f8d479c315bf250197413bfd7721de461e208c60405160208082528190810183818151815260200191508051906020019080838360005b8381101561167257808201518382015260200161165a565b50505050905090810190601f16801561169f5780820380516001836020036101000a031916815260200191505b509250505060405180910390a15060019b9a5050505050505050505050565b6000806000806000806116cf611a44565b6000806116da611a44565b6116e2611afd565b60058c6040518082805190602001908083835b602083106117145780518252601f1990920191602091820191016116f5565b6001836020036101000a038019825116818451168082178552505050505050905001915050908152602001604051809103902061014060405190810160409081528254600160a060020a0316825260018301546020830152600283015490820152600380830154919291606084019160ff9091169081111561179257fe5b600381111561179d57fe5b8152602001600482015481526020016005820160009054906101000a900467ffffffffffffffff1667ffffffffffffffff1667ffffffffffffffff168152602001600682018054600181600116156101000203166002900480601f0160208091040260200160405190810160405280929190818152602001828054600181600116156101000203166002900480156118765780601f1061184b57610100808354040283529160200191611876565b820191906000526020600020905b81548152906001019060200180831161185957829003601f168201915b505050918352505060078201546fffffffffffffffffffffffffffffffff19700100000000000000000000000000000000808302821660208086019190915292819004021660408084019190915260088401805460609094019390926002600019600184161561010002019092169190910491601f83018290048202909101905190810160405280929190818152602001828054600181600116156101000203166002900480156119685780601f1061193d57610100808354040283529160200191611968565b820191906000526020600020905b81548152906001019060200180831161194b57829003601f168201915b5050505050815250509050806000015181602001518260400151836060015184608001518560a001518660c001518760e001518861010001518961012001518393508090509a509a509a509a509a509a509a509a509a509a50509193959799509193959799565b60006020819052908152604090205460ff1681565b600160a060020a03331660009081526020819052604090205460ff161515611a0b57600080fd5b600160a060020a0381161515611a2057600080fd5b600160a060020a03166000908152602081905260409020805460ff19166001179055565b60206040519081016040526000815290565b828054600181600116156101000203166002900490600052602060002090601f016020900481019282601f10611a9757805160ff1916838001178555611ac4565b82800160010185558215611ac4579182015b82811115611ac4578251825591602001919060010190611aa9565b50611ad0929150611b5d565b5090565b815481835581811511611af857600083815260209020611af8918101908301611b77565b505050565b6101406040519081016040908152600080835260208301819052908201819052606082019081526000602082018190526040820152606001611b3d611a44565b81526000602082018190526040820152606001611b58611a44565b905290565b6106a091905b80821115611ad05760008155600101611b63565b6106a091905b80821115611ad0576000611b918282611b9a565b50600101611b7d565b50805460018160011615610100020316600290046000825580601f10611bc05750611bde565b601f016020900490600052602060002090810190611bde9190611b5d565b505600a165627a7a72305820373b97ba66ee5f575f2f17ef3a4a7e73f4c9ff132111e28e8d9e92449436f90c0029",
  "source": "pragma solidity ^0.4.17;\n\n\nimport './DIDToken.sol';\nimport './Debuggable.sol';\nimport './Distense.sol';\nimport './lib/SafeMath.sol';\n\n\ncontract Tasks is Approvable, Debuggable {\n\n  using SafeMath for uint256;\n\n  address public DIDTokenAddress;\n  address public DistenseAddress;\n  address public PullRequestsAddress;\n\n  string[] public taskIds;\n\n  enum RewardStatus { Default, Tentative, Determined, Paid }\n\n  struct Task {\n    address createdBy;\n    uint256 created;\n    uint256 reward;\n    RewardStatus rewardStatus;\n    uint256 pctDIDVoted;\n    uint64 numVotes;\n    string title;\n    bytes16 issueNum;\n    bytes16 repo;\n    string tagsString;\n    mapping (address => bool) rewardVotes;\n  }\n\n  mapping (string => Task) tasks;\n\n  event LogAddTask(string taskId);\n  event LogTaskRewardVote(string taskId, uint256 reward, uint256 pctDIDVoted);\n  event LogTaskRewardDetermined(string taskId, uint256 reward);\n\n  function Tasks(address _DIDTokenAddress, address _DistenseAddress) public {\n    DIDTokenAddress = _DIDTokenAddress;\n    DistenseAddress = _DistenseAddress;\n  }\n\n\n  function addTask(string _taskId, string _title, string _tagsString, bytes16 _issueNum, bytes16 _repo) public hasEnoughDID(msg.sender, 50) returns\n  (bool) {\n\n    bytes memory bytesTaskId = bytes(_taskId);\n    require(bytesTaskId.length > 0);\n\n    Distense distense = Distense(DistenseAddress);\n    tasks[_taskId].createdBy = msg.sender;\n    tasks[_taskId].created = now;\n    tasks[_taskId].reward = distense.getParameterValueByTitle(distense.defaultRewardParameterTitle());\n    tasks[_taskId].rewardStatus = RewardStatus.Default;\n    tasks[_taskId].title = _title;\n    tasks[_taskId].issueNum = _issueNum;\n    tasks[_taskId].repo = _repo;\n    tasks[_taskId].tagsString = _tagsString;\n\n    taskIds.push(_taskId);\n    LogAddTask(_taskId);\n\n    return true;\n\n  }\n\n\n  function getTaskById(string _taskId) public view returns (\n    address,\n    uint256,\n    uint256,\n    Tasks.RewardStatus,\n    uint256,\n    uint64,\n    string,\n    bytes16,\n    bytes16,\n    string\n  ) {\n\n    Task memory task = tasks[_taskId];\n    return (\n      task.createdBy,\n      task.created,\n      task.reward,\n      task.rewardStatus,\n      task.pctDIDVoted,\n      task.numVotes,\n      task.title,\n      task.issueNum,\n      task.repo,\n      task.tagsString\n    );\n\n  }\n\n\n  function taskExists(string _taskId) public view returns (bool) {\n    return tasks[_taskId].createdBy != 0;\n  }\n\n\n  function getNumTasks() public view returns (uint) {\n    return taskIds.length;\n  }\n\n\n  function taskRewardVote(string _taskId, uint256 _reward) public returns (bool) {\n\n    DIDToken didToken = DIDToken(DIDTokenAddress);\n    uint256 balance = didToken.balances(msg.sender);\n    Distense distense = Distense(DistenseAddress);\n\n    uint256 pctDIDVotedThreshold = distense.getParameterValueByTitle(\n      distense.proposalPctDIDToApproveParameterTitle()\n    );\n\n    uint256 minNumVoters = distense.getParameterValueByTitle(\n      distense.minNumberOfTaskRewardVotersParameterTitle()\n    );\n\n    Task storage task = tasks[_taskId];\n\n    require(_reward >= 0);\n\n    //  Essentially refund the remaining gas if user's vote will have no effect\n    require(task.reward != _reward);\n\n    require(task.pctDIDVoted < pctDIDVotedThreshold);\n\n    // Restrict voting if enough DID or voters have voted\n    require(task.numVotes < minNumVoters);\n\n    //  Has the voter already voted on this task?\n    require(!task.rewardVotes[msg.sender]);\n\n    //  Does the voter own at least as many DID as the reward their voting for?\n    //  This ensures new contributors don't have too much sway over the issuance of new DID.\n    require(balance > distense.getParameterValueByTitle(distense.numDIDRequiredToTaskRewardVoteParameterTitle()));\n\n    //  Require the reward to be less than or equal to the maximum reward parameter,\n    //  which basically is a hard, floating limit on the number of DID that can be issued for any single task\n    require(_reward <= distense.getParameterValueByTitle(distense.maxRewardParameterTitle()));\n\n    task.rewardVotes[msg.sender] = true;\n\n    uint256 pctDIDOwned = didToken.pctDIDOwned(msg.sender);\n    task.pctDIDVoted = task.pctDIDVoted + pctDIDOwned;\n\n    uint256 update = _reward == 0 ? pctDIDOwned : (_reward * pctDIDOwned) / 100;\n\n    if (_reward > task.reward) {\n      task.reward += update;\n    } else {\n      task.reward -= update;\n    }\n\n    LogTaskRewardVote(_taskId, _reward, task.pctDIDVoted);\n\n    if (task.rewardStatus == RewardStatus.Default)\n      task.rewardStatus = RewardStatus.Tentative;\n    task.numVotes += 1;\n\n    if (task.pctDIDVoted > pctDIDVotedThreshold || task.numVotes > minNumVoters) {\n      LogTaskRewardDetermined(_taskId, task.reward);\n      task.rewardStatus = RewardStatus.Determined;\n    }\n\n    return true;\n\n  }\n\n\n  function getTaskReward(string _taskId) public view returns (uint256) {\n    return tasks[_taskId].reward;\n  }\n\n\n  function setTaskRewardPaid(string _taskId) public onlyApproved returns (bool) {\n    tasks[_taskId].rewardStatus = RewardStatus.Paid;\n    return true;\n  }\n\n\n  modifier hasEnoughDID(address voter, uint256 num) {\n    DIDToken didToken = DIDToken(DIDTokenAddress);\n    uint256 balance = didToken.balances(msg.sender);\n    require(balance > num);\n    _;\n  }\n\n}\n",
  "sourcePath": "/Users/john/distense-contracts/contracts/Tasks.sol",
  "compiler": {
    "name": "solc",
    "version": "0.4.18+commit.9cf6e910.Emscripten.clang"
  },
  "schemaVersion": "1.0.1",
  "updatedAt": "2018-01-06T00:47:59.588Z"
}