{
  "contractName": "Tasks",
  "abi": [
    {
      "constant": true,
      "inputs": [],
      "name": "DistenseAddress",
      "outputs": [
        {
          "name": "",
          "type": "address"
        }
      ],
      "payable": false,
      "stateMutability": "view",
      "type": "function"
    },
    {
      "constant": true,
      "inputs": [],
      "name": "getNumTasks",
      "outputs": [
        {
          "name": "",
          "type": "uint256"
        }
      ],
      "payable": false,
      "stateMutability": "view",
      "type": "function"
    },
    {
      "constant": true,
      "inputs": [
        {
          "name": "",
          "type": "uint256"
        }
      ],
      "name": "taskIds",
      "outputs": [
        {
          "name": "",
          "type": "bytes32"
        }
      ],
      "payable": false,
      "stateMutability": "view",
      "type": "function"
    },
    {
      "constant": false,
      "inputs": [
        {
          "name": "_address",
          "type": "address"
        }
      ],
      "name": "revokeApproval",
      "outputs": [],
      "payable": false,
      "stateMutability": "nonpayable",
      "type": "function"
    },
    {
      "constant": false,
      "inputs": [
        {
          "name": "_taskId",
          "type": "bytes32"
        },
        {
          "name": "_reward",
          "type": "uint256"
        }
      ],
      "name": "voteOnReward",
      "outputs": [
        {
          "name": "",
          "type": "bool"
        }
      ],
      "payable": false,
      "stateMutability": "nonpayable",
      "type": "function"
    },
    {
      "constant": true,
      "inputs": [
        {
          "name": "_taskId",
          "type": "bytes32"
        }
      ],
      "name": "getTaskReward",
      "outputs": [
        {
          "name": "",
          "type": "uint256"
        }
      ],
      "payable": false,
      "stateMutability": "view",
      "type": "function"
    },
    {
      "constant": true,
      "inputs": [],
      "name": "DIDTokenAddress",
      "outputs": [
        {
          "name": "",
          "type": "address"
        }
      ],
      "payable": false,
      "stateMutability": "view",
      "type": "function"
    },
    {
      "constant": true,
      "inputs": [
        {
          "name": "_taskId",
          "type": "bytes32"
        }
      ],
      "name": "taskExists",
      "outputs": [
        {
          "name": "",
          "type": "bool"
        }
      ],
      "payable": false,
      "stateMutability": "view",
      "type": "function"
    },
    {
      "constant": false,
      "inputs": [
        {
          "name": "_taskId",
          "type": "bytes32"
        }
      ],
      "name": "addTask",
      "outputs": [
        {
          "name": "",
          "type": "bool"
        }
      ],
      "payable": false,
      "stateMutability": "nonpayable",
      "type": "function"
    },
    {
      "constant": false,
      "inputs": [
        {
          "name": "_taskId",
          "type": "bytes32"
        }
      ],
      "name": "setTaskRewardPaid",
      "outputs": [
        {
          "name": "",
          "type": "bool"
        }
      ],
      "payable": false,
      "stateMutability": "nonpayable",
      "type": "function"
    },
    {
      "constant": true,
      "inputs": [
        {
          "name": "",
          "type": "address"
        }
      ],
      "name": "approved",
      "outputs": [
        {
          "name": "",
          "type": "bool"
        }
      ],
      "payable": false,
      "stateMutability": "view",
      "type": "function"
    },
    {
      "constant": true,
      "inputs": [
        {
          "name": "_taskId",
          "type": "bytes32"
        }
      ],
      "name": "getTaskById",
      "outputs": [
        {
          "name": "",
          "type": "address"
        },
        {
          "name": "",
          "type": "uint256"
        },
        {
          "name": "",
          "type": "bool"
        },
        {
          "name": "",
          "type": "uint256"
        }
      ],
      "payable": false,
      "stateMutability": "view",
      "type": "function"
    },
    {
      "constant": false,
      "inputs": [
        {
          "name": "_address",
          "type": "address"
        }
      ],
      "name": "approve",
      "outputs": [],
      "payable": false,
      "stateMutability": "nonpayable",
      "type": "function"
    },
    {
      "inputs": [
        {
          "name": "_DIDTokenAddress",
          "type": "address"
        },
        {
          "name": "_DistenseAddress",
          "type": "address"
        }
      ],
      "payable": false,
      "stateMutability": "nonpayable",
      "type": "constructor"
    },
    {
      "anonymous": false,
      "inputs": [
        {
          "indexed": false,
          "name": "taskId",
          "type": "bytes32"
        }
      ],
      "name": "LogAddTask",
      "type": "event"
    },
    {
      "anonymous": false,
      "inputs": [
        {
          "indexed": false,
          "name": "taskId",
          "type": "bytes32"
        },
        {
          "indexed": false,
          "name": "reward",
          "type": "uint256"
        },
        {
          "indexed": false,
          "name": "pctDIDVoted",
          "type": "uint256"
        }
      ],
      "name": "LogRewardVote",
      "type": "event"
    },
    {
      "anonymous": false,
      "inputs": [
        {
          "indexed": true,
          "name": "taskId",
          "type": "bytes32"
        },
        {
          "indexed": false,
          "name": "sum",
          "type": "uint256"
        }
      ],
      "name": "LogRewardDetermined",
      "type": "event"
    }
  ],
  "bytecode": "0x6060604052341561000f57600080fd5b60405160408061129c8339810160405280805190602001909190805190602001909190505060016000803373ffffffffffffffffffffffffffffffffffffffff1673ffffffffffffffffffffffffffffffffffffffff16815260200190815260200160002060006101000a81548160ff02191690831515021790555081600160006101000a81548173ffffffffffffffffffffffffffffffffffffffff021916908373ffffffffffffffffffffffffffffffffffffffff16021790555080600260006101000a81548173ffffffffffffffffffffffffffffffffffffffff021916908373ffffffffffffffffffffffffffffffffffffffff160217905550505061117e8061011e6000396000f3006060604052600436106100c5576000357c0100000000000000000000000000000000000000000000000000000000900463ffffffff1680630afdbaed146100ca5780631efe3abf1461011f57806339118d2514610148578063484685b0146101875780638dae0bd3146101c0578063a022c15e14610208578063ac847d4914610243578063b7bf356a14610298578063ccf6c84c146102d7578063d30bf32314610316578063d8b964e614610355578063d8f6dcf2146103a6578063daea85c514610426575b600080fd5b34156100d557600080fd5b6100dd61045f565b604051808273ffffffffffffffffffffffffffffffffffffffff1673ffffffffffffffffffffffffffffffffffffffff16815260200191505060405180910390f35b341561012a57600080fd5b610132610485565b6040518082815260200191505060405180910390f35b341561015357600080fd5b6101696004808035906020019091905050610492565b60405180826000191660001916815260200191505060405180910390f35b341561019257600080fd5b6101be600480803573ffffffffffffffffffffffffffffffffffffffff169060200190919050506104b6565b005b34156101cb57600080fd5b6101ee600480803560001916906020019091908035906020019091905050610591565b604051808215151515815260200191505060405180910390f35b341561021357600080fd5b61022d600480803560001916906020019091905050610b71565b6040518082815260200191505060405180910390f35b341561024e57600080fd5b610256610b99565b604051808273ffffffffffffffffffffffffffffffffffffffff1673ffffffffffffffffffffffffffffffffffffffff16815260200191505060405180910390f35b34156102a357600080fd5b6102bd600480803560001916906020019091905050610bbf565b604051808215151515815260200191505060405180910390f35b34156102e257600080fd5b6102fc600480803560001916906020019091905050610c20565b604051808215151515815260200191505060405180910390f35b341561032157600080fd5b61033b600480803560001916906020019091905050610ed1565b604051808215151515815260200191505060405180910390f35b341561036057600080fd5b61038c600480803573ffffffffffffffffffffffffffffffffffffffff16906020019091905050610f0f565b604051808215151515815260200191505060405180910390f35b34156103b157600080fd5b6103cb600480803560001916906020019091905050610f2f565b604051808573ffffffffffffffffffffffffffffffffffffffff1673ffffffffffffffffffffffffffffffffffffffff1681526020018481526020018315151515815260200182815260200194505050505060405180910390f35b341561043157600080fd5b61045d600480803573ffffffffffffffffffffffffffffffffffffffff16906020019091905050610fed565b005b600260009054906101000a900473ffffffffffffffffffffffffffffffffffffffff1681565b6000600380549050905090565b6003818154811015156104a157fe5b90600052602060002090016000915090505481565b6000803373ffffffffffffffffffffffffffffffffffffffff1673ffffffffffffffffffffffffffffffffffffffff16815260200190815260200160002060009054906101000a900460ff16151561050d57600080fd5b61052c8173ffffffffffffffffffffffffffffffffffffffff166110c8565b151561053757600080fd5b60008060008373ffffffffffffffffffffffffffffffffffffffff1673ffffffffffffffffffffffffffffffffffffffff16815260200190815260200160002060006101000a81548160ff02191690831515021790555050565b600080600080600160009054906101000a900473ffffffffffffffffffffffffffffffffffffffff1692508273ffffffffffffffffffffffffffffffffffffffff166327e235e3336000604051602001526040518263ffffffff167c0100000000000000000000000000000000000000000000000000000000028152600401808273ffffffffffffffffffffffffffffffffffffffff1673ffffffffffffffffffffffffffffffffffffffff168152602001915050602060405180830381600087803b151561065f57600080fd5b6102c65a03f1151561067057600080fd5b505050604051805190509150600260009054906101000a900473ffffffffffffffffffffffffffffffffffffffff1690508073ffffffffffffffffffffffffffffffffffffffff1663710368ab8273ffffffffffffffffffffffffffffffffffffffff166360232fa96000604051602001526040518163ffffffff167c0100000000000000000000000000000000000000000000000000000000028152600401602060405180830381600087803b151561072957600080fd5b6102c65a03f1151561073a57600080fd5b505050604051805190506000604051602001526040518263ffffffff167c0100000000000000000000000000000000000000000000000000000000028152600401808260001916600019168152602001915050602060405180830381600087803b15156107a657600080fd5b6102c65a03f115156107b757600080fd5b50505060405180519050600460008860001916600019168152602001908152602001600020600301541015806108495750600060046000886000191660001916815260200190815260200160002060040160003373ffffffffffffffffffffffffffffffffffffffff1673ffffffffffffffffffffffffffffffffffffffff1681526020019081526020016000205414155b8061085357508482105b8061085e5750600185105b8061098857508073ffffffffffffffffffffffffffffffffffffffff1663710368ab8273ffffffffffffffffffffffffffffffffffffffff16637da1373a6000604051602001526040518163ffffffff167c0100000000000000000000000000000000000000000000000000000000028152600401602060405180830381600087803b15156108ec57600080fd5b6102c65a03f115156108fd57600080fd5b505050604051805190506000604051602001526040518263ffffffff167c0100000000000000000000000000000000000000000000000000000000028152600401808260001916600019168152602001915050602060405180830381600087803b151561096957600080fd5b6102c65a03f1151561097a57600080fd5b505050604051805190508510155b156109965760009350610b68565b8460046000886000191660001916815260200190815260200160002060040160003373ffffffffffffffffffffffffffffffffffffffff1673ffffffffffffffffffffffffffffffffffffffff168152602001908152602001600020819055508273ffffffffffffffffffffffffffffffffffffffff166388004950336000604051602001526040518263ffffffff167c0100000000000000000000000000000000000000000000000000000000028152600401808273ffffffffffffffffffffffffffffffffffffffff1673ffffffffffffffffffffffffffffffffffffffff168152602001915050602060405180830381600087803b1515610a9957600080fd5b6102c65a03f11515610aaa57600080fd5b505050604051805190506004600088600019166000191681526020019081526020016000206003015401600460008860001916600019168152602001908152602001600020600301819055507ff60cf8f4f5b4407e5127d6a370a3fa0ca5fee74bb76b6f234a6b9b3b02699ed08686600460008a6000191660001916815260200190815260200160002060030154604051808460001916600019168152602001838152602001828152602001935050505060405180910390a1600193505b50505092915050565b6000600460008360001916600019168152602001908152602001600020600101549050919050565b600160009054906101000a900473ffffffffffffffffffffffffffffffffffffffff1681565b60008060046000846000191660001916815260200190815260200160002060000160009054906101000a900473ffffffffffffffffffffffffffffffffffffffff1673ffffffffffffffffffffffffffffffffffffffff1614159050919050565b600033600080600160009054906101000a900473ffffffffffffffffffffffffffffffffffffffff1691508173ffffffffffffffffffffffffffffffffffffffff166327e235e3336000604051602001526040518263ffffffff167c0100000000000000000000000000000000000000000000000000000000028152600401808273ffffffffffffffffffffffffffffffffffffffff1673ffffffffffffffffffffffffffffffffffffffff168152602001915050602060405180830381600087803b1515610cee57600080fd5b6102c65a03f11515610cff57600080fd5b505050604051805190509050600081111515610d1a57600080fd5b60007f010000000000000000000000000000000000000000000000000000000000000002856000602081101515610d4d57fe5b1a7f0100000000000000000000000000000000000000000000000000000000000000027effffffffffffffffffffffffffffffffffffffffffffffffffffffffffffff191614151515610d9f57600080fd5b3360046000876000191660001916815260200190815260200160002060000160006101000a81548173ffffffffffffffffffffffffffffffffffffffff021916908373ffffffffffffffffffffffffffffffffffffffff160217905550600060046000876000191660001916815260200190815260200160002060010181905550600060046000876000191660001916815260200190815260200160002060020160006101000a81548160ff02191690831515021790555060038054806001018281610e6b9190611101565b9160005260206000209001600087909190915090600019169055507ffa3b619816b1996629aaa613e5b31617aa9028487893cb8d095bcf0272445bbc8560405180826000191660001916815260200191505060405180910390a160019350505050919050565b6000600160046000846000191660001916815260200190815260200160002060020160006101000a81548160ff021916908315150217905550919050565b60006020528060005260406000206000915054906101000a900460ff1681565b60008060008060046000866000191660001916815260200190815260200160002060000160009054906101000a900473ffffffffffffffffffffffffffffffffffffffff166004600087600019166000191681526020019081526020016000206001015460046000886000191660001916815260200190815260200160002060020160009054906101000a900460ff166004600089600019166000191681526020019081526020016000206003015493509350935093509193509193565b6000803373ffffffffffffffffffffffffffffffffffffffff1673ffffffffffffffffffffffffffffffffffffffff16815260200190815260200160002060009054906101000a900460ff16151561104457600080fd5b6110638173ffffffffffffffffffffffffffffffffffffffff166110c8565b151561106e57600080fd5b60016000808373ffffffffffffffffffffffffffffffffffffffff1673ffffffffffffffffffffffffffffffffffffffff16815260200190815260200160002060006101000a81548160ff02191690831515021790555050565b60008073ffffffffffffffffffffffffffffffffffffffff168273ffffffffffffffffffffffffffffffffffffffff1614159050919050565b81548183558181151161112857818360005260206000209182019101611127919061112d565b5b505050565b61114f91905b8082111561114b576000816000905550600101611133565b5090565b905600a165627a7a72305820da5a06e86a1d02bbb86f440819844a811dcd070189408f41d7c76656d23519bc0029",
  "source": "pragma solidity ^0.4.17;\n\n\nimport './DIDToken.sol';\nimport './Debuggable.sol';\nimport './Distense.sol';\nimport './lib/SafeMath.sol';\n\n\ncontract Tasks is Approvable {\n\n  using SafeMath for uint256;\n\n  address public DIDTokenAddress;\n  address public DistenseAddress;\n\n  bytes32[] public taskIds;\n\n  struct Task {\n    address createdBy;\n    uint256 reward;\n    bool rewardPaid;\n    uint256 pctDIDVoted;\n    mapping (address => uint256) rewardVotes;\n  }\n\n  mapping (bytes32 => Task) tasks;\n\n  event LogAddTask(bytes32 taskId);\n  event LogRewardVote(bytes32 taskId, uint256 reward, uint256 pctDIDVoted);\n  event LogRewardDetermined(bytes32 indexed taskId, uint256 sum);\n\n\n  function Tasks(address _DIDTokenAddress, address _DistenseAddress) public {\n    DIDTokenAddress = _DIDTokenAddress;\n    DistenseAddress = _DistenseAddress;\n  }\n\n\n  function addTask(bytes32 _taskId) public hasDID(msg.sender) returns (bool) {\n    require(_taskId[0] != 0);\n\n    tasks[_taskId].createdBy = msg.sender;\n    tasks[_taskId].reward = 0;\n    tasks[_taskId].rewardPaid = false;\n\n    taskIds.push(_taskId);\n    LogAddTask(_taskId);\n\n    return true;\n  }\n\n\n  function getTaskById(bytes32 _taskId) public view returns (address, uint256, bool, uint256) {\n    return (\n      tasks[_taskId].createdBy,\n      tasks[_taskId].reward,\n      tasks[_taskId].rewardPaid,\n      tasks[_taskId].pctDIDVoted\n    );\n  }\n\n\n  function taskExists(bytes32 _taskId) public view returns (bool) {\n    return tasks[_taskId].createdBy != 0;\n  }\n\n\n  function getNumTasks() public view returns (uint) {\n    return taskIds.length;\n  }\n\n\n  function voteOnReward(bytes32 _taskId, uint256 _reward) public returns (bool) {\n\n    DIDToken didToken = DIDToken(DIDTokenAddress);\n    uint256 balance = didToken.balances(msg.sender);\n    Distense distense = Distense(DistenseAddress);\n\n//    Please excuse the following.\n//    The stack was too deep so using fewer local vars here instead of in modifiers\n//    These if checks are essentially modifiers:\n    if (\n\n//    This checks to see if enough DID owners haven't voted on this task.  If they have, let's continue and not allow this vote.\n      tasks[_taskId].pctDIDVoted >= distense.getParameterValue(distense.proposalPctDIDApprovalTitle()) ||\n\n//    Has the voter already voted on this task?\n      tasks[_taskId].rewardVotes[msg.sender] != 0 ||\n\n//    Does the voter own at least as many DID as the reward their voting for?\n//    This ensures new contributors don't have too much sway over the issuance of new DID.\n      balance < _reward ||\n\n//    Don't let the voter vote for 0 reward which will have no effect on the reward and will cost the gas\n      _reward < 1 ||\n\n//    Require the reward to be less than or equal to the maximum reward parameter,\n//    which basically is a hard, floating limit on the number of DID that can be issued for any single task\n      _reward >= distense.getParameterValue(distense.maxRewardParameterTitle())\n    ) return false;\n\n    tasks[_taskId].rewardVotes[msg.sender] = _reward;\n    tasks[_taskId].pctDIDVoted = tasks[_taskId].pctDIDVoted + didToken.pctDIDOwned(msg.sender);\n\n    LogRewardVote(_taskId, _reward, tasks[_taskId].pctDIDVoted);\n\n    return true;\n\n}\n\n  function getTaskReward(bytes32 _taskId) public view returns (uint256) {\n    return tasks[_taskId].reward;\n  }\n\n\n  function setTaskRewardPaid(bytes32 _taskId) public /*onlyApproved*/ returns (bool) {\n    tasks[_taskId].rewardPaid = true;\n//    return true;\n  }\n\n\n  modifier hasDID(address voter) {\n    DIDToken didToken = DIDToken(DIDTokenAddress);\n    uint256 balance = didToken.balances(msg.sender);\n    require(balance > 0);\n    _;\n  }\n\n}\n",
  "sourcePath": "/Users/john/distense-ui/node_modules/distense-contracts/contracts/Tasks.sol",
  "compiler": {
    "name": "solc",
    "version": "0.4.18+commit.9cf6e910.Emscripten.clang"
  },
  "schemaVersion": "1.0.1",
  "updatedAt": "2017-12-15T06:48:22.329Z"
}