{
  "contractName": "Tasks",
  "abi": [
    {
      "constant": true,
      "inputs": [],
      "name": "DistenseAddress",
      "outputs": [
        {
          "name": "",
          "type": "address"
        }
      ],
      "payable": false,
      "stateMutability": "view",
      "type": "function"
    },
    {
      "constant": true,
      "inputs": [
        {
          "name": "_taskId",
          "type": "bytes32"
        }
      ],
      "name": "haveReachedProposalApprovalThreshold",
      "outputs": [
        {
          "name": "",
          "type": "bool"
        }
      ],
      "payable": false,
      "stateMutability": "view",
      "type": "function"
    },
    {
      "constant": true,
      "inputs": [
        {
          "name": "_taskId",
          "type": "bytes32"
        }
      ],
      "name": "percentDIDVoted",
      "outputs": [
        {
          "name": "",
          "type": "uint256"
        }
      ],
      "payable": false,
      "stateMutability": "view",
      "type": "function"
    },
    {
      "constant": true,
      "inputs": [],
      "name": "getNumTasks",
      "outputs": [
        {
          "name": "",
          "type": "uint256"
        }
      ],
      "payable": false,
      "stateMutability": "view",
      "type": "function"
    },
    {
      "constant": true,
      "inputs": [
        {
          "name": "",
          "type": "uint256"
        }
      ],
      "name": "taskIds",
      "outputs": [
        {
          "name": "",
          "type": "bytes32"
        }
      ],
      "payable": false,
      "stateMutability": "view",
      "type": "function"
    },
    {
      "constant": true,
      "inputs": [
        {
          "name": "_taskId",
          "type": "bytes32"
        }
      ],
      "name": "numDIDVotedOnTask",
      "outputs": [
        {
          "name": "",
          "type": "uint256"
        }
      ],
      "payable": false,
      "stateMutability": "view",
      "type": "function"
    },
    {
      "constant": false,
      "inputs": [
        {
          "name": "_taskId",
          "type": "bytes32"
        },
        {
          "name": "_reward",
          "type": "uint256"
        }
      ],
      "name": "voteOnReward",
      "outputs": [
        {
          "name": "",
          "type": "bool"
        }
      ],
      "payable": false,
      "stateMutability": "nonpayable",
      "type": "function"
    },
    {
      "constant": true,
      "inputs": [
        {
          "name": "_taskId",
          "type": "bytes32"
        }
      ],
      "name": "getTaskReward",
      "outputs": [
        {
          "name": "",
          "type": "uint256"
        }
      ],
      "payable": false,
      "stateMutability": "view",
      "type": "function"
    },
    {
      "constant": true,
      "inputs": [],
      "name": "DIDTokenAddress",
      "outputs": [
        {
          "name": "",
          "type": "address"
        }
      ],
      "payable": false,
      "stateMutability": "view",
      "type": "function"
    },
    {
      "constant": false,
      "inputs": [
        {
          "name": "_taskId",
          "type": "bytes32"
        }
      ],
      "name": "determineReward",
      "outputs": [
        {
          "name": "",
          "type": "uint256"
        }
      ],
      "payable": false,
      "stateMutability": "nonpayable",
      "type": "function"
    },
    {
      "constant": true,
      "inputs": [
        {
          "name": "_taskId",
          "type": "bytes32"
        }
      ],
      "name": "taskExists",
      "outputs": [
        {
          "name": "",
          "type": "bool"
        }
      ],
      "payable": false,
      "stateMutability": "view",
      "type": "function"
    },
    {
      "constant": false,
      "inputs": [
        {
          "name": "_taskId",
          "type": "bytes32"
        }
      ],
      "name": "addTask",
      "outputs": [
        {
          "name": "",
          "type": "bool"
        }
      ],
      "payable": false,
      "stateMutability": "nonpayable",
      "type": "function"
    },
    {
      "constant": true,
      "inputs": [
        {
          "name": "_taskId",
          "type": "bytes32"
        }
      ],
      "name": "getTaskById",
      "outputs": [
        {
          "name": "",
          "type": "address"
        },
        {
          "name": "",
          "type": "uint256"
        },
        {
          "name": "",
          "type": "uint256"
        },
        {
          "name": "",
          "type": "bool"
        },
        {
          "name": "pctDIDVoted",
          "type": "uint256"
        }
      ],
      "payable": false,
      "stateMutability": "view",
      "type": "function"
    },
    {
      "inputs": [
        {
          "name": "_DIDTokenAddress",
          "type": "address"
        },
        {
          "name": "_DistenseAddress",
          "type": "address"
        }
      ],
      "payable": false,
      "stateMutability": "nonpayable",
      "type": "constructor"
    },
    {
      "anonymous": false,
      "inputs": [
        {
          "indexed": false,
          "name": "taskId",
          "type": "bytes32"
        }
      ],
      "name": "LogAddTask",
      "type": "event"
    },
    {
      "anonymous": false,
      "inputs": [
        {
          "indexed": false,
          "name": "taskId",
          "type": "bytes32"
        },
        {
          "indexed": false,
          "name": "reward",
          "type": "uint256"
        },
        {
          "indexed": false,
          "name": "pctDIDVoted",
          "type": "uint256"
        }
      ],
      "name": "LogRewardVote",
      "type": "event"
    },
    {
      "anonymous": false,
      "inputs": [
        {
          "indexed": false,
          "name": "voterBalance",
          "type": "uint256"
        }
      ],
      "name": "LogVoterBalance",
      "type": "event"
    },
    {
      "anonymous": false,
      "inputs": [
        {
          "indexed": true,
          "name": "taskId",
          "type": "bytes32"
        },
        {
          "indexed": false,
          "name": "sum",
          "type": "uint256"
        }
      ],
      "name": "LogRewardDetermined",
      "type": "event"
    }
  ],
  "bytecode": "0x6060604052341561000f57600080fd5b604051604080610d34833981016040528080519190602001805160008054600160a060020a03958616600160a060020a03199182161790915560018054959092169416939093179092555050610cca8061006a6000396000f300606060405236156100a95763ffffffff60e060020a6000350416630afdbaed81146100ae57806318a9befc146100dd5780631a57056f146101075780631efe3abf1461012f57806339118d25146101425780637e33a906146101585780638dae0bd31461016e578063a022c15e14610187578063ac847d491461019d578063b2f106c0146101b0578063b7bf356a146101c6578063ccf6c84c146101dc578063d8f6dcf2146101f2575b600080fd5b34156100b957600080fd5b6100c1610245565b604051600160a060020a03909116815260200160405180910390f35b34156100e857600080fd5b6100f3600435610254565b604051901515815260200160405180910390f35b341561011257600080fd5b61011d600435610330565b60405190815260200160405180910390f35b341561013a57600080fd5b61011d610429565b341561014d57600080fd5b61011d600435610430565b341561016357600080fd5b61011d60043561044f565b341561017957600080fd5b6100f36004356024356105ea565b341561019257600080fd5b61011d600435610856565b34156101a857600080fd5b6100c161086b565b34156101bb57600080fd5b61011d60043561087a565b34156101d157600080fd5b6100f36004356109f9565b34156101e757600080fd5b6100f3600435610a16565b34156101fd57600080fd5b610208600435610b03565b604051600160a060020a039095168552602085019390935260408085019290925215156060840152608083019190915260a0909101905180910390f35b600154600160a060020a031681565b6003546000908190600160a060020a031663710368ab816360232fa984604051602001526040518163ffffffff1660e060020a028152600401602060405180830381600087803b15156102a657600080fd5b6102c65a03f115156102b757600080fd5b5050506040518051905060006040516020015260405160e060020a63ffffffff84160281526004810191909152602401602060405180830381600087803b151561030057600080fd5b6102c65a03f1151561031157600080fd5b5050506040518051905090508061032784610330565b10159392505050565b6002546000908190600160a060020a03166318160ddd82604051602001526040518163ffffffff1660e060020a028152600401602060405180830381600087803b151561037c57600080fd5b6102c65a03f1151561038d57600080fd5b50505060405180519050905073__SafeMath______________________________622c1a9e6103bb8561044f565b83600360006040516020015260405160e060020a63ffffffff861602815260048101939093526024830191909152604482015260640160206040518083038186803b151561040857600080fd5b6102c65a03f4151561041957600080fd5b5050506040518051949350505050565b6004545b90565b600480548290811061043e57fe5b600091825260209091200154905081565b6000610459610c10565b600083815260056020526040808220829160a0905190810160405290816000820160009054906101000a9004600160a060020a0316600160a060020a0316600160a060020a03168152602001600182015481526020016002820180548060200260200160405190810160405280929190818152602001828054801561050757602002820191906000526020600020905b8154600160a060020a031681526001909101906020018083116104e9575b5050509183525050600382015460ff16151560208201526004909101546040909101529250600091508190505b8260400151518161ffff1610156105e257600254600160a060020a03166327e235e360408501518361ffff168151811061056a57fe5b9060200190602002015160006040516020015260405160e060020a63ffffffff8416028152600160a060020a039091166004820152602401602060405180830381600087803b15156105bb57600080fd5b6102c65a03f115156105cc57600080fd5b5050506040518051929092019150600101610534565b509392505050565b6000828152600560208181526040808420600160a060020a0333168552909201905281205481908190819086901561062157600080fd5b6003548690600090600160a060020a031663710368ab81637da1373a84604051602001526040518163ffffffff1660e060020a028152600401602060405180830381600087803b151561067357600080fd5b6102c65a03f1151561068457600080fd5b5050506040518051905060006040516020015260405160e060020a63ffffffff84160281526004810191909152602401602060405180830381600087803b15156106cd57600080fd5b6102c65a03f115156106de57600080fd5b5050506040518051915050808211156106f657600080fd5b6106ff89610254565b1561070957600080fd5b7ff60cf8f4f5b4407e5127d6a370a3fa0ca5fee74bb76b6f234a6b9b3b02699ed089898760405192835260208301919091526040808301919091526060909101905180910390a16000898152600560208181526040808420600160a060020a033316855292830190915290912089905560028101805491975090600181016107918382610c45565b506000918252602090912001805473ffffffffffffffffffffffffffffffffffffffff191633600160a060020a03161790556107cc89610330565b6004870181905594506107de89610254565b935083806107f0575060028601546064145b15610800576107fe8961087a565b505b7ff60cf8f4f5b4407e5127d6a370a3fa0ca5fee74bb76b6f234a6b9b3b02699ed089898760405192835260208301919091526040808301919091526060909101905180910390a150600198975050505050505050565b60009081526005602052604090206001015490565b600054600160a060020a031681565b60008060008060008060008060006108918a610254565b1561089b57600080fd5b60008a815260056020526040902097506108b48a61044f565b965060009550600093505b606460ff8516116109a45760028801805460ff86169081106108dd57fe5b6000918252602080832090910154600160a060020a0390811680845260058c0190925260408084205460025493995060640296509116916327e235e391889190516020015260405160e060020a63ffffffff8416028152600160a060020a039091166004820152602401602060405180830381600087803b151561096057600080fd5b6102c65a03f1151561097157600080fd5b505050604051805190506064029150866064029050808281151561099157fe5b04830295909501946001909301926108bf565b6001880186905560038801805460ff19169055897f2e77e3f0cc5b74cc2bccf35efc7d8e23f06a2f027cee7219f62e3403dfab4a668760405190815260200160405180910390a2509398975050505050505050565b600090815260056020526040902054600160a060020a0316151590565b60007fff000000000000000000000000000000000000000000000000000000000000007f010000000000000000000000000000000000000000000000000000000000000083831a02161515610a6a57600080fd5b6000828152600560205260408120805473ffffffffffffffffffffffffffffffffffffffff191633600160a060020a03161781556001908101919091556004805490918101610ab98382610c45565b5060009182526020909120018290557ffa3b619816b1996629aaa613e5b31617aa9028487893cb8d095bcf0272445bbc8260405190815260200160405180910390a1506001919050565b6000806000806000610b13610c10565b600087815260056020526040908190209060a0905190810160405290816000820160009054906101000a9004600160a060020a0316600160a060020a0316600160a060020a031681526020016001820154815260200160028201805480602002602001604051908101604052809291908181526020018280548015610bc157602002820191906000526020600020905b8154600160a060020a03168152600190910190602001808311610ba3575b5050509183525050600382015460ff161515602082015260049091015460409091015290508051816020015182604001515183606001518460800151939b929a50909850965090945092505050565b60a06040519081016040908152600080835260208301528101610c31610c6e565b815260006020820181905260409091015290565b815481835581811511610c6957600083815260209020610c69918101908301610c80565b505050565b60206040519081016040526000815290565b61042d91905b80821115610c9a5760008155600101610c86565b50905600a165627a7a72305820ea6f6dd27d616e800bef16761865a116d1506e688b2309bf70b1a234b1e958c00029",
  "source": "pragma solidity ^0.4.17;\n\nimport './DIDToken.sol';\nimport './Distense.sol';\nimport './lib/SafeMath.sol';\n\ncontract Tasks {\n  using SafeMath for uint256;\n\n  address public DIDTokenAddress;\n  address public DistenseAddress;\n  DIDToken didToken;\n  Distense distense;\n\n  bytes32[] public taskIds;\n\n  struct Task {\n  address createdBy;\n  uint256 reward;\n  address[] rewardVoters;\n  bool rewardPaid;\n  uint256 pctDIDVoted;\n  mapping (address => uint256) rewardVotes;\n  }\n\n  mapping (bytes32 => Task) tasks;\n  //  Does this happen at time of reward determination or at simple addTask or both\n  event LogAddTask(bytes32 taskId);\n  event LogRewardVote(bytes32 taskId, uint256 reward, uint256 pctDIDVoted);\n  event LogVoterBalance(uint256 voterBalance);\n  event LogRewardDetermined(bytes32 indexed taskId, uint256 sum);\n\n  function Tasks(address _DIDTokenAddress, address _DistenseAddress) public {\n    DIDTokenAddress = _DIDTokenAddress;\n    DistenseAddress = _DistenseAddress;\n  }\n\n  function addTask(bytes32 _taskId) public returns (bool) {\n    require(_taskId[0] != 0);\n    tasks[_taskId].createdBy = msg.sender;\n    tasks[_taskId].reward = 0;\n    taskIds.push(_taskId);\n    LogAddTask(_taskId);\n    return true;\n  }\n\n  function getTaskById(bytes32 _taskId) public view returns (address, uint256, uint256, bool, uint256 pctDIDVoted) {\n    Task memory task = tasks[_taskId];\n    return (task.createdBy, task.reward, task.rewardVoters.length, task.rewardPaid, task.pctDIDVoted);\n  }\n\n  function taskExists(bytes32 _taskId) public view returns (bool) {\n    return tasks[_taskId].createdBy != 0;\n  }\n\n  function getNumTasks() public view returns (uint) {\n    return taskIds.length;\n  }\n\n  // Make sure voter hasn't voted and the reward for this task isn't set\n  function voteOnReward(bytes32 _taskId, uint256 _reward)\n//    TODO not sure we want this here: hasRequiredNumDID(msg.sender, _reward)\n    voterNotVotedOnTask(_taskId)\n    rewardWithinParameterLimit(_reward)\n  external returns (bool) {\n    require(!haveReachedProposalApprovalThreshold(_taskId));\n\n    LogRewardVote(_taskId, _reward, _pctDIDVoted);\n    Task storage _task = tasks[_taskId];\n    _task.rewardVotes[msg.sender] = _reward;\n    _task.rewardVoters.push(msg.sender);\n\n    uint256 _pctDIDVoted = percentDIDVoted(_taskId);\n    _task.pctDIDVoted = _pctDIDVoted;\n\n    //  If DID threshold has been reached go ahead and determine the reward for the task\n    //    TODO  this function could hopefully be structured better;\n    //    the below will consume quite a bit of gas\n    //    if enoughDIDVoted, making the person who calls this the unlucky one who turns enoughDIDVoted to be true\n    bool enoughDIDVoted = haveReachedProposalApprovalThreshold(_taskId);\n    if (enoughDIDVoted || _task.rewardVoters.length == 100) {\n      determineReward(_taskId);\n    }\n    LogRewardVote(_taskId, _reward, _pctDIDVoted);\n    return true;\n  }\n\n  function determineReward(bytes32  _taskId) public returns (uint256) {\n    require(!haveReachedProposalApprovalThreshold(_taskId));\n\n    Task storage _task = tasks[_taskId];\n\n    uint256 _numDIDVoted = numDIDVotedOnTask(_taskId);\n    uint256 _sum = 0;\n    address _voter;\n\n    //    TODO what should we limit this to?\n    for (uint8 i = 0; i <= 100; i++) {\n      _voter = _task.rewardVoters[i];\n      uint rewardVote = _task.rewardVotes[_voter] * 100;\n      uint voterDIDBalance = didToken.balances(_voter) * 100;\n      uint totalDIDVoted = _numDIDVoted * 100;\n      _sum += rewardVote * (voterDIDBalance / totalDIDVoted);\n    }\n\n    _task.reward = _sum;\n    _task.rewardPaid = false;\n    LogRewardDetermined(_taskId, _sum);\n    return _sum;\n  }\n\n  function numDIDVotedOnTask(bytes32 _taskId) public view returns (uint256) {\n    Task memory _task = tasks[_taskId];\n    uint256 _numDIDVoted = 0;\n\n    for (uint16 i = 0; i < _task.rewardVoters.length; i++) {\n      _numDIDVoted += didToken.balances(_task.rewardVoters[i]);\n    }\n\n    return _numDIDVoted;\n  }\n\n  function haveReachedProposalApprovalThreshold(bytes32 _taskId) public view returns (bool) {\n    uint256 threshold = distense.getParameterValue(distense.proposalPctDIDApprovalTitle());\n    return percentDIDVoted(_taskId) >= threshold;\n  }\n\n  function percentDIDVoted(bytes32 _taskId) public view returns (uint256) {\n    uint256 totalSupply = didToken.totalSupply();\n    return SafeMath.percent(numDIDVotedOnTask(_taskId), totalSupply, 3);\n  }\n\n  function getTaskReward(bytes32 _taskId) public view returns (uint256) {\n    return tasks[_taskId].reward;\n  }\n\n  modifier voterNotVotedOnTask(bytes32 _taskId) {\n    require(tasks[_taskId].rewardVotes[msg.sender] == 0);\n    _;\n  }\n\n//  modifier hasRequiredNumDID(address voter, uint256 num) {\n//    didToken = DIDToken(DIDTokenAddress);\n//    uint256 balance = didToken.balances(voter);\n//    require(balance > num);\n//    _;\n//  }\n\n  modifier rewardWithinParameterLimit(uint256 _reward) {\n    uint256 maxReward = distense.getParameterValue(distense.maxRewardParameterTitle());\n    require(_reward <= maxReward);\n    _;\n  }\n\n}\n",
  "sourcePath": "/Users/john/contracts/contracts/Tasks.sol",
  "schemaVersion": "1.0.0",
  "updatedAt": "2017-10-27T15:34:30.626Z"
}