{
  "contractName": "Tasks",
  "abi": [
    {
      "constant": true,
      "inputs": [],
      "name": "DistenseAddress",
      "outputs": [
        {
          "name": "",
          "type": "address"
        }
      ],
      "payable": false,
      "stateMutability": "view",
      "type": "function"
    },
    {
      "constant": true,
      "inputs": [],
      "name": "getNumTasks",
      "outputs": [
        {
          "name": "",
          "type": "uint256"
        }
      ],
      "payable": false,
      "stateMutability": "view",
      "type": "function"
    },
    {
      "constant": true,
      "inputs": [
        {
          "name": "",
          "type": "uint256"
        }
      ],
      "name": "taskIds",
      "outputs": [
        {
          "name": "",
          "type": "bytes32"
        }
      ],
      "payable": false,
      "stateMutability": "view",
      "type": "function"
    },
    {
      "constant": true,
      "inputs": [],
      "name": "PullRequestsAddress",
      "outputs": [
        {
          "name": "",
          "type": "address"
        }
      ],
      "payable": false,
      "stateMutability": "view",
      "type": "function"
    },
    {
      "constant": false,
      "inputs": [
        {
          "name": "_address",
          "type": "address"
        }
      ],
      "name": "revokeApproval",
      "outputs": [],
      "payable": false,
      "stateMutability": "nonpayable",
      "type": "function"
    },
    {
      "constant": false,
      "inputs": [
        {
          "name": "_taskId",
          "type": "bytes32"
        },
        {
          "name": "_reward",
          "type": "uint256"
        }
      ],
      "name": "taskRewardVote",
      "outputs": [
        {
          "name": "",
          "type": "bool"
        }
      ],
      "payable": false,
      "stateMutability": "nonpayable",
      "type": "function"
    },
    {
      "constant": true,
      "inputs": [
        {
          "name": "_taskId",
          "type": "bytes32"
        }
      ],
      "name": "getTaskReward",
      "outputs": [
        {
          "name": "",
          "type": "uint256"
        }
      ],
      "payable": false,
      "stateMutability": "view",
      "type": "function"
    },
    {
      "constant": true,
      "inputs": [],
      "name": "DIDTokenAddress",
      "outputs": [
        {
          "name": "",
          "type": "address"
        }
      ],
      "payable": false,
      "stateMutability": "view",
      "type": "function"
    },
    {
      "constant": false,
      "inputs": [
        {
          "name": "_taskId",
          "type": "bytes32"
        },
        {
          "name": "_title",
          "type": "string"
        }
      ],
      "name": "addTask",
      "outputs": [
        {
          "name": "",
          "type": "bool"
        }
      ],
      "payable": false,
      "stateMutability": "nonpayable",
      "type": "function"
    },
    {
      "constant": true,
      "inputs": [
        {
          "name": "_taskId",
          "type": "bytes32"
        }
      ],
      "name": "taskExists",
      "outputs": [
        {
          "name": "",
          "type": "bool"
        }
      ],
      "payable": false,
      "stateMutability": "view",
      "type": "function"
    },
    {
      "constant": true,
      "inputs": [
        {
          "name": "_taskId",
          "type": "bytes32"
        }
      ],
      "name": "getTaskRewardAndStatus",
      "outputs": [
        {
          "name": "",
          "type": "uint256"
        },
        {
          "name": "",
          "type": "uint8"
        }
      ],
      "payable": false,
      "stateMutability": "view",
      "type": "function"
    },
    {
      "constant": false,
      "inputs": [
        {
          "name": "_taskId",
          "type": "bytes32"
        }
      ],
      "name": "setTaskRewardPaid",
      "outputs": [
        {
          "name": "",
          "type": "uint8"
        }
      ],
      "payable": false,
      "stateMutability": "nonpayable",
      "type": "function"
    },
    {
      "constant": true,
      "inputs": [
        {
          "name": "",
          "type": "address"
        }
      ],
      "name": "approved",
      "outputs": [
        {
          "name": "",
          "type": "bool"
        }
      ],
      "payable": false,
      "stateMutability": "view",
      "type": "function"
    },
    {
      "constant": true,
      "inputs": [
        {
          "name": "_taskId",
          "type": "bytes32"
        }
      ],
      "name": "getTaskById",
      "outputs": [
        {
          "name": "",
          "type": "string"
        },
        {
          "name": "",
          "type": "address"
        },
        {
          "name": "",
          "type": "uint256"
        },
        {
          "name": "",
          "type": "uint8"
        },
        {
          "name": "",
          "type": "uint256"
        },
        {
          "name": "",
          "type": "uint64"
        }
      ],
      "payable": false,
      "stateMutability": "view",
      "type": "function"
    },
    {
      "constant": false,
      "inputs": [
        {
          "name": "_address",
          "type": "address"
        }
      ],
      "name": "approve",
      "outputs": [],
      "payable": false,
      "stateMutability": "nonpayable",
      "type": "function"
    },
    {
      "inputs": [
        {
          "name": "_DIDTokenAddress",
          "type": "address"
        },
        {
          "name": "_DistenseAddress",
          "type": "address"
        }
      ],
      "payable": false,
      "stateMutability": "nonpayable",
      "type": "constructor"
    },
    {
      "anonymous": false,
      "inputs": [
        {
          "indexed": false,
          "name": "taskId",
          "type": "bytes32"
        },
        {
          "indexed": false,
          "name": "title",
          "type": "string"
        }
      ],
      "name": "LogAddTask",
      "type": "event"
    },
    {
      "anonymous": false,
      "inputs": [
        {
          "indexed": false,
          "name": "taskId",
          "type": "bytes32"
        },
        {
          "indexed": false,
          "name": "reward",
          "type": "uint256"
        },
        {
          "indexed": false,
          "name": "pctDIDVoted",
          "type": "uint256"
        }
      ],
      "name": "LogTaskRewardVote",
      "type": "event"
    },
    {
      "anonymous": false,
      "inputs": [
        {
          "indexed": false,
          "name": "taskId",
          "type": "bytes32"
        },
        {
          "indexed": false,
          "name": "reward",
          "type": "uint256"
        }
      ],
      "name": "LogTaskRewardDetermined",
      "type": "event"
    },
    {
      "anonymous": false,
      "inputs": [
        {
          "indexed": false,
          "name": "someAddress",
          "type": "address"
        }
      ],
      "name": "LogAddress",
      "type": "event"
    },
    {
      "anonymous": false,
      "inputs": [
        {
          "indexed": false,
          "name": "boolean",
          "type": "bool"
        }
      ],
      "name": "LogBool",
      "type": "event"
    },
    {
      "anonymous": false,
      "inputs": [
        {
          "indexed": false,
          "name": "someBytes",
          "type": "bytes"
        }
      ],
      "name": "LogBytes",
      "type": "event"
    },
    {
      "anonymous": false,
      "inputs": [
        {
          "indexed": false,
          "name": "aBytes32",
          "type": "bytes32"
        }
      ],
      "name": "LogBytes32",
      "type": "event"
    },
    {
      "anonymous": false,
      "inputs": [
        {
          "indexed": false,
          "name": "aString",
          "type": "string"
        }
      ],
      "name": "LogString",
      "type": "event"
    },
    {
      "anonymous": false,
      "inputs": [
        {
          "indexed": false,
          "name": "someInt",
          "type": "uint256"
        }
      ],
      "name": "LogUInt256",
      "type": "event"
    },
    {
      "anonymous": false,
      "inputs": [
        {
          "indexed": false,
          "name": "someInt",
          "type": "int256"
        }
      ],
      "name": "LogInt256",
      "type": "event"
    }
  ],
  "bytecode": "0x6060604052341561000f57600080fd5b6040516040806110788339810160405280805191906020018051600160a060020a033381166000908152602081905260409020805460ff191660019081179091558054958216600160a060020a031996871617905560028054919092169416939093179092555050610ff2806100866000396000f3006060604052600436106100c15763ffffffff60e060020a6000350416630afdbaed81146100c65780631efe3abf146100f557806339118d251461011a57806346da6eee14610130578063484685b014610143578063497a7b4814610164578063a022c15e14610191578063ac847d49146101a7578063b7825cfc146101ba578063b7bf356a146101dc578063b9c105cf146101f2578063d30bf32314610233578063d8b964e61461026d578063d8f6dcf21461028c578063daea85c514610369575b600080fd5b34156100d157600080fd5b6100d9610388565b604051600160a060020a03909116815260200160405180910390f35b341561010057600080fd5b610108610397565b60405190815260200160405180910390f35b341561012557600080fd5b61010860043561039e565b341561013b57600080fd5b6100d96103bd565b341561014e57600080fd5b610162600160a060020a03600435166103cc565b005b341561016f57600080fd5b61017d600435602435610429565b604051901515815260200160405180910390f35b341561019c57600080fd5b6101086004356109f8565b34156101b257600080fd5b6100d9610a0d565b34156101c557600080fd5b61017d600480359060248035908101910135610a1c565b34156101e757600080fd5b61017d600435610c60565b34156101fd57600080fd5b610208600435610c80565b6040518083815260200182600281111561021e57fe5b60ff1681526020019250505060405180910390f35b341561023e57600080fd5b610249600435610ca1565b6040518082600281111561025957fe5b60ff16815260200191505060405180910390f35b341561027857600080fd5b61017d600160a060020a0360043516610cc5565b341561029757600080fd5b6102a2600435610cda565b604051600160a060020a03861660208201526040810185905280606081018560028111156102cc57fe5b60ff1681526020018481526020018367ffffffffffffffff1667ffffffffffffffff168152602001828103825288818151815260200191508051906020019080838360005b83811015610329578082015183820152602001610311565b50505050905090810190601f1680156103565780820380516001836020036101000a031916815260200191505b5097505050505050505060405180910390f35b341561037457600080fd5b610162600160a060020a0360043516610e44565b600254600160a060020a031681565b6004545b90565b60048054829081106103ac57fe5b600091825260209091200154905081565b600354600160a060020a031681565b600160a060020a03331660009081526020819052604090205460ff1615156103f357600080fd5b600160a060020a038116151561040857600080fd5b600160a060020a03166000908152602081905260409020805460ff19169055565b600154600090600160a060020a03168180808080808080886327e235e333836040516020015260405160e060020a63ffffffff8416028152600160a060020a039091166004820152602401602060405180830381600087803b151561048d57600080fd5b6102c65a03f1151561049e57600080fd5b505050604051805160025460008f8152600560205260408120929b50600160a060020a0390911699509097508c101590506104d857600080fd5b60028601548b14156104e957600080fd5b6001600387015460ff1660028111156104fe57fe5b141561050957600080fd5b600160a060020a033316600090815260068701602052604090205460ff161561053157600080fd5b600160a060020a038716638fc6ad2d81636263a27f6000604051602001526040518163ffffffff1660e060020a028152600401602060405180830381600087803b151561057d57600080fd5b6102c65a03f1151561058e57600080fd5b5050506040518051905060006040516020015260405160e060020a63ffffffff84160281526004810191909152602401602060405180830381600087803b15156105d757600080fd5b6102c65a03f115156105e857600080fd5b5050506040518051891190506105fd57600080fd5b600160a060020a038716638fc6ad2d81637da1373a6000604051602001526040518163ffffffff1660e060020a028152600401602060405180830381600087803b151561064957600080fd5b6102c65a03f1151561065a57600080fd5b5050506040518051905060006040516020015260405160e060020a63ffffffff84160281526004810191909152602401602060405180830381600087803b15156106a357600080fd5b6102c65a03f115156106b457600080fd5b50505060405180518c111590506106ca57600080fd5b600160a060020a03338181166000908152600689016020526040808220805460ff19166001179055928c16926388004950929190516020015260405160e060020a63ffffffff8416028152600160a060020a039091166004820152602401602060405180830381600087803b151561074157600080fd5b6102c65a03f1151561075257600080fd5b50505060405180516004880180548201905560028801549096508c111590506107a0576107838b8760020154610ea4565b6002870180546127108884020490810190915590945092506107c8565b6107ae86600201548c610ea4565b600287018054612710888402049081900390915590945092505b60058601805467ffffffffffffffff8082166001011667ffffffffffffffff19909116179055600160a060020a038716638fc6ad2d81633c570b396000604051602001526040518163ffffffff1660e060020a028152600401602060405180830381600087803b151561083a57600080fd5b6102c65a03f1151561084b57600080fd5b5050506040518051905060006040516020015260405160e060020a63ffffffff84160281526004810191909152602401602060405180830381600087803b151561089457600080fd5b6102c65a03f115156108a557600080fd5b5050506040518051925050600160a060020a038716638fc6ad2d8163cec9bb9f6000604051602001526040518163ffffffff1660e060020a028152600401602060405180830381600087803b15156108fc57600080fd5b6102c65a03f1151561090d57600080fd5b5050506040518051905060006040516020015260405160e060020a63ffffffff84160281526004810191909152602401602060405180830381600087803b151561095657600080fd5b6102c65a03f1151561096757600080fd5b50505060405180519050905081866004015411806109935750600586015467ffffffffffffffff168190115b156109e6577fea376df55f15b85259aed67aa0f87a23ee9f3b625c6151a53eef59c2baa883ca8c876002015460405191825260208201526040908101905180910390a160038601805460ff191660011790555b5060019b9a5050505050505050505050565b60009081526005602052604090206002015490565b600154600160a060020a031681565b60015460009081903390603290600160a060020a031683816327e235e385836040516020015260405160e060020a63ffffffff8416028152600160a060020a039091166004820152602401602060405180830381600087803b1515610a8057600080fd5b6102c65a03f11515610a9157600080fd5b5050506040518051915050828111610aa857600080fd5b60025460008a815260056020526040902060018101805473ffffffffffffffffffffffffffffffffffffffff1916600160a060020a03338116919091179091559091169550610af8908989610eb6565b50600160a060020a038516638fc6ad2d816345a528bf6000604051602001526040518163ffffffff1660e060020a028152600401602060405180830381600087803b1515610b4557600080fd5b6102c65a03f11515610b5657600080fd5b5050506040518051905060006040516020015260405160e060020a63ffffffff84160281526004810191909152602401602060405180830381600087803b1515610b9f57600080fd5b6102c65a03f11515610bb057600080fd5b505050604051805160008b81526005602052604090206002810191909155600301805460ff19169055506004805460018101610bec8382610f34565b5060009182526020909120018990557ffafee1e1d1d7b07d7e2e381764370256754d2d4b8b82d9c83e91d3bbba0b329189898960405183815260406020820181815290820183905260608201848480828437820191505094505050505060405180910390a150600198975050505050505050565b600090815260056020526040902060010154600160a060020a0316151590565b6000818152600560205260409020600281015460039091015460ff16915091565b6000908152600560205260409020600301805460ff19166002179081905560ff1690565b60006020819052908152604090205460ff1681565b610ce2610f5d565b6000806000806000610cf2610f6f565b600088815260056020526040908190209060c090519081016040529081600082018054600181600116156101000203166002900480601f016020809104026020016040519081016040528092919081815260200182805460018160011615610100020316600290048015610da75780601f10610d7c57610100808354040283529160200191610da7565b820191906000526020600020905b815481529060010190602001808311610d8a57829003601f168201915b50505091835250506001820154600160a060020a031660208201526002808301546040830152600383015460609092019160ff1690811115610de557fe5b6002811115610df057fe5b81526004820154602082015260059091015467ffffffffffffffff166040909101529050805181602001518260400151836060015184608001518560a00151949d939c50919a509850965090945092505050565b600160a060020a03331660009081526020819052604090205460ff161515610e6b57600080fd5b600160a060020a0381161515610e8057600080fd5b600160a060020a03166000908152602081905260409020805460ff19166001179055565b600082821115610eb057fe5b50900390565b828054600181600116156101000203166002900490600052602060002090601f016020900481019282601f10610ef75782800160ff19823516178555610f24565b82800160010185558215610f24579182015b82811115610f24578235825591602001919060010190610f09565b50610f30929150610fac565b5090565b815481835581811511610f5857600083815260209020610f58918101908301610fac565b505050565b60206040519081016040526000815290565b60c060405190810160405280610f83610f5d565b815260006020820181905260408201819052606082018190526080820181905260a09091015290565b61039b91905b80821115610f305760008155600101610fb25600a165627a7a72305820115b54b31923548839bb8b16d7d5e9d36b144b123d45401a24db98b0c66c00c00029",
  "source": "pragma solidity ^0.4.17;\n\nimport './DIDToken.sol';\nimport './Debuggable.sol';\nimport './Distense.sol';\nimport './lib/SafeMath.sol';\n\n\ncontract Tasks is Approvable, Debuggable {\n\n    using SafeMath for uint256;\n\n    address public DIDTokenAddress;\n    address public DistenseAddress;\n    address public PullRequestsAddress;\n\n    bytes32[] public taskIds;\n\n    enum RewardStatus { TENTATIVE, DETERMINED, PAID }\n\n    struct Task {\n        string title;\n        address createdBy;\n        uint256 reward;\n        RewardStatus rewardStatus;\n        uint256 pctDIDVoted;\n        uint64 numVotes;\n        mapping(address => bool) rewardVotes;\n    }\n\n    mapping(bytes32 => Task) tasks;\n\n    event LogAddTask(bytes32 taskId, string title);\n    event LogTaskRewardVote(bytes32 taskId, uint256 reward, uint256 pctDIDVoted);\n    event LogTaskRewardDetermined(bytes32 taskId, uint256 reward);\n\n    function Tasks(address _DIDTokenAddress, address _DistenseAddress) public {\n        DIDTokenAddress = _DIDTokenAddress;\n        DistenseAddress = _DistenseAddress;\n    }\n\n    function addTask(bytes32 _taskId, string _title) external hasEnoughDID(msg.sender, 50) returns\n    (bool) {\n\n        //    TODO check for empty _taskId\n        Distense distense = Distense(DistenseAddress);\n\n        tasks[_taskId].createdBy = msg.sender;\n        tasks[_taskId].title = _title;\n        tasks[_taskId].reward = distense.getParameterValueByTitle(distense.defaultRewardParameterTitle());\n        tasks[_taskId].rewardStatus = RewardStatus.TENTATIVE;\n\n        taskIds.push(_taskId);\n        LogAddTask(_taskId, _title);\n\n        return true;\n\n    }\n\n    function getTaskById(bytes32 _taskId) external view returns (\n        string,\n        address,\n        uint256,\n        Tasks.RewardStatus,\n        uint256,\n        uint64\n    ) {\n\n        Task memory task = tasks[_taskId];\n        return (\n            task.title,\n            task.createdBy,\n            task.reward,\n            task.rewardStatus,\n            task.pctDIDVoted,\n            task.numVotes\n        );\n\n    }\n\n    function taskExists(bytes32 _taskId) external view returns (bool) {\n        return tasks[_taskId].createdBy != 0;\n    }\n\n    function getNumTasks() external view returns (uint) {\n        return taskIds.length;\n    }\n\n    function taskRewardVote(bytes32 _taskId, uint256 _reward) external returns (bool) {\n\n        DIDToken didToken = DIDToken(DIDTokenAddress);\n        uint256 balance = didToken.balances(msg.sender);\n        Distense distense = Distense(DistenseAddress);\n\n        Task storage task = tasks[_taskId];\n\n        require(_reward >= 0);\n\n        //  Essentially refund the remaining gas if user's vote will have no effect\n        require(task.reward != _reward);\n\n        require(task.rewardStatus != RewardStatus.DETERMINED);\n\n        //  Has the voter already voted on this task?\n        require(!task.rewardVotes[msg.sender]);\n\n        //  Does the voter own at least as many DID as the reward their voting for?\n        //  This ensures new contributors don't have too much sway over the issuance of new DID.\n        require(balance > distense.getParameterValueByTitle(distense.numDIDRequiredToTaskRewardVoteParameterTitle()));\n\n        //  Require the reward to be less than or equal to the maximum reward parameter,\n        //  which basically is a hard, floating limit on the number of DID that can be issued for any single task\n        require(_reward <= distense.getParameterValueByTitle(distense.maxRewardParameterTitle()));\n\n        task.rewardVotes[msg.sender] = true;\n\n        uint256 pctDIDOwned = didToken.pctDIDOwned(msg.sender);\n        task.pctDIDVoted = task.pctDIDVoted + pctDIDOwned;\n\n        uint256 difference;\n        uint256 update;\n        if (_reward > task.reward) {\n            difference = SafeMath.sub(_reward, task.reward);\n            update = (pctDIDOwned * difference) / 10000;\n            task.reward += update;\n        } else {\n            difference = SafeMath.sub(task.reward, _reward);\n            update = (pctDIDOwned * difference) / 10000;\n            task.reward -= update;\n        }\n\n        task.numVotes++;\n\n        uint256 pctDIDVotedThreshold = distense.getParameterValueByTitle(\n            distense.proposalPctDIDToApproveParameterTitle()\n        );\n\n        uint256 minNumVoters = distense.getParameterValueByTitle(\n            distense.minNumberOfTaskRewardVotersParameterTitle()\n        );\n\n        if (task.pctDIDVoted > pctDIDVotedThreshold || task.numVotes > minNumVoters) {\n            LogTaskRewardDetermined(_taskId, task.reward);\n            task.rewardStatus = RewardStatus.DETERMINED;\n        }\n\n        return true;\n\n    }\n\n    function getTaskReward(bytes32 _taskId) external view returns (uint256) {\n        return tasks[_taskId].reward;\n    }\n\n    function getTaskRewardAndStatus(bytes32 _taskId) external view returns (uint256, RewardStatus) {\n        return (\n            tasks[_taskId].reward,\n            tasks[_taskId].rewardStatus\n        );\n    }\n\n    function setTaskRewardPaid(bytes32 _taskId) external /*onlyApproved*/ returns (RewardStatus) {\n        tasks[_taskId].rewardStatus = RewardStatus.PAID;\n        return tasks[_taskId].rewardStatus;\n    }\n\n    modifier hasEnoughDID(address voter, uint256 num) {\n        DIDToken didToken = DIDToken(DIDTokenAddress);\n        uint256 balance = didToken.balances(msg.sender);\n        require(balance > num);\n        _;\n    }\n\n}\n",
  "sourcePath": "/Users/john/distense-contracts/contracts/Tasks.sol",
  "compiler": {
    "name": "solc",
    "version": "0.4.18+commit.9cf6e910.Emscripten.clang"
  },
  "schemaVersion": "1.0.1",
  "updatedAt": "2018-01-22T20:57:00.610Z"
}