{
  "contractName": "Tasks",
  "abi": [
    {
      "constant": true,
      "inputs": [],
      "name": "DistenseAddress",
      "outputs": [
        {
          "name": "",
          "type": "address"
        }
      ],
      "payable": false,
      "stateMutability": "view",
      "type": "function"
    },
    {
      "constant": true,
      "inputs": [
        {
          "name": "",
          "type": "uint256"
        }
      ],
      "name": "taskIds",
      "outputs": [
        {
          "name": "",
          "type": "bytes32"
        }
      ],
      "payable": false,
      "stateMutability": "view",
      "type": "function"
    },
    {
      "constant": true,
      "inputs": [],
      "name": "PullRequestsAddress",
      "outputs": [
        {
          "name": "",
          "type": "address"
        }
      ],
      "payable": false,
      "stateMutability": "view",
      "type": "function"
    },
    {
      "constant": false,
      "inputs": [
        {
          "name": "_address",
          "type": "address"
        }
      ],
      "name": "revokeApproval",
      "outputs": [],
      "payable": false,
      "stateMutability": "nonpayable",
      "type": "function"
    },
    {
      "constant": true,
      "inputs": [],
      "name": "DIDTokenAddress",
      "outputs": [
        {
          "name": "",
          "type": "address"
        }
      ],
      "payable": false,
      "stateMutability": "view",
      "type": "function"
    },
    {
      "constant": true,
      "inputs": [
        {
          "name": "",
          "type": "address"
        }
      ],
      "name": "approved",
      "outputs": [
        {
          "name": "",
          "type": "bool"
        }
      ],
      "payable": false,
      "stateMutability": "view",
      "type": "function"
    },
    {
      "constant": false,
      "inputs": [
        {
          "name": "_address",
          "type": "address"
        }
      ],
      "name": "approve",
      "outputs": [],
      "payable": false,
      "stateMutability": "nonpayable",
      "type": "function"
    },
    {
      "inputs": [
        {
          "name": "_DIDTokenAddress",
          "type": "address"
        },
        {
          "name": "_DistenseAddress",
          "type": "address"
        }
      ],
      "payable": false,
      "stateMutability": "nonpayable",
      "type": "constructor"
    },
    {
      "anonymous": false,
      "inputs": [
        {
          "indexed": false,
          "name": "taskId",
          "type": "bytes32"
        },
        {
          "indexed": false,
          "name": "title",
          "type": "string"
        }
      ],
      "name": "LogAddTask",
      "type": "event"
    },
    {
      "anonymous": false,
      "inputs": [
        {
          "indexed": false,
          "name": "taskId",
          "type": "bytes32"
        },
        {
          "indexed": false,
          "name": "reward",
          "type": "uint256"
        },
        {
          "indexed": false,
          "name": "pctDIDVoted",
          "type": "uint256"
        }
      ],
      "name": "LogTaskRewardVote",
      "type": "event"
    },
    {
      "anonymous": false,
      "inputs": [
        {
          "indexed": false,
          "name": "taskId",
          "type": "bytes32"
        },
        {
          "indexed": false,
          "name": "reward",
          "type": "uint256"
        }
      ],
      "name": "LogTaskRewardDetermined",
      "type": "event"
    },
    {
      "anonymous": false,
      "inputs": [
        {
          "indexed": false,
          "name": "someAddress",
          "type": "address"
        }
      ],
      "name": "LogAddress",
      "type": "event"
    },
    {
      "anonymous": false,
      "inputs": [
        {
          "indexed": false,
          "name": "boolean",
          "type": "bool"
        }
      ],
      "name": "LogBool",
      "type": "event"
    },
    {
      "anonymous": false,
      "inputs": [
        {
          "indexed": false,
          "name": "someBytes",
          "type": "bytes"
        }
      ],
      "name": "LogBytes",
      "type": "event"
    },
    {
      "anonymous": false,
      "inputs": [
        {
          "indexed": false,
          "name": "aBytes32",
          "type": "bytes32"
        }
      ],
      "name": "LogBytes32",
      "type": "event"
    },
    {
      "anonymous": false,
      "inputs": [
        {
          "indexed": false,
          "name": "aString",
          "type": "string"
        }
      ],
      "name": "LogString",
      "type": "event"
    },
    {
      "anonymous": false,
      "inputs": [
        {
          "indexed": false,
          "name": "someInt",
          "type": "uint256"
        }
      ],
      "name": "LogUInt256",
      "type": "event"
    },
    {
      "anonymous": false,
      "inputs": [
        {
          "indexed": false,
          "name": "someInt",
          "type": "int256"
        }
      ],
      "name": "LogInt256",
      "type": "event"
    },
    {
      "constant": false,
      "inputs": [
        {
          "name": "_taskId",
          "type": "bytes32"
        },
        {
          "name": "_title",
          "type": "string"
        }
      ],
      "name": "addTask",
      "outputs": [
        {
          "name": "",
          "type": "bool"
        }
      ],
      "payable": false,
      "stateMutability": "nonpayable",
      "type": "function"
    },
    {
      "constant": true,
      "inputs": [
        {
          "name": "_taskId",
          "type": "bytes32"
        }
      ],
      "name": "getTaskById",
      "outputs": [
        {
          "name": "",
          "type": "string"
        },
        {
          "name": "",
          "type": "address"
        },
        {
          "name": "",
          "type": "uint256"
        },
        {
          "name": "",
          "type": "uint8"
        },
        {
          "name": "",
          "type": "uint256"
        },
        {
          "name": "",
          "type": "uint64"
        }
      ],
      "payable": false,
      "stateMutability": "view",
      "type": "function"
    },
    {
      "constant": true,
      "inputs": [
        {
          "name": "_taskId",
          "type": "bytes32"
        }
      ],
      "name": "taskExists",
      "outputs": [
        {
          "name": "",
          "type": "bool"
        }
      ],
      "payable": false,
      "stateMutability": "view",
      "type": "function"
    },
    {
      "constant": true,
      "inputs": [],
      "name": "getNumTasks",
      "outputs": [
        {
          "name": "",
          "type": "uint256"
        }
      ],
      "payable": false,
      "stateMutability": "view",
      "type": "function"
    },
    {
      "constant": false,
      "inputs": [
        {
          "name": "_taskId",
          "type": "bytes32"
        },
        {
          "name": "_reward",
          "type": "uint256"
        }
      ],
      "name": "taskRewardVote",
      "outputs": [
        {
          "name": "",
          "type": "bool"
        }
      ],
      "payable": false,
      "stateMutability": "nonpayable",
      "type": "function"
    },
    {
      "constant": true,
      "inputs": [
        {
          "name": "_taskId",
          "type": "bytes32"
        }
      ],
      "name": "getTaskReward",
      "outputs": [
        {
          "name": "",
          "type": "uint256"
        }
      ],
      "payable": false,
      "stateMutability": "view",
      "type": "function"
    },
    {
      "constant": true,
      "inputs": [
        {
          "name": "_taskId",
          "type": "bytes32"
        }
      ],
      "name": "getTaskRewardAndStatus",
      "outputs": [
        {
          "name": "",
          "type": "uint256"
        },
        {
          "name": "",
          "type": "uint8"
        }
      ],
      "payable": false,
      "stateMutability": "view",
      "type": "function"
    },
    {
      "constant": false,
      "inputs": [
        {
          "name": "_taskId",
          "type": "bytes32"
        }
      ],
      "name": "setTaskRewardPaid",
      "outputs": [
        {
          "name": "",
          "type": "uint8"
        }
      ],
      "payable": false,
      "stateMutability": "nonpayable",
      "type": "function"
    },
    {
      "constant": false,
      "inputs": [
        {
          "name": "_taskId",
          "type": "bytes32"
        }
      ],
      "name": "getIndexOfTaskId",
      "outputs": [
        {
          "name": "",
          "type": "uint256"
        }
      ],
      "payable": false,
      "stateMutability": "nonpayable",
      "type": "function"
    },
    {
      "constant": false,
      "inputs": [
        {
          "name": "_taskId",
          "type": "bytes32"
        }
      ],
      "name": "deleteTaskId",
      "outputs": [
        {
          "name": "",
          "type": "bool"
        }
      ],
      "payable": false,
      "stateMutability": "nonpayable",
      "type": "function"
    }
  ],
  "bytecode": "0x6060604052341561000f57600080fd5b6040516040806114898339810160405280805191906020018051600160a060020a033381166000908152602081905260409020805460ff191660019081179091558054958216600160a060020a031996871617905560028054919092169416939093179092555050611403806100866000396000f3006060604052600436106100d75763ffffffff60e060020a6000350416630602f9c581146100dc5780630afdbaed146101065780631efe3abf1461013557806339118d251461015a57806346da6eee14610170578063484685b014610183578063497a7b48146101a45780634b1374d6146101bd578063a022c15e146101d3578063ac847d49146101e9578063b7825cfc146101fc578063b7bf356a1461021e578063b9c105cf14610234578063d30bf32314610275578063d8b964e6146102af578063d8f6dcf2146102ce578063daea85c5146103ab575b600080fd5b34156100e757600080fd5b6100f26004356103ca565b604051901515815260200160405180910390f35b341561011157600080fd5b6101196105eb565b604051600160a060020a03909116815260200160405180910390f35b341561014057600080fd5b6101486105fa565b60405190815260200160405180910390f35b341561016557600080fd5b610148600435610601565b341561017b57600080fd5b610119610620565b341561018e57600080fd5b6101a2600160a060020a036004351661062f565b005b34156101af57600080fd5b6100f260043560243561068c565b34156101c857600080fd5b610148600435610c5b565b34156101de57600080fd5b610148600435610cf5565b34156101f457600080fd5b610119610d0a565b341561020757600080fd5b6100f2600480359060248035908101910135610d19565b341561022957600080fd5b6100f2600435611032565b341561023f57600080fd5b61024a600435611052565b6040518083815260200182600281111561026057fe5b60ff1681526020019250505060405180910390f35b341561028057600080fd5b61028b600435611073565b6040518082600281111561029b57fe5b60ff16815260200191505060405180910390f35b34156102ba57600080fd5b6100f2600160a060020a03600435166110bf565b34156102d957600080fd5b6102e46004356110d4565b604051600160a060020a038616602082015260408101859052806060810185600281111561030e57fe5b60ff1681526020018481526020018367ffffffffffffffff1667ffffffffffffffff168152602001828103825288818151815260200191508051906020019080838360005b8381101561036b578082015183820152602001610353565b50505050905090810190601f1680156103985780820380516001836020036101000a031916815260200191505b5097505050505050505060405180910390f35b34156103b657600080fd5b6101a2600160a060020a036004351661123e565b60006103d46112c7565b600160a060020a0333166000908152602081905260408120548190819060ff1615156103ff57600080fd5b600086815260056020526040908190209060c090519081016040529081600082018054600181600116156101000203166002900480601f0160208091040260200160405190810160405280929190818152602001828054600181600116156101000203166002900480156104b45780601f10610489576101008083540402835291602001916104b4565b820191906000526020600020905b81548152906001019060200180831161049757829003601f168201915b50505091835250506001820154600160a060020a031660208201526002808301546040830152600383015460609092019160ff16908111156104f257fe5b60028111156104fd57fe5b81526004820154602082015260059091015467ffffffffffffffff16604090910152935060028460600151600281111561053357fe5b14156105dd5761054286610c5b565b60045490935091508183116105dd57600480548490811061055f57fe5b600091825260208220015560048054600019840190811061057c57fe5b90600052602060002090015490508060048481548110151561059a57fe5b6000918252602090912001556004805460001984019081106105b857fe5b600091825260208220015560001982016105d3600482611304565b50600194506105e2565b600094505b50505050919050565b600254600160a060020a031681565b6004545b90565b600480548290811061060f57fe5b600091825260209091200154905081565b600354600160a060020a031681565b600160a060020a03331660009081526020819052604090205460ff16151561065657600080fd5b600160a060020a038116151561066b57600080fd5b600160a060020a03166000908152602081905260409020805460ff19169055565b600154600090600160a060020a03168180808080808080886327e235e333836040516020015260405160e060020a63ffffffff8416028152600160a060020a039091166004820152602401602060405180830381600087803b15156106f057600080fd5b6102c65a03f1151561070157600080fd5b505050604051805160025460008f8152600560205260408120929b50600160a060020a0390911699509097508c1015905061073b57600080fd5b60028601548b141561074c57600080fd5b6001600387015460ff16600281111561076157fe5b141561076c57600080fd5b600160a060020a033316600090815260068701602052604090205460ff161561079457600080fd5b600160a060020a038716638fc6ad2d81636263a27f6000604051602001526040518163ffffffff1660e060020a028152600401602060405180830381600087803b15156107e057600080fd5b6102c65a03f115156107f157600080fd5b5050506040518051905060006040516020015260405160e060020a63ffffffff84160281526004810191909152602401602060405180830381600087803b151561083a57600080fd5b6102c65a03f1151561084b57600080fd5b50505060405180518911905061086057600080fd5b600160a060020a038716638fc6ad2d81637da1373a6000604051602001526040518163ffffffff1660e060020a028152600401602060405180830381600087803b15156108ac57600080fd5b6102c65a03f115156108bd57600080fd5b5050506040518051905060006040516020015260405160e060020a63ffffffff84160281526004810191909152602401602060405180830381600087803b151561090657600080fd5b6102c65a03f1151561091757600080fd5b50505060405180518c1115905061092d57600080fd5b600160a060020a03338181166000908152600689016020526040808220805460ff19166001179055928c16926388004950929190516020015260405160e060020a63ffffffff8416028152600160a060020a039091166004820152602401602060405180830381600087803b15156109a457600080fd5b6102c65a03f115156109b557600080fd5b50505060405180516004880180548201905560028801549096508c11159050610a03576109e68b876002015461129e565b600287018054612710888402049081019091559094509250610a2b565b610a1186600201548c61129e565b600287018054612710888402049081900390915590945092505b60058601805467ffffffffffffffff8082166001011667ffffffffffffffff19909116179055600160a060020a038716638fc6ad2d81633c570b396000604051602001526040518163ffffffff1660e060020a028152600401602060405180830381600087803b1515610a9d57600080fd5b6102c65a03f11515610aae57600080fd5b5050506040518051905060006040516020015260405160e060020a63ffffffff84160281526004810191909152602401602060405180830381600087803b1515610af757600080fd5b6102c65a03f11515610b0857600080fd5b5050506040518051925050600160a060020a038716638fc6ad2d8163cec9bb9f6000604051602001526040518163ffffffff1660e060020a028152600401602060405180830381600087803b1515610b5f57600080fd5b6102c65a03f11515610b7057600080fd5b5050506040518051905060006040516020015260405160e060020a63ffffffff84160281526004810191909152602401602060405180830381600087803b1515610bb957600080fd5b6102c65a03f11515610bca57600080fd5b5050506040518051905090508186600401541180610bf65750600586015467ffffffffffffffff168190115b15610c49577fea376df55f15b85259aed67aa0f87a23ee9f3b625c6151a53eef59c2baa883ca8c876002015460405191825260208201526040908101905180910390a160038601805460ff191660011790555b5060019b9a5050505050505050505050565b6004546000908180821115610ce7575060001981015b6004805485919083908110610c8257fe5b60009182526020909120015414801590610c9d575060008110155b15610cdf5760001901801515610cda576004805485919083908110610cbe57fe5b60009182526020909120015414610cda57816001019250610cee565b610c71565b809250610cee565b8160010192505b5050919050565b60009081526005602052604090206002015490565b600154600160a060020a031681565b6001546000908190600160a060020a0316818080836327e235e333836040516020015260405160e060020a63ffffffff8416028152600160a060020a039091166004820152602401602060405180830381600087803b1515610d7a57600080fd5b6102c65a03f11515610d8b57600080fd5b5050506040518051600254909450600160a060020a03169250829050638fc6ad2d81636263a27f6000604051602001526040518163ffffffff1660e060020a028152600401602060405180830381600087803b1515610de957600080fd5b6102c65a03f11515610dfa57600080fd5b5050506040518051905060006040516020015260405160e060020a63ffffffff84160281526004810191909152602401602060405180830381600087803b1515610e4357600080fd5b6102c65a03f11515610e5457600080fd5b505050604051805190509050610e6b8160646112b0565b905080831015610e7a57600080fd5b60025460008a815260056020526040902060018101805473ffffffffffffffffffffffffffffffffffffffff1916600160a060020a03338116919091179091559091169550610eca90898961132d565b50600160a060020a038516638fc6ad2d816345a528bf6000604051602001526040518163ffffffff1660e060020a028152600401602060405180830381600087803b1515610f1757600080fd5b6102c65a03f11515610f2857600080fd5b5050506040518051905060006040516020015260405160e060020a63ffffffff84160281526004810191909152602401602060405180830381600087803b1515610f7157600080fd5b6102c65a03f11515610f8257600080fd5b505050604051805160008b81526005602052604090206002810191909155600301805460ff19169055506004805460018101610fbe8382611304565b5060009182526020909120018990557ffafee1e1d1d7b07d7e2e381764370256754d2d4b8b82d9c83e91d3bbba0b329189898960405183815260406020820181815290820183905260608201848480828437820191505094505050505060405180910390a150600198975050505050505050565b600090815260056020526040902060010154600160a060020a0316151590565b6000818152600560205260409020600281015460039091015460ff16915091565b600160a060020a03331660009081526020819052604081205460ff16151561109a57600080fd5b506000908152600560205260409020600301805460ff19166002179081905560ff1690565b60006020819052908152604090205460ff1681565b6110dc6113ab565b60008060008060006110ec6112c7565b600088815260056020526040908190209060c090519081016040529081600082018054600181600116156101000203166002900480601f0160208091040260200160405190810160405280929190818152602001828054600181600116156101000203166002900480156111a15780601f10611176576101008083540402835291602001916111a1565b820191906000526020600020905b81548152906001019060200180831161118457829003601f168201915b50505091835250506001820154600160a060020a031660208201526002808301546040830152600383015460609092019160ff16908111156111df57fe5b60028111156111ea57fe5b81526004820154602082015260059091015467ffffffffffffffff166040909101529050805181602001518260400151836060015184608001518560a00151949d939c50919a509850965090945092505050565b600160a060020a03331660009081526020819052604090205460ff16151561126557600080fd5b600160a060020a038116151561127a57600080fd5b600160a060020a03166000908152602081905260409020805460ff19166001179055565b6000828211156112aa57fe5b50900390565b60008082848115156112be57fe5b04949350505050565b60c0604051908101604052806112db6113ab565b815260006020820181905260408201819052606082018190526080820181905260a09091015290565b815481835581811511611328576000838152602090206113289181019083016113bd565b505050565b828054600181600116156101000203166002900490600052602060002090601f016020900481019282601f1061136e5782800160ff1982351617855561139b565b8280016001018555821561139b579182015b8281111561139b578235825591602001919060010190611380565b506113a79291506113bd565b5090565b60206040519081016040526000815290565b6105fe91905b808211156113a757600081556001016113c35600a165627a7a7230582019c827e6dc1f016ce3076dc0be5fc30b85ea3ebbbd34f6a4b9ed580ac59895330029",
  "source": "pragma solidity ^0.4.17;\n\nimport './DIDToken.sol';\nimport './Debuggable.sol';\nimport './Distense.sol';\nimport './lib/SafeMath.sol';\n\n\ncontract Tasks is Approvable, Debuggable {\n\n    using SafeMath for uint256;\n\n    address public DIDTokenAddress;\n    address public DistenseAddress;\n    address public PullRequestsAddress;\n\n    bytes32[] public taskIds;\n\n    enum RewardStatus {TENTATIVE, DETERMINED, PAID}\n\n    struct Task {\n        string title;\n        address createdBy;\n        uint256 reward;\n        RewardStatus rewardStatus;\n        uint256 pctDIDVoted;\n        uint64 numVotes;\n        mapping(address => bool) rewardVotes;\n    }\n\n    mapping(bytes32 => Task) tasks;\n\n    event LogAddTask(bytes32 taskId, string title);\n    event LogTaskRewardVote(bytes32 taskId, uint256 reward, uint256 pctDIDVoted);\n    event LogTaskRewardDetermined(bytes32 taskId, uint256 reward);\n\n    function Tasks(address _DIDTokenAddress, address _DistenseAddress) public {\n        DIDTokenAddress = _DIDTokenAddress;\n        DistenseAddress = _DistenseAddress;\n    }\n\n    function addTask(bytes32 _taskId, string _title) external hasEnoughDIDToAddTask() returns\n    (bool) {\n\n        Distense distense = Distense(DistenseAddress);\n\n        tasks[_taskId].createdBy = msg.sender;\n        tasks[_taskId].title = _title;\n        tasks[_taskId].reward = distense.getParameterValueByTitle(distense.defaultRewardParameterTitle());\n        tasks[_taskId].rewardStatus = RewardStatus.TENTATIVE;\n\n        taskIds.push(_taskId);\n        LogAddTask(_taskId, _title);\n\n        return true;\n\n    }\n\n    function getTaskById(bytes32 _taskId) external view returns (\n        string,\n        address,\n        uint256,\n        Tasks.RewardStatus,\n        uint256,\n        uint64\n    ) {\n\n        Task memory task = tasks[_taskId];\n        return (\n        task.title,\n        task.createdBy,\n        task.reward,\n        task.rewardStatus,\n        task.pctDIDVoted,\n        task.numVotes\n        );\n\n    }\n\n    function taskExists(bytes32 _taskId) external view returns (bool) {\n        return tasks[_taskId].createdBy != 0;\n    }\n\n    function getNumTasks() external view returns (uint256) {\n        return taskIds.length;\n    }\n\n    function taskRewardVote(bytes32 _taskId, uint256 _reward) external returns (bool) {\n\n        DIDToken didToken = DIDToken(DIDTokenAddress);\n        uint256 balance = didToken.balances(msg.sender);\n        Distense distense = Distense(DistenseAddress);\n\n        Task storage task = tasks[_taskId];\n\n        require(_reward >= 0);\n\n        //  Essentially refund the remaining gas if user's vote will have no effect\n        require(task.reward != _reward);\n\n        require(task.rewardStatus != RewardStatus.DETERMINED);\n\n        //  Has the voter already voted on this task?\n        require(!task.rewardVotes[msg.sender]);\n\n        //  Does the voter own at least as many DID as the reward their voting for?\n        //  This ensures new contributors don't have too much sway over the issuance of new DID.\n        require(balance > distense.getParameterValueByTitle(distense.numDIDRequiredToTaskRewardVoteParameterTitle()));\n\n        //  Require the reward to be less than or equal to the maximum reward parameter,\n        //  which basically is a hard, floating limit on the number of DID that can be issued for any single task\n        require(_reward <= distense.getParameterValueByTitle(distense.maxRewardParameterTitle()));\n\n        task.rewardVotes[msg.sender] = true;\n\n        uint256 pctDIDOwned = didToken.pctDIDOwned(msg.sender);\n        task.pctDIDVoted = task.pctDIDVoted + pctDIDOwned;\n\n        uint256 difference;\n        uint256 update;\n        if (_reward > task.reward) {\n            difference = SafeMath.sub(_reward, task.reward);\n            update = (pctDIDOwned * difference) / 10000;\n            task.reward += update;\n        } else {\n            difference = SafeMath.sub(task.reward, _reward);\n            update = (pctDIDOwned * difference) / 10000;\n            task.reward -= update;\n        }\n\n        task.numVotes++;\n\n        uint256 pctDIDVotedThreshold = distense.getParameterValueByTitle(\n            distense.proposalPctDIDToApproveParameterTitle()\n        );\n\n        uint256 minNumVoters = distense.getParameterValueByTitle(\n            distense.minNumberOfTaskRewardVotersParameterTitle()\n        );\n\n        if (task.pctDIDVoted > pctDIDVotedThreshold || task.numVotes > minNumVoters) {\n            LogTaskRewardDetermined(_taskId, task.reward);\n            task.rewardStatus = RewardStatus.DETERMINED;\n        }\n\n        return true;\n\n    }\n\n    function getTaskReward(bytes32 _taskId) external view returns (uint256) {\n        return tasks[_taskId].reward;\n    }\n\n    function getTaskRewardAndStatus(bytes32 _taskId) external view returns (uint256, RewardStatus) {\n        return (\n        tasks[_taskId].reward,\n        tasks[_taskId].rewardStatus\n        );\n    }\n\n    function setTaskRewardPaid(bytes32 _taskId) external onlyApproved returns (RewardStatus) {\n        tasks[_taskId].rewardStatus = RewardStatus.PAID;\n        return tasks[_taskId].rewardStatus;\n    }\n\n    function getIndexOfTaskId(bytes32 _taskId) public returns (uint256) {\n        uint256 numTaskIds = taskIds.length;\n        if (numTaskIds > 0) {\n            uint256 i = numTaskIds - 1;\n            while (taskIds[i] != _taskId && i >= 0) {\n                i--;\n                if (i == 0)\n                    if (taskIds[i] != _taskId) // save some global electricity by nesting this condition\n                        return numTaskIds + 1;\n            }\n            return i;\n        } else return numTaskIds + 1;\n\n    }\n\n    //  Allow deleting of paid taskIds to minimize blockchain query time on client\n    //  taskIds are memorialized in the form of events/logs, so this doesn't delete them really,\n    //  it just prevents them from slowing down query times\n    function deleteTaskId(bytes32 _taskId) external onlyApproved returns (bool) {\n        Task memory task = tasks[_taskId];\n\n        if (task.rewardStatus == RewardStatus.PAID) {\n            uint256 index = getIndexOfTaskId(_taskId);\n            uint256 originalLength = taskIds.length;\n            if (index <= originalLength) {\n                delete taskIds[index];\n                bytes32 tempTaskId = taskIds[originalLength - 1];\n                taskIds[index] = tempTaskId;\n                delete taskIds[originalLength - 1];\n                taskIds.length = originalLength - 1;\n                return true;\n            }\n        }\n        return false;\n    }\n\n    modifier hasEnoughDIDToAddTask() {\n        DIDToken didToken = DIDToken(DIDTokenAddress);\n        uint256 balance = didToken.balances(msg.sender);\n\n        Distense distense = Distense(DistenseAddress);\n        uint256 numDIDRequiredToAddTask = distense.getParameterValueByTitle(distense.numDIDRequiredToTaskRewardVoteParameterTitle());\n        numDIDRequiredToAddTask = SafeMath.div(numDIDRequiredToAddTask, 100);\n        require(balance >= numDIDRequiredToAddTask);\n        _;\n    }\n\n\n}\n",
  "sourcePath": "/Users/john/distense-contracts/contracts/Tasks.sol",
  "compiler": {
    "name": "solc",
    "version": "0.4.19+commit.c4cbbb05.Emscripten.clang"
  },
  "schemaVersion": "1.0.1",
  "updatedAt": "2018-02-02T03:44:21.471Z"
}