{
  "contractName": "Tasks",
  "abi": [
    {
      "constant": true,
      "inputs": [],
      "name": "DistenseAddress",
      "outputs": [
        {
          "name": "",
          "type": "address"
        }
      ],
      "payable": false,
      "stateMutability": "view",
      "type": "function"
    },
    {
      "constant": true,
      "inputs": [
        {
          "name": "",
          "type": "uint256"
        }
      ],
      "name": "taskIds",
      "outputs": [
        {
          "name": "",
          "type": "bytes32"
        }
      ],
      "payable": false,
      "stateMutability": "view",
      "type": "function"
    },
    {
      "constant": true,
      "inputs": [],
      "name": "PullRequestsAddress",
      "outputs": [
        {
          "name": "",
          "type": "address"
        }
      ],
      "payable": false,
      "stateMutability": "view",
      "type": "function"
    },
    {
      "constant": false,
      "inputs": [
        {
          "name": "_address",
          "type": "address"
        }
      ],
      "name": "revokeApproval",
      "outputs": [],
      "payable": false,
      "stateMutability": "nonpayable",
      "type": "function"
    },
    {
      "constant": true,
      "inputs": [],
      "name": "DIDTokenAddress",
      "outputs": [
        {
          "name": "",
          "type": "address"
        }
      ],
      "payable": false,
      "stateMutability": "view",
      "type": "function"
    },
    {
      "constant": true,
      "inputs": [
        {
          "name": "",
          "type": "address"
        }
      ],
      "name": "approved",
      "outputs": [
        {
          "name": "",
          "type": "bool"
        }
      ],
      "payable": false,
      "stateMutability": "view",
      "type": "function"
    },
    {
      "constant": false,
      "inputs": [
        {
          "name": "_address",
          "type": "address"
        }
      ],
      "name": "approve",
      "outputs": [],
      "payable": false,
      "stateMutability": "nonpayable",
      "type": "function"
    },
    {
      "inputs": [
        {
          "name": "_DIDTokenAddress",
          "type": "address"
        },
        {
          "name": "_DistenseAddress",
          "type": "address"
        }
      ],
      "payable": false,
      "stateMutability": "nonpayable",
      "type": "constructor"
    },
    {
      "anonymous": false,
      "inputs": [
        {
          "indexed": false,
          "name": "taskId",
          "type": "bytes32"
        },
        {
          "indexed": false,
          "name": "title",
          "type": "string"
        }
      ],
      "name": "LogAddTask",
      "type": "event"
    },
    {
      "anonymous": false,
      "inputs": [
        {
          "indexed": false,
          "name": "taskId",
          "type": "bytes32"
        },
        {
          "indexed": false,
          "name": "reward",
          "type": "uint256"
        },
        {
          "indexed": false,
          "name": "pctDIDVoted",
          "type": "uint256"
        }
      ],
      "name": "LogTaskRewardVote",
      "type": "event"
    },
    {
      "anonymous": false,
      "inputs": [
        {
          "indexed": false,
          "name": "taskId",
          "type": "bytes32"
        },
        {
          "indexed": false,
          "name": "reward",
          "type": "uint256"
        }
      ],
      "name": "LogTaskRewardDetermined",
      "type": "event"
    },
    {
      "constant": false,
      "inputs": [
        {
          "name": "_taskId",
          "type": "bytes32"
        },
        {
          "name": "_title",
          "type": "string"
        }
      ],
      "name": "addTask",
      "outputs": [
        {
          "name": "",
          "type": "bool"
        }
      ],
      "payable": false,
      "stateMutability": "nonpayable",
      "type": "function"
    },
    {
      "constant": true,
      "inputs": [
        {
          "name": "_taskId",
          "type": "bytes32"
        }
      ],
      "name": "getTaskById",
      "outputs": [
        {
          "name": "",
          "type": "string"
        },
        {
          "name": "",
          "type": "address"
        },
        {
          "name": "",
          "type": "uint256"
        },
        {
          "name": "",
          "type": "uint8"
        },
        {
          "name": "",
          "type": "uint256"
        },
        {
          "name": "",
          "type": "uint64"
        }
      ],
      "payable": false,
      "stateMutability": "view",
      "type": "function"
    },
    {
      "constant": true,
      "inputs": [
        {
          "name": "_taskId",
          "type": "bytes32"
        }
      ],
      "name": "taskExists",
      "outputs": [
        {
          "name": "",
          "type": "bool"
        }
      ],
      "payable": false,
      "stateMutability": "view",
      "type": "function"
    },
    {
      "constant": true,
      "inputs": [],
      "name": "getNumTasks",
      "outputs": [
        {
          "name": "",
          "type": "uint256"
        }
      ],
      "payable": false,
      "stateMutability": "view",
      "type": "function"
    },
    {
      "constant": false,
      "inputs": [
        {
          "name": "_taskId",
          "type": "bytes32"
        },
        {
          "name": "_reward",
          "type": "uint256"
        }
      ],
      "name": "taskRewardVote",
      "outputs": [
        {
          "name": "",
          "type": "bool"
        }
      ],
      "payable": false,
      "stateMutability": "nonpayable",
      "type": "function"
    },
    {
      "constant": true,
      "inputs": [
        {
          "name": "_taskId",
          "type": "bytes32"
        }
      ],
      "name": "getTaskReward",
      "outputs": [
        {
          "name": "",
          "type": "uint256"
        }
      ],
      "payable": false,
      "stateMutability": "view",
      "type": "function"
    },
    {
      "constant": true,
      "inputs": [
        {
          "name": "_taskId",
          "type": "bytes32"
        }
      ],
      "name": "getTaskRewardAndStatus",
      "outputs": [
        {
          "name": "",
          "type": "uint256"
        },
        {
          "name": "",
          "type": "uint8"
        }
      ],
      "payable": false,
      "stateMutability": "view",
      "type": "function"
    },
    {
      "constant": false,
      "inputs": [
        {
          "name": "_taskId",
          "type": "bytes32"
        }
      ],
      "name": "setTaskRewardPaid",
      "outputs": [
        {
          "name": "",
          "type": "uint8"
        }
      ],
      "payable": false,
      "stateMutability": "nonpayable",
      "type": "function"
    },
    {
      "constant": false,
      "inputs": [
        {
          "name": "_taskId",
          "type": "bytes32"
        }
      ],
      "name": "deleteTask",
      "outputs": [
        {
          "name": "",
          "type": "bool"
        }
      ],
      "payable": false,
      "stateMutability": "nonpayable",
      "type": "function"
    }
  ],
  "bytecode": "0x6060604052341561000f57600080fd5b6040516040806113838339810160405280805191906020018051600160a060020a033381166000908152602081905260409020805460ff191660019081179091558054958216600160a060020a0319968716179055600280549190921694169390931790925550506112fd806100866000396000f3006060604052600436106100cc5763ffffffff60e060020a6000350416630afdbaed81146100d15780631efe3abf1461010057806339118d251461012557806346da6eee1461013b578063484685b01461014e578063497a7b481461016f578063a022c15e1461019c578063ac847d49146101b2578063b7825cfc146101c5578063b7bf356a146101e7578063b9c105cf146101fd578063d30bf3231461023e578063d8b964e614610278578063d8f6dcf214610297578063daea85c514610374578063e64f15a214610393575b600080fd5b34156100dc57600080fd5b6100e46103a9565b604051600160a060020a03909116815260200160405180910390f35b341561010b57600080fd5b6101136103b8565b60405190815260200160405180910390f35b341561013057600080fd5b6101136004356103bf565b341561014657600080fd5b6100e46103de565b341561015957600080fd5b61016d600160a060020a03600435166103ed565b005b341561017a57600080fd5b61018860043560243561044a565b604051901515815260200160405180910390f35b34156101a757600080fd5b610113600435610a6c565b34156101bd57600080fd5b6100e4610a81565b34156101d057600080fd5b610188600480359060248035908101910135610a90565b34156101f257600080fd5b610188600435610d7d565b341561020857600080fd5b610213600435610d9d565b6040518083815260200182600281111561022957fe5b60ff1681526020019250505060405180910390f35b341561024957600080fd5b610254600435610dbe565b6040518082600281111561026457fe5b60ff16815260200191505060405180910390f35b341561028357600080fd5b610188600160a060020a0360043516610e0a565b34156102a257600080fd5b6102ad600435610e1f565b604051600160a060020a03861660208201526040810185905280606081018560028111156102d757fe5b60ff1681526020018481526020018367ffffffffffffffff1667ffffffffffffffff168152602001828103825288818151815260200191508051906020019080838360005b8381101561033457808201518382015260200161031c565b50505050905090810190601f1680156103615780820380516001836020036101000a031916815260200191505b5097505050505050505060405180910390f35b341561037f57600080fd5b61016d600160a060020a0360043516610f93565b341561039e57600080fd5b610188600435610ff3565b600254600160a060020a031681565b6004545b90565b60048054829081106103cd57fe5b600091825260209091200154905081565b600354600160a060020a031681565b600160a060020a03331660009081526020819052604090205460ff16151561041457600080fd5b600160a060020a038116151561042957600080fd5b600160a060020a03166000908152602081905260409020805460ff19169055565b600154600090600160a060020a0316818080808080808080808a6327e235e33360405160e060020a63ffffffff8416028152600160a060020a039091166004820152602401602060405180830381600087803b15156104a857600080fd5b5af115156104b557600080fd5b505050604051805190509950600260009054906101000a9004600160a060020a03169850600560008f60001916600019168152602001908152602001600020975060008d1015151561050657600080fd5b60028801548d141561051757600080fd5b6001600389015460ff16600281111561052c57fe5b141561053757600080fd5b600160a060020a033316600090815260068901602052604090205460ff161561055f57600080fd5b600160a060020a038916638fc6ad2d81636263a27f6040518163ffffffff1660e060020a028152600401602060405180830381600087803b15156105a257600080fd5b5af115156105af57600080fd5b5050506040518051905060405160e060020a63ffffffff84160281526004810191909152602401602060405180830381600087803b15156105ef57600080fd5b5af115156105fc57600080fd5b50505060405180518b11905061061157600080fd5b600160a060020a038916638fc6ad2d81637da1373a6040518163ffffffff1660e060020a028152600401602060405180830381600087803b151561065457600080fd5b5af1151561066157600080fd5b5050506040518051905060405160e060020a63ffffffff84160281526004810191909152602401602060405180830381600087803b15156106a157600080fd5b5af115156106ae57600080fd5b50505060405180518e111590506106c457600080fd5b600160a060020a0333818116600090815260068b01602052604090819020805460ff19166001179055918d1691638800495091905160e060020a63ffffffff8416028152600160a060020a039091166004820152602401602060405180830381600087803b151561073457600080fd5b5af1151561074157600080fd5b505050604051805160048a01805482019055975050600160a060020a038916638fc6ad2d8163e2f97c8d6040518163ffffffff1660e060020a028152600401602060405180830381600087803b151561079957600080fd5b5af115156107a657600080fd5b5050506040518051905060405160e060020a63ffffffff84160281526004810191909152602401602060405180830381600087803b15156107e657600080fd5b5af115156107f357600080fd5b505050604051805196505085871161080b578661080d565b855b945087600201548d1115610846576108298d8960020154611161565b60028901805461271088840204908101909155909450925061086e565b61085488600201548e611161565b600289018054612710888402049081900390915590945092505b60058801805467ffffffffffffffff8082166001011667ffffffffffffffff19909116179055600160a060020a038916638fc6ad2d8163fb4347eb6040518163ffffffff1660e060020a028152600401602060405180830381600087803b15156108d757600080fd5b5af115156108e457600080fd5b5050506040518051905060405160e060020a63ffffffff84160281526004810191909152602401602060405180830381600087803b151561092457600080fd5b5af1151561093157600080fd5b5050506040518051925050600160a060020a038916638fc6ad2d8163cec9bb9f6040518163ffffffff1660e060020a028152600401602060405180830381600087803b151561097f57600080fd5b5af1151561098c57600080fd5b5050506040518051905060405160e060020a63ffffffff84160281526004810191909152602401602060405180830381600087803b15156109cc57600080fd5b5af115156109d957600080fd5b5050506040518051905090508188600401541180610a055750600588015467ffffffffffffffff168190115b15610a58577fea376df55f15b85259aed67aa0f87a23ee9f3b625c6151a53eef59c2baa883ca8e896002015460405191825260208201526040908101905180910390a160038801805460ff191660011790555b5060019d9c50505050505050505050505050565b60009081526005602052604090206002015490565b600154600160a060020a031681565b6001546000908190600160a060020a0316818080836327e235e33360405160e060020a63ffffffff8416028152600160a060020a039091166004820152602401602060405180830381600087803b1515610ae957600080fd5b5af11515610af657600080fd5b5050506040518051600254909450600160a060020a03169250829050638fc6ad2d816365c4284b6040518163ffffffff1660e060020a028152600401602060405180830381600087803b1515610b4b57600080fd5b5af11515610b5857600080fd5b5050506040518051905060405160e060020a63ffffffff84160281526004810191909152602401602060405180830381600087803b1515610b9857600080fd5b5af11515610ba557600080fd5b505050604051805191505080831015610bbd57600080fd5b60025460008a815260056020526040902060018101805473ffffffffffffffffffffffffffffffffffffffff1916600160a060020a03338116919091179091559091169550610c0d908989611173565b50600160a060020a038516638fc6ad2d816345a528bf6040518163ffffffff1660e060020a028152600401602060405180830381600087803b1515610c5157600080fd5b5af11515610c5e57600080fd5b5050506040518051905060405160e060020a63ffffffff84160281526004810191909152602401602060405180830381600087803b1515610c9e57600080fd5b5af11515610cab57600080fd5b505050604051805160008b81526005602052604090206002810191909155600301805460ff19169055506004805460018101610ce783826111f1565b5060009182526020808320919091018b90556004548b835260059091526040918290206000199091016007909101557ffafee1e1d1d7b07d7e2e381764370256754d2d4b8b82d9c83e91d3bbba0b3291908a908a908a905183815260406020820181815290820183905260608201848480828437820191505094505050505060405180910390a150600198975050505050505050565b600090815260056020526040902060010154600160a060020a0316151590565b6000818152600560205260409020600281015460039091015460ff16915091565b600160a060020a03331660009081526020819052604081205460ff161515610de557600080fd5b506000908152600560205260409020600301805460ff19166002179081905560ff1690565b60006020819052908152604090205460ff1681565b610e2761121a565b6000806000806000610e3761122c565b600088815260056020526040908190209060e090519081016040529081600082018054600181600116156101000203166002900480601f016020809104026020016040519081016040528092919081815260200182805460018160011615610100020316600290048015610eec5780601f10610ec157610100808354040283529160200191610eec565b820191906000526020600020905b815481529060010190602001808311610ecf57829003601f168201915b50505091835250506001820154600160a060020a031660208201526002808301546040830152600383015460609092019160ff1690811115610f2a57fe5b6002811115610f3557fe5b815260048201546020820152600582015467ffffffffffffffff1660408201526007909101546060909101529050805181602001518260400151836060015184608001518560a00151949d939c50919a509850965090945092505050565b600160a060020a03331660009081526020819052604090205460ff161515610fba57600080fd5b600160a060020a0381161515610fcf57600080fd5b600160a060020a03166000908152602081905260409020805460ff19166001179055565b600160a060020a033316600090815260208190526040812054819081908190819060ff16151561102257600080fd5b600086815260056020526040902093506002600385015460ff16600281111561104757fe5b14156111535760008681526005602052604090206007015460048054919450908490811061107157fe5b600091825260208083209091018290558782526005905260408120906110978282611270565b506001818101805473ffffffffffffffffffffffffffffffffffffffff1916905560006002830181905560038301805460ff19169055600480840182905560058401805467ffffffffffffffff191690556007909301559054925082111561114a5760048054600019840190811061110b57fe5b90600052602060002090015490508060048481548110151561112957fe5b60009182526020909120015560048054906111489060001983016111f1565b505b60019450611158565b600094505b50505050919050565b60008282111561116d57fe5b50900390565b828054600181600116156101000203166002900490600052602060002090601f016020900481019282601f106111b45782800160ff198235161785556111e1565b828001600101855582156111e1579182015b828111156111e15782358255916020019190600101906111c6565b506111ed9291506112b7565b5090565b815481835581811511611215576000838152602090206112159181019083016112b7565b505050565b60206040519081016040526000815290565b60e06040519081016040528061124061121a565b815260006020820181905260408201819052606082018190526080820181905260a0820181905260c09091015290565b50805460018160011615610100020316600290046000825580601f1061129657506112b4565b601f0160209004906000526020600020908101906112b491906112b7565b50565b6103bc91905b808211156111ed57600081556001016112bd5600a165627a7a723058209e10003cbfb7e8fa2c177ad99e16142b57c45dc52d046d95e51de3acd2b6f2590029",
  "source": "pragma solidity ^0.4.21;\n\nimport './DIDToken.sol';\nimport './Distense.sol';\nimport './lib/SafeMath.sol';\n\n\ncontract Tasks is Approvable {\n\n    using SafeMath for uint256;\n\n    address public DIDTokenAddress;\n    address public DistenseAddress;\n    address public PullRequestsAddress;\n\n    bytes32[] public taskIds;\n\n    enum RewardStatus {TENTATIVE, DETERMINED, PAID}\n\n    struct Task {\n        string title;\n        address createdBy;\n        uint256 reward;\n        RewardStatus rewardStatus;\n        uint256 pctDIDVoted;\n        uint64 numVotes;\n        mapping(address => bool) rewardVotes;\n        uint256 taskIdsIndex;   // for easy later deletion to minimize query time and blockchain size\n    }\n\n    mapping(bytes32 => Task) tasks;\n\n    event LogAddTask(bytes32 taskId, string title);\n    event LogTaskRewardVote(bytes32 taskId, uint256 reward, uint256 pctDIDVoted);\n    event LogTaskRewardDetermined(bytes32 taskId, uint256 reward);\n\n    function Tasks(address _DIDTokenAddress, address _DistenseAddress) public {\n        DIDTokenAddress = _DIDTokenAddress;\n        DistenseAddress = _DistenseAddress;\n    }\n\n    function addTask(bytes32 _taskId, string _title) external hasEnoughDIDToAddTask() returns\n    (bool) {\n\n        Distense distense = Distense(DistenseAddress);\n\n        tasks[_taskId].createdBy = msg.sender;\n        tasks[_taskId].title = _title;\n        tasks[_taskId].reward = distense.getParameterValueByTitle(distense.defaultRewardParameterTitle());\n        tasks[_taskId].rewardStatus = RewardStatus.TENTATIVE;\n\n        taskIds.push(_taskId);\n        tasks[_taskId].taskIdsIndex = taskIds.length - 1;\n        emit LogAddTask(_taskId, _title);\n\n        return true;\n\n    }\n\n    function getTaskById(bytes32 _taskId) external view returns (\n        string,\n        address,\n        uint256,\n        Tasks.RewardStatus,\n        uint256,\n        uint64\n    ) {\n\n        Task memory task = tasks[_taskId];\n        return (\n            task.title,\n            task.createdBy,\n            task.reward,\n            task.rewardStatus,\n            task.pctDIDVoted,\n            task.numVotes\n        );\n\n    }\n\n    function taskExists(bytes32 _taskId) external view returns (bool) {\n        return tasks[_taskId].createdBy != 0;\n    }\n\n    function getNumTasks() external view returns (uint256) {\n        return taskIds.length;\n    }\n\n    function taskRewardVote(bytes32 _taskId, uint256 _reward) external returns (bool) {\n\n        DIDToken didToken = DIDToken(DIDTokenAddress);\n        uint256 balance = didToken.balances(msg.sender);\n        Distense distense = Distense(DistenseAddress);\n\n        Task storage task = tasks[_taskId];\n\n        require(_reward >= 0);\n\n        //  Essentially refund the remaining gas if user's vote will have no effect\n        require(task.reward != _reward);\n\n        // Don't let the voter vote if the reward has already been determined\n        require(task.rewardStatus != RewardStatus.DETERMINED);\n\n        //  Has the voter already voted on this task?\n        require(!task.rewardVotes[msg.sender]);\n\n        //  Does the voter own at least as many DID as the reward their voting for?\n        //  This ensures new contributors don't have too much sway over the issuance of new DID.\n        require(balance > distense.getParameterValueByTitle(distense.numDIDRequiredToTaskRewardVoteParameterTitle()));\n\n        //  Require the reward to be less than or equal to the maximum reward parameter,\n        //  which basically is a hard, floating limit on the number of DID that can be issued for any single task\n        require(_reward <= distense.getParameterValueByTitle(distense.maxRewardParameterTitle()));\n\n        task.rewardVotes[msg.sender] = true;\n\n        uint256 pctDIDOwned = didToken.pctDIDOwned(msg.sender);\n        task.pctDIDVoted = task.pctDIDVoted + pctDIDOwned;\n\n        //  Get the current votingPowerLimit\n        uint256 votingPowerLimit = distense.getParameterValueByTitle(distense.votingPowerLimitParameterTitle());\n        //  For voting purposes, limit the pctDIDOwned\n        uint256 limitedVotingPower = pctDIDOwned > votingPowerLimit ? votingPowerLimit : pctDIDOwned;\n\n        uint256 difference;\n        uint256 update;\n        if (_reward > task.reward) {\n            difference = SafeMath.sub(_reward, task.reward);\n            update = (limitedVotingPower * difference) / 10000;\n            task.reward += update;\n        } else {\n            difference = SafeMath.sub(task.reward, _reward);\n            update = (limitedVotingPower * difference) / 10000;\n            task.reward -= update;\n        }\n\n        task.numVotes++;\n\n        uint256 pctDIDVotedThreshold = distense.getParameterValueByTitle(\n            distense.pctDIDToDetermineTaskRewardParameterTitle()\n        );\n\n        uint256 minNumVoters = distense.getParameterValueByTitle(\n            distense.minNumberOfTaskRewardVotersParameterTitle()\n        );\n\n        if (task.pctDIDVoted > pctDIDVotedThreshold || task.numVotes > minNumVoters) {\n            emit LogTaskRewardDetermined(_taskId, task.reward);\n            task.rewardStatus = RewardStatus.DETERMINED;\n        }\n\n        return true;\n\n    }\n\n    function getTaskReward(bytes32 _taskId) external view returns (uint256) {\n        return tasks[_taskId].reward;\n    }\n\n    function getTaskRewardAndStatus(bytes32 _taskId) external view returns (uint256, RewardStatus) {\n        return (\n            tasks[_taskId].reward,\n            tasks[_taskId].rewardStatus\n        );\n    }\n\n    function setTaskRewardPaid(bytes32 _taskId) external onlyApproved returns (RewardStatus) {\n        tasks[_taskId].rewardStatus = RewardStatus.PAID;\n        return tasks[_taskId].rewardStatus;\n    }\n\n    //  Allow deleting of PAID taskIds to minimize blockchain size & query time on client\n    //  taskIds are memorialized in the form of events/logs, so this doesn't truly delete them,\n    //  it just prevents them from slowing down query times\n    function deleteTask(bytes32 _taskId) external onlyApproved returns (bool) {\n        Task storage task = tasks[_taskId];\n\n        if (task.rewardStatus == RewardStatus.PAID) {\n            uint256 index = tasks[_taskId].taskIdsIndex;\n            delete taskIds[index];\n            delete tasks[_taskId];\n\n            // Move the last element to the deleted index.  If we don't do this there are no efficiencies and the index will still still be\n            // iterated over on the client\n            uint256 taskIdsLength = taskIds.length;\n            if (taskIdsLength > 1) {\n                bytes32 lastElement = taskIds[taskIdsLength - 1];\n                taskIds[index] = lastElement;\n                taskIds.length--;\n            }\n            return true;\n        }\n        return false;\n    }\n\n    modifier hasEnoughDIDToAddTask() {\n        DIDToken didToken = DIDToken(DIDTokenAddress);\n        uint256 balance = didToken.balances(msg.sender);\n\n        Distense distense = Distense(DistenseAddress);\n        uint256 numDIDRequiredToAddTask = distense.getParameterValueByTitle(\n            distense.numDIDRequiredToAddTaskParameterTitle()\n        );\n        require(balance >= numDIDRequiredToAddTask);\n        _;\n    }\n\n\n}\n",
  "sourcePath": "/Users/john/distense-contracts/contracts/Tasks.sol",
  "compiler": {
    "name": "solc",
    "version": "0.4.21+commit.dfe3193c.Emscripten.clang"
  },
  "schemaVersion": "1.0.1",
  "updatedAt": "2018-03-23T22:04:42.879Z"
}