{
  "contractName": "Tasks",
  "abi": [
    {
      "constant": true,
      "inputs": [],
      "name": "DistenseAddress",
      "outputs": [
        {
          "name": "",
          "type": "address"
        }
      ],
      "payable": false,
      "stateMutability": "view",
      "type": "function"
    },
    {
      "constant": true,
      "inputs": [],
      "name": "getNumTasks",
      "outputs": [
        {
          "name": "",
          "type": "uint256"
        }
      ],
      "payable": false,
      "stateMutability": "view",
      "type": "function"
    },
    {
      "constant": true,
      "inputs": [
        {
          "name": "",
          "type": "uint256"
        }
      ],
      "name": "taskIds",
      "outputs": [
        {
          "name": "",
          "type": "bytes32"
        }
      ],
      "payable": false,
      "stateMutability": "view",
      "type": "function"
    },
    {
      "constant": true,
      "inputs": [],
      "name": "PullRequestsAddress",
      "outputs": [
        {
          "name": "",
          "type": "address"
        }
      ],
      "payable": false,
      "stateMutability": "view",
      "type": "function"
    },
    {
      "constant": false,
      "inputs": [
        {
          "name": "_address",
          "type": "address"
        }
      ],
      "name": "revokeApproval",
      "outputs": [],
      "payable": false,
      "stateMutability": "nonpayable",
      "type": "function"
    },
    {
      "constant": false,
      "inputs": [
        {
          "name": "_taskId",
          "type": "bytes32"
        },
        {
          "name": "_reward",
          "type": "uint256"
        }
      ],
      "name": "taskRewardVote",
      "outputs": [
        {
          "name": "",
          "type": "bool"
        }
      ],
      "payable": false,
      "stateMutability": "nonpayable",
      "type": "function"
    },
    {
      "constant": false,
      "inputs": [
        {
          "name": "_taskId",
          "type": "bytes32"
        },
        {
          "name": "_title",
          "type": "bytes32"
        }
      ],
      "name": "addTask",
      "outputs": [
        {
          "name": "",
          "type": "bool"
        }
      ],
      "payable": false,
      "stateMutability": "nonpayable",
      "type": "function"
    },
    {
      "constant": true,
      "inputs": [
        {
          "name": "_taskId",
          "type": "bytes32"
        }
      ],
      "name": "getTaskReward",
      "outputs": [
        {
          "name": "",
          "type": "uint256"
        }
      ],
      "payable": false,
      "stateMutability": "view",
      "type": "function"
    },
    {
      "constant": true,
      "inputs": [],
      "name": "DIDTokenAddress",
      "outputs": [
        {
          "name": "",
          "type": "address"
        }
      ],
      "payable": false,
      "stateMutability": "view",
      "type": "function"
    },
    {
      "constant": true,
      "inputs": [
        {
          "name": "_taskId",
          "type": "bytes32"
        }
      ],
      "name": "taskExists",
      "outputs": [
        {
          "name": "",
          "type": "bool"
        }
      ],
      "payable": false,
      "stateMutability": "view",
      "type": "function"
    },
    {
      "constant": true,
      "inputs": [
        {
          "name": "_taskId",
          "type": "bytes32"
        }
      ],
      "name": "getTaskRewardAndStatus",
      "outputs": [
        {
          "name": "",
          "type": "uint256"
        },
        {
          "name": "",
          "type": "uint8"
        }
      ],
      "payable": false,
      "stateMutability": "view",
      "type": "function"
    },
    {
      "constant": false,
      "inputs": [
        {
          "name": "_taskId",
          "type": "bytes32"
        }
      ],
      "name": "setTaskRewardPaid",
      "outputs": [
        {
          "name": "",
          "type": "uint8"
        }
      ],
      "payable": false,
      "stateMutability": "nonpayable",
      "type": "function"
    },
    {
      "constant": true,
      "inputs": [
        {
          "name": "",
          "type": "address"
        }
      ],
      "name": "approved",
      "outputs": [
        {
          "name": "",
          "type": "bool"
        }
      ],
      "payable": false,
      "stateMutability": "view",
      "type": "function"
    },
    {
      "constant": true,
      "inputs": [
        {
          "name": "_taskId",
          "type": "bytes32"
        }
      ],
      "name": "getTaskById",
      "outputs": [
        {
          "name": "",
          "type": "bytes32"
        },
        {
          "name": "",
          "type": "address"
        },
        {
          "name": "",
          "type": "uint256"
        },
        {
          "name": "",
          "type": "uint8"
        },
        {
          "name": "",
          "type": "uint256"
        },
        {
          "name": "",
          "type": "uint64"
        }
      ],
      "payable": false,
      "stateMutability": "view",
      "type": "function"
    },
    {
      "constant": false,
      "inputs": [
        {
          "name": "_address",
          "type": "address"
        }
      ],
      "name": "approve",
      "outputs": [],
      "payable": false,
      "stateMutability": "nonpayable",
      "type": "function"
    },
    {
      "inputs": [
        {
          "name": "_DIDTokenAddress",
          "type": "address"
        },
        {
          "name": "_DistenseAddress",
          "type": "address"
        }
      ],
      "payable": false,
      "stateMutability": "nonpayable",
      "type": "constructor"
    },
    {
      "anonymous": false,
      "inputs": [
        {
          "indexed": false,
          "name": "taskId",
          "type": "bytes32"
        }
      ],
      "name": "LogAddTask",
      "type": "event"
    },
    {
      "anonymous": false,
      "inputs": [
        {
          "indexed": false,
          "name": "taskId",
          "type": "bytes32"
        },
        {
          "indexed": false,
          "name": "reward",
          "type": "uint256"
        },
        {
          "indexed": false,
          "name": "pctDIDVoted",
          "type": "uint256"
        }
      ],
      "name": "LogTaskRewardVote",
      "type": "event"
    },
    {
      "anonymous": false,
      "inputs": [
        {
          "indexed": false,
          "name": "taskId",
          "type": "bytes32"
        },
        {
          "indexed": false,
          "name": "reward",
          "type": "uint256"
        }
      ],
      "name": "LogTaskRewardDetermined",
      "type": "event"
    },
    {
      "anonymous": false,
      "inputs": [
        {
          "indexed": false,
          "name": "someAddress",
          "type": "address"
        }
      ],
      "name": "LogAddress",
      "type": "event"
    },
    {
      "anonymous": false,
      "inputs": [
        {
          "indexed": false,
          "name": "boolean",
          "type": "bool"
        }
      ],
      "name": "LogBool",
      "type": "event"
    },
    {
      "anonymous": false,
      "inputs": [
        {
          "indexed": false,
          "name": "someBytes",
          "type": "bytes"
        }
      ],
      "name": "LogBytes",
      "type": "event"
    },
    {
      "anonymous": false,
      "inputs": [
        {
          "indexed": false,
          "name": "aBytes32",
          "type": "bytes32"
        }
      ],
      "name": "LogBytes32",
      "type": "event"
    },
    {
      "anonymous": false,
      "inputs": [
        {
          "indexed": false,
          "name": "aString",
          "type": "string"
        }
      ],
      "name": "LogString",
      "type": "event"
    },
    {
      "anonymous": false,
      "inputs": [
        {
          "indexed": false,
          "name": "someInt",
          "type": "uint256"
        }
      ],
      "name": "LogUInt256",
      "type": "event"
    }
  ],
  "bytecode": "0x6060604052341561000f57600080fd5b604051604080610f2b8339810160405280805191906020018051600160a060020a033381166000908152602081905260409020805460ff191660019081179091558054958216600160a060020a031996871617905560028054919092169416939093179092555050610ea5806100866000396000f3006060604052600436106100c15763ffffffff60e060020a6000350416630afdbaed81146100c65780631efe3abf146100f557806339118d251461011a57806346da6eee14610130578063484685b014610143578063497a7b48146101645780639dfcaff514610191578063a022c15e146101aa578063ac847d49146101c0578063b7bf356a146101d3578063b9c105cf146101e9578063d30bf3231461022a578063d8b964e614610264578063d8f6dcf214610283578063daea85c5146102fe575b600080fd5b34156100d157600080fd5b6100d961031d565b604051600160a060020a03909116815260200160405180910390f35b341561010057600080fd5b61010861032c565b60405190815260200160405180910390f35b341561012557600080fd5b610108600435610333565b341561013b57600080fd5b6100d9610352565b341561014e57600080fd5b610162600160a060020a0360043516610361565b005b341561016f57600080fd5b61017d6004356024356103be565b604051901515815260200160405180910390f35b341561019c57600080fd5b61017d6004356024356109e7565b34156101b557600080fd5b610108600435610bf8565b34156101cb57600080fd5b6100d9610c0d565b34156101de57600080fd5b61017d600435610c1c565b34156101f457600080fd5b6101ff600435610c3c565b6040518083815260200182600281111561021557fe5b60ff1681526020019250505060405180910390f35b341561023557600080fd5b610240600435610c5d565b6040518082600281111561025057fe5b60ff16815260200191505060405180910390f35b341561026f57600080fd5b61017d600160a060020a0360043516610ca9565b341561028e57600080fd5b610299600435610cbe565b604051868152600160a060020a038616602082015260408101859052606081018460028111156102c557fe5b60ff1681526020018381526020018267ffffffffffffffff1667ffffffffffffffff168152602001965050505050505060405180910390f35b341561030957600080fd5b610162600160a060020a0360043516610d8b565b600254600160a060020a031681565b6004545b90565b600480548290811061034157fe5b600091825260209091200154905081565b600354600160a060020a031681565b600160a060020a03331660009081526020819052604090205460ff16151561038857600080fd5b600160a060020a038116151561039d57600080fd5b600160a060020a03166000908152602081905260409020805460ff19169055565b600154600090600160a060020a03168180808080808080886327e235e333836040516020015260405160e060020a63ffffffff8416028152600160a060020a039091166004820152602401602060405180830381600087803b151561042257600080fd5b6102c65a03f1151561043357600080fd5b505050604051805160025460008f8152600560205260408120929b50600160a060020a0390911699509097508c1015905061046d57600080fd5b60028601548b141561047e57600080fd5b6001600387015460ff16600281111561049357fe5b141561049e57600080fd5b600160a060020a033316600090815260068701602052604090205460ff16156104c657600080fd5b600160a060020a038716638fc6ad2d81636263a27f6000604051602001526040518163ffffffff1660e060020a028152600401602060405180830381600087803b151561051257600080fd5b6102c65a03f1151561052357600080fd5b5050506040518051905060006040516020015260405160e060020a63ffffffff84160281526004810191909152602401602060405180830381600087803b151561056c57600080fd5b6102c65a03f1151561057d57600080fd5b50505060405180518911905061059257600080fd5b600160a060020a038716638fc6ad2d81637da1373a6000604051602001526040518163ffffffff1660e060020a028152600401602060405180830381600087803b15156105de57600080fd5b6102c65a03f115156105ef57600080fd5b5050506040518051905060006040516020015260405160e060020a63ffffffff84160281526004810191909152602401602060405180830381600087803b151561063857600080fd5b6102c65a03f1151561064957600080fd5b50505060405180518c1115905061065f57600080fd5b600160a060020a03338181166000908152600689016020526040808220805460ff19166001179055928c16926388004950929190516020015260405160e060020a63ffffffff8416028152600160a060020a039091166004820152602401602060405180830381600087803b15156106d657600080fd5b6102c65a03f115156106e757600080fd5b50505060405180516004880180548201905560028801549096508c11159050610762576107188b8760020154610deb565b93507f6536338e7b8ce3f2c94d49d2f6856289a266a956762141121a8598f2be01f21e8460405190815260200160405180910390a16002860180546103e8868802040190556107b7565b61077086600201548c610deb565b93507f6536338e7b8ce3f2c94d49d2f6856289a266a956762141121a8598f2be01f21e8460405190815260200160405180910390a16002860180546103e886880204900390555b60058601805467ffffffffffffffff8082166001011667ffffffffffffffff19909116179055600160a060020a038716638fc6ad2d81633c570b396000604051602001526040518163ffffffff1660e060020a028152600401602060405180830381600087803b151561082957600080fd5b6102c65a03f1151561083a57600080fd5b5050506040518051905060006040516020015260405160e060020a63ffffffff84160281526004810191909152602401602060405180830381600087803b151561088357600080fd5b6102c65a03f1151561089457600080fd5b5050506040518051925050600160a060020a038716638fc6ad2d8163cec9bb9f6000604051602001526040518163ffffffff1660e060020a028152600401602060405180830381600087803b15156108eb57600080fd5b6102c65a03f115156108fc57600080fd5b5050506040518051905060006040516020015260405160e060020a63ffffffff84160281526004810191909152602401602060405180830381600087803b151561094557600080fd5b6102c65a03f1151561095657600080fd5b50505060405180519050905081866004015411806109825750600586015467ffffffffffffffff168190115b156109d5577fea376df55f15b85259aed67aa0f87a23ee9f3b625c6151a53eef59c2baa883ca8c876002015460405191825260208201526040908101905180910390a160038601805460ff191660011790555b5060019b9a5050505050505050505050565b60015460009081903390603290600160a060020a031683816327e235e385836040516020015260405160e060020a63ffffffff8416028152600160a060020a039091166004820152602401602060405180830381600087803b1515610a4b57600080fd5b6102c65a03f11515610a5c57600080fd5b5050506040518051915050828111610a7357600080fd5b60025460008981526005602052604080822060018101805473ffffffffffffffffffffffffffffffffffffffff1916600160a060020a0333811691909117909155908b905590921696508691638fc6ad2d9183916345a528bf919051602001526040518163ffffffff1660e060020a028152600401602060405180830381600087803b1515610b0157600080fd5b6102c65a03f11515610b1257600080fd5b5050506040518051905060006040516020015260405160e060020a63ffffffff84160281526004810191909152602401602060405180830381600087803b1515610b5b57600080fd5b6102c65a03f11515610b6c57600080fd5b505050604051805160008a81526005602052604090206002810191909155600301805460ff19169055506004805460018101610ba88382610dfd565b5060009182526020909120018890557ffa3b619816b1996629aaa613e5b31617aa9028487893cb8d095bcf0272445bbc8860405190815260200160405180910390a1506001979650505050505050565b60009081526005602052604090206002015490565b600154600160a060020a031681565b600090815260056020526040902060010154600160a060020a0316151590565b6000818152600560205260409020600281015460039091015460ff16915091565b600160a060020a03331660009081526020819052604081205460ff161515610c8457600080fd5b506000908152600560205260409020600301805460ff19166002179081905560ff1690565b60006020819052908152604090205460ff1681565b600080600080600080610ccf610e26565b600088815260056020526040908190209060c090519081016040908152825482526001830154600160a060020a03166020830152600280840154918301919091526003830154919291606084019160ff90911690811115610d2c57fe5b6002811115610d3757fe5b81526004820154602082015260059091015467ffffffffffffffff166040909101529050805181602001518260400151836060015184608001518560a00151949d939c50919a509850965090945092505050565b600160a060020a03331660009081526020819052604090205460ff161515610db257600080fd5b600160a060020a0381161515610dc757600080fd5b600160a060020a03166000908152602081905260409020805460ff19166001179055565b600082821115610df757fe5b50900390565b815481835581811511610e2157600083815260209020610e21918101908301610e5b565b505050565b60c06040519081016040908152600080835260208301819052908201819052606082018190526080820181905260a082015290565b61033091905b80821115610e755760008155600101610e61565b50905600a165627a7a72305820a134268ad72c85b0c3d1c69e085abed094791bb03a9f2d596db9ba271cb4b8920029",
  "source": "pragma solidity ^0.4.17;\n\n\nimport './DIDToken.sol';\nimport './Debuggable.sol';\nimport './Distense.sol';\nimport './lib/SafeMath.sol';\n\n\ncontract Tasks is Approvable, Debuggable {\n\n  using SafeMath for uint256;\n\n  address public DIDTokenAddress;\n  address public DistenseAddress;\n  address public PullRequestsAddress;\n\n  bytes32[] public taskIds;\n\n  enum RewardStatus { Tentative, Determined, Paid }\n\n  struct Task {\n    bytes32 title;\n    address createdBy;\n    uint256 reward;\n    RewardStatus rewardStatus;\n    uint256 pctDIDVoted;\n    uint64 numVotes;\n    mapping (address => bool) rewardVotes;\n  }\n\n  mapping (bytes32 => Task) tasks;\n\n  event LogAddTask(bytes32 taskId);\n  event LogTaskRewardVote(bytes32 taskId, uint256 reward, uint256 pctDIDVoted);\n  event LogTaskRewardDetermined(bytes32 taskId, uint256 reward);\n\n\n  function Tasks(address _DIDTokenAddress, address _DistenseAddress) public {\n    DIDTokenAddress = _DIDTokenAddress;\n    DistenseAddress = _DistenseAddress;\n  }\n\n\n  function addTask(bytes32 _taskId, bytes32 _title) external hasEnoughDID(msg.sender, 50) returns\n  (bool) {\n\n//    TODO check for empty _taskId\n    Distense distense = Distense(DistenseAddress);\n\n    tasks[_taskId].createdBy = msg.sender;\n    tasks[_taskId].title = _title;\n    tasks[_taskId].reward = distense.getParameterValueByTitle(distense.defaultRewardParameterTitle());\n    tasks[_taskId].rewardStatus = RewardStatus.Tentative;\n\n    taskIds.push(_taskId);\n    LogAddTask(_taskId);\n\n    return true;\n\n  }\n\n\n  function getTaskById(bytes32 _taskId) external view returns (\n    bytes32,\n    address,\n    uint256,\n    Tasks.RewardStatus,\n    uint256,\n    uint64\n  ) {\n\n    Task memory task = tasks[_taskId];\n    return (\n      task.title,\n      task.createdBy,\n      task.reward,\n      task.rewardStatus,\n      task.pctDIDVoted,\n      task.numVotes\n    );\n\n  }\n\n\n  function taskExists(bytes32 _taskId) external view returns (bool) {\n    return tasks[_taskId].createdBy != 0;\n  }\n\n\n  function getNumTasks() external view returns (uint) {\n    return taskIds.length;\n  }\n\n\n  function taskRewardVote(bytes32 _taskId, uint256 _reward) external returns (bool) {\n\n    DIDToken didToken = DIDToken(DIDTokenAddress);\n    uint256 balance = didToken.balances(msg.sender);\n    Distense distense = Distense(DistenseAddress);\n\n    Task storage task = tasks[_taskId];\n\n    require(_reward >= 0);\n\n    //  Essentially refund the remaining gas if user's vote will have no effect\n    require(task.reward != _reward);\n\n    require(task.rewardStatus != RewardStatus.Determined);\n\n    //  Has the voter already voted on this task?\n    require(!task.rewardVotes[msg.sender]);\n\n    //  Does the voter own at least as many DID as the reward their voting for?\n    //  This ensures new contributors don't have too much sway over the issuance of new DID.\n    require(balance > distense.getParameterValueByTitle(distense.numDIDRequiredToTaskRewardVoteParameterTitle()));\n\n    //  Require the reward to be less than or equal to the maximum reward parameter,\n    //  which basically is a hard, floating limit on the number of DID that can be issued for any single task\n    require(_reward <= distense.getParameterValueByTitle(distense.maxRewardParameterTitle()));\n\n    task.rewardVotes[msg.sender] = true;\n\n    uint256 pctDIDOwned = didToken.pctDIDOwned(msg.sender);\n    task.pctDIDVoted = task.pctDIDVoted + pctDIDOwned;\n\n    uint256 difference;\n    uint256 update;\n\n    if (_reward > task.reward) {\n      difference = SafeMath.sub(_reward, task.reward);\n      LogUInt256(difference);\n      task.reward += (pctDIDOwned * difference) / 1000;\n    } else {\n      difference = SafeMath.sub(task.reward, _reward);\n      LogUInt256(difference);\n      task.reward -= (pctDIDOwned * difference) / 1000;\n    }\n\n    task.numVotes++;\n\n    uint256 pctDIDVotedThreshold = distense.getParameterValueByTitle(\n    distense.proposalPctDIDToApproveParameterTitle()\n    );\n\n    uint256 minNumVoters = distense.getParameterValueByTitle(\n    distense.minNumberOfTaskRewardVotersParameterTitle()\n    );\n\n    if (task.pctDIDVoted > pctDIDVotedThreshold || task.numVotes > minNumVoters) {\n      LogTaskRewardDetermined(_taskId, task.reward);\n      task.rewardStatus = RewardStatus.Determined;\n    }\n\n    return true;\n\n  }\n\n\n  function getTaskReward(bytes32 _taskId) external view returns (uint256) {\n    return tasks[_taskId].reward;\n  }\n\n\n  function getTaskRewardAndStatus(bytes32 _taskId) external view returns (uint256, RewardStatus) {\n    return (\n      tasks[_taskId].reward,\n      tasks[_taskId].rewardStatus\n    );\n  }\n\n  function setTaskRewardPaid(bytes32 _taskId) external onlyApproved returns (RewardStatus) {\n    tasks[_taskId].rewardStatus = RewardStatus.Paid;\n    return tasks[_taskId].rewardStatus;\n  }\n\n\n  modifier hasEnoughDID(address voter, uint256 num) {\n    DIDToken didToken = DIDToken(DIDTokenAddress);\n    uint256 balance = didToken.balances(msg.sender);\n    require(balance > num);\n    _;\n  }\n\n}\n",
  "sourcePath": "/Users/john/distense-contracts/contracts/Tasks.sol",
  "compiler": {
    "name": "solc",
    "version": "0.4.18+commit.9cf6e910.Emscripten.clang"
  },
  "schemaVersion": "1.0.1",
  "updatedAt": "2018-01-11T01:14:49.276Z"
}