{
  "contractName": "Tasks",
  "abi": [
    {
      "constant": true,
      "inputs": [],
      "name": "DistenseAddress",
      "outputs": [
        {
          "name": "",
          "type": "address"
        }
      ],
      "payable": false,
      "stateMutability": "view",
      "type": "function"
    },
    {
      "constant": true,
      "inputs": [],
      "name": "getNumTasks",
      "outputs": [
        {
          "name": "",
          "type": "uint256"
        }
      ],
      "payable": false,
      "stateMutability": "view",
      "type": "function"
    },
    {
      "constant": true,
      "inputs": [
        {
          "name": "",
          "type": "uint256"
        }
      ],
      "name": "taskIds",
      "outputs": [
        {
          "name": "",
          "type": "bytes32"
        }
      ],
      "payable": false,
      "stateMutability": "view",
      "type": "function"
    },
    {
      "constant": true,
      "inputs": [],
      "name": "PullRequestsAddress",
      "outputs": [
        {
          "name": "",
          "type": "address"
        }
      ],
      "payable": false,
      "stateMutability": "view",
      "type": "function"
    },
    {
      "constant": false,
      "inputs": [
        {
          "name": "_address",
          "type": "address"
        }
      ],
      "name": "revokeApproval",
      "outputs": [],
      "payable": false,
      "stateMutability": "nonpayable",
      "type": "function"
    },
    {
      "constant": false,
      "inputs": [
        {
          "name": "_taskId",
          "type": "bytes32"
        },
        {
          "name": "_reward",
          "type": "uint256"
        }
      ],
      "name": "taskRewardVote",
      "outputs": [
        {
          "name": "",
          "type": "bool"
        }
      ],
      "payable": false,
      "stateMutability": "nonpayable",
      "type": "function"
    },
    {
      "constant": false,
      "inputs": [
        {
          "name": "_taskId",
          "type": "bytes32"
        },
        {
          "name": "_title",
          "type": "bytes32"
        }
      ],
      "name": "addTask",
      "outputs": [
        {
          "name": "",
          "type": "bool"
        }
      ],
      "payable": false,
      "stateMutability": "nonpayable",
      "type": "function"
    },
    {
      "constant": true,
      "inputs": [
        {
          "name": "_taskId",
          "type": "bytes32"
        }
      ],
      "name": "getTaskReward",
      "outputs": [
        {
          "name": "",
          "type": "uint256"
        }
      ],
      "payable": false,
      "stateMutability": "view",
      "type": "function"
    },
    {
      "constant": true,
      "inputs": [],
      "name": "DIDTokenAddress",
      "outputs": [
        {
          "name": "",
          "type": "address"
        }
      ],
      "payable": false,
      "stateMutability": "view",
      "type": "function"
    },
    {
      "constant": true,
      "inputs": [
        {
          "name": "_taskId",
          "type": "bytes32"
        }
      ],
      "name": "taskExists",
      "outputs": [
        {
          "name": "",
          "type": "bool"
        }
      ],
      "payable": false,
      "stateMutability": "view",
      "type": "function"
    },
    {
      "constant": false,
      "inputs": [
        {
          "name": "_taskId",
          "type": "bytes32"
        }
      ],
      "name": "setTaskRewardPaid",
      "outputs": [
        {
          "name": "",
          "type": "bool"
        }
      ],
      "payable": false,
      "stateMutability": "nonpayable",
      "type": "function"
    },
    {
      "constant": true,
      "inputs": [
        {
          "name": "",
          "type": "address"
        }
      ],
      "name": "approved",
      "outputs": [
        {
          "name": "",
          "type": "bool"
        }
      ],
      "payable": false,
      "stateMutability": "view",
      "type": "function"
    },
    {
      "constant": true,
      "inputs": [
        {
          "name": "_taskId",
          "type": "bytes32"
        }
      ],
      "name": "getTaskById",
      "outputs": [
        {
          "name": "",
          "type": "bytes32"
        },
        {
          "name": "",
          "type": "address"
        },
        {
          "name": "",
          "type": "uint256"
        },
        {
          "name": "",
          "type": "uint8"
        },
        {
          "name": "",
          "type": "uint256"
        },
        {
          "name": "",
          "type": "uint64"
        }
      ],
      "payable": false,
      "stateMutability": "view",
      "type": "function"
    },
    {
      "constant": false,
      "inputs": [
        {
          "name": "_address",
          "type": "address"
        }
      ],
      "name": "approve",
      "outputs": [],
      "payable": false,
      "stateMutability": "nonpayable",
      "type": "function"
    },
    {
      "inputs": [
        {
          "name": "_DIDTokenAddress",
          "type": "address"
        },
        {
          "name": "_DistenseAddress",
          "type": "address"
        }
      ],
      "payable": false,
      "stateMutability": "nonpayable",
      "type": "constructor"
    },
    {
      "anonymous": false,
      "inputs": [
        {
          "indexed": false,
          "name": "taskId",
          "type": "bytes32"
        }
      ],
      "name": "LogAddTask",
      "type": "event"
    },
    {
      "anonymous": false,
      "inputs": [
        {
          "indexed": false,
          "name": "taskId",
          "type": "bytes32"
        },
        {
          "indexed": false,
          "name": "reward",
          "type": "uint256"
        },
        {
          "indexed": false,
          "name": "pctDIDVoted",
          "type": "uint256"
        }
      ],
      "name": "LogTaskRewardVote",
      "type": "event"
    },
    {
      "anonymous": false,
      "inputs": [
        {
          "indexed": false,
          "name": "taskId",
          "type": "bytes32"
        },
        {
          "indexed": false,
          "name": "reward",
          "type": "uint256"
        }
      ],
      "name": "LogTaskRewardDetermined",
      "type": "event"
    },
    {
      "anonymous": false,
      "inputs": [
        {
          "indexed": false,
          "name": "someAddress",
          "type": "address"
        }
      ],
      "name": "LogAddress",
      "type": "event"
    },
    {
      "anonymous": false,
      "inputs": [
        {
          "indexed": false,
          "name": "boolean",
          "type": "bool"
        }
      ],
      "name": "LogBool",
      "type": "event"
    },
    {
      "anonymous": false,
      "inputs": [
        {
          "indexed": false,
          "name": "someBytes",
          "type": "bytes"
        }
      ],
      "name": "LogBytes",
      "type": "event"
    },
    {
      "anonymous": false,
      "inputs": [
        {
          "indexed": false,
          "name": "aBytes32",
          "type": "bytes32"
        }
      ],
      "name": "LogBytes32",
      "type": "event"
    },
    {
      "anonymous": false,
      "inputs": [
        {
          "indexed": false,
          "name": "aString",
          "type": "string"
        }
      ],
      "name": "LogString",
      "type": "event"
    },
    {
      "anonymous": false,
      "inputs": [
        {
          "indexed": false,
          "name": "someInt",
          "type": "uint256"
        }
      ],
      "name": "LogUInt256",
      "type": "event"
    }
  ],
  "bytecode": "0x6060604052341561000f57600080fd5b604051604080610e7c8339810160405280805191906020018051600160a060020a033381166000908152602081905260409020805460ff191660019081179091558054958216600160a060020a031996871617905560028054919092169416939093179092555050610df6806100866000396000f3006060604052600436106100b65763ffffffff60e060020a6000350416630afdbaed81146100bb5780631efe3abf146100ea57806339118d251461010f57806346da6eee14610125578063484685b014610138578063497a7b48146101595780639dfcaff514610186578063a022c15e1461019f578063ac847d49146101b5578063b7bf356a146101c8578063d30bf323146101de578063d8b964e6146101f4578063d8f6dcf214610213578063daea85c51461028e575b600080fd5b34156100c657600080fd5b6100ce6102ad565b604051600160a060020a03909116815260200160405180910390f35b34156100f557600080fd5b6100fd6102bc565b60405190815260200160405180910390f35b341561011a57600080fd5b6100fd6004356102c3565b341561013057600080fd5b6100ce6102e2565b341561014357600080fd5b610157600160a060020a03600435166102f1565b005b341561016457600080fd5b61017260043560243561034e565b604051901515815260200160405180910390f35b341561019157600080fd5b61017260043560243561096f565b34156101aa57600080fd5b6100fd600435610b80565b34156101c057600080fd5b6100ce610b95565b34156101d357600080fd5b610172600435610ba4565b34156101e957600080fd5b610172600435610bc4565b34156101ff57600080fd5b610172600160a060020a0360043516610c0f565b341561021e57600080fd5b610229600435610c24565b604051868152600160a060020a0386166020820152604081018590526060810184600381111561025557fe5b60ff1681526020018381526020018267ffffffffffffffff1667ffffffffffffffff168152602001965050505050505060405180910390f35b341561029957600080fd5b610157600160a060020a0360043516610cee565b600254600160a060020a031681565b6004545b90565b60048054829081106102d157fe5b600091825260209091200154905081565b600354600160a060020a031681565b600160a060020a03331660009081526020819052604090205460ff16151561031857600080fd5b600160a060020a038116151561032d57600080fd5b600160a060020a03166000908152602081905260409020805460ff19169055565b600154600090600160a060020a031681808080808080876327e235e333836040516020015260405160e060020a63ffffffff8416028152600160a060020a039091166004820152602401602060405180830381600087803b15156103b157600080fd5b6102c65a03f115156103c257600080fd5b5050506040518051600254909850600160a060020a03169650869050638fc6ad2d81633c570b396000604051602001526040518163ffffffff1660e060020a028152600401602060405180830381600087803b151561042057600080fd5b6102c65a03f1151561043157600080fd5b5050506040518051905060006040516020015260405160e060020a63ffffffff84160281526004810191909152602401602060405180830381600087803b151561047a57600080fd5b6102c65a03f1151561048b57600080fd5b5050506040518051955050600160a060020a038616638fc6ad2d8163cec9bb9f6000604051602001526040518163ffffffff1660e060020a028152600401602060405180830381600087803b15156104e257600080fd5b6102c65a03f115156104f357600080fd5b5050506040518051905060006040516020015260405160e060020a63ffffffff84160281526004810191909152602401602060405180830381600087803b151561053c57600080fd5b6102c65a03f1151561054d57600080fd5b505050604051805160008d81526005602052604081209196509094508b1015905061057757600080fd5b60028301548a141561058857600080fd5b600483015485901061059957600080fd5b600583015467ffffffffffffffff168490106105b457600080fd5b600160a060020a033316600090815260068401602052604090205460ff16156105dc57600080fd5b600160a060020a038616638fc6ad2d81636263a27f6000604051602001526040518163ffffffff1660e060020a028152600401602060405180830381600087803b151561062857600080fd5b6102c65a03f1151561063957600080fd5b5050506040518051905060006040516020015260405160e060020a63ffffffff84160281526004810191909152602401602060405180830381600087803b151561068257600080fd5b6102c65a03f1151561069357600080fd5b5050506040518051881190506106a857600080fd5b600160a060020a038616638fc6ad2d81637da1373a6000604051602001526040518163ffffffff1660e060020a028152600401602060405180830381600087803b15156106f457600080fd5b6102c65a03f1151561070557600080fd5b5050506040518051905060006040516020015260405160e060020a63ffffffff84160281526004810191909152602401602060405180830381600087803b151561074e57600080fd5b6102c65a03f1151561075f57600080fd5b50505060405180518b1115905061077557600080fd5b600160a060020a03338181166000908152600686016020526040808220805460ff19166001179055928b16926388004950929190516020015260405160e060020a63ffffffff8416028152600160a060020a039091166004820152602401602060405180830381600087803b15156107ec57600080fd5b6102c65a03f115156107fd57600080fd5b50505060405180516004850180548201905592505089156108235760648a830204610825565b815b905082600201548a1115610842576002830180548201905561084e565b60028301805482900390555b7ffd61479460f97476b1fda3c150852cc0c5bf6f451a9ea6378c1ee9aa15bee15e8b8b856004015460405192835260208301919091526040808301919091526060909101905180910390a1600060038085015460ff16908111156108ae57fe5b14156108c45760038301805460ff191660011790555b60058301805467ffffffffffffffff8082166001011667ffffffffffffffff1990911617905560048301548590118061090b5750600583015467ffffffffffffffff168490115b1561095e577fea376df55f15b85259aed67aa0f87a23ee9f3b625c6151a53eef59c2baa883ca8b846002015460405191825260208201526040908101905180910390a160038301805460ff191660021790555b5060019a9950505050505050505050565b60015460009081903390603290600160a060020a031683816327e235e385836040516020015260405160e060020a63ffffffff8416028152600160a060020a039091166004820152602401602060405180830381600087803b15156109d357600080fd5b6102c65a03f115156109e457600080fd5b50505060405180519150508281116109fb57600080fd5b60025460008981526005602052604080822060018101805473ffffffffffffffffffffffffffffffffffffffff1916600160a060020a0333811691909117909155908b905590921696508691638fc6ad2d9183916345a528bf919051602001526040518163ffffffff1660e060020a028152600401602060405180830381600087803b1515610a8957600080fd5b6102c65a03f11515610a9a57600080fd5b5050506040518051905060006040516020015260405160e060020a63ffffffff84160281526004810191909152602401602060405180830381600087803b1515610ae357600080fd5b6102c65a03f11515610af457600080fd5b505050604051805160008a81526005602052604090206002810191909155600301805460ff19169055506004805460018101610b308382610d4e565b5060009182526020909120018890557ffa3b619816b1996629aaa613e5b31617aa9028487893cb8d095bcf0272445bbc8860405190815260200160405180910390a1506001979650505050505050565b60009081526005602052604090206002015490565b600154600160a060020a031681565b600090815260056020526040902060010154600160a060020a0316151590565b600160a060020a03331660009081526020819052604081205460ff161515610beb57600080fd5b5060009081526005602052604090206003908101805460ff19169091179055600190565b60006020819052908152604090205460ff1681565b600080600080600080610c35610d77565b600088815260056020526040908190209060c090519081016040908152825482526001830154600160a060020a03166020830152600283015490820152600380830154919291606084019160ff90911690811115610c8f57fe5b6003811115610c9a57fe5b81526004820154602082015260059091015467ffffffffffffffff166040909101529050805181602001518260400151836060015184608001518560a00151949d939c50919a509850965090945092505050565b600160a060020a03331660009081526020819052604090205460ff161515610d1557600080fd5b600160a060020a0381161515610d2a57600080fd5b600160a060020a03166000908152602081905260409020805460ff19166001179055565b815481835581811511610d7257600083815260209020610d72918101908301610dac565b505050565b60c06040519081016040908152600080835260208301819052908201819052606082018190526080820181905260a082015290565b6102c091905b80821115610dc65760008155600101610db2565b50905600a165627a7a723058204150a930648c749ae35eafbb3367450935f8ad47fcbbfb4c5d4c9876e3d3bdb80029",
  "source": "pragma solidity ^0.4.17;\n\n\nimport './DIDToken.sol';\nimport './Debuggable.sol';\nimport './Distense.sol';\nimport './lib/SafeMath.sol';\n\n\ncontract Tasks is Approvable, Debuggable {\n\n  using SafeMath for uint256;\n\n  address public DIDTokenAddress;\n  address public DistenseAddress;\n  address public PullRequestsAddress;\n\n  bytes32[] public taskIds;\n\n  enum RewardStatus { Default, Tentative, Determined, Paid }\n\n  struct Task {\n    bytes32 title;\n    address createdBy;\n    uint256 reward;\n    RewardStatus rewardStatus;\n    uint256 pctDIDVoted;\n    uint64 numVotes;\n    mapping (address => bool) rewardVotes;\n  }\n\n  mapping (bytes32 => Task) tasks;\n\n  event LogAddTask(bytes32 taskId);\n  event LogTaskRewardVote(bytes32 taskId, uint256 reward, uint256 pctDIDVoted);\n  event LogTaskRewardDetermined(bytes32 taskId, uint256 reward);\n\n  function Tasks(address _DIDTokenAddress, address _DistenseAddress) public {\n    DIDTokenAddress = _DIDTokenAddress;\n    DistenseAddress = _DistenseAddress;\n  }\n\n\n  function addTask(bytes32 _taskId, bytes32 _title) public hasEnoughDID(msg.sender, 50) returns\n  (bool) {\n\n//    TODO check for empty _taskId\n//    bytes memory bytesTaskId = bytes(_taskId);\n//    require(bytesTaskId.length > 0);\n\n    Distense distense = Distense(DistenseAddress);\n\n    tasks[_taskId].createdBy = msg.sender;\n    tasks[_taskId].title = _title;\n    tasks[_taskId].reward = distense.getParameterValueByTitle(distense.defaultRewardParameterTitle());\n    tasks[_taskId].rewardStatus = RewardStatus.Default;\n\n    taskIds.push(_taskId);\n    LogAddTask(_taskId);\n\n    return true;\n\n  }\n\n\n  function getTaskById(bytes32 _taskId) public view returns (\n    bytes32,\n    address,\n    uint256,\n    Tasks.RewardStatus,\n    uint256,\n    uint64\n  ) {\n\n    Task memory task = tasks[_taskId];\n    return (\n      task.title,\n      task.createdBy,\n      task.reward,\n      task.rewardStatus,\n      task.pctDIDVoted,\n      task.numVotes\n    );\n\n  }\n\n\n  function taskExists(bytes32 _taskId) public view returns (bool) {\n    return tasks[_taskId].createdBy != 0;\n  }\n\n\n  function getNumTasks() public view returns (uint) {\n    return taskIds.length;\n  }\n\n\n  function taskRewardVote(bytes32 _taskId, uint256 _reward) public returns (bool) {\n\n    DIDToken didToken = DIDToken(DIDTokenAddress);\n    uint256 balance = didToken.balances(msg.sender);\n    Distense distense = Distense(DistenseAddress);\n\n    uint256 pctDIDVotedThreshold = distense.getParameterValueByTitle(\n      distense.proposalPctDIDToApproveParameterTitle()\n    );\n\n    uint256 minNumVoters = distense.getParameterValueByTitle(\n      distense.minNumberOfTaskRewardVotersParameterTitle()\n    );\n\n    Task storage task = tasks[_taskId];\n\n    require(_reward >= 0);\n\n    //  Essentially refund the remaining gas if user's vote will have no effect\n    require(task.reward != _reward);\n\n    require(task.pctDIDVoted < pctDIDVotedThreshold);\n\n    // Restrict voting if enough DID or voters have voted\n    require(task.numVotes < minNumVoters);\n\n    //  Has the voter already voted on this task?\n    require(!task.rewardVotes[msg.sender]);\n\n    //  Does the voter own at least as many DID as the reward their voting for?\n    //  This ensures new contributors don't have too much sway over the issuance of new DID.\n    require(balance > distense.getParameterValueByTitle(distense.numDIDRequiredToTaskRewardVoteParameterTitle()));\n\n    //  Require the reward to be less than or equal to the maximum reward parameter,\n    //  which basically is a hard, floating limit on the number of DID that can be issued for any single task\n    require(_reward <= distense.getParameterValueByTitle(distense.maxRewardParameterTitle()));\n\n    task.rewardVotes[msg.sender] = true;\n\n    uint256 pctDIDOwned = didToken.pctDIDOwned(msg.sender);\n    task.pctDIDVoted = task.pctDIDVoted + pctDIDOwned;\n\n    uint256 update = _reward == 0 ? pctDIDOwned : (_reward * pctDIDOwned) / 100;\n\n    if (_reward > task.reward) {\n      task.reward += update;\n    } else {\n      task.reward -= update;\n    }\n\n    LogTaskRewardVote(_taskId, _reward, task.pctDIDVoted);\n\n    if (task.rewardStatus == RewardStatus.Default)\n      task.rewardStatus = RewardStatus.Tentative;\n    task.numVotes += 1;\n\n    if (task.pctDIDVoted > pctDIDVotedThreshold || task.numVotes > minNumVoters) {\n      LogTaskRewardDetermined(_taskId, task.reward);\n      task.rewardStatus = RewardStatus.Determined;\n    }\n\n    return true;\n\n  }\n\n\n  function getTaskReward(bytes32 _taskId) public view returns (uint256) {\n    return tasks[_taskId].reward;\n  }\n\n\n  function setTaskRewardPaid(bytes32 _taskId) public onlyApproved returns (bool) {\n    tasks[_taskId].rewardStatus = RewardStatus.Paid;\n    return true;\n  }\n\n\n  modifier hasEnoughDID(address voter, uint256 num) {\n    DIDToken didToken = DIDToken(DIDTokenAddress);\n    uint256 balance = didToken.balances(msg.sender);\n    require(balance > num);\n    _;\n  }\n\n}\n",
  "sourcePath": "/Users/john/distense-contracts/contracts/Tasks.sol",
  "compiler": {
    "name": "solc",
    "version": "0.4.18+commit.9cf6e910.Emscripten.clang"
  },
  "schemaVersion": "1.0.1",
  "updatedAt": "2018-01-07T15:28:18.950Z"
}